:1000000000400020457900008579000087790000D4
:1000100000000000000000000000000000000000E0
:1000200000000000000000000000000089790000CE
:1000300000000000000000008B7900008D790000B6
:100040008F7900008F790000998300008F7900007C
:100050008F790000000000007D7A00008F79000099
:100060008F790000B97D0000116900008F790000D0
:100070008F7900008F7900008F7900008F79000060
:100080008F790000157B00008F7900008F790000C8
:100090008F7900008F7900008F7900008F79000040
:1000A0008F7900008F790000000000000000000040
:1000B0000000000000000000000000000000000040
:1000C000054B0648033310B51B1A062B03D9044B06
:1000D000002B00D0984710BDDC040020DC04002079
:1000E000000000000648074910B5091A8910CB0F17
:1000F0005918491003D0044B002B00D0984710BD6D
:10010000DC040020DC0400200000000010B5074CD7
:100110002378002B09D1FFF7D3FF054B002B02D02A
:10012000044800E000BF0123237010BDDC04002060
:1001300000000000ACBA0000094B10B5002B03D042
:100140000849094800E000BF08480368002B02D1B5
:10015000FFF7C8FF10BD064B002BF9D09847F7E713
:1001600000000000E0040020ACBA0000D804002029
:1001700000000000164B002B00D1144B9D4640227E
:1001800092029A1A924600218B460F461348144A4F
:10019000121A08F0BBFC0F4B002B00D098470E4BF7
:1001A000002B00D098470020002104000D000D48CE
:1001B000002802D00C4800E000BF08F04DFB2000F2
:1001C000290008F007F908F031FBC04600000800DC
:1001D000004000200000000000000000DC040020BF
:1001E000F824002000000000000000007047808814
:1001F0007047C0887047000010B50400034B0360CF
:10020000083006F0BFFA200010BDC046ACAE0000BA
:1002100010B5052007F04AFE0B4C002803D107F06B
:1002200053FC20600FE007F04FFC2368C01A074B17
:10023000984208D9BFF34F8F054A064BDA60BFF3E7
:100240004F8FC046FDE710BDAC1B00208713000098
:100250000400FA0500ED00E0034B10B5010018683A
:100260000268926B904710BDB01B002010B50400CF
:1002700008F0C4F8200010BD10B5034A0349044833
:1002800008F026FC10BDC04603050000A0A9000030
:10029000DA1D00200200613A0123192A06D9002341
:1002A00019224138C0B282425B41DBB2180070476C
:1002B000030009220020303BDBB29A424041C0B229
:1002C00070472022010091430A00413A03000120B7
:1002D000052A06D900200922303BDBB29A42404170
:1002E000C0B2704710B5040008F02AFF210008F0E2
:1002F00055FA013108B210BD013AD2B2FF2A06D038
:100300008B5C013AD2B28342F8D1012000E0002098
:1003100070470000054A10B5138819B27F2903DC25
:10032000034C01336054138010BDC046E822002006
:10033000F808002010B5002902D1FFF78DFF11E069
:10034000022904D10100084805F095FB0AE00329C1
:1003500002D1FFF7DFFF05E0052903D101000248C4
:1003600005F038F910BDC046501B002010B500281C
:1003700005D1064B186803681B6E984704E00328F4
:1003800002D10730FFF7C6FF10BDC046B01B0020EA
:10039000214B10B51A689389D1894B439BB2834294
:1003A00001D9936807E0A0221C4BFF32C31899B211
:1003B000914202D81A48C0182CE01A4BC3189AB2BE
:1003C000FF2A01D81848F6E7184B194AC31899B202
:1003D000914202D8174A1068EDE7174B174AC31825
:1003E00099B2914201D81648E5E7164B164AC31850
:1003F0009BB2934204D8154BC018154B1B68DAE723
:10040000144BC418A3B200201A2B03D8124805F0CD
:100410006DF8001910BDC046B01B002000E7FFFFBB
:10042000341C002060E5FFFFFC09002060E4FFFFB2
:10043000FF0F00000400002060D4FFFFFF03000056
:10044000F804002060D0FFFFFF07000063D0FFFF2B
:10045000F402002060C8FFFF501B002010B504000C
:1004600008F0CEFE0022013880B2002807D0231801
:100470001978202903D101381A7080B2F5E72000DD
:1004800010BD00000649074A0B681878132802D0EF
:100490001123137001E001330B6010787047C046E0
:1004A000C41A0020F91A00200649074A0B68187878
:1004B000142802D01123137001E001330B6010786F
:1004C0007047C046C41A0020F91A00200300303BD0
:1004D000DAB29BB2092A0CD90300613B052B01D883
:1004E000573805E00200413A0023052A01D8373881
:1004F00083B2180070470000F8B50D4C0500206865
:100500000F00867F002E03D0036800211B6B9847E5
:100510002878002804D039000135FFF70BFFF7E7F2
:10052000002E04D02068012103681B6B9847F8BD9A
:10053000B01B00202023F0B585B00E1E029201935F
:1005400003DA4E42103336B20193002803DA4442F4
:10055000A4B2012301E0002384B200220627009305
:10056000174B9A71039320000A2108F02DF87D1E85
:10057000039B3031EDB2595520000A2107F09EFF50
:1005800084B2002C01D02F00EDE7009B002B04D09B
:100590002D23BD1E0A4AEDB253550624641BB442F6
:1005A00006DA02990198013EFFF7C4FE36B2F6E77B
:1005B000034B02995819FFF79FFF05B0F0BDC046E5
:1005C000B41B0020F8B585B217480423854207D82C
:1005D000013BFF2D04D80C33AB429B415B420133FE
:1005E000002905D089B2181C8B4200D2081C83B2A6
:1005F00000240F210D482F00A60076420C3637410B
:100600003E000E4037003737092E01D8303637000C
:1006100027540134042CEED10021E31A0171C018D3
:100620001100FFF769FFF8BDFF0F0000B41B0020A9
:10063000F7B583B201930F240023114E019D0120D1
:10064000254105402F308446AC446746301BC773B4
:100650003000002B03D1002D01D0631C9BB2013C64
:10066000ECD2002489B204741C1C8B4200D20C1CF6
:10067000A4B2001B10301100FFF73EFFF7BDC046CB
:10068000B41B0020F7B500240226394D2868036802
:10069000DB6B98470D2802D1002C17D01CE00328F3
:1006A00003D11922334B1A7016E01B28F9D0082801
:1006B00051D07F284FD0002C06D103002B3BB343F1
:1006C000DBB2002B02D13EE0052C37D80300303BD3
:1006D000DBB2092B37D931E00020FFF747FE0023BA
:1006E000254D2B552A782B2A03D02D2A03D10123FF
:1006F00001E0012200E01A001E4900260F78019156
:100700000A2130008C46AC5C002C0ED0614641437F
:100710003039091989B2013200B20CB2D2B2A0420A
:1007200001DD012602270800EDE7002E01D0019A25
:100730001770002B1AD0404280B217E02868036877
:10074000DB6A9847A1E7651C0B4BEDB21855FFF724
:1007500083FD2C0099E7002CF0D0286805F0FFFC01
:10076000013C2868E4B205F0D4FB8EE700B2FEBD80
:10077000B01B0020F91A0020B41B0020F7B50700B9
:1007800001261A4C0191019B9E4204D923B20025F7
:10079000013313D128E000251548AB0032003900A1
:1007A000185808F035FD002804D1731C0096ACB22F
:1007B0009EB2E8E70135BB2DEED1E7E70C4AAB006E
:1007C0009C58200008F01CFD009B984208D11A009C
:1007D0003900200008F01CFD002801D1ACB203E074
:1007E0000135BB2DEAD1014C20B2FEBDFFFF000058
:1007F00008000020F0B50024B04D85B02B78002B08
:1008000019D02B78202B1CD0093B042B1BD818E0C7
:1008100010B27E31091A8C4220DA601CA849C0B29D
:10082000DBB20B550400013A92B216B2013600D089
:100830008EE0C318DCB2C022A14B601C1A55C0B2B6
:1008400039E10135DDE7280008F0DAFC81B2280043
:10085000FFF794FF071E66DB7E2C01D90422E2E03D
:10086000974BBA001F55974B661CD05808F0C8FC30
:10087000F6B22D18152F2FD12878FFF722FD00286A
:1008800000D1E0E000270195019B3F010133019376
:10089000013B1878FFF71AFE019BBFB25B1B9BB2AE
:1008A0000293019B3F181878BFB2FFF70AFD00289A
:1008B000EAD1029B042B01D90222B4E07C2ECDD8D0
:1008C000BD227F4B019D1A559F55E61C0234E4B2B0
:1008D0003F12F6B21F55B6E0162F23D12B78303BCE
:1008E000012B00D9AFE02A0000230132511E097804
:1008F0005B001078303B5B183038511B9BB289B2DB
:100900000128F2D91029D7D87C2EA7D8BE206C494F
:10091000150008558B55E61C0234E4B21B12F6B2E2
:100920000B5590E034009F2F01D00D2F16D12B785E
:10093000202B00D189E0093B042B00D885E000235F
:10094000E95C9AB2581C002900D161E70300F7E77F
:100950002F78661C0F550135F4B264E7002F00DBD9
:100960004CE72E783300303B092B2AD88020002317
:100970000A2100024B4301356A1E1278303BD3181E
:10098000834299D82A78303A092AF3D97C2C00D9A5
:1009900064E780214A4A09028B4206D1002C04D028
:1009A0001119013909780E2986D1BB21601C115516
:1009B000C0B2A11C1354C9B203341B0AE4B253548D
:1009C0001CE7222E0BD100236E1CE91849789AB23D
:1009D00022293CD0581C002939D00300F5E730000B
:1009E000FFF758FC00281DD07D2C00D936E73300D6
:1009F000613B192B01D8203EF6B26B78413E1A00BC
:100A0000303AF6B2062A52D9002301202C49032C91
:100A10000DD90A19971E3F78BF2F08D1043A1278D2
:100A2000BF2A04D11722284B00201A7043E0BF22AE
:100A30000A55A53A5343671CFFB20234F618E4B2D4
:100A4000CE552D18DAE63400D8E601356FE77F2160
:100A500010B2091A8C4200DB00E7BC21184FA01C21
:100A60003955D9B20191694601340979E4B2C0B26D
:100A70003955350004000397013A92B217B2791C38
:100A80000AD02F78611CBC4602916146039F013554
:100A9000395569460C7AEFE79DB275192B78019AA2
:100AA000223B81185A425341CCB2ED18A6E62F3BA7
:100AB000DBB20220AAE705B0F0BDC046B41B00209F
:100AC0007A09002008000020F91A0020064B1B6854
:100AD00018000278002A01D08018FAE7181A034B90
:100AE000C31818B27047C04604000020FF0F000072
:100AF0000378002B04D0837840781B02184300E071
:100B0000014800B27047C046FFFF000070B5060004
:100B1000064B1C682578002D06D02000FFF7E8FF63
:100B2000B04201DA6419F5E7200070BD040000202E
:100B3000F8B50D4B47781C68851C2678002E0ED022
:100B4000E378BC2B09D12379BB4206D1611D3A0061
:100B5000280008F07FFB002803D0A419EDE730003F
:100B600000E02000F8BDC04604000020F8B50700F2
:100B70000024084B1D682E78002E08D02800FFF7AF
:100B8000B7FFB84204DA0134A4B2AD19F3E7024C5E
:100B90002000F8BD04000020FF7F00000378C02B78
:100BA00019D0BC2B0FD006D8092B0AD0BB2B0ED0E6
:100BB000072B10D00DE0BE2B09D9BF2B09D1023075
:100BC000ECE7013008E043780133C018E6E7033072
:100BD000E4E70130E2E7002070470000F7B50700C6
:100BE00000240B4B01911D682E78002E0DD028009B
:100BF000FFF77EFF002808DBB84204DB019B984228
:100C000001DC0134A4B2AD19EEE72000FEBDC04600
:100C10000400002070B5FFF759FF204D2B78984253
:100C200003DA05221E4B1A7037E02800FFF760FF39
:100C30000600FFF76BFF0400FFF75AFF864210D152
:100C400021002278A2181078002809D000238342BE
:100C500002D1C918D218F6E7D65CCE540133F6E7B4
:100C600008702878042818D021000B78002B01D0B8
:100C7000C918FAE70A1B013292B20818524293428D
:100C800003D0CE5CC654013BF9E700232978994292
:100C900003D0EA5CE2540133F9E770BD7A09002021
:100CA000F91A0020F7B504000D002378C02B00D1FD
:100CB000C8E0BA2B3FD8644A9B0029009858FFF738
:100CC0001BFC67780C2F21D0267877225F493000F3
:100CD000FFF712FB002806D03B225D493800FFF7E2
:100CE0000BFB002803D00C3E012E0BD80EE0142E77
:100CF0000CD1C02F0AD01B2256493800FFF7FCFA4E
:100D0000002803D129002020FFF714FB23789F2B14
:100D100003D1A61C6478341904E00D2BF9D0661CAD
:100D20003400C2E7B44200D18CE030782900FFF7EC
:100D300001FB0136F6E7BB2B09D1A07863780002EE
:100D4000184300B22A000021FFF7F4FB24E0BD2B7A
:100D50000DD129002420FFF7EDFAA0786378000276
:100D6000184300B22A000221FFF72CFC14E0BE2B2E
:100D700015D160202900FFF7DDFAA3786078002BF9
:100D800005D01B02034318B22A00102102E02A00FA
:100D9000082100B2FFF74CFCE61CE07818E0BF2BFE
:100DA0001FD167781A21380007F00EFC4131C8B214
:100DB0002900A61CFFF7BEFA192F08D91A213800FE
:100DC00007F07CFB2F30C0B22900FFF7B3FAA07800
:100DD0001B222049FFF790FA0028A1D129002030DA
:100DE0002AE0BC2B2BD16378002B06D0E218527876
:100DF000222A04D0013BDBB2F6E7222300E02723BE
:100E0000019329000198FFF795FA6678A71CBE198F
:100E1000BE4205D038782900FFF78CFA0137F7E792
:100E200029000198FFF786FA3378BF2B02D0092BEF
:100E300000D075E729002020FFF77CFA70E7182220
:100E4000054B1A70F7BDC04608000020E0A700005F
:100E500057A80000E4A30000F91A002002230200B2
:100E60009A4310B5131E0BD000230E4A13700E4A7E
:100E700013700E4A11680B7012680D4B1A6010E067
:100E80001400D2220B4952005C5202339342FBD130
:100E900000231900084A99520233C82BFBD10228BB
:100EA000E2D110BDFA090020F81A00200400002049
:100EB000281B0020341C0020FC090020F0B5484EFF
:100EC00085B034682378BB2B13D12000FFF710FEC8
:100ED0000A27E31C3360E37885B2BB420BD1237948
:100EE000201D30601722BB2B10D1FFF701FE87B207
:100EF00001E00A273D003B4C00202100FFF76EFE79
:100F00000394002D01D0002F03D11422364B1A7008
:100F100063E0013880B27843039B40199842F4DCC7
:100F2000324B334E1B68336033681A780292002AC2
:100F300041D0002401330193029B013B9C4236DAED
:100F4000019B1B5DBC2B27D004D8012B08D9BB2BE0
:100F500028D029E0BE2B25D9BF2B25D1023424E08F
:100F6000631C019A9BB2D21800921278BB2A01D05E
:100F70001C00E1E70098FFF7BBFD80B2FFF7F6FD2C
:100F8000039B0434984210D07843281880B2009A0A
:100F900003129370507008E00134019AA3B2D25C3E
:100FA0009C1802E0033400E00134A3B2E0E73268A9
:100FB0001378D318B7E70D4B1B68336033681A7882
:100FC000002A0AD05D7032682B12937032687D1946
:100FD0001378ADB2D3183360F0E705B0F0BDC0466A
:100FE000C41A0020FF7F0000F91A0020040000202E
:100FF000281B002070B50C4DC4B20E002800210043
:1010000004F049FA002804D11622084B01301A7066
:1010100009E03000FFF722FF054B21001A68280085
:1010200004F047FA002070BD1E1B0020F91A0020B2
:101030000400002070B50B4B1C78002C03D000225C
:10104000A4B21A700BE0084D286803681B6C98471F
:10105000002804D028680368DB6B984784B220B26C
:1010600070BDC046C81A0020B01B002010B5074B49
:1010700002001B78002B07D005480121002A01D06F
:101080000022110004F05FFB10BDC046D81D0020F7
:10109000501B002070B50B4C2378002B10D0012082
:1010A000FFF7E4FF084D280004F0BEF8280004F024
:1010B000FBF80020FFF7DAFF0023044A23701380B7
:1010C00070BDC046D91D0020E02200205023002022
:1010D00010B5074B1B78002B08D00120FFF7C6FF87
:1010E000044804F0A1F80020FFF7C0FF10BDC0467F
:1010F000D91D0020E022002010B5094B1B78002BE1
:1011000003D11D22074B1A7008E00120FFF7AEFF44
:10111000054803F085FF0020FFF7A8FF10BDC0467B
:10112000D91D0020F91A0020E0220020F7B50700A1
:101130000E0007240025019200933000009906F06C
:101140009FFE019B3800002B05D106F0AFFE072360
:101150001B1B984002E006F0A9FEA0400099054341
:101160004B4259413000EDB206F08AFE013CE4D218
:101170002800FEBD37B5294804F032F9019001A8D6
:1011800007F090FB0421040002254369244A4942E8
:10119000981800B20022FFF7CDF92F20FFF75CF876
:1011A00023696D42581C2900002200B2FFF7C2F9E2
:1011B0002F20FFF751F80C23E05E00222900FFF7F3
:1011C000B9F900211748FFF797F91822A35E164ACC
:1011D0009B0098580021FFF78FF900211348FFF773
:1011E0008BF929000823E05E0022FFF7A3F93A20DB
:1011F000FFF732F829000423E05E0022FFF79AF996
:101200003A20FFF729F829000023E05E0022FFF7CB
:1012100091F90020FFF7AAF837BDC04654230020FB
:101220006C0700001CA4000000A400001FA4000024
:10123000F7B52D4D04002868002103681B6B984703
:101240002A4A2B4F13780192002B3DD0294A9B004C
:101250001168294A126891422FD380204001121848
:1012600091422AD2254E32681278002A25D0002CCD
:1012700023D1F8582100FFF73FF921002048FFF75C
:101280003BF93068FFF734FC22002100FFF752F9E8
:101290002000FFF76BF83068FFF72AFC22002100DE
:1012A000FFF748F921001748FFF726F930682100B9
:1012B0000330FFF7F7FC200004E0F8580021FFF7A7
:1012C0001BF90020FFF752F838680021FFF714F9E6
:1012D0000020FFF74BF80023019A28681370036879
:1012E00001211B6B9847F7BDB01B0020F91A0020A5
:1012F00008030020C41A002004000020281B00203E
:1013000022A4000082A40000F8B5070000250B4BC2
:101310001C682678002E07D02000FFF7E9FBB842B2
:1013200002DA2500A419F4E7002D03D02800FFF706
:10133000DFFB00E0024800B2F8BDC0460400002018
:10134000FFFF000070B50500FFF7E0FB0400FFF7AA
:10135000CFFB854204D120782018FFF7C9FB00E0BD
:10136000014800B270BDC046FFFF0000F8B507009D
:10137000FFF7CCFB0500FFF7BBFB0024874217D12A
:101380000C4E0D4B2100802230001C8007F0BEFB6C
:10139000032221003800FFF7CDF82020FEF7BAFF26
:1013A000E81C0321FFF77EFC2000FEF7B3FF3400AA
:1013B0002000F8BDF8080020E822002037B56B4671
:1013C000DC1D74230120237007F06EFB050007F07D
:1013D00075FB00211D48FFF78FF82014002204211F
:1013E000FFF7F0F8002220B20421FFF7EBF800200D
:1013F000FEF7BCFF00211648FFF77EF828140022F4
:101400000421FFF7DFF828B200220421FFF7DAF801
:101410000020FEF7ABFF00210E48FFF76DF8002219
:10142000601B110000B2FFF785F80020FEF79EFF59
:1014300000210948FFF760F80022C1201100FFF7E2
:1014400079F80020FEF792FF37BDC04627A40000C0
:1014500032A400003DA4000048A40000034A116823
:101460000B780133CB1813607047C046C41A0020B4
:1014700010B50B480378012B03D80722094B1A70CB
:101480000DE05A1E0849D2B29200023B5458DBB21A
:10149000064A03709B0014605A58054B1A6010BD31
:1014A000FA090020F91A0020CC1A0020C41A0020E2
:1014B000281B0020F0B5224E09223078042813D9C9
:1014C000204A214C431E9B00195913685D1C15606E
:1014D0001D78BF2D01D00A2206E09D1C15605A78A8
:1014E0000BB29A4203D00B22184B1A7026E0184D0B
:1014F000831E52009B001959535B8FB25B189BB23D
:101500005353C21E92001259451F92B2090404D5CA
:101510001BB212B2934208DA05E0002F05D019B2CF
:1015200012B2914201DD357008E0031F9B00E258C2
:10153000044B1A60AB00E258064B1A60F0BDC0467F
:10154000F81A0020C41A0020EC220020F91A00200A
:10155000341C0020281B0020044A13681978C02975
:1015600002D001331360F8E77047C046C41A002068
:10157000044A11680B78002B02D0CB181360F8E7EF
:101580007047C046281B002037B5164B164A1978FD
:10159000164811805A78164B164D1A800023037195
:1015A0004371154B2A001549036007F029F9144CC3
:1015B000144B20000830236005F0D0F82A001249AF
:1015C000200007F01DF90423802280210093D2001F
:1015D000DB1849000D4803F01BFF1D210C4806F0E5
:1015E0007FF837BDA0A900002C1B0020301B002075
:1015F00078090020000000202CAF0000ED01000061
:10160000501B0020ACAE0000F90100001E1B0020A2
:10161000FC1A0020F0B587B0FEF734FF0023011E4E
:10162000994200D07BE002AB9C1D7F220123200069
:1016300001F0AEF9011E48D104AE0123394A300051
:1016400001F0A6F9011E40D10A2702ABFF18354A66
:101650000123380001F09CF9011E36D10123314AE3
:1016600005A801F095F9011E2FD10E2502ABED184A
:101670002C4A0300280001F08BF9002825D1FEF741
:1016800013FF002821D13088FEF782FE02AB0090C4
:101690009889FEF77DFE009B0190002B12D0002858
:1016A00010D030883B88C01880B2FEF771FE002849
:1016B00008D002AB98892B88C01880B2FEF768FE6C
:1016C000002804D11522184B1A70002327E0174E6A
:1016D0002178300005F088FF3A88002A04D012B241
:1016E0000099300005F097FE300005F0E7FF2A88EA
:1016F00080B20300002A12D0002810D1217812B243
:10170000300005F06CFF019C300005F097FE0028CA
:10171000DBD0300005F097FE20700134F4E718B2FA
:1017200007B0F0BDFF7F0000F91A00207C230020E5
:1017300073B5AE4802680500511C016013785B2B3D
:1017400000D10FE268D8402B00D185E135D8392B84
:1017500000D103E11CD8132B00D1D8E008D80E2B00
:1017600000D1CAE00F2B00D008E2FFF7E1FFC7E08D
:10177000262B00D1C7E0282B00D1CCE0252B00D0B0
:10178000FCE1FFF7D5FF6A4643424341D3800BE2B9
:101790003C2B00D1F7E008D83A2B00D10CE13B2BD1
:1017A00000D0EBE102F0F8FAAAE06A46961D3E2B63
:1017B00000D1F3E000D8C2E001E1472B00D194E171
:1017C00016D8432B00D1F4E008D8412B00D16EE1AC
:1017D000422B00D0D2E100F0D1FC91E06A46941D8A
:1017E000452B00D166E100D967E100F023FF4FE10E
:1017F000572B00D164E108D8482B00D191E1492B47
:1018000000D0BBE102F062F87AE06A460632592B5A
:1018100000D15EE101235DE18A2B00D161E12FD887
:10182000832B00D19EE116D87F2B00D190E107D801
:101830007D2B00D19EE17E2B00D09FE10B229AE10F
:101840006A460632812B00D186E100D987E1684BD8
:101850001B68DB893EE1862B00D183E107D8842B0E
:1018600000D181E1852B00D088E1624A83E16A469C
:101870000632882B00D12FE100D92FE1C8232EE1B9
:10188000B22B00D11FE114D88D2B00D16CE106D80A
:101890008B2B00D127E18C2B00D163E16EE18F2BE4
:1018A00000D165E100D261E1902B00D066E1042215
:1018B00061E1BB2B18D008D8B32B00D106E1B62BC1
:1018C00000D05BE102F018FA1AE0BD2B00D255E11E
:1018D000BE2B09D9BF2B00D050E1931C0360537875
:1018E000454A5B009A5A46E1937851781B020B43B4
:1018F00069460332CB802A6056E1FFF719FF404268
:101900006B46D88050E1FFF713FFC043F8E7026051
:1019100000F072FAF4E700F06FFA6B46374A0633CC
:1019200011781880002900D03EE1632802DD0323EE
:10193000137039E1324A4000825A1A8034E100F0D3
:101940005BFA2E4B30801A78002A00D02CE114323A
:10195000002800DA27E1FEF7C5FC2DE100F04CFA83
:101960006B46284906331880244A884201D1022157
:1019700011701278002A00D016E1002800DB13E174
:101980004042188010E1FEF77DFD002800D00BE1F9
:10199000FEF78AFD002800D006E108E1FEF772FD9F
:1019A000002800D000E1FEF77FFD002800D0FBE01A
:1019B00000E100F00DFEA3E702F0C6FBA0E7FEF792
:1019C00061FD041E00D0EFE02B681A78BF2A1BD1FE
:1019D0005A1C2A605B78084A5B00985AFEF7D8FCCC
:1019E000037833802B6801332EE0C046C41A0020F0
:1019F000B01B0020A02B0000341C0020F91A00208E
:101A0000FC0900200080FFFF282A14D101332B603D
:101A1000010003003B32300000F0BAFF002800D084
:101A2000CCE00022B35E664A5B00985AFEF7B0FC39
:101A3000037833800DE0BC2A08D15A1C2A605978FB
:101A400031805B780133D3182B6002E017225D4BA5
:101A50001A70FEF729FDA7E0694653788C1D132BF9
:101A600007D19378142B04D1002303322380026022
:101A700007E000F0C1F9534B20801B78002B00D009
:101A800092E02388002B05D106F01EF84004400C9C
:101A9000208089E0012B06D106F016F8FA21890092
:101AA00006F00CFDF2E70023142223807AE000F018
:101AB00043FB25E701F074FEEAE7FFF7ABFDE7E73C
:101AC00001F048FF1CE701F099FF19E701F0CBFF97
:101AD00016E70023138067E0D52300E0DD235B01D8
:101AE000F8E7394A47E0394A45E0FEF7CBFC011EEA
:101AF0005AD16B469C1D20220300200000F048FFB5
:101B0000002851D1FEF7D0FC00284DD12088304A62
:101B1000C3B2D35C1B22DB0744D500B206F0C6F982
:101B2000B6E7FEF7AFFC00283ED16B469C1D0023B4
:101B300020221900200000F02BFF002834D1FEF7EE
:101B4000B3FC002830D10023E05E06F025F89FE7C3
:101B5000204B1B689A890EE01F4B9B88BAE71E4BEF
:101B6000DB88B7E7002206E0012204E0022202E05F
:101B7000032200E005226B46DA8015E02A60137824
:101B80001C005C3CE2B2202A08D91A006F32D2B2A3
:101B9000032A06D8913B114A9B009C58A4B22960A5
:101BA0000CE01722074B1A706B46DC8806E0FEF744
:101BB0008DFFA5E6FFF73EFA3080F5E720B276BD4F
:101BC000FC090020F91A0020A02F0000A037000017
:101BD00092A80000B01B0020501B0020B4A80000F9
:101BE00070B5FFF7A5FD2F4D04002B78002B54D1C5
:101BF0002D4A136818781038172850D806F04AFC78
:101C00000C121F4F4F4F4F2A313F394F4F4F4F4FFD
:101C10004F4F4F4F4F4F4F4601331360FFF788FD33
:101C2000604331E001331360FFF782FD011E02D1F2
:101C300001232B7031E020B206F0CAFC24E001330E
:101C40001360FFF775FD011EF2D020B206F0A6FD6D
:101C50008CB2CDE701331360FFF76AFDA4B2844074
:101C600005E001331360FFF763FDA4B20441A4B2A1
:101C7000BEE701331360FFF75BFD204004E0013352
:101C80001360FFF755FD204384B2B1E701331360C1
:101C9000FFF74EFD604080B202E0044800E0200003
:101CA00000B270BDF91A0020C41A0020FFFF000026
:101CB00010B5FFF795FF0E4B04001B78002B13D1D6
:101CC0000C4A136819780E2907D00F290DD101335A
:101CD0001360FFF785FF241804E001331360FFF75A
:101CE0007FFF241AA4B2EBE7034C20B210BDC0461C
:101CF000F91A0020C41A0020FFFF000010B5FFF7FA
:101D0000D7FF2C4B04001B78002B4FD12A4B1A68AD
:101D1000511C196010781B38092845D806F0BAFB09
:101D20002A0C2005180C0C11333DFFF7C1FF24B21B
:101D3000241A60424441E9E7FFF7BAFF24B2241AAB
:101D40002FE0FFF7B5FF24B2012384420FDB0DE043
:101D5000FFF7AEFF22B2D40FC31790425C4110E0F0
:101D6000FFF7A6FF24B20123844200DC0023DCB28B
:101D7000A4B2CBE7FFF79CFF22B2D417C30F824275
:101D80005C41E4B2C2E7FFF793FF00239C4202D01C
:101D9000431E9841C3B29CB2B8E7FFF789FF0443E2
:101DA00024B2601E8441B1E71A6000E0034C20B207
:101DB00010BDC046F91A0020C41A0020FFFF000021
:101DC00070B505000C00FFF799FF094B28801A78C1
:101DD000002A0AD1002C08D006490A68501C086065
:101DE00012780A2A01D017221A70187870BDC046DE
:101DF000F91A0020C41A002013B5FEF743FB002196
:101E000088420DD16B469C1D2000FFF7D9FF0028AA
:101E100001D0002104E0FEF747FB0028F9D121881A
:101E200008B216BD7FB5244803F0DAFA019001A884
:101E300006F038FD00244369204A02AE9B18338027
:101E40000369013373808389B3808369F3801C4DF8
:101E50002B681A78BF2A0AD15A1C2A605A78610066
:101E6000705A18495200023350522B6013E0282A4E
:101E700017D101332B60FFF7BFFF134B1A78002AED
:101E800018D182B2632A01D903220CE06300F25A0E
:101E90000E4B4000C252032C0CD02B681A780A2A31
:101EA00003D01722084B1A7004E0013301342B6071
:101EB000042CCCD17FBDC046542300206C07000009
:101EC000C41A0020341C0020F91A0020FC0900204C
:101ED0007FB5214803F084FA019001A806F0E2FCE6
:101EE0000024038902AE3380838873800368B38043
:101EF0001A4D2B681A78BF2A0AD15A1C2A605A78C0
:101F00006100705A16495200023350522B6013E0A0
:101F1000282A17D101332B60FFF76EFF114B1A7877
:101F2000002A18D182B2632A01D903220CE063008F
:101F3000F25A0D4B4000C252022C0CD02B681A787A
:101F40000A2A03D01722074B1A7004E00133013428
:101F50002B60032CCCD17FBD54230020C41A002059
:101F6000341C0020F91A0020FC09002037B5254C4C
:101F7000200005F0A1FC200005F0B8FB6B4618809E
:101F8000200005F0B6FB6B465880200005F0B4FB3E
:101F90006B46002498801C4D2B681A78BF2A0BD101
:101FA00068465A1C2A605A786100405A1749520004
:101FB000023350522B6014E0282A18D101332B60D1
:101FC000FFF71AFF124B1A78002A19D182B2632A3E
:101FD00001D903220DE06A466300D25A0D4B40003E
:101FE000C252022C0CD02B681A780A2A03D017226E
:101FF000074B1A7004E0013301342B60032CCAD163
:1020000037BDC046FC1A0020C41A0020341C002032
:10201000F91A0020FC09002073B501AC0021200052
:10202000FFF7CEFE011E54D16D462A4AAE1D13683D
:1020300018780A2807D1013330001360FFF7C0FE7B
:10204000002846D101E02388338024880023F55EF0
:1020500023B29D4203DA14221F4B1A7039E0A4B256
:102060009D421BD12800FEF751FD0400FEF740FD04
:1020700085422ED12278A2181178002909D0002398
:102080008B4202D1E418D218F6E7D05CE054013359
:10209000F6E721701DE029700134A4B20022B35E7E
:1020A0009C4216DC20B2FEF731FD0500FEF720FD54
:1020B0008442F1D12A78AA1811780029EBD00023A4
:1020C0008B4202D1ED18D218F6E7D05CE854013308
:1020D000F6E773BDC41A0020F91A002073B501ACED
:1020E00001212000FFF76CFE011E22D16B469D1DD1
:1020F0002800FFF765FE021E1BD10E4B0026A15FD4
:1021000018688389994202DB013B238002E00029A1
:1021100000DA2280C38900216A5E9A4201DB013B1A
:1021200002E0002A01DA00232B802A88218804F0AB
:10213000ABF873BDB01B002037B5FEF7A3F9002440
:10214000A04217D16B469D1D21002800FFF738FEE5
:10215000A04201D000240DE0FEF7A6F90028F9D135
:102160002888FEF715F9002801D0047802E015222E
:10217000014B1A7020B23EBDF91A002073B5FEF76C
:1021800081F90024A04229D101AE01213000FFF7DE
:1021900017FEA04201D0002420E06B469D1D2100C7
:1021A0002800FFF70DFE0028F5D1FEF77DF9002885
:1021B000F1D131880CB2002CEDDB2A8813B2002B50
:1021C000E9DB074800688589AC42E4DAC489A342A8
:1021D000E1DA92B289B204F069F884B220B276BD35
:1021E000B01B002073B56B469C1C01212000FFF73B
:1021F000E7FD6B4601AD9E1D00280AD10121280094
:10220000FFF7DEFD011E04D13000FFF7D9FD0028E5
:1022100005D00022A35E002B01DA002323800022D8
:10222000AB5E002B01DA00232B800E480021625E9A
:1022300083889A4201DB013B2380C38800216A5EC8
:102240009A4201DB013B2B803388022B01D9012309
:10225000338000216A5E33880021615E03F087FAD3
:1022600073BDC046501B0020F0B50E2489B002ABF0
:10227000E41801212000FFF7A3FD122502ABED18A1
:1022800006AE07AF002818D101212800FFF798FDFE
:10229000002812D101213000FFF792FD00280CD157
:1022A00001213800FFF78CFD011E06D1162002AB7C
:1022B000C018FFF785FD002805D00022A35E002B83
:1022C00001DA002323800022AB5E002B01DA002319
:1022D0002B800023F25E0292002A01DA0023238081
:1022E0000023FA5E0392002A01DA00232B801A48A9
:1022F0000023E15E82880300914201DB511E2180B0
:10230000DB880020295E994201DB591E2980029951
:102310008A4201DC013A3280039A934201DC013B9C
:102320003B80162302AA9B181A88022A01D901228F
:102330001A800022B35E00216A5E0020215E162012
:1023400002AC0019008801900024385F0090024818
:1023500003F0E7FB09B0F0BD501B0020F0B50E24E0
:1023600087B06C44012120001226FFF729FD04AD3F
:102370006E4405AF002817D101212800FFF720FD8A
:10238000002811D101213000FFF71AFD00280BD1E0
:1023900001213800FFF714FD011E05D11620684405
:1023A000FFF70EFD002805D00022A35E002B01DA06
:1023B000002323800022AB5E002B01DA00232B8058
:1023C000154B0020215E9A88914201DB013A228060
:1023D000DB8800216A5E9A4201DB013B2B803B884F
:1023E000022B01D901233B800022B35E002B01DACE
:1023F000012333800022B35E00216A5E0020215E4B
:1024000016206844007840B2019038880090024855
:1024100003F0A3F807B0F0BD501B0020F0B58BB05F
:10242000012107A8FFF7CCFC002862D1162502ABDA
:10243000ED1801212800FFF7C3FC002859D108AE90
:1024400001213000FFF7BCFC002852D11A2702AB53
:10245000FF1801213800FFF7B3FC002849D109AC6F
:1024600001212000FFF7ACFC011E42D11E2302AA6D
:102470009B181800FFF7A4FC00283AD102AB9B8AF6
:1024800004936B461021595E002916DB2B880593B7
:102490006B4614229A5E002A0FDB33881EB29C46DC
:1024A000B1420ADC388803B29A4206DC124DAF888A
:1024B000BE4202DAED88AB4203DB14220F4B1A70E6
:1024C00017E02388022B01D9012323806346049D52
:1024D00001335B1B02ADAD7F01306DB202952488E4
:1024E0001BB20194059C001B00B20090024803F04F
:1024F00024FB0BB0F0BDC046501B0020F91A002091
:102500000E23F0B589B002AA9B1801211800FFF72D
:1025100057FC002855D106AD01212800FFF750FCDB
:1025200000284ED1122602ABF61801213000FFF729
:1025300047FC002845D107AF01213800FFF740FCD8
:10254000011E3ED1162402ABE4182000FFF738FC30
:10255000002836D102ABDB8902936B460821595E15
:10256000002916DB2B881AB29C46002A11DB33881F
:1025700003936B469B891EB2B1420ADC388807B2CE
:10258000BA4206DC104DAB889E4202DAED88AF42BB
:1025900003DB14220D4B1A7013E02588032D01D99B
:1025A000002525802478039B01946446029D013018
:1025B0000133001B00B25B1B00901BB2024803F00A
:1025C000DBF809B0F0BDC046501B0020F91A00200E
:1025D00073B5FDF757FF0024A04226D101AD0121BC
:1025E0002800FFF7EDFBA0421AD16B469E1D21008B
:1025F0003000FFF7E5FBA04212D1FDF755FF0028A0
:102600000ED10023E95E00290ADB0023F25E002AD6
:1026100006DB07488388994202DAC3889A4201DBC5
:10262000002402E002F0A9FF040020B276BDC046FB
:10263000501B0020F0B587B0FDF724FF03000020F9
:1026400083424DD10E246C4401212000FFF7B8FBDA
:10265000002824D104AD01212800FFF7B1FB002898
:102660001DD112266E4401213000FFF7A9FB00287E
:1026700015D105AF01213800FFF7A2FB011E0ED1D5
:1026800016236B441800FFF79BFB002807D1FDF7CA
:102690000BFF002803D10023E15E002901DA0020AE
:1026A0001EE00023EA5E002AF9DB0F488588A94274
:1026B000F5DAC488A242F2DA0023FF5E002FEEDBD7
:1026C0000023F35E002BEADB5E18B542E7DDBD18A0
:1026D000AC42E4DD6C46A47D0097019402F00EFF4D
:1026E00000B207B0F0BDC046501B0020F0B5584DF9
:1026F00085B02868012103681B6B98470121554C60
:102700000395236801911A78BC2A17D19A1C22607C
:102710005D782368002D07D05A1C22601878013D8F
:10272000FDF79AFDEDB2F4E71A780A2A03D01722D2
:10273000494B1A7083E00133236001952368464DAD
:102740005A1C22601A78282A3ED0BF2A75D100214F
:102750009A1C5E7822609A7802910A2A09D1033382
:102760002360FFF7CBFA2B780700002B67D10133EA
:102770000293019B002B17D0192E0DDD1A2130007A
:1027800006F00CF84131C8B2FDF766FD1A213000A1
:1027900005F01EFF2F3001E030004130C0B2FDF7E0
:1027A0005BFD3A20FDF758FDFDF76CFF2B78002B01
:1027B00007D0022B49D1029B002B46D000233800C2
:1027C0002B707600254B36E0FFF716FB2A780600C3
:1027D000002A34D10323632830DC2368029219785D
:1027E0000A2909D101332360FFF788FA2B78070003
:1027F000002B24D101330293019B002B0CD000212C
:102800001748FDF779FE002230001100FDF792FE17
:1028100000211448FDF770FEFDF734FF2B78002BE4
:1028200007D0022B0BD1029B002B08D000233800CD
:102830002B700D4B7600F05201E017232B70039B99
:102840000021186803681B6B984705B0F0BDC046AF
:10285000B01B0020C41A0020F91A0020341C0020EC
:1028600057A400005AA40000FC090020144A70B5C7
:102870001368591C116059781E2903D01222114B7C
:102880001A701CE0991C1C7811609978BC290DD134
:10289000DD25D91C0C481160DB7800686D01081A31
:1028A00001334019CB1880B2136005E0FFF726FA18
:1028B000044B1B78002B02D1044B6400E05270BD26
:1028C000C41A0020F91A002004000020341C002043
:1028D00070B5FFF791FA1D4B05001A781E00002A0B
:1028E00032D180B2632802D9032333702CE0184C14
:1028F000226812781E2A13D012221A7024E0FFF7E1
:10290000FDF93378002B1FD12BB2642BECD0114A88
:102910005B009852236801351B78ADB20A2B13D1A6
:1029200023685A1C22605A78BC2AE8D10A499A1CAA
:102930000868DD2122609B78101A49010133401894
:10294000D31880B22360DFE770BDC046F91A0020BB
:10295000C41A0020FC0900200400002010B50A4A17
:1029600013681978282906D0BF2909D101331360CB
:10297000FFF77CFF07E001331360FFF7A9FF02E0D8
:102980000E22024B1A7010BDC41A0020F91A002042
:10299000F8B5070015001C000E00FFF7AFF90C4B4F
:1029A00038801A78002A05D1B04201DBA84201DD47
:1029B000142209E0002C08D006490A68501C08605F
:1029C00012780A2A01D017221A701878F8BDC0466A
:1029D000F91A0020C41A00200021F0B53B4E85B042
:1029E0003B4F02AB03ADDE803B6829801B780400BF
:1029F000C02B07D1374B384E1B6833600022AB5ECB
:102A0000019320E00C2BF5D00B0032002800FFF7DB
:102A1000BFFF031E58D13A6811780A29EAD1013262
:102A200002A83A6006300022A95E3200FFF7B0FF2C
:102A3000002849D1DEE73800FEF75AF8019B98429A
:102A40002FDA7D19356037683D78002D3CD0F2E7EC
:102A5000224B186803681B6C984783B2002B25D162
:102A60003068FEF745F802AB063300229B5E8342D6
:102A70002ADB22000021FDF75DFD21002020FDF76B
:102A800059FC33682100D81CFEF70CF9144B1B7855
:102A9000002B19D12000FDF769FC32681378D31898
:102AA000336033681B78002BD2D10DE01BB20D4A86
:102AB000032B01D01B2B05D11921094B19700023C1
:102AC000137001E01070CBE705B0F0BDFF7F000090
:102AD000C41A002004000020281B0020B01B002086
:102AE000F91A0020C81A0020F7B56B460021072507
:102AF000344F9E1D01AC3B68218035801B78C02B74
:102B000001D1248842E00C2BFBD00B002A002000CE
:102B1000FFF73EFF031E54D121883A6831801078B8
:102B20000A28EED101323A6009B22A003000FFF7DC
:102B30002FFF002845D1E4E7E7B23900224802F030
:102B400072FC39000500204802F0A5FC00281BD0CB
:102B50001E480021FDF7D0FC0020FDF707FC2B7874
:102B60001B4F002B17D100251A4829003D70FDF797
:102B7000C3FC20B22A002900FDF7DCFC2800FDF789
:102B8000F5FB2800FDF7F2FB0134A4B20022B35E8E
:102B90009C42D1DD15E02800FDF7AAFF00221100BC
:102BA000FDF7C8FC2020FDF757FBE81C0021FEF7CD
:102BB00079F838780028D6D1FDF7D8FB2B78ED18B6
:102BC000CDE7F7BDC41A00201E1B00205DA4000045
:102BD000F91A002061A4000013B56B4600219C1D6A
:102BE0000A4B21801B681B78C02B06D1084B21782B
:102BF0001A68084802F035FC06E00B0007222000A6
:102C0000FFF7C6FE0028F1D013BDC046C41A00204D
:102C1000040000201E1B0020002337B501AC190062
:102C200007222000FFF7B4FE011E1FD16B46104A99
:102C30009D1D23882B80136818780A2801D02478DA
:102C400009E00133136028000B000722FFF7A0FE04
:102C500000280BD1F3E70022AB5E9C4206DC21008A
:102C60000448013402F0E8FBE4B2F4E737BDC046A3
:102C7000C41A00201E1B0020F0B5334E85B0336807
:102C800003AC1B78C02B01D00C2B05D100230722ED
:102C9000238002ABDA8021E0002307221900200004
:102CA000FFF776FE011E4CD1336802A81A78851D05
:102CB0000A2A07D1013328003360FFF781F8002882
:102CC0003FD101E023882B800023E25E00216B5E70
:102CD0009A4203DD14221D4B1A7032E01C4D2478F9
:102CE0002B68019302AB063300229B5E9C4226DCDC
:102CF000184F2100380002F096FB00220121060047
:102D000020B2FDF717FC00211348FDF7F5FB210069
:102D1000380002F0C0FB011E03D11048FDF7ECFBA8
:102D200007E02E603378002B03D0F01C0021FDF764
:102D3000B9FF00200134FDF719FBE4B2D2E7019B93
:102D40002B6005B0F0BDC046C41A0020F91A00205F
:102D5000281B00201E1B00203BA4000067A40000CD
:102D600037B56B4600219C1D114B21801B681B78D9
:102D7000C02B0CD12488002C13D10E4D286802F0F2
:102D8000EFFF22002100286803F07EFA0EE00C2BF2
:102D9000F0D00B0001222000FFF7FAFD002805D13A
:102DA000E8E7012C02D1044802F0BEFC37BDC04662
:102DB000C41A0020B01B0020501B002013B56B4626
:102DC0009C1D0023054A19002000FFF7E1FD0028A3
:102DD00003D10023E05E04F08FFE13BDFF7F0000EF
:102DE00013B56B469C1D0023012219002000FFF73C
:102DF000CFFD002807D101222178034802F0A3FC6F
:102E00002288024B1A7013BD501B0020D81D0020D1
:102E100037B500216B4601AD9C1D08220B00280030
:102E20002180FFF7B5FD011E15D10B4A13681878F4
:102E30000A2807D0094B22881868298803685B6C28
:102E4000984708E00133136020000B000822FFF7C9
:102E50009FFD0028EED037BDC41A0020B01B002013
:102E600013B56B469C1D0023042219002000FFF7B8
:102E70008FFD002805D1034B2188186803689B6CDF
:102E8000984713BDB01B002037B501AD00210123C9
:102E900020222800FFF77CFD011E19D16B469C1DE6
:102EA0002000FEF78DFF002812D10023E15E288864
:102EB0004B1E9941074AC3B2D35CC9B22180DB07DC
:102EC00003D41B22044B1A7002E000B204F0D8FFB6
:102ED00037BDC04692A80000F91A002037B501ADF1
:102EE0000021012320222800FFF752FD011E17D1E7
:102EF0006B469C1DFF2203002000FFF749FD0028C0
:102F00000ED12888074AC3B2D35C9B0703D41B2287
:102F1000054B1A7004E00023E15E00B204F0CAFE23
:102F200037BDC04692A80000F91A0020F7B501AEDF
:102F30000021012320223000FFF72AFD011E2DD1A0
:102F40006B469C1D802203002000FFF721FD002816
:102F500024D13378124AD35CDB0703D41B22114BF4
:102F60001A701BE0104B114D1A781F00002A02D076
:102F7000280002F099F90120FEF778F822883178CC
:102F8000280002F01DF8280002F04EF90020FEF79C
:102F90006DF8012322883B70054B1A80F7BDC046AF
:102FA00092A80000F91A0020D91D0020E02200207C
:102FB00050230020F0B5162701242F4B87B01B7833
:102FC0006F443C80002B03D11D222C4B1A7051E022
:102FD0000E202B4B00211A886844013A12B22300BC
:102FE000FFF7D6FC011E45D12300FF2204A8FFF7FE
:102FF000CFFC011E3ED112266E442300FF2230007A
:10300000FFF7C6FC011E35D105AD0300FF222800E5
:10301000FFF7BEFC011E2DD11A4A136818780A2842
:1030200011D00120FEF722F80022BB5E002B14D045
:103030006A46694628783378127CC989009012481C
:1030400002F01CF913E00133136038000B0022007A
:10305000FFF79EFC00280DD1E3E76A466946287811
:103060003378127CC9890090074802F0F3F80020F9
:10307000FDF7FCFF07B0F0BDD91D0020F91A0020B4
:1030800050230020C41A0020E022002013B50B4B6F
:103090001B78002B03D11D22094B1A700CE06B46E4
:1030A0009C1D0023032219002000FFF771FC00285B
:1030B00002D12288034B1A8013BDC046D91D0020BF
:1030C000F91A00201C1B0020F0B50E27012487B040
:1030D00002ABFF182A4B3C801B78002B03D11D222A
:1030E000284B1A704AE00A26274B00211A8802ABA7
:1030F000F618013A12B223003000FFF749FC011E16
:103100003CD105AD0300214A2800FFF741FC011E18
:1031100034D11F4A136818780A281ED01F212B8823
:103120001C4A9C120020105E5D110C400D4019409D
:1031300081408440854001200391FDF797FFE2B272
:103140006C460023F95E1448EBB2277B00290ED0B1
:103150003188009702F092F80DE0013313603800D7
:103160000B002200FFF714FC002807D1D6E73188B6
:10317000009702F06FF80020FDF778FF07B0F0BD70
:10318000D91D0020F91A002050230020FF7F0000E5
:10319000C41A00201C1B0020E0220020F0B50124EE
:1031A0008BB006ABDC81654B1D221B78002B4FD00A
:1031B000634D06A82A880021013A12B22300063086
:1031C000FFF7E6FB0095011E00D0B5E008AF230035
:1031D0005C4A3800FFF7DCFB011E00D0ACE00A259A
:1031E000009B00229A5E06ABED1828002300FFF733
:1031F000CFFB031E00D09FE009AE21000322300068
:10320000FFF7C6FB011E00D096E04F4A13681878FE
:103210000A280BD006AB06229A5E00216B5ED318FB
:10322000009A0021525E934211DC0BE00E20013324
:103230001360220006AC0B000019FFF7A9FB002861
:103240007AD1E7E73888FDF7A3F8041E03D11522E9
:103250003E4B1A7070E02B88308858433B88C0186A
:1032600080B2FDF795F80028F1D00022AB5E002077
:103270000293374B0027DF5FBB1C0193FB1C0393BA
:10328000344B5B68049306AB06229B5E05930023D8
:10329000F65E1F239C46029B98423DDA022E13D114
:1032A0004200A35CA21852781B02D31862466546FE
:1032B0009BB2991211405A112A40B940BA402B4092
:1032C00089B292B2BB4017E0032E06D133004343CC
:1032D000E15CE3185A789B780FE00725235C019A9C
:1032E000591191409A102A40019D89B2AA400325A4
:1032F0002B40039D92B2AB409BB200930323059DEC
:1033000045195D43049B01305D196B461B7869705C
:103310002A70AB7080B2BEE70E2306AA9B1800226B
:103320009B5E002B08D00120FDF7A0FE094801F0AC
:1033300077FE0020FDF79AFE0BB0F0BDD91D0020EE
:1033400050230020FF7F0000C41A0020F91A00203B
:103350001C1B0020E0220020F0B50124002185B0D4
:1033600002AB9E1CDC80444B03AD1B7831802C806B
:103370008B4203D11D22414B1A707AE0404F3B68CB
:103380001B78C02B04D13F4C6188012925D870E0FF
:103390000C2BF8D00B0022003000FFF7F9FA011EC9
:1033A00067D13B681A780A2AEDD101333B602200CD
:1033B00003002800FFF7ECFA011E5AD13B681A7887
:1033C0000A2AE0D101333B60030002A82200063044
:1033D000FFF7DEFA00284CD1D5E70022B35E4A1E83
:1033E000002B1DD10023EE5E002E05D063685978B6
:1033F0001F7801919E7801E03700019603256368EC
:103400006A435919180005F06CFB63885D436368D3
:10341000033D5D196B461B792F706B70AE7019E020
:103420000023EF5E002F08D003234B436168033B6A
:10343000CB181E785D789F7801E03D003E000323A5
:103440005A436368D81C190005F04BFB63681E7073
:103450005D709F7002AB063300229B5E002B08D08C
:103460000120FDF703FE200001F0DAFD0020FDF74A
:10347000FDFD05B0F0BDC046D91D0020F91A0020A1
:10348000C41A0020E0220020F0B585B001AF002171
:103490000123FF223800FFF77BFA011E3CD16B4667
:1034A0009E1DFF2201233000FFF772FA011E33D167
:1034B00002AD0123FF222800FFF76AFA011E2BD17B
:1034C0000A200123FF226844FFF762FA011E23D17C
:1034D0000123FF2203A8FFF75BFA011E1CD10E2473
:1034E0006C440300FF222000FFF752FA002813D19A
:1034F0000023FA5E05235343084A03331268D318A6
:1035000032881A702A885A706A4652899A706A46B6
:103510009289DA7022881A7105B0F0BDF402002099
:1035200073B50123002120226846FFF731FA011EFE
:1035300032D16B469E1C202201233000FFF728FA6F
:10354000011E29D1012301AC1A002000FFF720FA47
:10355000011E21D16B469D1DFF2203002800FFF7AD
:1035600017FA002818D16B4618880C4AC3B2D15CF0
:103570000123194204D03188CEB2925D1A4203D1A0
:103580001B22074B1A7007E00022AB5E09B2002233
:10359000A25E00B204F09CFC73BDC04692A800007D
:1035A000F91A002073B56B469C1D0023060023808A
:1035B000FCF768FF011E1ED101AD2800FEF700FCDC
:1035C000011E18D10C4A136818780A280AD0FCF793
:1035D0006BFF00280FD121780023E85E3200FCF752
:1035E000F1FF08E00133136020000B000422FFF715
:1035F000CFF90028EBD073BDC41A002073B56B4619
:103600009C1D002306002380FCF73CFF011E1ED1F9
:1036100001AD2800FEF7D4FB011E18D10C4A136837
:1036200018780A280AD0FCF73FFF00280FD121782C
:103630000023E85E3200FCF7FBFF08E00133136073
:1036400020000B001022FFF7A3F90028EBD073BD78
:10365000C41A002037B50400FCF714FF002817D166
:103660006B469D1D0023FF2219002800FFF790F9EB
:1036700000280DD121002878FCF75CFE054A13686C
:1036800019780A2902D101331360E9E7FCF70CFF2E
:1036900037BDC046C41A0020F0B587B00190FCF7D2
:1036A000F1FE011E71D13A4D2C682378BF2B0CD14D
:1036B000631C2B606378374A5B00985AFCF768FEFE
:1036C0002B680278441C01331EE0282B14D10134EE
:1036D00004AB2C609C1D632203002000FFF758F907
:1036E000002852D10022A35E2B4A5B00985AFCF7B7
:1036F0004FFE0278441C0DE0BC2B07D1631C2B60ED
:10370000637802349AB2E3182B6003E01722234B4C
:103710001A703AE004AB9E1C6B4601251C4905AFAC
:103720001A810B6835803A8018780A2807D0FCF790
:10373000BBFE002829D104AB5D88013D15E00133B3
:103740000B6012B22B0029003000FFF721F9031E95
:103750001BD132880299AA1A521812B229003800D5
:10376000FFF716F90028E2D00FE00022B35E05AAA9
:103770000021525E013BADB29B189D4205DA605DAF
:103780000199FCF7D7FD0135EFE707B0F0BDC04662
:10379000C41A0020341C0020FC090020F91A002063
:1037A000F0B587B0FCF76EFE0023011E994200D0F1
:1037B00083E002A801337F220630FFF7E9F8011EFB
:1037C00047D104AE01233E4A3000FFF7E1F8011E65
:1037D0003FD10A2502ABED18394A01232800FFF733
:1037E000D7F8011E35D105AF0123354A3800FFF760
:1037F000CFF8011E2DD10E2402ABE418304A03008D
:103800002000FFF7C5F8002823D1FCF74DFE002863
:103810001FD13888FCF7BCFD00903088FCF7B8FD5C
:10382000009B0190002B11D000280FD038882388EE
:10383000C01880B2FCF7ACFD002807D030882B8878
:10384000C01880B2FCF7A4FD002804D115221D4B3E
:103850001A70002331E01C4E02AB9979300003F05E
:10386000C3FE0022AB5E3500002B10D0019E0A2261
:1038700002A9019B5218F31A0021525E9BB2934297
:1038800005DA3178280003F0E3FD0136EFE7002286
:10389000A35E002B0DD0009E009B0021625EF31AF8
:1038A0009BB2934205DA3178280003F0D1FD01364E
:1038B000F2E7280003F002FF83B218B207B0F0BDB0
:1038C000FF7F0000F91A00207C230020F7B56B462B
:1038D00001249D1D2C80FCF7D5FD011E01D0002088
:1038E00033E0230020226846FFF752F8011EF6D18C
:1038F0006B469E1C202223003000FFF749F8011E72
:10390000EDD101AF030022003800FFF741F8011E9E
:10391000E5D10F4A136818780A280CD0FCF7C4FDCB
:103920000028DCD168462B783A7831780078FDF7AA
:10393000FDFB80B209E00133136028000B00220078
:10394000FFF726F80028E9D0C9E700B2FEBDC0465F
:10395000C41A0020F7B56B4601249D1D2C80FCF78E
:1039600091FD011E01D0002041E023002022684685
:10397000FFF70EF8011EF6D16B469E1C22002300B5
:103980003000FFF705F8011EEDD101AF0300194A21
:103990003800FEF7FDFF031EE5D117490A681078CD
:1039A0000A2804D0FCF780FD0028DCD109E00132B0
:1039B0000A6028000F4A2100FEF7EAFF0028F1D034
:1039C000D1E70023FA5EFA239B005A430023F15EFD
:1039D0006B460020185E04F0ADF80023E95E04F0A9
:1039E0006DFD044B984201DD0120404280B200B2DF
:1039F000FEBDC046FF7F0000C41A0020F7B5FCF7EB
:103A000041FD0024A0422CD16B469F1C1F220123A4
:103A100021003800FEF7BCFFA04201D0002420E0C6
:103A200001AE01231F2221003000FEF7B1FF002864
:103A3000F4D16B469D1D1F22230021002800FEF7B4
:103A4000A7FF0028EAD1FCF72FFD0028E6D10023CC
:103A5000FC5E0022B35EA4025B0128881C43044381
:103A6000A4B220B2FEBDF7B5FCF70CFD0024A042C5
:103A70002CD16B469F1C0722012321003800FEF742
:103A800087FFA04201D0002420E001AE01230722DD
:103A900021003000FEF77CFF0028F4D16B469D1D0D
:103AA0000322230021002800FEF772FF0028EAD13C
:103AB000FCF7FAFC0028E6D10023FC5E0022B35E8E
:103AC00064019B0028881C430443A4B220B2FEBDBD
:103AD000F0B58DB001232A4A2A496846FEF758FFFF
:103AE00000284AD16B469F1C01230C221900380084
:103AF000FEF74EFF002840D1012301AE19001F221E
:103B00003000FEF745FF011E37D16B469D1D172281
:103B100001232800FEF73CFF011E2ED102AC012339
:103B20003B222000FEF734FF011E26D103000A20AD
:103B30003D226844FEF72CFF00281ED16B46002270
:103B40009B5E114A0B909B1808930022BB5E03A852
:103B5000013B07930022B35E06930022AB5E059300
:103B60000022A35E04936B460A229B5E039305F03A
:103B7000A1F80100054801F023FC0DB0F0BDC046DE
:103B8000F40700006C07000094F8FFFF54230020A6
:103B9000F0B501268BB000236A4606AC08AF3100B1
:103BA00020003E805384FEF70BF9002800D09AE0F5
:103BB0001A256D4431002800FEF702F9002800D0D4
:103BC00091E026236B4431001800FEF7F9F8002835
:103BD00000D088E0310009A8FEF7F2F8002800D0F4
:103BE00081E0310007A8FEF7EBF8011E00D07AE073
:103BF0001E206844FEF7E4F8011E74D13B4E336882
:103C00001A780A2A06D1013338003360FEF7D8F853
:103C1000002868D133681A780A2A09D06B46D88CF4
:103C2000FCF7B6FB031E0FD11522314B1A705AE078
:103C30000133336022200023012219006844FEF77B
:103C4000A7FE00284FD1E9E70021625E002A01DAD1
:103C50000022228000216A5E002A01DA00222A80E6
:103C6000244A0026A05F9188884201DB0139218027
:103C7000D2880020295E914201DB013A2A8009AAFC
:103C80000020115E002901DA0021118007AA00201E
:103C9000115E002901DA012111801E226A440020F0
:103CA000115E002901DA0121118000217A5E002ACB
:103CB00001DA01223A8000216A5E0020215E684616
:103CC0002224001900780490388803901E2068444C
:103CD0000088029007A80088019009A80088009039
:103CE000044801F0FEFE0BB0F0BDC046C41A00202F
:103CF000F91A0020501B0020F7B5FCF7C3FB002485
:103D0000A0423DD16B469D1C1E4A01231E4928003E
:103D1000FEF73EFEA04230D101AF01236322210015
:103D20003800FEF735FEA04227D16B469E1D632268
:103D3000230021003000FEF72BFEA0421DD1FCF72E
:103D4000B3FBA04219D10023FA5E0023F15E5318A1
:103D5000642B03DD14220D4B1A7011E00C4C002370
:103D6000ED5E81420BDD13185B001B5FAB4201DC93
:103D700084B205E0013080B2F3E7002400E0054C96
:103D800020B2FEBDFF7F00000080FFFFF91A002077
:103D9000FC090020FFFF0000012373B501AD2B805B
:103DA000FCF770FB011E01D000214EE0284C20687A
:103DB0000378BC2B06D1431C23604378861C9AB23F
:103DC000F3180DE0BF2B0DD1431C23604378214A2B
:103DD0005B00985AFCF7DCFA23680278461C013332
:103DE00023601AE0282B14D16B4601309E1D206001
:103DF0000B0063223000FEF7CBFD0028D4D1002257
:103E0000B35E154A5B00985AFCF7C2FA0278461C6A
:103E100003E01722114B1A7017E0236819780A295A
:103E200008D00023E85E301801380478FCF73CFB2A
:103E300021000AE00133236012B20023012128008F
:103E4000FEF7A6FD0028ECD0AEE708B276BDC0466E
:103E5000C41A0020341C0020FC090020F91A00209C
:103E600007B501238022102101A8FEF791FD031E52
:103E700005D168461E220A210630FEF789FD07BDDE
:103E80000123F0B50A258FB05B4204AF3B8002AB43
:103E9000ED1800234E4C2B8022680126511E097814
:103EA0009B2901D11E003B80137802AA901DC02BD4
:103EB00002D10023038008E0002307221900FEF747
:103EC00067FD002801D000257FE0002E2DD0256859
:103ED0002B780A2B26D16B1C23606B78BC2B18D156
:103EE000AB1C2360AA780193131C202A00D920233D
:103EF000BC2005A9DAB208704B70AE3802ABC0180E
:103F0000E91C05F0B9F9AB78019A0133D3182360A5
:103F10001DE000232F4A19003800FEF739FD002864
:103F200015D0D0E700233B8011E0236831001A78D8
:103F30000A2A0DD10133236028003300093AFEF725
:103F400027FD051EBFD11722234B1A703DE001212A
:103F500002ABD888FDF74EF8051EB4D13F88002F7C
:103F600003D11E4B1A681E4B18E03FB27B1C0BD1CD
:103F700005A8FCF7DDFD002803D11023164A1370B5
:103F800023E0174B18600AE03800FCF7BFFD0190F2
:103F9000FCF7AEFD8742F0D1114B019A1A600E4B2F
:103FA00001251B78002B10D1002E09D10B4B226864
:103FB0001B689A4209D3802149015B189A4204D2B6
:103FC0000125074B1B680333236028000FB0F0BDA9
:103FD000C41A0020FF7F0000F91A0020040000200E
:103FE000281B002013B56B469C1D202201230021B5
:103FF0002000FEF7CDFC002812D1FDF77FFE094A14
:1040000001001378002B0BD12388074CD8B2205C19
:10401000C00702D41B23137002E018B203F012FF92
:1040200013BDC046F91A002092A8000070B5050023
:104030000C00FDF763FE094B28601A78002A0AD1AC
:10404000002C08D006490A68501C086012780A2A19
:1040500001D017221A70187870BDC046F91A0020D6
:10406000C41A00200223F0B585B002AA13800023F1
:10407000971C04003B80FCF705FA011E5FD103A8E2
:10408000FFF7D4FF011E5AD12E4D2B681A780A2A49
:1040900009D0FCF709FA002851D102AB00229A5E40
:1040A00001250A2316E001332B600422030002A835
:1040B000FEF76EFC031E42D12A6811780A29E8D166
:1040C00001322A60103906223800FEF761FC002810
:1040D00035D1DEE7904203DA01305D4380B2F9E783
:1040E000039E2900300004F073FA0190002805D1E6
:1040F000002E03DA21002D20FCF71CF90023F95EC5
:104100006B4622000420185EFCF714FA02AB002272
:104110009B5E002B13D021002E20FCF70BF902AB85
:10412000290030001F8804F039FBCB17C8187F42E4
:104130003FB2584000B222003900FCF7FBF905B04D
:10414000F0BDC046C41A002010B586B0FCF79AF93D
:10415000002398423AD1012101A8FFF767FF002808
:1041600021D1012102A8FFF761FF00281BD1012105
:1041700003A8FFF75BFF002815D1012104A8FFF772
:1041800055FF011E0FD105A8FFF750FF00280AD1E7
:10419000FCF78AF9002806D10299039A914204DBC0
:1041A00014220C4B1A70002310E0049C059B9C42C7
:1041B000F6DA01988142F3DC8242F1DB1B1B401AE4
:1041C0005843511A04F004FA0419A3B218B206B005
:1041D00010BDC046F91A0020F7B5FDF78FFD164B4C
:1041E00004001A78002A26D11432002805DB134D6A
:1041F0002A6812780A2A15D017221A701BE02B6839
:10420000002101332B606B469F1D3800FDF7D8FD60
:10421000002810D13B88013433702B68A4B21B787E
:104220000A2B08D1A4B22000FCF7B2F8061EE6D192
:104230001523014A1370F7BDF91A0020C41A002093
:104240000023F7B5050001910093474C2368270030
:104250001A780C2A00D183E0C02A00D180E0352AE8
:1042600033D006D81C2A1AD0342A22D0092A3ED1AB
:1042700074E0372A2FD022D3382A32D0BC2A36D144
:104280009A1C22605E78002E41D03B6829005A1C9F
:104290003A601878013EFCF74DF8F6B2F3E70133C7
:1042A0002360FDF72BFD314B00901B78002B2ED0A7
:1042B00059E0013328002360FFF7CCF927E00133F0
:1042C00028002360FFF76EF921E001332800236006
:1042D000FFF794F91BE0013328002360FFF7C2FECB
:1042E00015E0013328002360FFF7D6F90FE0FDF752
:1042F00005FD1E4B1B78002B03D00020FCF736F881
:1043000031E06B462A000021595EFCF713F9174B88
:104310001A781900002A21D1019B002B03D02368B1
:104320001B780A2B1FD022681378092B16D018008F
:104330000A3801280AD8531C236053780C2B12D05A
:10434000C02B10D0092B00D07FE70CE00C2B00D144
:104350007BE7C02B00D178E717230B702800CDE74F
:10436000019B002BFAD0F7BDC41A0020F91A0020D7
:1043700073B501AD01230E4A0E492800FEF708FB74
:10438000002814D16B469E1D094A012309493000BB
:10439000FEF7FEFA041E0AD10023E95E0648002358
:1043A000F25E01F0A5F821000220FFF749FF73BD7E
:1043B000FF7F00000080FFFF501B002073B501ADA0
:1043C0000021012304222800FEF7E2FA011E11D188
:1043D0006B469E1D084A01233000FEF7D9FA041EE1
:1043E00008D129780548328801F098F92100052084
:1043F000FFF726FF73BDC04688130000501B002046
:1044000070B5104D28680378BC2B07D1FCF790FBE2
:10441000041E11D110220C4B1A7011E0FDF76EFC36
:10442000094B06001B78002B0AD1FCF76FFB040038
:10443000FCF75EFB8642EDD1044B1C6003342C601C
:1044400070BDC046C41A0020F91A0020281B0020A5
:10445000F8B5184D28680378BC2B05D1FCF768FB2C
:10446000041E0FD1102212E0FDF748FC124B06008B
:104470001B78002B1DD1FCF749FB0400FCF738FB2F
:104480008642EFD10D480378082B03D906220A4B48
:104490001A700EE00A4A0B4917689E0077509E1C5E
:1044A00001330670DBB228689B0014600334585057
:1044B0002C60F8BDC41A0020F91A0020FA09002067
:1044C000281B0020CC1A0020F8B52B4C2B4D23685C
:1044D0005A1C22601A78BF2A01D00C232EE05F7884
:1044E000FEF7C4F92B78002B44D123681A78042AEC
:1044F0000AD101332360FDF701FC236806001A7816
:104500000120052A10D101E00D2317E001332360BB
:10451000FDF7F4FB002805DA194B1B1AB34208DD3E
:1045200002230BE0002804D0164B02B29B1AB342C0
:10453000F6DB154B1B78142B02D908232B7019E0DE
:104540001249134A09689D00A95021685D1C9C1CF2
:10455000EDB2E4B2A400AD00A950A650DC1CE4B258
:1045600000B2A400A050581D04330749DBB29B00E1
:1045700008709F50F8BDC046C41A0020F91A0020E8
:104580000180FFFFFF7F0000F81A0020281B002099
:10459000EC22002010B5FDF7B1FB0C4B1A78002A75
:1045A00002D00F221A7010E000280ED1084C2068AB
:1045B000FCF7F4FA2200002806D113681978C02904
:1045C00003D001331360F8E7206010BDF91A002012
:1045D000C41A0020F8B5002317278F4C23708F4D85
:1045E0002B681B78C02B00D1B3E18D4E3068036877
:1045F0001B6C984700280AD08A4B032801D01B283F
:1046000004D11922227000221A70A2E118702B68BE
:104610005A1C2A601878BF2800D98CE103F044FFA7
:10462000C300C600C900CC008B018B01CF00D200B3
:10463000D800D5008B018B019401D5008B018B0133
:104640008B018B018B018B018B018B018B018B010A
:104650008B018B018B018B018B018B018B018B01FA
:104660008B018B018B018B018B018B018B018B01EA
:10467000ED00DE000D01F300F300F800DB00E400C4
:10468000E700E1001C018B018B018B018B018B0189
:104690008B018B018B018B018B018B018B018B01BA
:1046A0008B018B018B018B018B018B018B018B01AA
:1046B0008B018B01610120012301290126012C01BD
:1046C00032012F0135019001040107010A018B011C
:1046D0008B018B018B018B018B018B018B018B017A
:1046E0008B018B018B018B018B018B018B018B016A
:1046F0008B018B018B018B018B018B018B018B015A
:104700008B018B018B018B018B018B018B018B0149
:104710008B018B018B018B018B018B018B018B0139
:104720008B018B018B018B018B018B018B018B0129
:104730008B018B018B018B018B018B018B018B0119
:104740008B018B018B018B018B0194019401190169
:1047500013011601100158015B013D015401D50000
:10476000F000380158014E014B0151013A015E0140
:10477000640167016A016D01730179017C017001B7
:104780007F0176018B018B01820185018B018801FC
:10479000880188018B018B01C0008B018B01EA002D
:1047A000FCF75CFED0E0FFF72BFECDE0FFF750FEFC
:1047B000CAE0FCF75DFEC7E0FFF786FEC4E0FCF749
:1047C00079FEC1E0FFF7E6FEBEE0FCF7C5FEBBE008
:1047D000FCF7CEFEB8E0FEF7C3FAB5E0FEF7EEFA5E
:1047E000B2E0FDF77BFCAFE0FEF712FBACE0FEF7BA
:1047F00037FBA9E0FEF73AF8A6E0FEF769F8A3E078
:10480000FEF7ACF8A0E000210800FFF719FD9BE0DF
:10481000FDF76CFF98E0C046F91A0020C41A00208A
:10482000B01B0020C81A0020FEF72EFB8CE0FEF71C
:1048300055FB89E0FEF774FE86E0FFF7CDFC83E0D0
:10484000FFF746F980E0FDF7EDFA7DE0FDF740FB6C
:104850007AE0FCF78FFC77E0306801F0BFFA73E094
:10486000FDF7C0FC70E0FDF7FFFC6DE0FDF776FDA5
:104870006AE0FDF7D3FD67E0FFF78AF964E0FDF732
:104880003FFE61E0FFF774FD5EE0FFF797FD5BE040
:1048900002201AE0FCF792FD56E030680021036820
:1048A0001B6B98470020FEF797F8306801210368DA
:1048B0001B6B984748E0FEF717F945E0FEF7DCF977
:1048C00042E0FEF7A9F93FE00020FCF7C7FA3BE021
:1048D000FFF7D6FA38E0FEF77FF935E0FFF7C0FAC8
:1048E00032E0FEF77DFA2FE0FDF740FB2CE0FEF70B
:1048F0001DFB29E0FCF7CEFB26E0FCF7E9FB23E0FB
:10490000FEF758FB20E0FEF7DFFB1DE0FEF7BEFBE5
:104910001AE0FCF7F1FB17E0FEF71EFD14E0FEF7CE
:104920003DFC11E0FBF7A8FC0EE0FEF7ADFD0BE04F
:104930001323237012E02B601B785C3B202B02D8E2
:10494000FFF750FB00E027702378002B00D146E6EC
:1049500004E0034B18680378C01800E00020F8BD9D
:10496000281B002000230D4A10B513700C4A0D4C73
:10497000137098420FD10C4B1B68236023681A7880
:10498000002A0AD0094A03331360FFF723FE084BBD
:104990001B78002B01D12060F0E710BDFA09002040
:1049A000F81A0020281B002004000020C41A002050
:1049B000F91A002070B52D4A2D49531C0B6013784D
:1049C000A22B1BD00AD82E2B40D002D80D2B4AD0B8
:1049D0003FE09B2B0FD09F2B45D03AE0B82B22D045
:1049E00004D8B72B35D1FCF769FA2AE0B92B2AD0C5
:1049F000BA2B38D02DE0FFF743FA22E0FFF740FA58
:104A00000124002830D01B4D0021286803681B6B4F
:104A10009847194B1868FFF7A5FF2868210003681D
:104A20001B6B984720E0134C0021206803681B6B28
:104A300098470020FFF796FF2068012103681B6B51
:104A40009847012410E0FDF7E7FAFAE7FEF788F946
:104A500009E0084C0A602068002103681B6B984736
:104A6000FFF7B8FDE8E70024200070BD7A090020B8
:104A7000C41A0020B01B0020281B0020F7B500201E
:104A8000FCF7ECF9F020000104F00EF801270026F5
:104A9000534D2860FBF7F0FB524800F075FD524B78
:104AA000524C1F7052482B681822502120600093EE
:104AB000802301F062F94F4800F05CFC4E4802F0A0
:104AC00005FDFEF74DF92068002103681B6B984730
:104AD00000214A48FBF710FD0020FBF747FC0021AE
:104AE0004748FBF709FD00214648FBF705FD00207C
:104AF000FBF73CFC444D30002E70FCF799FB20681E
:104B0000390003681B6B98473100052003F09AF9C0
:104B100031000B2003F096F902223C49052002F0F7
:104B200037FF3B480222310002F086FE0B2003F0E3
:104B3000BDF9B04204D10100FCF75CFA061E42D078
:104B40002068012103681B6B984720680368DB6DB0
:104B500098470028F9D023689E693078002802D150
:104B6000FBF704FCF1E7300004F04AFB7F2805D98D
:104B70001A2300202B70FBF7F9FB1BE0254F3100B7
:104B8000380004F035FB3800FBF768FC0020FBF729
:104B9000EDFBFBF72FFE2B78002B01D001200AE064
:104BA0001D4B1A78BB2A09D11870FCF733F82B7803
:104BB000002BCAD00020FCF73BFBC6E7FFF7FAFE4C
:104BC0000028C2D0F6E72068310003681B6B9847C5
:104BD0003000FFF7C7FE3000FBF7C8FB2E70AFE7D1
:104BE000F41A0020501B0020D81D0020B01B00200C
:104BF000301B0020542300207C2300206EA40000E2
:104C000084A4000096A40000F91A002011020000FC
:104C1000FC1A0020B41B00207A09002010B5FFF711
:104C20002DFF10BD8023A32101220220DB05C90036
:104C300010B5DA605850E1219A604902044803F047
:104C400032FA002002F0A8FF03F0BCFB10BDC04602
:104C500054240020034B10B51B68002B00D098474C
:104C600010BDC046F0240020034B10B51B68181E71
:104C700000D0984710BDC046EC24002010B50400B9
:104C80002078002803D0FFF7E5FF0134F8E710BDD6
:104C900070B5041E092C16D9632809D9642103F0C4
:104CA0000DFC05003030FFF7D5FF64206843241A5F
:104CB0000A21200003F002FC05003030FFF7CAFF94
:104CC0000A206843241A20003030FFF7C3FF70BD6C
:104CD00070B50D4C06000D1E236807D0002B0BD1BC
:104CE0000A48FFF7CBFF0123236005E0002B03D028
:104CF0000748FFF7C3FF25603000FFF7ABFF054A09
:104D000013680133136070BD6823002020A90000E0
:104D100025A90000F802002070B505000C008842AB
:104D200003D10A48FFF7AAFF0EE00948FFF7A6FFE4
:104D3000681CFFF7ADFF3B20FFF78CFF601CFFF7FF
:104D4000A7FF7220FFF786FF70BDC0462AA90000AA
:104D50002EA9000070B505000C000848FFF78EFF73
:104D6000681CFFF795FF3B20FFF774FF601CFFF7FF
:104D70008FFF4820FFF76EFF70BDC0462EA90000D0
:104D8000014B18607047C046EC240020014B1860AE
:104D90007047C046F024002010B50021FFF798FFAF
:104DA00010BD000070B51F4E04003368834237D039
:104DB00025051D482D0FFFF761FF6B1E072B06D839
:104DC0001A48FFF75BFF28002F30FFF743FF250449
:104DD0002D0F6B1E072B06D81548FFF74FFF280035
:104DE0002F30FFF737FFA30702D51248FFF746FF22
:104DF000E30702D50E48FFF741FF630702D50E48CF
:104E0000FFF73CFF230702D50C48FFF737FFE30607
:104E100002D50B48FFF732FF6D20FFF71BFF346010
:104E200070BDC0460003002031A9000035A9000074
:104E300038A900003BA900003EA9000041A90000DC
:104E400044A90000064B10B51C68064A844202D1F2
:104E500014688C4203D018601160FFF77BFF10BD0F
:104E6000FC020020F802002010B50B4B0B4C196817
:104E70002068FFF751FF00212068FFF76BFF08480B
:104E8000FFF7FCFE00210800FFF746FF054B2068F6
:104E90001968FFF75FFF10BD04030020FC0200202B
:104EA0004BA90000F802002010B50C4B0C4C186800
:104EB0002168FFF731FF00212068FFF74BFF094809
:104EC000FFF7DCFE00210800FFF726FF064B1968FC
:104ED000064B1868FFF73EFF10BDC0466423002054
:104EE000040300204FA90000F8020020FC0200206B
:104EF00010B50248FFF7C2FE10BDC04652A900001F
:104F000000B5FF2000BD000010B50248FFF7B6FE57
:104F100010BDC0465FA90000024B1860024B19602B
:104F20007047C046642300200403002010B504002D
:104F30000448FFF7A3FE6C20002C00D06820FFF788
:104F400089FE10BD67A9000073B5FFF78DFE082329
:104F50007F2830D0031E1B2B2DD1FFF785FEFF28A5
:104F6000FBD01B23984226D05B2801D0FF2322E0F0
:104F70000024FFF779FEFF28FBD0030001AD413B81
:104F80006055621C192B04D97E2802D0141E032CF4
:104F9000EFD100231C00094EAB54A30099592800FF
:104FA00004F01CF9002802D12300803303E001340F
:104FB000172CF2D1DAE7180076BDC046C4A800006D
:104FC000F8B5032504002800134B8900CF5850433F
:104FD000160003F069FD2770FFB23B00A022C13329
:104FE000FF33D2059B00606066809D500123BB406B
:104FF0000A49535000231900B3420BDA2A005A43DE
:10500000606801338154606880184170606882185C
:105010009170F1E7F8BDC04668B700000C050000CC
:105020000123F0B502787E499340A022D205060004
:1050300085B0535032200138C046C046C046C046F5
:10504000C046C046C046C046C046C046C046C04630
:10505000F1D17088029000200190A120C000029C34
:10506000019DA54200DBDDE00324019D77686C43D0
:105070003C19E71C03974027BC467F25277813502F
:10508000AF430AD0C046C046C046C046C046C04630
:10509000C046C046C046535009E0C0465350C046C3
:1050A000C046C046C046C046C046C046C04665462B
:1050B000277813502F420AD0C046C046C046C0468B
:1050C000C046C046C046C046C046535009E0C04630
:1050D0005350C046C046C046C046C046C046C04603
:1050E000C04627781350BD060AD5C046C046C04604
:1050F000C046C046C046C046C046C046535009E000
:10510000C0465350C046C046C046C046C046C046D2
:10511000C046C04627781350FD060AD5C046C04693
:10512000C046C046C046C046C046C046C0465350B2
:1051300009E0C0465350C046C046C046C046C046BF
:10514000C046C046C046277813503D070AD5C04622
:10515000C046C046C046C046C046C046C046C0461F
:10516000535009E0C0465350C046C046C046C046F2
:10517000C046C046C046C046277813507D070AD5B2
:10518000C046C046C046C046C046C046C046C046EF
:10519000C046535009E0C0465350C046C046C046C2
:1051A000C046C046C046C046C04627781350BD071B
:1051B0000AD5C046C046C046C046C046C046C046E6
:1051C000C046C046535009E0C0465350C046C04692
:1051D000C046C046C046C046C046C04627781350A9
:1051E000FD070AD5C046C046C046C046C046C046B8
:1051F000C046C046C046535009E0C0465350C04662
:10520000C046C046C046C046C046C046C046039DD4
:105210000134AC4200D030E7019C013401941EE718
:105220000C05000005B0F0BD002370B51900032582
:10523000428893420BDA2A005A4344680133A1544E
:105240004468A41861704468A2189170F0E7FFF7F1
:10525000E7FE70BD70B5468804AC257801248E4207
:105260000AD90234614344686418627000244268B9
:105270005354436859188D70200070BD70B546882E
:1052800004AC257801248E420CD902346143446871
:1052900064186270426800245354436859188D7032
:1052A000FFF7BEFE200070BD10B50400406803F09B
:1052B00005FC00236380237010BD0000114A30B547
:1052C000012390421CD882051AD1022180250E4B61
:1052D0000E4AED00995080245959E4000029FAD073
:1052E000A121094DC900685019590029FCD000209E
:1052F000054988508021C9005A58002AFCD0002353
:10530000180030BDFFFF030000E00140040500006D
:10531000F0B5154C0123A04223D8840521D11D00EE
:105320008C071ED1114C124BA4461D518025ED0057
:105330005C59002CFCD080270024FF008025ED0064
:10534000944207D2A5004E594651DD59002DFCD09C
:105350000134F3E7002261465A505A59002AFCD022
:1053600000231800F0BDC046FFFF03000405000045
:1053700000E00140A12270B501260F4C0F4BD20076
:10538000C1216660A660A3500023890063504031AC
:1053900063500500436003608020A1580002891912
:1053A00003F08CF8A86001008020400403F086F828
:1053B000E860266070BDC04600B00040FF070000F6
:1053C00010B50400044B054A0160D058A16803F0F1
:1053D00075F86060002010BD0405000000B00040BA
:1053E00070B50400084A094BA168D05803F066F86C
:1053F00063680500C01AE368C018190003F0E4F8F8
:105400002368C81821C470BD00B000400405000026
:1054100010B502AC2488018084805C43091B428063
:10542000C380018110BD0200808813894843C118E0
:1054300053884B431800704770B50500FFF7F3FF22
:1054400000240600AB88A34209D96888604380190C
:10545000FFF734FF002803D10134E4B2F2E7002063
:1054600070BDF8B50C0007001600FFF7DCFF210047
:1054700005003800FFF7E0FF041E09D17A88BB88D9
:1054800031005A43921092B22800FFF741FF00E02A
:1054900001242000F8BD10B5FFF7C5FF0278030016
:1054A0000120FF2A04D15878FF38431E9841C0B22A
:1054B00010BDF8B504000F001500FFF7B4FF390068
:1054C00006002000FFF7E7FF1623002807D0A38877
:1054D000628831005A43280003F0FAFA00231800CA
:1054E000F8BD7047002070477047704728307047FC
:1054F000030050304E33198002807047F0B516001B
:1055000007000D0085B001930AAB00229B5E009658
:1055100002930BAB1B780393029B009AF3189A42F9
:1055200015DA2C00019BEB189C420BDA3B68320029
:105530005B6B290038009847039B984209D00134DF
:1055400024B2EFE7009B01331BB20093E4E7002095
:1055500000E0012000B205B0F0BD37B507AD2D78F1
:1055600006AC24886DB208300094002D02D001F002
:105570001EFD01E001F0B8FB37BD10B5083001F0A9
:10558000CBF900B210BD0000030070B50124050086
:105590004C331C800E4B821D1B68083543651978FF
:1055A000D1875B784432EB8705238380C380030077
:1055B00048331C80002350301380938003802800E0
:1055C00001F044F92800210001F020FF200070BD07
:1055D000F40200200300F0B585B0029158330400B6
:1055E0001878042800D994E00233039302F052FFA4
:1055F00003244362820006250026052223680092C8
:105600000196DF6A3100130020003200B84723689A
:105610002AB2DB6B310020009847236802991B6C8B
:1056200020009847039B013D1888ADB202F064FA50
:105630002BB20133E0D16CE00127374D05232268FE
:1056400000930197D66A002220001100B04723681A
:105650002AB2DB6B002120009847236802991B6C5B
:1056600020009847039B01351888ADB202F044FA38
:10567000012DE3D14DE00227274D05232268009339
:105680000197D66A002220001100B047236829B292
:105690000022DB6B20009847236802991B6C2000D6
:1056A0009847039B01351888ADB202F025FA012D09
:1056B000E3D12EE0062503270523226800930197F6
:1056C000D66A002220001100B047236829B20022C8
:1056D000DB6B20009847236802991B6C20009847D9
:1056E000039B013D1888ADB202F006FA2BB20133DC
:1056F000E2D10EE0002223681100DB6B2000984706
:10570000236820001B6C02999847039B188802F0BD
:10571000F3F905B0F0BDC046FAFF000003005A30AF
:105720005833197002807047030010B504004A33E3
:105730001988083000F0C2FF220000234E32503496
:105740001380238010BD70B504000D00002A04D022
:10575000FFF7EAFF642002F0CFF920000830002DA7
:1057600002D001F0B7F801E001F0AEF870BD10B55D
:10577000083000F0B1FF10BDF0B585B001930AAB61
:10578000150000229B5E083002930BAB1E780C00C4
:10579000009001F03EFE6F4B80001818865D009867
:1057A00001F037FE02280ED0032816D001281DD1A3
:1057B0000523029A02999B1A019A5B1B019125000D
:1057C00002921CB212E00523019A9A1A141B029A43
:1057D00024B29B1A5D1B2DB208E00523019A0299A1
:1057E0009B1A1B1B01912C0002921DB2032E00D9A3
:1057F000ADE0300002F04EFE080604022F008AE001
:105800002E005CE0260034E02700019BE3189F4255
:1058100000DB9CE0ABB203935E1C029BB6B232B2DB
:10582000EB189A420EDA3900009801F075F8FF2360
:10583000B6B2721E034012B23900009800F04CFF5D
:105840000136EAE70299039B8C4663441A00013A49
:10585000390012B200230098013700F03DFF3FB23B
:10586000D3E7310000232A00009800F035FF01360D
:1058700036B2019BE3189E4269DA029BEB18013BAA
:105880009BB21FB2BD42ECDA013B9BB203936B4665
:1058900031000C229A5E009801F03EF8FF233A0096
:1058A00003403100009800F017FF039BE9E7320046
:1058B00000232100009800F00FFF013636B2029B52
:1058C000EB189E4243DA019BE318013B9BB21FB2E7
:1058D000BC42ECDA013B9BB203936B4632000C21D5
:1058E000595E009801F018F8FF2332000340390098
:1058F000009800F0F1FE039BE9E7019A039B9446B0
:105900006344190001393A0009B20023009800F0FD
:10591000E3FE01373FB2029BEB189F4217DAA3B2B6
:1059200003935E1C019BB6B231B2E3189942E4DAEC
:105930003A00009800F0F0FFFF23B6B2711E03405A
:1059400009B23A00009800F0C7FE0136EAE705B058
:10595000F0BDC046F0AE0000F0B591B00D9316ABAF
:105960000C9100215B5E0600089317AB00215B5E83
:1059700007210E9318AB1B880A91099319AB1D8858
:105980001AAB1B780F9393B20593089B0733DA1772
:105990000A40D318DB100B93059B0293049300235A
:1059A0000393059A029B9B1A0E9A1BB29A4260DDE2
:1059B0006B461B8A002407936B461B8E1F000693C1
:1059C000089A23B2934246DA0A99DA170A40D318A2
:1059D00003990D9ADB1052188021D35C0A9AA4B265
:1059E00022401141194210D0012D07D16B460822E7
:1059F0009A5E069BE11809B2099B14E06A462BB235
:105A00001C21525E099839B21AE00F9B002B1DD061
:105A1000012D0DD16A4633000821525E06994A33A2
:105A200061181B8809B23000083000F055FE0DE007
:105A300030006A464A3000881C21525E2BB239B2CF
:105A4000019030000093083001F070F801347F19A4
:105A5000A4B2BFB2B4E70B9A049B9446EB189BB276
:105A60000493029B01339BB20293039B6344039311
:105A700097E711B0F0BD0300F0B504000833D88FEC
:105A8000443341431E88636D03318BB05B18079329
:105A900023002500503300229B5E4E3508930022E0
:105AA000AB5E0396099301230493230048331B88BC
:105AB0003100029302F002FD00B20190A71DF88FA1
:105AC000310002F0FBFC00B20090079B089A099994
:105AD0002000FFF741FF2A88FB8FD3182B800BB0E3
