:10000000004000202D8700006D8700006F870000F2
:1000100000000000000000000000000000000000E0
:1000200000000000000000000000000071870000D8
:1000300000000000000000007387000075870000CA
:1000400077870000778700008191000077870000A4
:1000500077870000000000006588000077870000B7
:1000600077870000A18B0000817600007787000071
:100070007787000077870000778700007787000088
:1000800077870000FD8800007787000077870000F1
:100090007787000077870000778700007787000068
:1000A0007787000077870000000000000000000054
:1000B0000000000000000000000000000000000040
:1000C000054B0648033310B51B1A062B03D9044B06
:1000D000002B00D0984710BD3005002030050020CF
:1000E000000000000648074910B5091A8910CB0F17
:1000F0005918491003D0044B002B00D0984710BD6D
:1001000030050020300500200000000010B5074C2D
:100110002378002B09D1FFF7D3FF054B002B02D02A
:10012000044800E000BF0123237010BD300500200B
:10013000000000003C1C0100094B10B5002B03D04F
:100140000849094800E000BF08480368002B02D1B5
:10015000FFF7C8FF10BD064B002BF9D09847F7E713
:1001600000000000340500203C1C01002C0500208C
:1001700000000000164B002B00D1144B9D4640227E
:1001800092029A1A924600218B460F461348144A4F
:10019000121A09F0DFFB0F4B002B00D098470E4BD3
:1001A000002B00D098470020002104000D000D48CE
:1001B000002802D00C4800E000BF09F071FA2000CE
:1001C000290008F0FBFF09F045FAC04600000800CE
:1001D000004000200000000000000000300500206A
:1001E000EC2600200000000000000000704780881E
:1001F0007047C0887047000010B50400034B0360CF
:10020000083007F077F9200010BDC04638CC000058
:1002100010B5052008F03EFD0B4C002803D108F076
:1002200047FB20600FE008F043FB2368C01A074B30
:10023000984208D9BFF34F8F054A064BDA60BFF3E7
:100240004F8FC046FDE710BD30250020871300000A
:100250000400FA0500ED00E0034B10B5010018683A
:100260000268D26B904710BDDC06002010B5040078
:1002700008F0B8FF200010BD10B5034A0349044838
:1002800009F04AFB10BDC046030500002CC7000062
:10029000282000200200613A0123192A06D90023F0
:1002A00019224138C0B282425B41DBB2180070476C
:1002B000030009220020303BDBB29A424041C0B229
:1002C00070472022010091430A00413A03000120B7
:1002D000052A06D900200922303BDBB29A42404170
:1002E000C0B2704702007F32D2B2030001201E2A42
:1002F00006D900201C222033DBB29A424041C0B212
:10030000704710B504000AF013F9210009F03AF91A
:10031000013108B210BD013AD2B2FF2A06D08B5C7F
:10032000013AD2B28342F8D1012000E000207047A8
:10033000054A10B5138819B2FD2903DC034C0133BB
:100340006054138010BDC046941E00204C05002050
:1003500010B5002902D1FFF77FFF11E0022904D177
:100360000100084805F0B3FF0AE0032902D1FFF7B6
:10037000DFFF05E0052903D10100024805F04AFD31
:1003800010BDC0464C06002010B5002805D1064B14
:1003900018680368DB6E984704E0032802D1073031
:1003A000FFF7C6FF10BDC046DC060020002110B5D7
:1003B000034BFE220348198009F0CCFA10BDC04659
:1003C000941E00204C050020254B10B51A68938917
:1003D000D1894B439BB2834201D993683DE0A0226F
:1003E000204BFF32C31899B2914201D81E4834E025
:1003F0001E4BC3189AB2FF2A01D81D482DE01D4B91
:100400001D4AC31899B2914201D81C4A24E01C4BE2
:100410001C4AC31899B2914201D81B481DE01B4BDE
:100420001B4AC3189BB2934204D81A4BC0181A4BEC
:100430001B6812E0194BC418A3B21A2B04D8184831
:1004400005F074FC001909E0164B174AC31899B25D
:100450000020914202D8154A1068C01810BDC0464D
:10046000DC06002000E7FFFFF01C002060E5FFFF36
:100470001007002060E4FFFFFF0F00003C03002096
:1004800060D4FFFFFF030000EE18002060D0FFFFE4
:10049000FF07000063D0FFFF3403002060C8FFFFA8
:1004A0004C06002060C7FFFF6F350000E0180020F9
:1004B00010B504000AF09CF80022013880B2002830
:1004C00007D023181978202903D101381A7080B277
:1004D000F5E7200010BD00000649074A0B681878B0
:1004E000132802D01123137001E001330B60107840
:1004F0007047C046E8060020C01E00200649074A93
:100500000B681878142802D01123137001E001330E
:100510000B6010787047C046E8060020C01E00201F
:100520000300303BDAB29BB2092A0CD90300613BCD
:10053000052B01D8573805E00200413A0023052A6F
:1005400001D8373883B2180070470000F8B50D4C59
:10055000050020680F00867F002E03D0036800216D
:100560005B6B98472878002804D039000135FFF7E5
:10057000EFFEF7E7002E04D02068012103685B6BD3
:100580009847F8BDDC0600202023F0B585B00E1E8C
:100590000292019303DA4E42103336B201930028DF
:1005A00003DA4442A4B2012301E0002384B2002212
:1005B00006270093174B9A71039320000A2108F035
:1005C000F7FE7D1E039B3031EDB2595520000A2104
:1005D00008F068FE84B2002C01D02F00EDE7009BEC
:1005E000002B04D02D23BD1E0A4AEDB2535506241C
:1005F000641BB44206DA02990198013EFFF7A8FE97
:1006000036B2F6E7034B02995819FFF79FFF05B082
:10061000F0BDC046D8170020F8B585B217480423AE
:10062000854207D8013BFF2D04D80C33AB429B41D8
:100630005B420133002905D089B2181C8B4200D2DD
:10064000081C83B200240F210D482F00A60076421B
:100650000C3637413E000E4037003737092E01D89F
:100660003036370027540134042CEED10021E31A30
:100670000171C0181100FFF769FFF8BDFF0F0000FE
:10068000D8170020F7B583B201930F240023114E31
:10069000019D0120254105402F308446AC4467462A
:1006A000301BC7733000002B03D1002D01D0631C19
:1006B0009BB2013CECD2002489B204741C1C8B4216
:1006C00000D20C1CA4B2001B10301100FFF73EFF3B
:1006D000F7BDC046D8170020F7B500240226394DD3
:1006E000286803685B6C98470D2802D1002C17D04E
:1006F0001CE0032803D11922334B1A7016E01B2883
:10070000F9D0082851D07F284FD0002C06D1030003
:100710002B3BB343DBB2002B02D13EE0052C37D894
:100720000300303BDBB2092B37D931E00020FFF763
:100730002BFE0023254D2B552A782B2A03D02D2A5A
:1007400003D1012301E0012200E01A001E49002626
:100750000F7801910A2130008C46AC5C002C0ED041
:10076000614641433039091989B2013200B20CB2F5
:10077000D2B2A04201DD012602270800EDE7002EDB
:1007800001D0019A1770002B1AD0404280B217E0B6
:10079000286803681B6B9847A1E7651C0B4BEDB2FB
:1007A0001855FFF759FD2C0099E7002CF0D0286868
:1007B00006F04FFA013C2868E4B206F0BDF88EE777
:1007C00000B2FEBDDC060020C01E0020D8170020AD
:1007D000F7B5070001261A4C0191019B9E4204D9EE
:1007E00023B20025013313D128E000251548AB00C2
:1007F00032003900185809F003FF002804D1731C97
:100800000096ACB29EB2E8E70135CB2DEED1E7E71A
:100810000C4AAB009C58200009F0EAFE009B98426D
:1008200008D11A003900200009F0EAFE002801D1A1
:10083000ACB203E00135CB2DEAD1014C20B2FEBDB4
:10084000FFFF000008000020F0B50024B04D85B087
:100850002B78002B19D02B78202B1CD0093B042B94
:100860001BD818E010B2FC31091A8C4220DA601C47
:10087000A849C0B2DBB20B550400013A92B216B2DD
:10088000013600D08EE0C318DCB2D022A14B601C30
:100890001A55C0B239E10135DDE7280009F0A8FE9C
:1008A00081B22800FFF794FF071E66DBFC2C01D9FC
:1008B0000422E2E0974BBA001F55974B661CD058B4
:1008C00009F096FEF6B22D18152F2FD12878FFF7D4
:1008D000F8FC002800D1E0E000270195019B3F01D2
:1008E00001330193013B1878FFF71AFE019BBFB259
:1008F0005B1B9BB20293019B3F181878BFB2FFF7B6
:10090000E0FC0028EAD1029B042B01D90222B4E0CA
:10091000FA2ECDD8CD227F4B019D1A559F55E61C4E
:100920000234E4B23F12F6B21F55B6E0162F23D1BF
:100930002B78303B012B00D9AFE02A000023013295
:10094000511E09785B001078303B5B183038511B22
:100950009BB289B20128F2D91029D7D8FA2EA7D88C
:10096000CE206C49150008558B55E61C0234E4B2C4
:100970001B12F6B20B5590E03400A32F01D00D2FBF
:1009800016D12B78202B00D189E0093B042B00D80D
:1009900085E00023E95C9AB2581C002900D161E788
:1009A0000300F7E72F78661C0F550135F4B264E7B2
:1009B000002F00DB4CE72E783300303B092B2AD880
:1009C000802000230A2100024B4301356A1E127861
:1009D000303BD318834299D82A78303A092AF3D980
:1009E000FA2C00D964E780214A4A09028B4206D1D9
:1009F000002C04D01119013909780E2986D1CB2198
:100A0000601C1155C0B2A11C1354C9B203341B0A97
:100A1000E4B253541CE7222E0BD100236E1CE918BC
:100A200049789AB222293CD0581C002939D00300B9
:100A3000F5E73000FFF72EFC00281DD0FB2C00D975
:100A400036E73300613B192B01D8203EF6B26B78B4
:100A5000413E1A00303AF6B2062A52D9002301204C
:100A60002C49032C0DD90A19971E3F78CF2F08D196
:100A7000043A1278CF2A04D11722284B00201A708A
:100A800043E0CF220A55B53A5343671CFFB2023404
:100A9000F618E4B2CE552D18DAE63400D8E6013562
:100AA0006FE7FD2110B2091A8C4200DB00E7CC2170
:100AB000184FA01C3955D9B2019169460134097902
:100AC000E4B2C0B23955350004000397013A92B23E
:100AD00017B2791C0AD02F78611CBC46029161467E
:100AE000039F0135395569460C7AEFE79DB27519B8
:100AF0002B78019A223B81185A425341CCB2ED180F
:100B0000A6E62F3BDBB20220AAE705B0F0BDC04647
:100B1000D8170020C11E002008000020C01E0020A1
:100B2000064B1B6818000278002A01D08018FAE7EB
:100B3000181A034BC31818B27047C0463C03002074
:100B4000FF0F00000378002B04D0837840781B024D
:100B5000184300E0014800B27047C046FFFF0000A4
:100B600070B50600064B1C682578002D06D02000C5
:100B7000FFF7E8FFB04201DA6419F5E7200070BD25
:100B80003C030020F8B50D4B47781C68851C26787F
:100B9000002E0ED0E378CC2B09D12379BB4206D1AD
:100BA000611D3A00280009F04DFD002803D0A4196A
:100BB000EDE7300000E02000F8BDC0463C03002017
:100BC000F8B507000024084B1D682E78002E08D0C9
:100BD0002800FFF7B7FFB84204DA0134A4B2AD1918
:100BE000F3E7024C2000F8BD3C030020FF7F00002B
:100BF0000378D02B19D0CC2B0FD006D8092B0AD0D4
:100C0000CB2B0ED0072B10D00DE0CE2B09D9CF2B3C
:100C100009D10230ECE7013008E043780133C01815
:100C2000E6E70330E4E70130E2E700207047000028
:100C3000F7B5070000240B4B01911D682E78002E9C
:100C40000DD02800FFF77EFF002808DBB84204DB48
:100C5000019B984201DC0134A4B2AD19EEE72000FB
:100C6000FEBDC0463C03002070B5FFF759FF204D84
:100C70002B78984203DA05221E4B1A7037E02800C1
:100C8000FFF760FF0600FFF76BFF0400FFF75AFF56
:100C9000864210D121002278A2181078002809D0AD
:100CA0000023834202D1C918D218F6E7D65CCE548D
:100CB0000133F6E708702878042818D021000B7853
:100CC000002B01D0C918FAE70A1B013292B20818AA
:100CD0005242934203D0CE5CC654013BF9E7002355
:100CE0002978994203D0EA5CE2540133F9E770BDF8
:100CF000C11E0020C01E0020F7B504000D0023789F
:100D0000D02B00D1DDE0CA2B46D86E4A9B002900CB
:100D10009858FFF71BFC66780C2E28D02778842281
:100D200069493800FFF7F7FA002806D03C226749E6
:100D30003000FFF7F0FA002805D03B000C3B012BF8
:100D400000D9B9E004E0142F02D1D02E00D0ABE0DE
:100D500045225F493800FFF7DEFA002807D0452218
:100D60005B493000FFF7D7FA002800D0A4E02378D1
:100D7000A32B03D1A61C6478341904E00D2BF9D001
:100D8000661C3400BBE7B44200D19AE030782900F9
:100D9000FFF7DEFA0136F6E7CB2B09D1A0786378AE
:100DA0000002184300B22A000021FFF7EDFB24E007
:100DB000CD2B0DD129002420FFF7CAFAA078637843
:100DC0000002184300B22A000221FFF725FC14E0BC
:100DD000CE2B15D160202900FFF7BAFAA3786078EE
:100DE000002B05D01B02034318B22A00102102E099
:100DF0002A00082100B2FFF745FCE61CE07818E065
:100E0000CF2B1FD167781A21380008F0D1FA413171
:100E1000C8B22900A61CFFF79BFA192F08D91A217E
:100E2000380008F03FFA2F30C0B22900FFF790FADF
:100E3000A0781B222749FFF76EFA0028A1D12900CC
:100E400020302AE0CC2B2BD16378002B06D0E2187F
:100E50005278222A04D0013BDBB2F6E7222300E0DD
:100E60002723019329000198FFF772FA6678A71CDF
:100E7000BE19BE4205D038782900FFF769FA01375C
:100E8000F7E729000198FFF763FA3378CF2B02D0F8
:100E9000092B00D075E729002020FFF759FA70E7E9
:100EA00018220D4B1A700CE01B220A493000FFF784
:100EB00032FA002800D04BE729002020FFF748FA3B
:100EC00055E7F7BD08000020DBBF0000B5C10000FA
:100ED00070C00000C0BF0000C01E0020022302003E
:100EE0009A4310B5131E0BD000230E4A13700E4AFE
:100EF00013700E4A11680B7012680D4B1A6010E0E7
:100F00001400D2220B4952005C5202339342FBD1AF
:100F100000231900084A99520233C82BFBD102283A
:100F2000E2D110BDE0060020D71800203C030020CD
:100F300024200020F01C002010070020F0B5484EAF
:100F400085B034682378CB2B13D12000FFF7FAFD4E
:100F50000A27E31C3360E37885B2BB420BD12379C7
:100F6000201D30601722CB2B10D1FFF7EBFD87B28D
:100F700001E00A273D003B4C00202100FFF758FE0E
:100F80000394002D01D0002F03D11422364B1A7088
:100F900063E0013880B27843039B40199842F4DC47
:100FA000324B334E1B68336033681A780292002A42
:100FB00041D0002401330193029B013B9C4236DA6D
:100FC000019B1B5DCC2B27D004D8012B08D9CB2B40
:100FD00028D029E0CE2B25D9CF2B25D1023424E0EF
:100FE000631C019A9BB2D21800921278CB2A01D0CE
:100FF0001C00E1E70098FFF7A5FD80B2FFF7E0FDD8
:10100000039B0434984210D07843281880B2009A89
:1010100003129370507008E00134019AA3B2D25CBD
:101020009C1802E0033400E00134A3B2E0E7326828
:101030001378D318B7E70D4B1B68336033681A7801
:10104000002A0AD05D7032682B12937032687D19C5
:101050001378ADB2D3183360F0E705B0F0BDC046E9
:10106000E8060020FF7F0000C01E00203C03002097
:101070002420002070B50C4DC4B20E0028002100C1
:1010800004F029FE002804D11622084B01301A7002
:1010900009E03000FFF722FF054B21001A68280005
:1010A00004F027FE002070BDE4180020C01E0020C0
:1010B0003C03002070B50B4B1C78002C03D00022A1
:1010C000A4B21A700BE0084D28680368DB6C9847DF
:1010D000002804D0286803685B6C984784B220B26B
:1010E00070BDC046EE1C0020DC06002010B5074B8A
:1010F00002001B78002B07D005480121002A01D0EF
:101100000022110004F03FFF10BDC046D618002099
:101110004C06002070B50B4C2378002B10D001201A
:10112000FFF7E4FF084D280004F04CFC280004F011
:1011300089FC0020FFF7DAFF0023044A23701380A4
:1011400070BDC046EF1C0020D81800202C250020C0
:1011500010B5074B1B78002B08D00120FFF7C6FF06
:10116000044804F02FFC0020FFF7C0FF10BDC0466C
:10117000EF1C0020D818002010B5094B1B78002B5D
:1011800003D11D22074B1A7008E00120FFF7AEFFC4
:10119000054804F013FB0020FFF7A8FF10BDC04670
:1011A000EF1C0020C01E0020D8180020F7B5070053
:1011B0000E0007240025019200933000009907F0EB
:1011C00053FD019B3800002B05D107F063FD072379
:1011D0001B1B984002E007F05DFDA040009905430D
:1011E0004B4259413000EDB207F03EFD013CE4D2E4
:1011F0002800FEBD37B5294804F0C0FC019001A8C5
:1012000008F074FA0421040002254369244A494283
:10121000981800B20022FFF7B7F92F20FFF71CF84B
:1012200023696D42581C2900002200B2FFF7ACF977
:101230002F20FFF711F80C23E05E00222900FFF7B2
:10124000A3F900211748FFF781F91822A35E164A77
:101250009B0098580021FFF779F900211348FFF708
:1012600075F929000823E05E0022FFF78DF93A2086
:10127000FEF7F2FF29000423E05E0022FFF784F965
:101280003A20FEF7E9FF29000023E05E0022FFF785
:101290007BF90020FFF778F837BDC046CC06002068
:1012A0006C070000F8C1000078C10000FBC100001D
:1012B000F7B52D4D04002868002103685B6B984743
:1012C0002A4A2B4F13780192002B3DD0294A9B00CC
:1012D0001168294A126891422FD3802040011218C8
:1012E00091422AD2254E32681278002A25D0002C4D
:1012F00023D1F8582100FFF729F921002048FFF7F2
:1013000025F93068FFF71EFC22002100FFF73CF9A9
:101310002000FFF739F83068FFF714FC22002100A5
:10132000FFF732F921001748FFF710F93068210064
:101330000330FFF7E1FC200004E0F8580021FFF73C
:1013400005F90020FFF720F838680021FFF7FEF8C4
:101350000020FFF719F80023019A2868137003682A
:1013600001215B6B9847F7BDDC060020C01E002002
:1013700054030020E80600203C0300202420002025
:10138000FEC10000481A0100F8B5070000250B4B0C
:101390001C682678002E07D02000FFF7D3FBB84248
:1013A00002DA2500A419F4E7002D03D02800FFF786
:1013B000C9FB00E0024800B2F8BDC0463C03002073
:1013C000FFFF000070B50500FFF7CAFB0400FFF740
:1013D000B9FB854204D120782018FFF7B3FB00E069
:1013E000014800B270BDC046FFFF000070B50600A6
:1013F000FFF7B6FB0500FFF7A5FB0024864211D1DD
:10140000FEF7D4FF032221003000FFF7BDF82020B3
:10141000FEF78EFFE81C0321FFF76EFC2000FEF7AD
:1014200087FF014C200070BD4C05002037B56B468E
:10143000DC1D74230120237008F05AFA050008F01F
:1014400061FA00211D48FFF781F8201400220421D1
:10145000FFF7E2F8002220B20421FFF7DDF80020B8
:10146000FEF792FF00211648FFF770F828140022BB
:101470000421FFF7D1F828B200220421FFF7CCF8AD
:101480000020FEF781FF00210E48FFF75FF80022E1
:10149000601B110000B2FFF777F80020FEF774FF21
:1014A00000210948FFF752F80022D1201100FFF770
:1014B0006BF80020FEF768FF37BDC04603C200008E
:1014C0000EC2000019C2000024C20000034A1168C5
:1014D0000B780133CB1813607047C046E806002034
:1014E00010B50B480378012B03D80722094B1A705B
:1014F0000DE05A1E0849D2B29200023B5458DBB2AA
:10150000064A03709B0014605A58054B1A6010BDC0
:10151000E0060020C01E0020981E0020E8060020E3
:1015200024200020F0B5224E09223078042813D957
:10153000204A214C431E9B00195913685D1C1560FD
:101540001D78CF2D01D00A2206E09D1C15605A7827
:101550000BB29A4203D00B22184B1A7026E0184D9A
:10156000831E52009B001959535B8FB25B189BB2CC
:101570005353C21E92001259451F92B2090404D55A
:101580001BB212B2934208DA05E0002F05D019B25F
:1015900012B2914201DD357008E0031F9B00E25852
:1015A000044B1A60AB00E258064B1A60F0BDC0460F
:1015B000D7180020E8060020C01F0020C01E002011
:1015C000F01C002024200020044A13681978D02938
:1015D00002D001331360F8E77047C046E8060020E8
:1015E000044A11680B78002B02D0CB181360F8E77F
:1015F0007047C0462420002037B5164B164A19788C
:10160000164811805A78164B164D1A800023037124
:101610004371154B2A001549036007F0E5FF144C90
:10162000144B20000830236005F050FF2A001249B7
:10163000200007F0D9FF0423802280210093D200EC
:10164000DB1849000D4804F003FB1D210C4806F08F
:10165000FFFE37BD2CC70000EC060020A8060020C6
:101660003425002000000020B8CC0000ED0100006F
:101670004C06002038CC0000F9010000E4180020DE
:10168000F0060020F0B587B0FEF726FF0023011E0C
:10169000994200D07BE002AB9C1D7F2201232000F9
:1016A00001F018F9011E48D104AE0123394A300077
:1016B00001F010F9011E40D10A2702ABFF18354A8C
:1016C0000123380001F006F9011E36D10123314A09
:1016D00005A801F0FFF8011E2FD10E2502ABED1871
:1016E0002C4A0300280001F0F5F8002825D1FEF768
:1016F00005FF002821D13088FEF766FE02AB00907E
:101700009889FEF761FE009B0190002B12D0002803
:1017100010D030883B88C01880B2FEF755FE0028F4
:1017200008D002AB98892B88C01880B2FEF74CFE17
:10173000002804D11522184B1A70002327E0174EF9
:101740002178300006F008FE3A88002A04D012B250
:101750000099300006F017FD300006F067FE2A8879
:1017600080B20300002A12D0002810D1217812B2D2
:10177000300006F0ECFD019C300006F017FD00285B
:10178000DBD0300006F017FD20700134F4E718B20A
:1017900007B0F0BDFF7F0000C01E002050250020D4
:1017A0008D4A13B51368591C116018780E38C1287A
:1017B00000D910E207F06CFDCE00CB000F020F0243
:1017C0000F02E6000F020F020F020F020F020F02BC
:1017D0000F020F020F020F020F020F020F020F0281
:1017E0000F020F020F02D400DB000F02EA000F020B
:1017F0000F020F020F020F020F020F020F020F0261
:101800000F020F020F020F020F020F020F02180148
:101810004C014F012D01FE003801580164018F0178
:1018200043014601490192019501B301CF0198019D
:101830000F020F020F020F020F020F020F020F0220
:101840000F020F020F020F020F029B01F501F301BD
:10185000F501F3010F020F020F020F020F020F0238
:101860000F020F020F020F020F020F020F020F02F0
:101870000F020F020F020F020F020F020F020F02E0
:101880000F020F020F020F020F020F020F020F02D0
:101890000F020F020F0209020B02E501E901ED013F
:1018A000F001F301F501AB01F301A401A601A901C7
:1018B000AD01AF01B101F301F501F701F901FB0140
:1018C0000F020F020F020F020F020F020F020F0290
:1018D0000F020F020F020F020F020F020F020F0280
:1018E0000F020F020F020F020F020F020F020F0270
:1018F0000F020F020F020F020F020F020F020F0260
:101900000F020F020F020F029E01A1010F020F0230
:101910005501FD01FF0101020302050207025A0100
:101920000F0251010F025E0161010F020F020F024F
:101930000F02C2000F02C200C200DF00997858787F
:101940000902014368460333C180136059E1FFF780
:1019500027FF02E0FFF724FF40426B46D88050E1AA
:10196000FFF71EFF6A4643424341D38049E1FFF738
:1019700017FFC043F1E7991C11605B78174A5B00C1
:101980009A5A25E1136000F067FAE6E700F064FA7E
:101990006B46134A063311781880002900D030E1D5
:1019A000632802DD032313702BE10E4A4000825AA4
:1019B0001A8026E100F050FA6B469C1D084B2080EF
:1019C0001A78002A00D01CE11432002800DA17E14E
:1019D000FEF797FC013878E0E8060020F01C0020B4
:1019E000C01E00201007002000F036FA6B468A491E
:1019F00006331880894A884201D102211170127879
:101A0000002A00D0FDE0002800DBFAE04042188008
:101A1000F7E0FEF761FD002800D0F2E0FEF76EFD72
:101A2000002800D0EDE0EFE0FEF756FD002800D0E2
:101A3000E7E0FEF763FD002800D0E2E0E7E000F019
:101A4000CDFB8AE700F066FD87E700F095FD84E7AF
:101A500002F086FD81E7002000E0012002F030FA6C
:101A60007BE702F0DDF978E7002000E0012002F0DA
:101A7000BDFA72E702F0C6FC6FE702F019FB6CE7F3
:101A800068465978841D132907D19978142904D1FF
:101A9000002103332180136007E000F0DDF95F4B84
:101AA00020801B78002B00D0ABE02388002B02D1D4
:101AB00006F0FEFE07E0012B09D106F0F9FEFA213F
:101AC000890007F0EFFB4004400C208099E00023E0
:101AD0001422238093E000F05FFB3EE701F0BAFEA2
:101AE0003BE7FFF7CFFD38E701F04AFF35E701F0AC
:101AF0008BFF32E701F0DCFF2FE702F00EF82CE756
:101B0000C82200E0D522520162E0DD22FBE7444A10
:101B10005EE0444A5CE0444A5AE0444A58E0FEF73A
:101B2000DBFC011E6DD16B469C1D202203002000B2
:101B300000F0D0FE002864D1FEF7E0FC002860D160
:101B400020883B4AC3B2D35C1B22DB0757D500B2C7
:101B500007F0A0F8B9E7FEF7BFFC011E51D16B46B4
:101B60009C1D20220300200000F0B4FE002848D174
:101B7000FEF7C4FC002844D10023E05E06F000FF1D
:101B8000A3E72C4B1B689A8922E02A4B1B68DA8951
:101B90001EE0294B9A881BE0274BDA8818E00022C8
:101BA00016E0012214E0022212E0032210E00422D7
:101BB0000EE01C220CE01D220AE01E2208E01F227B
:101BC00006E0202204E00D2202E0052200E00B22C4
:101BD0006B46DA8015E013601B7818005C38C4B2DD
:101BE000202C08D918006E30C0B2032806D8923BCA
:101BF00012489B00185880B211600BE01722074B67
:101C00001A706B46D88805E0FEF78AFFA5E6FFF755
:101C100051FAA2E600B216BD0080FFFFC01E0020F0
:101C2000A02B0000A02F0000A0370000A03800006B
:101C300094C10000DC0600204C06002060C00000BB
:101C400070B5FFF7ADFD2F4D04002B78002B54D15C
:101C50002D4A136818781038172850D807F00EFB53
:101C60000C121F4F4F4F4F2A313F394F4F4F4F4F9D
:101C70004F4F4F4F4F4F4F4601331360FFF790FDCB
:101C8000604331E001331360FFF78AFD011E02D18A
:101C900001232B7031E020B207F08EFB24E00133EA
:101CA0001360FFF77DFD011EF2D020B207F06AFC41
:101CB0008CB2CDE701331360FFF772FDA4B284400C
:101CC00005E001331360FFF76BFDA4B20441A4B239
:101CD000BEE701331360FFF763FD204004E00133EA
:101CE0001360FFF75DFD204384B2B1E70133136059
:101CF000FFF756FD604080B202E0044800E020009B
:101D000000B270BDC01E0020E8060020FFFF0000EA
:101D100010B5FFF795FF0E4B04001B78002B13D175
:101D20000C4A136819780E2907D00F290DD10133F9
:101D30001360FFF785FF241804E001331360FFF7F9
:101D40007FFF241AA4B2EBE7034C20B210BDC046BB
:101D5000C01E0020E8060020FFFF000010B5FFF7BE
:101D6000D7FF2C4B04001B78002B4FD12A4B1A684D
:101D7000511C196010781B38092845D807F07EFAE5
:101D80002A0C2005180C0C11333DFFF7C1FF24B2BB
:101D9000241A60424441E9E7FFF7BAFF24B2241A4B
:101DA0002FE0FFF7B5FF24B2012384420FDB0DE0E3
:101DB000FFF7AEFF22B2D40FC31790425C4110E090
:101DC000FFF7A6FF24B20123844200DC0023DCB22B
:101DD000A4B2CBE7FFF79CFF22B2D417C30F824215
:101DE0005C41E4B2C2E7FFF793FF00239C4202D0BC
:101DF000431E9841C3B29CB2B8E7FFF789FF044382
:101E000024B2601E8441B1E71A6000E0034C20B2A6
:101E100010BDC046C01E0020E8060020FFFF0000E5
:101E200070B505000C00FFF799FF094B28801A7860
:101E3000002A0AD1002C08D006490A68501C086004
:101E400012780A2A01D017221A70187870BDC0467D
:101E5000C01E0020E806002013B5FEF73DFB002160
:101E600088420DD16B469C1D2000FFF7D9FF00284A
:101E700001D0002104E0FEF741FB0028F9D12188C0
:101E800008B216BD7FB5244803F078FE019001A882
:101E900007F02CFC00244369204A02AE9B183380D3
:101EA0000369013373808389B3808369F3801C4D98
:101EB0002B681A78CF2A0AD15A1C2A605A786100F6
:101EC000705A18495200023350522B6013E0282AEE
:101ED00017D101332B60FFF7BFFF134B1A78002A8D
:101EE00018D182B2632A01D903220CE06300F25AAE
:101EF0000E4B4000C252032C0CD02B681A780A2AD1
:101F000003D01722084B1A7004E0013301342B6010
:101F1000042CCCD17FBDC046CC0600206C0700004D
:101F2000E8060020F01C0020C01E00201007002042
:101F30007FB5214803F022FE019001A807F0D6FBEF
:101F40000024038902AE3380838873800368B380E2
:101F50001A4D2B681A78CF2A0AD15A1C2A605A784F
:101F60006100705A16495200023350522B6013E040
:101F7000282A17D101332B60FFF76EFF114B1A7817
:101F8000002A18D182B2632A01D903220CE063002F
:101F9000F25A0D4B4000C252022C0CD02B681A781A
:101FA0000A2A03D01722074B1A7004E001330134C8
:101FB0002B60032CCCD17FBDCC060020E80600208E
:101FC000F01C0020C01E00201007002037B5254C53
:101FD000200006F029FB200006F040FA6B4618802E
:101FE000200006F03EFA6B465880200006F03CFACE
:101FF0006B46002498801C4D2B681A78CF2A0BD191
:1020000068465A1C2A605A786100405A17495200A3
:10201000023350522B6014E0282A18D101332B6070
:10202000FFF71AFF124B1A78002A19D182B2632ADD
:1020300001D903220DE06A466300D25A0D4B4000DD
:10204000C252022C0CD02B681A780A2A03D017220D
:10205000074B1A7004E0013301342B60032CCAD102
:1020600037BDC046F0060020E8060020F01C002026
:10207000C01E00201007002073B501AC0021200015
:10208000FFF7CEFE011E54D16D462A4AAE1D1368DD
:1020900018780A2807D1013330001360FFF7C0FE1B
:1020A000002846D101E02388338024880023F55E90
:1020B00023B29D4203DA14221F4B1A7039E0A4B2F6
:1020C0009D421BD12800FEF74BFD0400FEF73AFDB0
:1020D00085422ED12278A2181178002909D0002338
:1020E0008B4202D1E418D218F6E7D05CE0540133F9
:1020F000F6E721701DE029700134A4B20022B35E1E
:102100009C4216DC20B2FEF72BFD0500FEF71AFDFF
:102110008442F1D12A78AA1811780029EBD0002343
:102120008B4202D1ED18D218F6E7D05CE8540133A7
:10213000F6E773BDE8060020C01E002073B501ACB1
:1021400001212000FFF76CFE011E22D16B469D1D70
:102150002800FFF765FE021E1BD10E4B0026A15F73
:1021600018688389994202DB013B238002E0002941
:1021700000DA2280C38900216A5E9A4201DB013BBA
:1021800002E0002A01DA00232B802A88218804F04B
:1021900052FE73BDDC06002037B5FEF79DF9002422
:1021A000A04217D16B469D1D21002800FFF738FE85
:1021B000A04201D000240DE0FEF7A0F90028F9D1DB
:1021C0002888FEF701F9002801D0047802E01522E2
:1021D000014B1A7020B23EBDC01E002073B5FEF741
:1021E0007BF90024A04229D101AE01213000FFF784
:1021F00017FEA04201D0002420E06B469D1D210067
:102200002800FFF70DFE0028F5D1FEF777F900282A
:10221000F1D131880CB2002CEDDB2A8813B2002BEF
:10222000E9DB074800688589AC42E4DAC489A34247
:10223000E1DA92B289B204F010FE84B220B276BD27
:10224000DC06002073B56B469D1C01212800FFF7BA
:10225000E7FD00281AD101AE01213000FFF7E0FDB3
:10226000011E13D16B469C1D2000FFF7D9FD0028ED
:102270000CD12388022B01D9012323800021725E17
:1022800023880020295E024803F09DFE73BDC046EE
:102290004C0600200E23F0B587B06B4401211800D6
:1022A000FFF7BEFD002832D112256D440121280020
:1022B000FFF7B6FD00282AD104AE01213000FFF758
:1022C000AFFD002823D105AF01213800FFF7A8FD9D
:1022D000011E1CD116246C442000FFF7A1FD00282C
:1022E00015D12388022B01D9012323800022B35E5C
:1022F00000216A5E69460E20095E16206844008847
:1023000001900024385F0090024804F036F807B0CE
:10231000F0BDC0464C060020F0B50E2687B06E44D6
:1023200001213000FFF77CFD002836D104AF0121E8
:102330003800FFF775FD00282FD112246C440121CD
:102340002000FFF76DFD002827D105AD01212800F1
:10235000FFF766FD011E20D116206844FFF760FDDF
:1023600000281AD12B88022B01D901232B800022AF
:10237000A35E002B01DA012323800022A35E00214B
:102380007A5E0020315E16206844007840B20190E9
:1023900028880090024803F000FD07B0F0BDC04659
:1023A0004C060020F0B589B005AD01212800FFF7EB
:1023B00037FD002841D116266E4401213000FFF779
:1023C0002FFD002839D106AF01213800FFF728FD85
:1023D000002832D11A3001216844FFF721FD00287E
:1023E0002BD107AC01212000FFF71AFD011E24D1DB
:1023F0001E206844FFF714FD00281ED12388022BFD
:1024000001D9012323801E2068440078298840B226
:1024100034883B88029007A80088013301901A2075
:10242000684400885B1A0130001B00B200901BB2A8
:1024300022B209B2024803F0ACFF09B0F0BDC046B9
:102440004C0600200E23F0B589B002AA9B1801218A
:102450001800FFF7E5FC002855D106AD0121280042
:10246000FFF7DEFC00284ED1122602ABF618012140
:102470003000FFF7D5FC002845D107AF0121380017
:10248000FFF7CEFC011E3ED1162402ABE41820005B
:10249000FFF7C6FC002836D102ABDB8902936B46FE
:1024A0000821595E002916DB2B881AB29C46002AA7
:1024B00011DB338803936B469B891EB2B1420ADC61
:1024C000388807B2BA4206DC104DAB889E4202DA69
:1024D000ED88AF4203DB14220D4B1A7013E0258800
:1024E000032D01D9002525802478039B019464469F
:1024F000029D01300133001B00B25B1B00901BB238
:10250000024803F065FD09B0F0BDC0464C0600204E
:10251000C01E002073B5FDF7DFFF0024A04226D1C6
:1025200001AD01212800FFF77BFCA0421AD16B46C8
:102530009E1D21003000FFF773FCA04212D1FDF771
:10254000DDFF00280ED10023E95E00290ADB00230D
:10255000F25E002A06DB07488388994202DAC388C4
:102560009A4201DB002402E003F027FC040020B2C1
:1025700076BDC0464C060020F0B587B0FDF7ACFF35
:102580000300002083424DD10E246C440121200021
:10259000FFF746FC002824D104AD01212800FFF7F5
:1025A0003FFC00281DD112266E4401213000FFF7A8
:1025B00037FC002815D105AF01213800FFF730FCAA
:1025C000011E0ED116236B441800FFF729FC0028CA
:1025D00007D1FDF793FF002803D10023E15E002916
:1025E00001DA00201EE00023EA5E002AF9DB0F4832
:1025F0008588A942F5DAC488A242F2DA0023FF5E98
:10260000002FEEDB0023F35E002BEADB5E18B54201
:10261000E7DDBD18AC42E4DD6C46A47D0097019473
:1026200003F08CFB00B207B0F0BDC0464C060020A2
:10263000F0B5584D85B02868012103685B6B984759
:102640000121554C0395236801911A78CC2A17D1A2
:102650009A1C22605D782368002D07D05A1C2260E6
:102660001878013DFDF7F8FDEDB2F4E71A780A2A73
:1026700003D01722494B1A7083E001332360019580
:102680002368464D5A1C22601A78282A3ED0CF2A49
:1026900075D100219A1C5E7822609A7802910A2AEC
:1026A00009D103332360FFF759FB2B780700002B78
:1026B00067D101330293019B002B17D0192E0DDD3A
:1026C0001A21300006F05EFF4131C8B2FDF7C4FDAB
:1026D0001A21300006F070FE2F3001E0300041304A
:1026E000C0B2FDF7B9FD3A20FDF7B6FDFDF7F4FFE6
:1026F0002B78002B07D0022B49D1029B002B46D010
:10270000002338002B707600254B36E0FFF7A4FB42
:102710002A780600002A34D10323632830DC23689A
:10272000029219780A2909D101332360FFF716FBB9
:102730002B780700002B24D101330293019B002B3F
:102740000CD000211748FDF701FF002230001100D6
:10275000FDF71AFF00211448FDF7F8FEFDF7BCFF56
:102760002B78002B07D0022B0BD1029B002B08D01B
:10277000002338002B700D4B7600F05201E0172338
:102780002B70039B0021186803685B6B984705B0AA
:10279000F0BDC046DC060020E8060020C01E002078
:1027A000F01C002033C2000036C2000010070020D9
:1027B000144A70B51368591C116059781E2903D04A
:1027C0001222114B1A701CE0991C1C781160997828
:1027D000CC290DD1DD25D91C0C481160DB780068AF
:1027E0006D01081A01334019CB1880B2136005E05F
:1027F000FFF7B4FA044B1B78002B02D1044B6400A2
:10280000E05270BDE8060020C01E00203C030020FE
:10281000F01C002070B5FFF71FFB1D4B05001A7858
:102820001E00002A32D180B2632802D903233370FC
:102830002CE0184C226812781E2A13D012221A702B
:1028400024E0FFF78BFA3378002B1FD12BB2642BD7
:10285000ECD0114A5B009852236801351B78ADB269
:102860000A2B13D123685A1C22605A78CC2AE8D14B
:102870000A499A1C0868DD2122609B78101A4901D8
:1028800001334018D31880B22360DFE770BDC04623
:10289000C01E0020E8060020100700203C03002096
:1028A00010B50A4A13681978282906D0CF2909D10A
:1028B00001331360FFF77CFF07E001331360FFF77C
:1028C000A9FF02E00E22024B1A7010BDE80600209C
:1028D000C01E0020F8B5070015001C000E00FFF711
:1028E0003DFA0C4B38801A78002A05D1B04201DB42
:1028F000A84201DD142209E0002C08D006490A682C
:10290000501C086012780A2A01D017221A70187811
:10291000F8BDC046C01E0020E80600200021F0B52A
:102920003B4E85B03B4F02AB03ADDE803B68298058
:102930001B780400D02B07D1374B384E1B6833600F
:102940000022AB5E019320E00C2BF5D00B0032008F
:102950002800FFF7BFFF031E58D13A6811780A29F3
:10296000EAD1013202A83A6006300022A95E3200A4
:10297000FFF7B0FF002849D1DEE73800FEF7E2F8A4
:10298000019B98422FDA7D19356037683D78002D1C
:102990003CD0F2E7224B18680368DB6C984783B29F
:1029A000002B25D13068FEF7CDF802AB06330022AC
:1029B0009B5E83422ADB22000021FDF7E5FD21001A
:1029C0002020FDF7C5FC33682100D81CFEF794F9E0
:1029D000144B1B78002B19D12000FDF7D5FC326871
:1029E0001378D318336033681B78002BD2D10DE0F5
:1029F0001BB20D4A032B01D01B2B05D11921094B0A
:102A000019700023137001E01070CBE705B0F0BD22
:102A1000FF7F0000E80600203C0300202420002067
:102A2000DC060020C01E0020EE1C0020F7B56B461F
:102A300000210725344F9E1D01AC3B682180358065
:102A40001B78D02B01D1248842E00C2BFBD00B004B
:102A50002A002000FFF73EFF031E54D121883A6868
:102A6000318010780A28EED101323A6009B22A008A
:102A70003000FFF72FFF002845D1E4E7E7B2390027
:102A8000224803F0F0F839000500204803F023F94C
:102A900000281BD01E480021FDF758FD0020FDF73F
:102AA00073FC2B781B4F002B17D100251A482900E7
:102AB0003D70FDF74BFD20B22A002900FDF764FDB3
:102AC0002800FDF761FC2800FDF75EFC0134A4B28C
:102AD0000022B35E9C42D1DD15E02800FEF732F8FB
:102AE00000221100FDF750FD2020FDF7B5FBE81C8A
:102AF0000021FEF701F938780028D6D1FDF744FC13
:102B00002B78ED18CDE7F7BDE8060020E41800208B
:102B100039C20000C01E00203DC2000013B56B4644
:102B200000219C1D0A4B21801B681B78D02B06D1ED
:102B3000084B21781A68084803F0B3F806E00B0048
:102B400007222000FFF7C6FE0028F1D013BDC046C3
:102B5000E80600203C030020E4180020002337B5DD
:102B600001AC190007222000FFF7B4FE011E1FD19F
:102B70006B46104A9D1D23882B80136818780A28FD
:102B800001D0247809E00133136028000B000722EC
:102B9000FFF7A0FE00280BD1F3E70022AB5E9C42BA
:102BA00006DC21000448013403F066F8E4B2F4E7DF
:102BB00037BDC046E8060020E4180020F0B5334ECB
:102BC00085B0336803AC1B78D02B01D00C2B05D11A
:102BD00000230722238002ABDA8021E000230722B2
:102BE00019002000FFF776FE011E4CD1336802A8C1
:102BF0001A78851D0A2A07D1013328003360FFF7B0
:102C00000FF900283FD101E023882B800023E25EEA
:102C100000216B5E9A4203DD14221D4B1A7032E0D4
:102C20001C4D24782B68019302AB063300229B5E77
:102C30009C4226DC184F2100380003F014F80022D3
:102C40000121060020B2FDF79FFC00211348FDF78B
:102C50007DFC2100380003F03EF8011E03D110482E
:102C6000FDF774FC07E02E603378002B03D0F01CD6
:102C70000021FEF741F800200134FDF785FBE4B2A6
:102C8000D2E7019B2B6005B0F0BDC046E8060020EE
:102C9000C01E002024200020E418002017C20000DD
:102CA00043C2000037B56B4600219C1D114B2180AB
:102CB0001B681B78D02B0CD12488002C13D10E4D0F
:102CC000286803F0CBFC22002100286804F0B3F848
:102CD0000EE00C2BF0D00B0001222000FFF7FAFDD4
:102CE000002805D1E8E7012C02D1044803F03CF9A3
:102CF00037BDC046E8060020DC0600204C06002058
:102D000013B56B469C1D0023054A19002000FFF7F0
:102D1000E1FD002803D10023E05E05F0E1FD13BDD5
:102D2000FF7F000013B56B469C1D00230122190094
:102D30002000FFF7CFFD002807D1012221780348AA
:102D400003F021F92288024B1A7013BD4C060020B3
:102D5000D618002037B500216B4601AD9C1D082216
:102D60000B0028002180FFF7B5FD011E15D10B4A8D
:102D7000136818780A2807D0094B22881868298810
:102D800003681B6D984708E00133136020000B00B7
:102D90000822FFF79FFD0028EED037BDE80600208F
:102DA000DC06002013B56B469C1D0023042219008D
:102DB0002000FFF78FFD002805D1034B21881868FC
:102DC00003685B6D984713BDDC06002037B501AD85
:102DD0000021012320222800FFF77CFD011E19D1CC
:102DE0006B469C1D2000FFF71BF8002812D1002322
:102DF000E15E28884B1E9941074AC3B2D35CC9B231
:102E00002180DB0703D41B22044B1A7002E000B2BE
:102E100005F02AFF37BDC04694C10000C01E002047
:102E200037B501AD0021012320222800FFF752FD14
:102E3000011E17D16B469C1DFF2203002000FFF7E7
:102E400049FD00280ED12888074AC3B2D35C9B07EE
:102E500003D41B22054B1A7004E00023E15E00B28C
:102E600005F01CFE37BDC04694C10000C01E002006
:102E7000F7B501AE0021012320223000FFF72AFD23
:102E8000011E2DD16B469C1D802203002000FFF700
:102E900021FD002824D13378124AD35CDB0703D408
:102EA0001B22114B1A701BE0104B114D1A781F009A
:102EB000002A02D0280002F0C5FD0120FEF716F915
:102EC00022883178280002F049FC280002F07AFDBF
:102ED0000020FEF70BF9012322883B70054B1A8076
:102EE000F7BDC04694C10000C01E0020EF1C0020AA
:102EF000D81800202C250020F0B5162701242F4BD0
:102F000087B01B786F443C80002B03D11D222C4BD3
:102F10001A7051E00E202B4B00211A886844013AA8
:102F200012B22300FFF7D6FC011E45D12300FF2279
:102F300004A8FFF7CFFC011E3ED112266E442300E9
:102F4000FF223000FFF7C6FC011E35D105AD03009E
:102F5000FF222800FFF7BEFC011E2DD11A4A13687C
:102F600018780A2811D00120FEF7C0F80022BB5EB5
:102F7000002B14D06A46694628783378127CC989B8
:102F80000090124802F048FD13E00133136038004E
:102F90000B002200FFF79EFC00280DD1E3E76A46F4
:102FA000694628783378127CC9890090074802F076
:102FB0001FFD0020FEF79AF807B0F0BDEF1C0020BF
:102FC000C01E00202C250020E8060020D818002074
:102FD00013B50B4B1B78002B03D11D22094B1A7024
:102FE0000CE06B469C1D0023032219002000FFF714
:102FF00071FC002802D12288034B1A8013BDC04601
:10300000EF1C0020C01E0020C8060020F0B50E27CF
:10301000012487B002ABFF182A4B3C801B78002BA1
:1030200003D11D22284B1A704AE00A26274B0021A3
:103030001A8802ABF618013A12B223003000FFF7EB
:1030400049FC011E3CD105AD0300214A2800FFF7D1
:1030500041FC011E34D11F4A136818780A281ED07B
:103060001F212B881C4A9C120020105E5D110C4011
:103070000D40194081408440854001200391FEF7B6
:1030800035F8E2B26C460023F95E1448EBB2277BB8
:1030900000290ED03188009702F0BEFC0DE001330C
:1030A000136038000B002200FFF714FC002807D142
:1030B000D6E73188009702F09BFC0020FEF716F857
:1030C00007B0F0BDEF1C0020C01E00202C25002002
:1030D000FF7F0000E8060020C8060020D818002066
:1030E000F0B501248BB006ABDC81654B1D221B784B
:1030F000002B4FD0634D06A82A880021013A12B256
:1031000023000630FFF7E6FB0095011E00D0B5E076
:1031100008AF23005C4A3800FFF7DCFB011E00D03B
:10312000ACE00A25009B00229A5E06ABED18280051
:103130002300FFF7CFFB031E00D09FE009AE210064
:1031400003223000FFF7C6FB011E00D096E04F4A75
:10315000136818780A280BD006AB06229A5E002165
:103160006B5ED318009A0021525E934211DC0BE093
:103170000E2001331360220006AC0B000019FFF78C
:10318000A9FB00287AD1E7E73888FDF71DF9041E6E
:1031900003D115223E4B1A7070E02B8830885843BB
:1031A0003B88C01880B2FDF70FF90028F1D000224B
:1031B000AB5E00200293374B0027DF5FBB1C0193FF
:1031C000FB1C0393344B5B68049306AB06229B5EA7
:1031D00005930023F65E1F239C46029B98423DDA2E
:1031E000022E13D14200A3185B78A25C1B02D318F5
:1031F000624665469BB2991211405A112A40B94065
:10320000BA402B4089B292B2BB4017E0032E06D1E0
:1032100033004343E15CE3185A789B780FE00725BD
:10322000235C019A591191409A102A40019D89B25C
:10323000AA4003252B40039D92B2AB409BB2009362
:103240000323059D45195D43049B01305D196B46C1
:103250001B7869702A70AB7080B2BEE70E2306AA95
:103260009B1800229B5E002B08D00120FDF73EFF3B
:10327000094802F0A3FA0020FDF738FF0BB0F0BDBB
:10328000EF1C00202C250020FF7F0000E806002016
:10329000C01E0020C8060020D8180020F0B5012468
:1032A000002185B002AB9E1CDC80444B03AD1B7833
:1032B00031802C808B4203D11D22414B1A707AE061
:1032C000404F3B681B78D02B04D13F4C61880129CB
:1032D00025D870E00C2BF8D00B0022003000FFF74F
:1032E000F9FA011E67D13B681A780A2AEDD1013339
:1032F0003B60220003002800FFF7ECFA011E5AD1C0
:103300003B681A780A2AE0D101333B60030002A827
:1033100022000630FFF7DEFA00284CD1D5E7002264
:10332000B35E4A1E002B1DD10023EE5E002E05D099
:10333000636859781F7801919E7801E03700019603
:10334000032563686A435919180006F0EEFA63888A
:103350005D436368033D5D196B461B792F706B708D
:10336000AE7019E00023EF5E002F08D003234B431B
:103370006168033BCB181E785D789F7801E03D00C3
:103380003E0003235A436368D81C190006F0CDFAA7
:1033900063681E705D709F7002AB063300229B5EF7
:1033A000002B08D00120FDF7A1FE200002F006FA54
:1033B0000020FDF79BFE05B0F0BDC046EF1C0020CD
:1033C000C01E0020E8060020D8180020F0B585B007
:1033D00001AF00210123FF223800FFF77BFA011E15
:1033E0003CD16B469E1DFF2201233000FFF772FA8D
:1033F000011E33D102AD0123FF222800FFF76AFA34
:10340000011E2BD10A200123FF226844FFF762FA34
:10341000011E23D10123FF2203A8FFF75BFA011E3F
:103420001CD10E246C440300FF222000FFF752FA47
:10343000002813D10023FA5E05235343084A0333BF
:103440001268D31832881A702A885A706A465289CC
:103450009A706A469289DA7022881A7105B0F0BDB6
:103460003403002073B50123002120226846FFF7B2
:1034700031FA011E32D16B469E1C202201233000FE
:10348000FFF728FA011E29D1012301AC1A00200000
:10349000FFF720FA011E21D16B469D1DFF2203007C
:1034A0002800FFF717FA002818D16B4618880C4A35
:1034B000C3B2D15C0123194204D03188CEB2925DEF
:1034C0001A4203D11B22074B1A7007E00022AB5EA1
:1034D00009B20022A25E00B205F0EEFB73BDC04649
:1034E00094C10000C01E002073B56B469C1D0023D4
:1034F00006002380FCF7F0FF011E1ED101AD28005D
:10350000FEF78EFC011E18D10C4A136818780A28A1
:103510000AD0FCF7F3FF00280FD121780023E85EE2
:103520003200FDF779F808E00133136020000B004A
:103530000422FFF7CFF90028EBD073BDE806002086
:1035400073B56B469C1D012306002380FCF7C4FF66
:10355000011E1ED101AD2800FEF762FC011E18D12C
:103560000C4A136818780A280AD0FCF7C7FF00280D
:103570000FD121780023E85E3200FDF783F808E0E0
:103580000133136020000B001022FFF7A3F900287D
:10359000EBD073BDE806002037B50400FCF79CFFB4
:1035A000002817D16B469D1D0023FF22190028001B
:1035B000FFF790F900280DD121002878FCF7C8FE0C
:1035C000054A136819780A2902D101331360E9E723
:1035D000FCF794FF37BDC046E8060020F0B587B081
:1035E0000190FCF779FF011E71D13A4D2C682378C8
:1035F000CF2B0CD1631C2B606378374A5B00985A41
:10360000FCF7E2FE2B680278441C01331EE0282BF5
:1036100014D1013404AB2C609C1D632203002000F4
:10362000FFF758F9002852D10022A35E2B4A5B0015
:10363000985AFCF7C9FE0278441C0DE0CC2B07D148
:10364000631C2B60637802349AB2E3182B6003E0AA
:103650001722234B1A703AE004AB9E1C6B460125DF
:103660001C4905AF1A810B6835803A8018780A2802
:1036700007D0FCF743FF002829D104AB5D88013D4A
:1036800015E001330B6012B22B0029003000FFF768
:1036900021F9031E1BD132880299AA1A521812B2BC
:1036A00029003800FFF716F90028E2D00FE00022C9
:1036B000B35E05AA0021525E013BADB29B189D424C
:1036C00005DA605D0199FCF743FE0135EFE707B0CD
:1036D000F0BDC046E8060020F01C002010070020C6
:1036E000C01E0020F0B587B00290FCF7F5FE011E69
:1036F00000D0A4E0534C23681A78CF2A0DD15A1C6D
:1037000022605B78504A5B00985AFCF75DFE2368A4
:1037100006780133471C236023E0282A15D10133A2
:10372000236004AB9C1D3B3203002000FFF7D2F85E
:10373000002800D083E00022A35E444A5B00985A30
:10374000FCF742FE0678471C0BE0CC2A07D15A1C36
:1037500022605A789F1C96B2BA18226001E01722A4
:103760004FE004AB9D1C6B460124364A9E8004AB9F
:103770009E8013682C8019780A290ED0FCF7BEFEB3
:1037800000285CD104AB5B880125019333B203931D
:103790006B46040004269E5F23E001331360210082
:1037A000230032B22800FFF795F8031E47D12A887C
:1037B0000199A21A521812B2210005A8FFF78AF83F
:1037C0000028DBD03BE02AB296420FD0F85CFCF731
:1037D00089FD002801D00134A4B201350134ADB215
:1037E000A4B2039A23B29A42EDDC00E0019D2DB20F
:1037F0001422AE4205D1A4B2631C04AA5380002552
:103800001AE0134B1A701AE005AB1B889D4216D0C4
:103810003E1930780299FCF79BFD3078FCF762FD89
:10382000002805D00134A4B2385D0299FCF790FD60
:1038300001350134ADB2A4B2039B9C42E4DB07B076
:10384000F0BDC046E8060020F01C00201007002054
:10385000C01E0020F0B587B0FCF73EFE0023011E1D
:10386000994200D083E002A801337F220630FFF79F
:1038700031F8011E47D104AE01233E4A3000FFF764
:1038800029F8011E3FD10A2502ABED18394A012360
:103890002800FFF71FF8011E35D105AF0123354A77
:1038A0003800FFF717F8011E2DD10E2402ABE418E3
:1038B000304A03002000FFF70DF8002823D1FCF761
:1038C0001DFE00281FD13888FCF77EFD009030884F
:1038D000FCF77AFD009B0190002B11D000280FD03F
:1038E00038882388C01880B2FCF76EFD002807D006
:1038F00030882B88C01880B2FCF766FD002804D100
:1039000015221D4B1A70002331E01C4E02AB997931
:10391000300004F021FD0022AB5E3500002B10D0FA
:10392000019E0A2202A9019B5218F31A0021525E3D
:103930009BB2934205DA3178280004F041FC01364D
:10394000EFE70022A35E002B0DD0009E009B00211C
:10395000625EF31A9BB2934205DA3178280004F0D4
:103960002FFC0136F2E7280004F060FD83B218B2A4
:1039700007B0F0BDFF7F0000C01E002050250020D2
:10398000F7B56B4601249D1D2C80FCF7A5FD011E9B
:1039900001D0002033E0230020226846FEF79AFF82
:1039A000011EF6D16B469E1C202223003000FEF73C
:1039B00091FF011EEDD101AF030022003800FEF798
:1039C00089FF011EE5D10F4A136818780A280CD028
:1039D000FCF794FD0028DCD168462B783A783178E2
:1039E0000078FDF7E3FB80B209E0013313602800A3
:1039F0000B002200FEF76EFF0028E9D0C9E700B2F5
:103A0000FEBDC046E8060020F7B56B4601249D1DAB
:103A10002C80FCF761FD011E01D0002041E0230055
:103A200020226846FEF756FF011EF6D16B469E1C0B
:103A3000220023003000FEF74DFF011EEDD101AF43
:103A40000300194A3800FEF745FF031EE5D1174968
:103A50000A6810780A2804D0FCF750FD0028DCD151
:103A600009E001320A6028000F4A2100FEF732FF08
:103A70000028F1D0D1E70023FA5EFA239B005A43D5
:103A80000023F15E6B460020185E04F047FF002320
:103A9000E95E05F007FC044B984201DD012040423D
:103AA00080B200B2FEBDC046FF7F0000E8060020E5
:103AB000F7B5FCF711FD0024A0422CD16B469F1CEA
:103AC0001F22012321003800FEF704FFA04201D08D
:103AD000002420E001AE01231F2221003000FEF768
:103AE000F9FE0028F4D16B469D1D1F222300210002
:103AF0002800FEF7EFFE0028EAD1FCF7FFFC0028C3
:103B0000E6D10023FC5E0022B35EA4025B0128889C
:103B10001C430443A4B220B2FEBDF7B5FCF7DCFCA5
:103B20000024A0422CD16B469F1C072201232100B8
:103B30003800FEF7CFFEA04201D0002420E001AE05
:103B40000123072221003000FEF7C4FE0028F4D133
:103B50006B469D1D0322230021002800FEF7BAFEBC
:103B60000028EAD1FCF7CAFC0028E6D10023FC5E5D
:103B70000022B35E64019B0028881C430443A4B266
:103B800020B2FEBDF0B58DB001232A4A2A4968460D
:103B9000FEF7A0FE00284AD16B469F1C01230C2291
:103BA00019003800FEF796FE002840D1012301AE2F
:103BB00019001F223000FEF78DFE011E37D16B4623
:103BC0009D1D172201232800FEF784FE011E2ED121
:103BD00002AC01233B222000FEF77CFE011E26D111
:103BE00003000A203D226844FEF774FE00281ED11F
:103BF0006B4600229B5E114A0B909B180893002293
:103C0000BB5E03A8013B07930022B35E069300222C
:103C1000AB5E05930022A35E04936B460A229B5E73
:103C2000039305F06BFF0100054801F097FF0DB00D
:103C3000F0BDC046F4070000B207000094F8FFFF93
:103C4000CC060020F0B50124222600238BB008AD5D
:103C50006E44210006A82C803380FEF7E1F800288E
:103C600000D078E01A236B4421001800FEF7D8F842
:103C7000002870D126276F4421003800FEF7D0F8C5
:103C8000002868D1210009A8FEF7CAF8002862D1EF
:103C9000210007A8FEF7C4F8011E5CD11E2068446D
:103CA000FEF7BEF8011E56D12C4C23681A780A2A5A
:103CB00006D1013328002360FEF7B2F800284AD16C
:103CC00023681A780A2A08D03888FCF77DFB031E7F
:103CD0000ED11522224B1A703DE0013323600023E0
:103CE000012219003000FEF7F5FD002833D1EBE783
:103CF00009AA0020115E002901DA0021118007AA1B
:103D00000020115E002901DA012111801E226A447F
:103D10000020115E002901DA0121118000216A5E74
:103D2000002A01DA01222A806A461A21525E694677
:103D30001820095E30780490288803901E2068447B
:103D40000088029007A80088019009A800880090C8
:103D5000044802F0F2FA0BB0F0BDC046E8060020BD
:103D6000C01E00204C06002037B500216B4601AD77
:103D70009C1D0F4A0B0028002180FEF7ABFD011EA1
:103D800014D10C4A136818780A2806D00A4B2288E6
:103D90002988187801F010FF08E001331360200033
:103DA0000B00034AFEF796FD0028EFD037BDC04652
:103DB000FF7F0000E80600203803002013B56B46A3
:103DC0009C1D0023202219002000FEF783FD0028FF
:103DD0000CD12378064AD35CDB0702D41B22054BA7
:103DE00003E001F0E3FE2288034B1A7013BDC046C6
:103DF00094C10000C01E00203803002013B56B469C
:103E0000FA229C1D5200002320212000FEF762FDB3
:103E1000002802D12288014B1A8013BD0400002023
:103E2000F7B5FCF759FB0024A0423DD16B469D1C21
:103E30001E4A01231E492800FEF74CFDA04230D146
:103E400001AF0123632221003800FEF743FDA042A9
:103E500027D16B469E1D6322230021003000FEF710
:103E600039FDA0421DD1FCF749FBA04219D1002326
:103E7000FA5E0023F15E5318642B03DD14220D4B10
:103E80001A7011E00C4C0023ED5E81420BDD13181B
:103E90005B001B5FAB4201DC84B205E0013080B205
:103EA000F3E7002400E0054C20B2FEBDFF7F0000D8
:103EB0000080FFFFC01E002010070020FFFF000051
:103EC0000123F0B585B003AE00903380FCF704FB0E
:103ED000011E01D000217DE0404D2C682378CC2BC1
:103EE00006D1631C2B60637802349FB2E3180DE0A7
:103EF000CF2B0DD1631C2B606378394A5B00985A35
:103F0000FCF762FA2B680778441C01332B601AE037
:103F1000282B14D1013402AB2C609C1D63220300BA
:103F20002000FEF7D7FC0028D4D10022A35E2D4A42
:103F30005B00985AFCF748FA0778441C03E0172204
:103F4000294B1A7046E02B681A780A2A0AD0009B7F
:103F5000002B37D000250022B35E2E0000933BB229
:103F6000019319E001332B603AB2002301213000A4
:103F7000FEF7B0FC0028EAD0ACE700995A1C914249
:103F80000FD0E05DFCF7AEF9002801D00135ADB2ED
:103F900001360135B6B2ADB2019A2FB233B2BA4290
:103FA000EBDC009A013300259A4210D1E05D85B226
:103FB000FCF798F900280AD0E41963782D02ED186F
:103FC000ADB204E00023F05E2418013C2578FCF734
:103FD00095FAA9B208B205B0F0BDC046E8060020C7
:103FE000F01C002010070020C01E0020F7B50700BD
:103FF000FCF772FA011E4FD1294D2B681A78CF2A8F
:104000000DD15A1C2A605B78264A5B00985AFCF74F
:10401000DBF92B6806780133441C2B6023E0282A47
:1040200014D101332B606B469C1D3B3203002000F2
:10403000FEF750FC00282FD10022A35E1A4A5B0035
:10404000985AFCF7C1F90678441C0CE0CC2A07D139
:104050005A1C2A605A789C1C96B2A2182A6002E068
:104060001722124B1A70FCF749FA3500002F14D0B2
:1040700000273D0036B23BB29E420EDD2078FCF7B1
:1040800031F9002802D001370134BFB201350137C0
:10409000ADB20134BFB2EEE7002528B2FEBDC04686
:1040A000E8060020F01C002010070020C01E0020A1
:1040B000F0B585B002AB9E1D20233380FCF70CFACF
:1040C0000023011E994200D07EE003AD0300404A68
:1040D0002800FEF7FFFB031E34D13E490A68107822
:1040E0000A2807D0FCF70AFA3B4B3B4C1B78002B05
:1040F0000AD027E001320A603000FE220121FEF7DB
:10410000E9FB0028EED01DE02888FCF75DF90028C7
:104110001AD028883388C01880B2FCF755F90028D7
:1041200012D02888FCF750F92C4F04003868036837
:104130001B6F984700280BD11923274A2070137052
:10414000FCF722F9264B3FE01523237000233BE0C8
:104150003B689B691800019306F04AFA87B2002F6A
:1041600022D032883B1C11B23FB2661C8F4200DD68
:10417000131C1FB23A000199300006F075FA0023B3
:10418000E7197B703000FCF793F9300006F030FA45
:1041900087B23BB20600002B06DDE31818780193C6
:1041A000FCF7A0F8002809D1002027703FB2E419DD
:1041B00060702C88FCF7E8F8230005E00022019BE2
:1041C000013E1A70B7B2EFE718B205B0F0BDC046B5
:1041D000FF7F0000E8060020C01E0020DC06002053
:1041E000FFFF00007FB50E25184C6D44236803AE19
:1041F000DB89FE222B80102100233000FEF76AFBB2
:10420000031E22D11248026811780A2915D02068AD
:1042100002F024FA00222068110002F00CFE20684F
:1042200003681B6E98470B4B2A881B6831880093E4
:104230002068FE2302F01FFA07E0013202601E220E
:104240002800FEF747FB0028E1D07FBDDC060020F8
:10425000E8060020E40600200123F0B50A258FB00F
:104260005B4204AF3B8002ABED1800234E4C2B8029
:1042700022680126511E09789F2901D11E003B802A
:10428000137802AA901DD02B02D10023038008E0EE
:10429000002307221900FEF71DFB002801D000258E
:1042A0007FE0002E2DD025682B780A2B26D16B1CA1
:1042B00023606B78CC2B18D1AB1C2360AA780193B8
:1042C000131C202A00D92023CC2005A9DAB20870BB
:1042D0004B70BE3802ABC018E91C06F0C5F9AB78CC
:1042E000019A0133D31823601DE000232F4A1900DF
:1042F0003800FEF7EFFA002815D0D0E700233B8006
:1043000011E0236831001A780A2A0DD101332360A5
:1043100028003300093AFEF7DDFA051EBFD1172247
:10432000234B1A703DE0012102ABD888FCF7A2FEB6
:10433000051EB4D13F88002F03D11E4B1A681E4BB7
:1043400018E03FB27B1C0BD105A8FCF71BFC002832
:1043500003D11023164A137023E0174B18600AE0AC
:104360003800FCF7FDFB0190FCF7ECFB8742F0D135
:10437000114B019A1A600E4B01251B78002B10D1AE
:10438000002E09D10B4B22681B689A4209D3802169
:1043900049015B189A4204D20125074B1B6803337D
:1043A000236028000FB0F0BDE8060020FF7F00006A
:1043B000C01E00203C0300202420002013B56B46C3
:1043C0009C1D2022012300212000FEF783FA0028F3
:1043D00012D1FDF7C3FC094A01001378002B0BD161
:1043E0002388074CD8B2205CC00702D41B2313706B
:1043F00002E018B204F01AFC13BDC046C01E002033
:1044000094C1000010B5FCF767F8002801D0002423
:1044100011E0FDF7A3FC094B1C78002CF7D180B20A
:1044200002F0C8FF002803DB054BC000C01884B2AF
:10443000FCF764F8A4B220B210BDC046C01E002034
:10444000A038000070B505000C00FDF787FC094B93
:1044500028601A78002A0AD1002C08D006490A6878
:10446000501C086012780A2A01D017221A70187896
:1044700070BDC046C01E0020E80600200223F0B533
:1044800085B002AA13800023971C04003B80FCF730
:1044900023F8011E5FD103A8FFF7D4FF011E5AD1F4
:1044A0002E4D2B681A780A2A09D0FCF727F8002825
:1044B00051D102AB00229A5E01250A2316E0013396
:1044C0002B600422030002A8FEF704FA031E42D167
:1044D0002A6811780A29E8D101322A6010390622A7
:1044E0003800FEF7F7F9002835D1DEE7904203DA0D
:1044F00001305D4380B2F9E7039E2900300004F0EB
:104500005BFF0190002805D1002E03DA21002D2049
:10451000FBF71EFF0023F95E6B4622000420185EA5
:10452000FCF732F802AB00229B5E002B13D0210077
:104530002E20FBF70DFF02AB290030001F8805F08D
:1045400021F8CB17C8187F423FB2584000B2220072
:104550003900FCF719F805B0F0BDC046E8060020A8
:1045600010B586B0FBF7B8FF002398423AD101217D
:1045700001A8FFF767FF002821D1012102A8FFF75A
:1045800061FF00281BD1012103A8FFF75BFF002872
:1045900015D1012104A8FFF755FF011E0FD105A871
:1045A000FFF750FF00280AD1FBF7A8FF002806D12B
:1045B0000299039A914204DB14220C4B1A700023D7
:1045C00010E0049C059B9C42F6DA01988142F3DCE2
:1045D0008242F1DB1B1B401A5843511A04F0ECFED7
:1045E0000419A3B218B206B010BDC046C01E002008
:1045F000F7B5FDF7B3FB164B04001A78002A26D155
:104600001432002805DB134D2A6812780A2A15D0C7
:1046100017221A701BE02B68002101332B606B46B8
:104620009F1D3800FDF7FCFB002810D13B880134AA
:1046300033702B68A4B21B780A2B08D1A4B22000D7
:10464000FBF7C2FE061EE6D11523014A1370F7BD23
:10465000C01E0020E806002070B5104D28680378C1
:10466000CC2B07D1FCF78EFA041E11D110220C4B73
:104670001A7011E0FDF772FB094B06001B78002B46
:104680000AD1FCF76DFA0400FCF75CFA8642EDD122
:10469000044B1C6003342C6070BDC046E80600204B
:1046A000C01E002024200020F8B5184D286803788B
:1046B000CC2B05D1FCF766FA041E0FD1102212E0B4
:1046C000FDF74CFB124B06001B78002B1DD1FCF7AD
:1046D00047FA0400FCF736FA8642EFD10D4803781A
:1046E000082B03D906220A4B1A700EE00A4A0B491E
:1046F00017689E0077509E1C01330670DBB2286855
:104700009B001460033458502C60F8BDE80600206C
:10471000C01E0020E006002024200020981E00205B
:10472000F8B52B4C2B4D23685A1C22601A78CF2ADF
:1047300001D00C232EE05F78FEF73AF82B78002B9F
:1047400044D123681A78042A0AD101332360FDF783
:1047500005FB236806001A780120052A10D101E024
:104760000D2317E001332360FDF7F8FA002805DA7E
:10477000194B1B1AB34208DD02230BE0002804D0BA
:10478000164B02B29B1AB342F6DB154B1B78142B67
:1047900002D908232B7019E01249134A09689D00B9
:1047A000A95021685D1C9C1CEDB2E4B2A400AD00D0
:1047B000A950A650DC1CE4B200B2A400A050581DC1
:1047C00004330749DBB29B0008709F50F8BDC04618
:1047D000E8060020C01E00200180FFFFFF7F0000D0
:1047E000D718002024200020C01F002010B5FDF79E
:1047F000B5FA0C4B1A78002A02D00F221A7010E07A
:1048000000280ED1084C2068FCF7F2F9220000289D
:1048100006D113681978D02903D001331360F8E763
:10482000206010BDC01E0020E806002070B5050005
:10483000FBF752FE00281BD1FDF790FA0D4A83B218
:104840001278002A14D1C4B2FF2B03D9180A290008
:10485000FBF77EFD29002000FBF77AFD064A13686E
:1048600019780A2902D101331360E5E7FBF746FE08
:1048700070BDC046C01E0020E80600200023F7B52A
:10488000050001910093514C236827001A780C2AE7
:1048900000D197E0D02A00D194E0362A47D010D832
:1048A0001C2A2ED003D8092A00D189E051E0342AED
:1048B00031D0352A4DD1013328002360FEF740FE68
:1048C00057E0C22A3FD009D8372A36D0382A40D1FB
:1048D000013328002360FEF781FE4AE0C42A20D07D
:1048E000CC2A36D19A1C22605E78002E41D03B68DB
:1048F00029005A1C3A601878013EFBF729FDF6B2F0
:10490000F3E701332360FDF729FA314B00901B7860
:10491000002B2ED059E0013328002360FEF73CFE27
:1049200027E0013328002360FFF780FF21E00133F7
:1049300028002360FEF7D8FD1BE001332800236028
:10494000FFF79CFD15E0013328002360FEF7CAFE47
:104950000FE0FDF703FA1E4B1B78002B03D000205D
:10496000FBF712FD31E06B462A000021595EFBF790
:104970000BFE174B1A781900002A21D1019B002B3E
:1049800003D023681B780A2B1FD022681378092BC9
:1049900016D018000A3801280AD8531C236053780F
:1049A0000C2B12D0D02B10D0092B00D06BE70CE0D1
:1049B0000C2B00D167E7D02B00D164E717230B70D5
:1049C0002800CDE7019B002BFAD0F7BDE8060020B8
:1049D000C01E0020F0B5A54B85B01B880193A44BE9
:1049E0001D78A44B1B880293FBF7E0FC01210320F8
:1049F000FFF744FFA04BA14C1B78002B00D033E104
:104A00002378002B00D12FE19D4B18680368DB6CE5
:104A1000984700280AD09B4B032801D01B2804D1BB
:104A20001921954A11700022E1E0187023781A00CC
:104A3000613A192A01D8203B23702378202B00D11A
:104A4000F7E0262B00D1F4E01A00413A062A6CD890
:104A50008D4A0821D3186278413B10001B788843A7
:104A6000DFB2232808D17AB201330A2A0DDD00957E
:104A7000072D14D86F1C0FE02D2A02D0621C009560
:104A80000EE07AB2002A03DD013BDFB2009506E0BA
:104A90000095012D03D96F1EFBB20B270093A21CBA
:104AA00014000026237819003039092906D80A2174
:104AB0004E43303EF3189EB20134F3E7A24212D0C7
:104AC000082E11D007D8002E00D18EE0022E0BD96F
:104AD000042E09D089E0202E06D0402E04D0102EBE
:104AE00000D082E000E0019E002203922E2B02D132
:104AF0002D3B013403930299644804F05DFC3100BE
:104B000004F05AFC039B002B01D04308C018009B03
:104B10007FB2013BFF00FF185D4B7F00F95A5D4BF0
:104B200082B2187801F048F86AE74C2B25D101349D
:104B300021000023227810003038092806D80A20E6
:104B40004343303B9B189BB20134F3E78C4200D1C6
:104B500056E7082B01D1019352E7082B06D8002B0A
:104B600043D0022BF7D9042BF5D03EE0202BF2D016
:104B7000402BF0D0102B38D1EDE74F2B12D1002570
:104B8000013423781A00303A092A06D80A225543FC
:104B9000303DED18ADB20134F3E76B1E072B24D87E
:104BA000EDB22DE7522B38D10134220000262378B4
:104BB00019003039092906D80A214E43303EF3182E
:104BC0009EB20134F3E7944213D0082E12D006D8D7
:104BD000002E0AD0022E0DD9042E0BD005E0202E77
:104BE00008D0402E06D0102E04D01E22224B1A7060
:104BF0003AE0019E00272E2B01D1013401370299A2
:104C0000224804F0D9FB310004F0D6FB002F01D07C
:104C10004308C01803F064FEF2E63C2B03D1072DD5
:104C200007D8013504E03E2B05D1012D01D9013D06
:104C3000EDB20134E4E6542BD7D101342100002336
:104C4000227810003038092805D80A204343303B29
:104C5000D3180134F4E78C42C7D01A00203ADF2A77
:104C6000C3D89BB20293CBE605B0F0BD4003002051
:104C70000600002004000020C01E00204C0500207B
:104C8000DC060020EE1C0020F1C1000080A903001A
:104C9000B6C000003803002073B501AD01230E4AF1
:104CA0000E492800FDF716FE002814D16B469E1D04
:104CB000094A012309493000FDF70CFE041E0AD100
:104CC0000023E95E06480023F25E01F031F821007E
:104CD0000220FFF7D3FD73BDFF7F00000080FFFFC0
:104CE0004C06002073B501AD0021012304222800E9
:104CF000FDF7F0FD011E11D16B469E1D084A0123F0
:104D00003000FDF7E7FD041E08D1297805483288F8
:104D100001F024F921000520FFF7B0FD73BDC04666
:104D2000881300004C060020F8B5002317278A4C92
:104D300023708A4D2B681B78D02B00D1D2E1884E8E
:104D400030680368DB6C984700280AD0854B03283D
:104D500001D01B2804D11922227000221A70C1E14F
:104D600018702B685A1C2A601878CF2800D9ABE13C
:104D700004F08EFAD300D600D900DC00AA01AA0103
:104D8000DF00E200E800E500AA01AA01B301E500A6
:104D9000AA01AA01AA01AA01AA01AA01AA01AA01BB
:104DA000AA01AA01AA01AA01AA01AA01AA01AA01AB
:104DB000AA01AA01AA01AA01AA01AA01AA01AA019B
:104DC000AA01AA010601EE001D010C010C0111014E
:104DD000EB00FD000001FA002C01AA01AA01AA01C2
:104DE000AA01AA01AA01AA01AA01AA01AA01AA016B
:104DF000AA01AA01AA01AA01AA01AA01AA01AA015B
:104E0000AA01AA01AA01AA018001300133013901D6
:104E100036013C0142013F014501AF011401170178
:104E20001A01AA01AA01AA01AA01AA01AA01AA01BA
:104E3000AA01AA01AA01AA01AA01AA01AA01AA011A
:104E4000AA01AA01AA01AA01AA01AA01AA01AA010A
:104E5000AA01AA01AA01AA01AA01AA01AA01AA01FA
:104E6000AA01AA01AA01AA01AA01AA01AA01AA01EA
:104E7000AA01AA01AA01AA01AA01AA01AA01AA01DA
:104E8000AA01AA01AA01AA01AA01AA01AA01AA01CA
:104E9000AA01AA01AA01AA01AA01AA01AA01AA01BA
:104EA00048014B014E015101540129012301260102
:104EB000200177017A015C017301E50009015701C6
:104EC00077016D016A01700159017D01830186013D
:104ED00089018C01920198019B018F019E0195012E
:104EE000AA01AA01A101A401AA01AA01AA01AA0179
:104EF000AA01AA01AA01AA01AA01AA01AA01AA015A
:104F0000AA01A701A701A701AA01AA01D000AA012D
:104F1000AA010301FCF7DAFADFE0FFF79DFBDCE012
:104F2000FFF7C2FBD9E0FCF7DBFAD6E0FFF7F8FBAE
:104F3000D3E0FCF7F7FAD0E0FFF758FCCDE0FCF740
:104F400043FBCAE0FCF74CFBC7E0FDF7ABFEC4E057
:104F5000FDF7D6FEC1E0C046C01E0020E8060020D6
:104F6000DC060020EE1C0020FDF7E8F8B5E0FDF7B8
:104F7000F1FEB2E0FDF716FFAFE0FDF719FCACE083
:104F8000FDF748FCA9E0FDF78BFCA6E00021080036
:104F9000FFF774FCA1E0FDF74BFB9EE0FDF716FF69
:104FA0009BE0FDF73DFF98E0FEF75CFA95E0FFF728
:104FB0001FFB92E0FEF7E6FD8FE0FCF763FF8CE05D
:104FC000FCF7B6FF89E0FCF715F986E0306801F0E0
:104FD00083FB82E0FDF736F97FE0FDF75BF97CE0CB
:104FE000FDF79AF979E0FDF7DDF976E0FEF72AFEA4
:104FF00073E0FDF727FA70E0FFF74EFE6DE0FFF774
:1050000071FE6AE0FEF7B0FE67E000F0CFFD64E0FD
:10501000FEF7D4FE61E0FFF7DDFC5EE0FEF7EEFE9A
:105020005BE002201AE0FCF701FA56E0306800214C
:1050300003685B6B98470020FDF770FC3068012126
:1050400003685B6B984748E0FDF7F0FC45E0FDF72F
:10505000B5FD42E0FDF782FD3FE00020FBF73EFF9B
:105060003BE0FFF7F9F838E0FDF758FD35E0FFF7D2
:10507000B9F832E0FDF756FE2FE0FCF7A7FF2CE071
:10508000FDF7F6FE29E0FCF745F826E0FCF760F8AE
:1050900023E0FDF731FF20E0FDF7B8FF1DE0FDF74D
:1050A00097FF1AE0FCF768F817E0FEF7F7F814E04E
:1050B000FEF716F811E0FBF7DFF80EE0FEF786F9D1
:1050C0000BE01323237012E02B601B785C3B202B3A
:1050D00002D8FFF773F900E027702378002B00D186
:1050E00027E604E0034B18680378C01800E00020AE
:1050F000F8BDC0462420002000230D4A10B51370CF
:105100000C4A0D4C137098420FD10C4B1B68236056
:1051100023681A78002A0AD0094A03331360FFF77C
:1051200003FE084B1B78002B01D12060F0E710BD77
:10513000E0060020D7180020242000203C03002097
:10514000E8060020C01E002070B52D4A2D49531CD2
:105150000B601378A62B1BD00AD82E2B40D002D878
:105160000D2B4AD03FE09F2B0FD0A32B45D03AE028
:10517000C82B22D004D8C72B35D1FBF7DFFE2AE09D
:10518000C92B2AD0CA2B38D02DE0FFF765F822E0D2
:10519000FFF762F80124002830D01B4D0021286859
:1051A00003685B6B9847194B1868FFF7A5FF2868E1
:1051B000210003685B6B984720E0134C00212068B6
:1051C00003685B6B98470020FFF796FF206801217A
:1051D00003685B6B9847012410E0FCF74DFFFAE78A
:1051E000FDF760FD09E0084C0A60206800210368B3
:1051F0005B6B9847FFF798FDE8E70024200070BD3F
:10520000C11E0020E8060020DC060020242000202B
:10521000F7B50020FBF762FEF020000104F068FB08
:10522000564D01272860FBF727F802F0EFF800261B
:10523000534B1860534800F0C7FD534B534C1F703D
:1052400053482B681822502120600093FE2301F060
:1052500012FA504800F05CFC4F4802F0EFFFFDF7F7
:1052600021FD2068002103685B6B984700214B48B3
:10527000FBF76CF90020FBF787F800214848FBF7A3
:1052800065F900214748FBF761F90020FBF77CF83E
:10529000454D30002E70FCF70BF82068390003688C
:1052A0005B6B98473100052003F0C0FC31000B20F8
:1052B00003F0BCFC02223D49052003F05DFA3C48A6
:1052C0000222310003F070F90B2003F0E3FCB0423E
:1052D00004D10100FBF7CEFE061E42D0206801215A
:1052E00003685B6B9847206803689B6E98470028AB
:1052F000F9D023689E693078002802D1FBF744F882
:10530000F1E7300005F074F9FD2805D91A230020D3
:105310002B70FBF739F81BE0264F3100380005F001
:105320005FF93800FBF7C4F80020FBF72DF8FBF716
:105330008BFA2B78002B01D001200AE01E4B1A7843
:10534000CB2A09D11870FBF78FFC2B78002BCAD021
:105350000020FBF7ADFFC6E7FFF7F6FE0028C2D03E
:10536000F6E72068310003685B6B98473000FFF771
:10537000C3FE3000FBF708F82E70AFE7E40600200C
:10538000E01800204C060020D6180020DC06002083
:10539000A8060020CC060020502500204AC20000AC
:1053A00060C2000072C20000C01E00201102000096
:1053B000F0060020D8170020C11E002010B5FFF70E
:1053C00027FF10BD8023A32101220220DB05C90095
:1053D00010B5DA605850E1219A604902044803F0A0
:1053E00056FD002003F0CCFA03F0E0FE10BDC046ED
:1053F00048260020034B10B51B68002B00D09847AF
:1054000010BDC046E4260020034B10B51B68181ED3
:1054100000D0984710BDC046E026002010B504001B
:105420002078002803D0FFF7E5FF0134F8E710BD2E
:1054300070B5041E092C16D9632809D9642103F01C
:1054400031FF05003030FFF7D5FF64206843241A90
:105450000A21200003F026FF05003030FFF7CAFFC5
:105460000A206843241A20003030FFF7C3FF70BDC4
:1054700070B50D4C06000D1E236807D0002B0BD114
:105480000A48FFF7CBFF0123236005E0002B03D080
:105490000748FFF7C3FF25603000FFF7ABFF054A61
:1054A00013680133136070BD3C250020ACC60000BA
:1054B000B1C600004403002070B505000C0088420E
:1054C00003D10A48FFF7AAFF0EE00948FFF7A6FF3D
:1054D000681CFFF7ADFF3B20FFF78CFF601CFFF758
:1054E000A7FF7220FFF786FF70BDC046B6C600005A
:1054F000BAC6000070B505000C000848FFF78EFF23
:10550000681CFFF795FF3B20FFF774FF601CFFF757
:105510008FFF4820FFF76EFF70BDC046BAC600007F
:10552000014B18607047C046E0260020014B186010
:105530007047C046E426002010B50021FFF798FF11
:1055400010BD000070B51F4E04003368834237D091
:1055500025051D482D0FFFF761FF6B1E072B06D891
:105560001A48FFF75BFF28002F30FFF743FF2504A1
:105570002D0F6B1E072B06D81548FFF74FFF28008D
:105580002F30FFF737FFA30702D51248FFF746FF7A
:10559000E30702D50E48FFF741FF630702D50E4827
:1055A000FFF73CFF230702D50C48FFF737FFE30660
:1055B00002D50B48FFF732FF6D20FFF71BFF346069
:1055C00070BDC0464C030020BDC60000C1C600002F
:1055D000C4C60000C7C60000CAC60000CDC6000091
:1055E000D0C60000064B10B51C68064A844202D1A2
:1055F00014688C4203D018601160FFF77BFF10BD68
:10560000480300204403002010B50B4B0B4C1968D5
:105610002068FFF751FF00212068FFF76BFF084863
:10562000FFF7FCFE00210800FFF746FF054B20684E
:105630001968FFF75FFF10BD5003002048030020EA
:10564000D7C600004403002010B50C4B0C4C186862
:105650002168FFF731FF00212068FFF74BFF094861
:10566000FFF7DCFE00210800FFF726FF064B196854
:10567000064B1868FFF73EFF10BDC04638250020D6
:1056800050030020DBC60000440300204803002034
:1056900010B50248FFF7C2FE10BDC046DEC60000CE
:1056A00000B5FF2000BD000010B50248FFF7B6FEB0
:1056B00010BDC046EBC60000024B1860024B1960DB
:1056C0007047C046382500205003002010B5040064
:1056D0000448FFF7A3FE6C20002C00D06820FFF7E1
:1056E00089FE10BDF3C60000F7B5FFF78DFE082355
:1056F0007F282FD0031E1B2B2CD1FFF785FEFF2800
:10570000FBD01B23984225D05B2801D0FF2321E04A
:105710000024FFF779FEFF28FBD0030001AE413BD8
:10572000A055621C192B04D97E2802D0141E032C0C
:10573000EFD10024084FB454E500E959300004F0DB
:1057400045FF002802D17D192B7903E00134172C85
:10575000F2D1DBE71800FEBDF4C50000F8B5032563
:1057600004002800134B8900CF585043160004F062
:10577000BFF82770FFB23B00A022C133FF33D20530
:105780009B00606066809D500123BB400A495350D6
:1057900000231900B3420BDA2A005A436068013330
:1057A0008154606880184170606882189170F1E7D8
:1057B000F8BDC046901801000C0500000123F0B5AB
:1057C00002787E499340A022D205060085B053504E
:1057D00032200138C046C046C046C046C046C0461A
:1057E000C046C046C046C046C046C046F1D17088DB
:1057F000029000200190A120C000029C019DA542C2
:1058000000DBDDE00324019D77686C433C19E71C55
:1058100003974027BC467F2527781350AF430AD013
:10582000C046C046C046C046C046C046C046C04648
:10583000C046535009E0C0465350C046C046C0461B
:10584000C046C046C046C046C0466546277813508D
:105850002F420AD0C046C046C046C046C046C046D9
:10586000C046C046C046535009E0C0465350C046EB
:10587000C046C046C046C046C046C046C04627785F
:105880001350BD060AD5C046C046C046C046C046F5
:10589000C046C046C046C046535009E0C0465350BB
:1058A000C046C046C046C046C046C046C046C046C8
:1058B00027781350FD060AD5C046C046C046C046EC
:1058C000C046C046C046C046C046535009E0C04628
:1058D0005350C046C046C046C046C046C046C046FB
:1058E000C046277813503D070AD5C046C046C0467B
:1058F000C046C046C046C046C046C046535009E0F8
:10590000C0465350C046C046C046C046C046C046CA
:10591000C046C046277813507D070AD5C046C0460A
:10592000C046C046C046C046C046C046C0465350AA
:1059300009E0C0465350C046C046C046C046C046B7
:10594000C046C046C04627781350BD070AD5C0469A
:10595000C046C046C046C046C046C046C046C04617
:10596000535009E0C0465350C046C046C046C046EA
:10597000C046C046C046C04627781350FD070AD52A
:10598000C046C046C046C046C046C046C046C046E7
:10599000C046535009E0C0465350C046C046C046BA
:1059A000C046C046C046C046C046039D0134AC4216
:1059B00000D030E7019C013401941EE70C05000083
:1059C00005B0F0BD002370B519000325428893424D
:1059D0000BDA2A005A4344680133A1544468A418DE
:1059E00061704468A2189170F0E7FFF7E7FE70BDA0
:1059F00070B5468804AC257801248E420AD9023459
:105A000061434468641862700024426853544368D8
:105A100059188D70200070BD70B5468804AC25788B
:105A200001248E420CD902346143446864186270C8
:105A3000426800245354436859188D70FFF7BEFE26
:105A4000200070BD10B50400406803F05BFF002328
:105A50006380237010BD0000114A30B501239042CD
:105A60001CD882051AD1022180250E4B0E4AED006A
:105A7000995080245959E4000029FAD0A121094DF8
:105A8000C900685019590029FCD0002005498850E8
:105A90008021C9005A58002AFCD00023180030BDCC
:105AA000FFFF030000E0014004050000F0B5154CC5
:105AB0000123A04223D8840521D11D008C071ED1CB
:105AC000114C124BA4461D518025ED005C59002C51
:105AD000FCD080270024FF008025ED00944207D2EF
