:10000000004000208D7C0000CD7C0000CF7C0000F3
:1000100000000000000000000000000000000000E0
:10002000000000000000000000000000D17C000083
:100030000000000000000000D37C0000D57C000020
:10004000D77C0000D77C0000E1860000D77C000050
:10005000D77C000000000000C57D0000D77C0000B8
:10006000D77C000001810000596C0000D77C0000A3
:10007000D77C0000D77C0000D77C0000D77C000034
:10008000D77C00005D7E0000D77C0000D77C00009C
:10009000D77C0000D77C0000D77C0000D77C000014
:1000A000D77C0000D77C00000000000000000000AA
:1000B0000000000000000000000000000000000040
:1000C000054B0648033310B51B1A062B03D9044B06
:1000D000002B00D0984710BDF8040020F804002041
:1000E000000000000648074910B5091A8910CB0F17
:1000F0005918491003D0044B002B00D0984710BD6D
:10010000F8040020F80400200000000010B5074C9F
:100110002378002B09D1FFF7D3FF054B002B02D02A
:10012000044800E000BF0123237010BDF804002044
:1001300000000000DCBE0000094B10B5002B03D00E
:100140000849094800E000BF08480368002B02D1B5
:10015000FFF7C8FF10BD064B002BF9D09847F7E713
:1001600000000000FC040020DCBE0000F4040020BD
:1001700000000000164B002B00D1144B9D4640227E
:1001800092029A1A924600218B460F461348144A4F
:10019000121A08F05FFE0F4B002B00D098470E4B51
:1001A000002B00D098470020002104000D000D48CE
:1001B000002802D00C4800E000BF08F0F1FC20004D
:1001C000290008F0ABFA08F0D5FCC0460000080092
:1001D000004000200000000000000000F8040020A3
:1001E000902600200000000000000000704780887A
:1001F0007047C0887047000010B50400034B0360CF
:10020000083006F063FC200010BDC046D0B20000EC
:1002100010B5052007F0EEFF0B4C002803D107F0C6
:10022000F7FD20600FE007F0F3FD2368C01A074BCD
:10023000984208D9BFF34F8F054A064BDA60BFF3E7
:100240004F8FC046FDE710BDF42400208713000047
:100250000400FA0500ED00E0034B10B5010018683A
:100260000268926B904710BDA406002010B50400F0
:1002700008F068FA200010BD10B5034A034904488D
:1002800008F0CAFD10BDC04603050000C4AD000063
:10029000EC1F00200200613A0123192A06D900232D
:1002A00019224138C0B282425B41DBB2180070476C
:1002B000030009220020303BDBB29A424041C0B229
:1002C00070472022010091430A00413A03000120B7
:1002D000052A06D900200922303BDBB29A42404170
:1002E000C0B2704710B5040009F0CEF8210008F044
:1002F000F9FB013108B210BD013AD2B2FF2A06D093
:100300008B5C013AD2B28342F8D1012000E0002098
:1003100070470000054A10B5138819B2FD2903DCA7
:10032000034C01336054138010BDC046581E00209A
:100330001405002010B5002902D1FFF78DFF11E050
:10034000022904D10100084805F02DFD0AE0032927
:1003500002D1FFF7DFFF05E0052903D101000248C4
:1003600005F0D0FA10BDC0461406002010B50028D4
:1003700005D1064B186803681B6E984704E00328F4
:1003800002D10730FFF7C6FF10BDC046A40600200B
:10039000002110B5034BFE220348198008F05AFDD6
:1003A00010BDC046581E002014050020214B10B57A
:1003B0001A689389D1894B439BB2834201D99368D0
:1003C00007E0A0221C4BFF32C31899B2914202D819
:1003D0001A48C0182CE01A4BC3189AB2FF2A01D849
:1003E0001848F6E7184B194AC31899B2914202D837
:1003F000174A1068EDE7174B174AC31899B2914294
:1004000001D81648E5E7164B164AC3189BB293422B
:1004100004D8154BC018154B1B68DAE7144BC418E9
:10042000A3B200201A2B03D8124805F0F7F90019DF
:1004300010BDC046A406002000E7FFFFB41C00204A
:1004400060E5FFFFD806002060E4FFFFFF0F00001B
:100450000803002060D4FFFFFF030000B218002053
:1004600060D0FFFFFF07000063D0FFFF0003002004
:1004700060C8FFFF1406002010B5040009F064F8FE
:100480000022013880B2002807D0231819782029CB
:1004900003D101381A7080B2F5E7200010BD0000CA
:1004A0000649074A0B681878132802D011231370E5
:1004B00001E001330B6010787047C046B0060020A1
:1004C000841E00200649074A0B681878142802D0B9
:1004D0001123137001E001330B6010787047C046A0
:1004E000B0060020841E00200300303BDAB29BB22D
:1004F000092A0CD90300613B052B01D8573805E0C8
:100500000200413A0023052A01D8373883B2180087
:1005100070470000F8B50D4C050020680F00867F7D
:10052000002E03D0036800211B6B98472878002811
:1005300004D039000135FFF7FDFEF7E7002E04D0A7
:100540002068012103681B6B9847F8BDA4060020B2
:100550002023F0B585B00E1E0292019303DA4E42BD
:10056000103336B20193002803DA4442A4B20123C7
:1005700001E0002384B2002206270093174B9A71F2
:10058000039320000A2108F0C3F97D1E039B30313C
:10059000EDB2595520000A2108F034F984B2002C3C
:1005A00001D02F00EDE7009B002B04D02D23BD1EB2
:1005B0000A4AEDB253550624641BB44206DA029986
:1005C0000198013EFFF7B6FE36B2F6E7034B0299FB
:1005D0005819FFF79FFF05B0F0BDC046A0170020D7
:1005E000F8B585B217480423854207D8013BFF2D93
:1005F00004D80C33AB429B415B420133002905D048
:1006000089B2181C8B4200D2081C83B200240F212F
:100610000D482F00A60076420C3637413E000E40B2
:1006200037003737092E01D83036370027540134C8
:10063000042CEED10021E31A0171C0181100FFF75C
:1006400069FFF8BDFF0F0000A0170020F7B583B2C7
:1006500001930F240023114E019D012025410540E7
:100660002F308446AC446746301BC7733000002BE4
:1006700003D1002D01D0631C9BB2013CECD20024BD
:1006800089B204741C1C8B4200D20C1CA4B2001B47
:1006900010301100FFF73EFFF7BDC046A017002045
:1006A000F7B500240226394D28680368DB6B9847AC
:1006B0000D2802D1002C17D01CE0032803D11922E9
:1006C000334B1A7016E01B28F9D0082851D07F2828
:1006D0004FD0002C06D103002B3BB343DBB2002BE1
:1006E00002D13EE0052C37D80300303BDBB2092BAA
:1006F00037D931E00020FFF739FE0023254D2B5577
:100700002A782B2A03D02D2A03D1012301E00122CC
:1007100000E01A001E4900260F7801910A213000DE
:100720008C46AC5C002C0ED061464143303909192F
:1007300089B2013200B20CB2D2B2A04201DD012670
:1007400002270800EDE7002E01D0019A1770002B58
:100750001AD0404280B217E028680368DB6A9847E5
:10076000A1E7651C0B4BEDB21855FFF775FD2C008A
:1007700099E7002CF0D0286805F089FE013C286834
:10078000E4B205F05EFD8EE700B2FEBDA4060020D7
:10079000841E0020A0170020F7B5070001261A4C80
:1007A0000191019B9E4204D923B20025013313D14C
:1007B00028E000251548AB0032003900185808F031
:1007C000CBFE002804D1731C0096ACB29EB2E8E7C1
:1007D0000135BE2DEED1E7E70C4AAB009C58200056
:1007E00008F0B2FE009B984208D11A0039002000A0
:1007F00008F0B2FE002801D1ACB203E00135BE2DF5
:10080000EAD1014C20B2FEBDFFFF0000080000202D
:10081000F0B50024B04D85B02B78002B19D02B7883
:10082000202B1CD0093B042B1BD818E010B2FC3144
:10083000091A8C4220DA601CA849C0B2DBB20B5501
:100840000400013A92B216B2013600D08EE0C3180D
:10085000DCB2C322A14B601C1A55C0B239E101358C
:10086000DDE7280008F070FE81B22800FFF794FF52
:10087000071E66DBFC2C01D90422E2E0974BBA008C
:100880001F55974B661CD05808F05EFEF6B22D1827
:10089000152F2FD12878FFF714FD002800D1E0E0B4
:1008A00000270195019B3F0101330193013B18781B
:1008B000FFF71AFE019BBFB25B1B9BB20293019B29
:1008C0003F181878BFB2FFF7FCFC0028EAD1029B62
:1008D000042B01D90222B4E0FA2ECDD8C0227F4BDE
:1008E000019D1A559F55E61C0234E4B23F12F6B240
:1008F0001F55B6E0162F23D12B78303B012B00D9A2
:10090000AFE02A0000230132511E09785B00107805
:10091000303B5B183038511B9BB289B20128F2D9A9
:100920001029D7D8FA2EA7D8C1206C491500085530
:100930008B55E61C0234E4B21B12F6B20B5590E064
:100940003400A22F01D00D2F16D12B78202B00D1EF
:1009500089E0093B042B00D885E00023E95C9AB2CA
:10096000581C002900D161E70300F7E72F78661CC7
:100970000F550135F4B264E7002F00DB4CE72E7809
:100980003300303B092B2AD8802000230A210002A3
:100990004B4301356A1E1278303BD318834299D8F5
:1009A0002A78303A092AF3D9FA2C00D964E7802151
:1009B0004A4A09028B4206D1002C04D01119013990
:1009C00009780E2986D1BE21601C1155C0B2A11C28
:1009D0001354C9B203341B0AE4B253541CE7222E49
:1009E0000BD100236E1CE91849789AB222293CD019
:1009F000581C002939D00300F5E73000FFF74AFC06
:100A000000281DD0FB2C00D936E73300613B192BA1
:100A100001D8203EF6B26B78413E1A00303AF6B269
:100A2000062A52D9002301202C49032C0DD90A197A
:100A3000971E3F78C22F08D1043A1278C22A04D1F7
:100A40001722284B00201A7043E0C2220A55A83A08
:100A50005343671CFFB20234F618E4B2CE552D188A
:100A6000DAE63400D8E601356FE7FD2110B2091A45
:100A70008C4200DB00E7BF21184FA01C3955D9B2CA
:100A80000191694601340979E4B2C0B239553500A3
:100A900004000397013A92B217B2791C0AD02F785A
:100AA000611CBC4602916146039F01353955694678
:100AB0000C7AEFE79DB275192B78019A223B8118C9
:100AC0005A425341CCB2ED18A6E62F3BDBB20220CE
:100AD000AAE705B0F0BDC046A0170020851E002083
:100AE00008000020841E0020064B1B6818000278B6
:100AF000002A01D08018FAE7181A034BC31818B25D
:100B00007047C04608030020FF0F00000378002B49
:100B100004D0837840781B02184300E0014800B2FB
:100B20007047C046FFFF000070B50600064B1C680A
:100B30002578002D06D02000FFF7E8FFB04201DA4B
:100B40006419F5E7200070BD08030020F8B50D4BCF
:100B500047781C68851C2678002E0ED0E378BF2BC2
:100B600009D12379BB4206D1611D3A00280008F063
:100B700015FD002803D0A419EDE7300000E02000A7
:100B8000F8BDC04608030020F8B507000024084B54
:100B90001D682E78002E08D02800FFF7B7FFB84256
:100BA00004DA0134A4B2AD19F3E7024C2000F8BD19
:100BB00008030020FF7F00000378C32B19D0BF2B50
:100BC0000FD006D8092B0AD0BE2B0ED0072B10D081
:100BD0000DE0C12B09D9C22B09D10230ECE701305D
:100BE00008E043780133C018E6E70330E4E701305A
:100BF000E2E7002070470000F7B5070000240B4B28
:100C000001911D682E78002E0DD02800FFF77EFF81
:100C1000002808DBB84204DB019B984201DC013468
:100C2000A4B2AD19EEE72000FEBDC04608030020C7
:100C300070B5FFF759FF204D2B78984203DA052253
:100C40001E4B1A7037E02800FFF760FF0600FFF721
:100C50006BFF0400FFF75AFF864210D12100227873
:100C6000A2181078002809D00023834202D1C918A5
:100C7000D218F6E7D65CCE540133F6E70870287830
:100C8000042818D021000B78002B01D0C918FAE7EE
:100C90000A1B013292B208185242934203D0CE5C32
:100CA000C654013BF9E700232978994203D0EA5C56
:100CB000E2540133F9E770BD851E0020841E002038
:100CC000F7B504000D002378C32B00D1C8E0BD2B7D
:100CD0003FD8644A9B0029009858FFF71BFC6778AF
:100CE0000C2F21D0267877225F493000FFF704FBD4
:100CF000002806D03D225D493800FFF7FDFA0028A4
:100D000003D00C3E012E0BD80EE0142E0CD1C32FB5
:100D10000AD01B2256493800FFF7EEFA002803D10B
:100D200029002020FFF706FB2378A22B03D1A61C65
:100D30006478341904E00D2BF9D0661C3400C2E746
:100D4000B44200D18CE030782900FFF7F3FA013685
:100D5000F6E7BE2B09D1A07863780002184300B2F1
:100D60002A000021FFF7F4FB24E0C02B0DD129005D
:100D70002420FFF7DFFAA07863780002184300B25E
:100D80002A000221FFF72CFC14E0C12B15D16020B2
:100D90002900FFF7CFFAA3786078002B05D01B025B
:100DA000034318B22A00102102E02A00082100B2F1
:100DB000FFF74CFCE61CE07818E0C22B1FD16778E7
:100DC0001A21380007F0A4FD4131C8B22900A61C41
:100DD000FFF7B0FA192F08D91A21380007F012FDD1
:100DE0002F30C0B22900FFF7A5FAA0781B222049B6
:100DF000FFF782FA0028A1D1290020302AE0BF2B7A
:100E00002BD16378002B06D0E2185278222A04D026
:100E1000013BDBB2F6E7222300E027230193290000
:100E20000198FFF787FA6678A71CBE19BE4205D065
:100E300038782900FFF77EFA0137F7E72900019893
:100E4000FFF778FA3378C22B02D0092B00D075E770
:100E500029002020FFF76EFA70E71822054B1A7060
:100E6000F7BDC046080000201CAB0000A1AC00008C
:100E70002CA70000841E0020022302009A4310B514
:100E8000131E0BD000230E4A13700E4A13700E4A25
:100E900011680B7012680D4B1A6010E01400D2221A
:100EA0000B4952005C5202339342FBD100231900DC
:100EB000084A99520233C82BFBD10228E2D110BD57
:100EC000A80600209F18002008030020E81F00202B
:100ED000B41C0020D8060020F0B5484E85B0346818
:100EE0002378BE2B13D12000FFF710FE0A27E31C46
:100EF0003360E37885B2BB420BD12379201D30608B
:100F00001722BE2B10D1FFF701FE87B201E00A279E
:100F10003D003B4C00202100FFF76EFE0394002DA6
:100F200001D0002F03D11422364B1A7063E0013830
:100F300080B27843039B40199842F4DC324B334E25
:100F40001B68336033681A780292002A41D000246B
:100F500001330193029B013B9C4236DA019B1B5DEE
:100F6000BF2B27D004D8012B08D9BE2B28D029E0CD
:100F7000C12B25D9C22B25D1023424E0631C019A50
:100F80009BB2D21800921278BE2A01D01C00E1E771
:100F90000098FFF7BBFD80B2FFF7F6FD039B04341A
:100FA000984210D07843281880B2009A03129370A8
:100FB000507008E00134019AA3B2D25C9C1802E0A0
:100FC000033400E00134A3B2E0E732681378D318A9
:100FD000B7E70D4B1B68336033681A78002A0AD0D4
:100FE0005D7032682B12937032687D191378ADB240
:100FF000D3183360F0E705B0F0BDC046B00600205E
:10100000FF7F0000841E002008030020E81F00204E
:1010100070B50C4DC4B20E002800210004F0D3FBC3
:10102000002804D11622084B01301A7009E0300064
:10103000FFF722FF054B21001A68280004F0D1FBBE
:10104000002070BDA8180020841E00200803002086
:1010500070B50B4B1C78002C03D00022A4B21A7080
:101060000BE0084D286803681B6C9847002804D0E3
:1010700028680368DB6B984784B220B270BDC04615
:10108000B21C0020A406002010B5074B02001B78FC
:10109000002B07D005480121002A01D000221100B1
:1010A00004F0E9FC10BDC0469E1800201406002084
:1010B00070B50B4C2378002B10D00120FFF7E4FF14
:1010C000084D280004F0F6F9280004F033FA002057
:1010D000FFF7DAFF0023044A2370138070BDC04677
:1010E000B31C0020A0180020F024002010B5074BEE
:1010F0001B78002B08D00120FFF7C6FF044804F03E
:10110000D9F90020FFF7C0FF10BDC046B31C002076
:10111000A018002010B5094B1B78002B03D11D220D
:10112000074B1A7008E00120FFF7AEFF054804F0F6
:10113000BDF80020FFF7A8FF10BDC046B31C00207B
:10114000841E0020A0180020F7B507000E00072419
:101150000025019200933000009907F035F8019BBB
:101160003800002B05D107F045F807231B1B9840DA
:1011700002E007F03FF8A040009905434B42594177
:101180003000EDB207F020F8013CE4D22800FEBDAB
:1011900037B5294804F06AFA019001A807F026FD46
:1011A0000421040002254369244A4942981800B2E8
:1011B0000022FFF7CDF92F20FFF74EF823696D428B
:1011C000581C2900002200B2FFF7C2F92F20FFF7B8
:1011D00043F80C23E05E00222900FFF7B9F9002153
:1011E0001748FFF797F91822A35E164A9B009858F4
:1011F0000021FFF78FF900211348FFF78BF9290031
:101200000823E05E0022FFF7A3F93A20FFF724F855
:1012100029000423E05E0022FFF79AF93A20FFF745
:101220001BF829000023E05E0022FFF791F900205F
:10123000FFF79CF837BDC046940600206C070000FD
:1012400047A7000064AC00004AA70000F7B52D4D89
:1012500004002868002103681B6B98472A4A2B4F1B
:1012600013780192002B3DD0294A9B001168294A2E
:10127000126891422FD380204001121891422AD245
:10128000254E32681278002A25D0002C23D1F85838
:101290002100FFF73FF921002048FFF73BF93068B4
:1012A000FFF734FC22002100FFF752F92000FFF77E
:1012B0005DF83068FFF72AFC22002100FFF748F9AB
:1012C00021001748FFF726F9306821000330FFF7A7
:1012D000F7FC200004E0F8580021FFF71BF900207C
:1012E000FFF744F838680021FFF714F90020FFF7F2
:1012F0003DF80023019A28681370036801211B6BD5
:101300009847F7BDA4060020841E0020200300207B
:10131000B006002008030020E81F00204DA70000B1
:10132000ADA70000F8B5070000250B4B1C68267818
:10133000002E07D02000FFF7E9FBB84202DA2500B3
:10134000A419F4E7002D03D02800FFF7DFFB00E02D
:10135000024800B2F8BDC04608030020FFFF0000AD
:1013600070B50500FFF7E0FB0400FFF7CFFB8542F7
:1013700004D120782018FFF7C9FB00E0014800B233
:1013800070BDC046FFFF000070B50600FFF7CCFB44
:101390000500FFF7BBFB0024864211D1FEF7F8FFE2
:1013A000032221003000FFF7D3F82020FEF7B2FF20
:1013B000E81C0321FFF784FC2000FEF7ABFF014C83
:1013C000200070BD1405002037B56B46DC1D74236A
:1013D0000120237007F00CFD050007F013FD00212C
:1013E0001D48FFF797F8201400220421FFF7F8F8B2
:1013F000002220B20421FFF7F3F80020FEF7B6FF29
:1014000000211648FFF786F8281400220421FFF770
:10141000E7F828B200220421FFF7E2F80020FEF7E7
:10142000A5FF00210E48FFF775F80022601B110090
:1014300000B2FFF78DF80020FEF798FF0021094861
:10144000FFF768F80022C4201100FFF781F80020A0
:10145000FEF78CFF37BDC04652A700005DA7000015
:1014600068A7000073A70000034A11680B780133D6
:10147000CB1813607047C046B006002010B50B486B
:101480000378012B03D80722094B1A700DE05A1E6E
:101490000849D2B29200023B5458DBB2064A0370AC
:1014A0009B0014605A58054B1A6010BDA806002016
:1014B000841E00205C1E0020B0060020E81F0020D3
:1014C000F0B5224E09223078042813D9204A214C45
:1014D000431E9B00195913685D1C15601D78C22DB1
:1014E00001D00A2206E09D1C15605A780BB29A4280
:1014F00003D00B22184B1A7026E0184D831E5200A1
:101500009B001959535B8FB25B189BB25353C21E99
:1015100092001259451F92B2090404D51BB212B2AF
:10152000934208DA05E0002F05D019B212B29142B9
:1015300001DD357008E0031F9B00E258044B1A6080
:10154000AB00E258064B1A60F0BDC0469F18002061
:10155000B0060020841F0020841E0020B41C002040
:10156000E81F0020044A13681978C32902D0013308
:101570001360F8E77047C046B0060020044A1168BF
:101580000B78002B02D0CB181360F8E77047C046E9
:10159000E81F002037B5164B164A197816481180F7
:1015A0005A78164B164D1A80002303714371154B60
:1015B0002A001549036007F0C7FA144C144B2000A9
:1015C0000830236005F06EFA2A001249200007F067
:1015D000BBFA0423802280210093D200DB1849004B
:1015E0000D4804F0ADF81D210C4806F01DFA37BD7A
:1015F000C4AD0000B406002070060020F8240020CE
:101600000000002050B30000ED010000140600208F
:10161000D0B20000F9010000A8180020B806002090
:10162000F0B587B0FEF73CFF0023011E994200D0C1
:101630007BE002AB9C1D7F220123200001F020F9FA
:10164000011E48D104AE0123394A300001F018F9D7
:10165000011E40D10A2702ABFF18354A012338008A
:1016600001F00EF9011E36D10123314A05A801F01F
:1016700007F9011E2FD10E2502ABED182C4A0300ED
:10168000280001F0FDF8002825D1FEF71BFF0028F7
:1016900021D13088FEF78AFE02AB00909889FEF7D0
:1016A00085FE009B0190002B12D0002810D03088BE
:1016B0003B88C01880B2FEF779FE002808D002AB44
:1016C00098892B88C01880B2FEF770FE002804D1DC
:1016D0001522184B1A70002327E0174E217830008E
:1016E00006F026F93A88002A04D012B20099300098
:1016F00006F035F8300006F085F92A8880B203003C
:10170000002A12D0002810D1217812B2300006F041
:101710000AF9019C300006F035F80028DBD03000D3
:1017200006F035F820700134F4E718B207B0F0BDC8
:10173000FF7F0000841E00201425002073B5AE48F2
:1017400002680500511C016013785B2B00D10FE289
:1017500068D8402B00D185E135D8392B00D104E180
:101760001CD8132B00D1D8E008D80E2B00D1CAE02A
:101770000F2B00D008E2FFF7E1FFC7E0262B00D1D6
:10178000C7E0282B00D1CCE0252B00D0FCE1FFF7EF
:10179000D5FF6A4643424341D3800BE23C2B00D144
:1017A000F8E008D83A2B00D10DE13B2B00D0EBE15B
:1017B00002F0A4FAAAE06A46961D3E2B00D1F4E09E
:1017C00000D8C2E002E1472B00D194E116D8432BA8
:1017D00000D1F5E008D8412B00D16EE1422B00D0BA
:1017E000D2E100F0D1FC91E06A46941D452B00D176
:1017F00066E100D967E100F095FE4FE1572B00D17B
:1018000064E108D8482B00D191E1492B00D0BBE11D
:1018100001F0D4FF7AE06A460632592B00D15EE12E
:1018200001235DE18A2B00D161E12FD8832B00D108
:101830009EE116D87F2B00D190E107D87D2B00D1F7
:101840009EE17E2B00D09FE10B229AE16A46063290
:10185000812B00D186E100D987E1684B1B68DB89C9
:101860003EE1862B00D183E107D8842B00D181E1B2
:10187000852B00D088E1624A83E16A460632882BD4
:1018800000D12FE100D92FE1C8232EE1B52B00D1E3
:101890001FE114D88D2B00D16CE106D88B2B00D121
:1018A00027E18C2B00D163E16EE18F2B00D165E144
:1018B00000D261E1902B00D066E1042261E1BE2BF1
:1018C00018D008D8B62B00D106E1B92B00D05BE1C7
:1018D00002F0C4F91AE0C02B00D255E1C12B09D99E
:1018E000C22B00D050E1931C03605378454A5B0043
:1018F0009A5A46E1937851781B020B4369460332AA
:10190000CB802A6056E1FFF719FF40426B46D88032
:1019100050E1FFF713FFC043F8E7026000F072FAEE
:10192000F4E700F06FFA6B46374A063311781880F7
:10193000002900D03EE1632802DD0323137039E162
:10194000324A4000825A1A8034E100F05BFA2E4B92
:1019500030801A78002A00D02CE11432002800DAF6
:1019600027E1FEF7BFFC01382CE100F04BFA6B4693
:10197000274906331880244A884201D10221117078
:101980001278002A00D015E1002800DB12E1404265
:1019900018800FE1FEF784FD002800D00AE1FEF771
:1019A00091FD002800D005E107E1FEF779FD002850
:1019B00000D0FFE0FEF786FD002800D0FAE0FFE04F
:1019C00000F07EFDA2E702F091FB9FE7FEF768FDC5
:1019D000041E00D0EEE02B681A78C22A1AD15A1CD5
:1019E0002A605B78074A5B00985AFEF7DFFC0378B1
:1019F00033802B6801332DE0B0060020A4060020C0
:101A0000A02B0000B41C0020841E0020D80600205B
:101A10000080FFFF282A14D101332B60010003004E
:101A20003B32300000F02CFF002800D0CCE0002238
:101A3000B35E664A5B00985AFEF7B8FC03783380C1
:101A40000DE0BF2A08D15A1C2A60597831805B7892
:101A50000133D3182B6002E017225D4B1A70FEF79A
:101A600031FDA7E0694653788C1D132B07D193787D
:101A7000142B04D1002303322380026007E000F01E
:101A8000C1F9534B20801B78002B00D092E02388B3
:101A9000002B05D106F0BCF94004400C208089E001
:101AA000012B06D106F0B4F9FA21890006F0AAFE4E
:101AB000F2E70023142223807AE000F043FB25E7BD
:101AC00001F0E6FDEAE7FFF7ABFDE7E701F0BAFE5C
:101AD0001CE701F00BFF19E701F03DFF16E70023BB
:101AE000138067E0D52300E0DD235B01F8E7394A86
:101AF00047E0394A45E0FEF7D3FC011E5AD16B4658
:101B00009C1D20220300200000F0BAFE002851D1C5
:101B1000FEF7D8FC00284DD12088304AC3B2D35CF0
:101B20001B22DB0744D500B206F064FBB6E7FEF7E4
:101B3000B7FC00283ED16B469C1D002320221900D3
:101B4000200000F09DFE002834D1FEF7BBFC0028E9
:101B500030D10023E05E06F0C3F99FE7204B1B68FD
:101B60009A890EE01F4B9B88BAE71E4BDB88B7E7CC
:101B7000002206E0012204E0022202E0032200E04B
:101B800005226B46DA8015E02A6013781C005C3C65
:101B9000E2B2202A08D91A006F32D2B2032A06D83C
:101BA000913B114A9B009C58A4B229600CE017227B
:101BB000074B1A706B46DC8806E0FEF795FFA5E63A
:101BC000FFF746FA3080F5E720B276BDD806002050
:101BD000841E0020A02F0000A037000080AC000071
:101BE000A40600201406002094AB000070B5FFF797
:101BF000A5FD2F4D04002B78002B54D12D4A1368DE
:101C000018781038172850D806F0E8FD0C121F4F2E
:101C10004F4F4F2A313F394F4F4F4F4F4F4F4F4F3D
:101C20004F4F4F4601331360FFF788FD604331E0AB
:101C300001331360FFF782FD011E02D101232B70D7
:101C400031E020B206F068FE24E001331360FFF7B4
:101C500075FD011EF2D020B206F044FF8CB2CDE734
:101C600001331360FFF76AFDA4B2844005E001333D
:101C70001360FFF763FDA4B20441A4B2BEE70133D1
:101C80001360FFF75BFD204004E001331360FFF7B2
:101C900055FD204384B2B1E701331360FFF74EFDD9
:101CA000604080B202E0044800E0200000B270BD55
:101CB000841E0020B0060020FFFF000010B5FFF7D3
:101CC00095FF0E4B04001B78002B13D10C4A1368B0
:101CD00019780E2907D00F290DD101331360FFF7B2
:101CE00085FF241804E001331360FFF77FFF241AF7
:101CF000A4B2EBE7034C20B210BDC046841E002006
:101D0000B0060020FFFF000010B5FFF7D7FF2C4BF7
:101D100004001B78002B4FD12A4B1A68511C196004
:101D200010781B38092845D806F058FD2A0C2005E4
:101D3000180C0C11333DFFF7C1FF24B2241A604286
:101D40004441E9E7FFF7BAFF24B2241A2FE0FFF776
:101D5000B5FF24B2012384420FDB0DE0FFF7AEFF95
:101D600022B2D40FC31790425C4110E0FFF7A6FFE8
:101D700024B20123844200DC0023DCB2A4B2CBE70E
:101D8000FFF79CFF22B2D417C30F82425C41E4B23A
:101D9000C2E7FFF793FF00239C4202D0431E984105
:101DA000C3B29CB2B8E7FFF789FF044324B2601EB8
:101DB0008441B1E71A6000E0034C20B210BDC04678
:101DC000841E0020B0060020FFFF000070B5050053
:101DD0000C00FFF799FF094B28801A78002A0AD1D6
:101DE000002C08D006490A68501C086012780A2A9C
:101DF00001D017221A70187870BDC046841E0020CA
:101E0000B006002013B5FEF74BFB002188420DD130
:101E10006B469C1D2000FFF7D9FF002801D0002150
:101E200004E0FEF74FFB0028F9D1218808B216BD67
:101E30007FB5244803F01AFC019001A806F0D6FEF5
:101E400000244369204A02AE9B18338003690133A2
:101E500073808389B3808369F3801C4D2B681A7863
:101E6000C22A0AD15A1C2A605A786100705A18494D
:101E70005200023350522B6013E0282A17D101334D
:101E80002B60FFF7BFFF134B1A78002A18D182B2DC
:101E9000632A01D903220CE06300F25A0E4B400082
:101EA000C252032C0CD02B681A780A2A03D01722AE
:101EB000084B1A7004E0013301342B60042CCCD1A0
:101EC0007FBDC046940600206C070000B0060020CD
:101ED000B41C0020841E0020D80600207FB52148B5
:101EE00003F0C4FB019001A806F080FE00240389E2
:101EF00002AE3380838873800368B3801A4D2B68E9
:101F00001A78C22A0AD15A1C2A605A786100705A7B
:101F100016495200023350522B6013E0282A17D181
:101F200001332B60FFF76EFF114B1A78002A18D18E
:101F300082B2632A01D903220CE06300F25A0D4BEE
:101F40004000C252022C0CD02B681A780A2A03D007
:101F50001722074B1A7004E0013301342B60032C65
:101F6000CCD17FBD94060020B0060020B41C002018
:101F7000841E0020D806002037B5254C200005F02F
:101F80003FFE200005F056FD6B461880200005F04E
:101F900054FD6B465880200005F052FD6B4600242E
:101FA00098801C4D2B681A78C22A0BD168465A1C9F
:101FB0002A605A786100405A174952000233505241
:101FC0002B6014E0282A18D101332B60FFF71AFF89
:101FD000124B1A78002A19D182B2632A01D903223E
:101FE0000DE06A466300D25A0D4B4000C252022CEB
:101FF0000CD02B681A780A2A03D01722074B1A70C4
:1020000004E0013301342B60032CCAD137BDC04634
:10201000B8060020B0060020B41C0020841E00205A
:10202000D806002073B501AC00212000FFF7CEFEDA
:10203000011E54D16D462A4AAE1D136818780A282D
:1020400007D1013330001360FFF7C0FE002846D1EE
:1020500001E02388338024880023F55E23B29D426B
:1020600003DA14221F4B1A7039E0A4B29D421BD12F
:102070002800FEF759FD0400FEF748FD85422ED1E9
:102080002278A2181178002909D000238B4202D1AE
:10209000E418D218F6E7D05CE0540133F6E721707B
:1020A0001DE029700134A4B20022B35E9C4216DC0C
:1020B00020B2FEF739FD0500FEF728FD8442F1D17C
:1020C0002A78AA1811780029EBD000238B4202D17C
:1020D000ED18D218F6E7D05CE8540133F6E773BD8B
:1020E000B0060020841E002073B501AC0121200041
:1020F000FFF76CFE011E22D16B469D1D2800FFF7E5
:1021000065FE021E1BD10E4B0026A15F1868838955
:10211000994202DB013B238002E0002900DA2280A1
:10212000C38900216A5E9A4201DB013B02E0002A7A
:1021300001DA00232B802A88218804F03DFA73BD40
:10214000A406002037B5FEF7ABF90024A04217D152
:102150006B469D1D21002800FFF738FEA04201D0EC
:1021600000240DE0FEF7AEF90028F9D12888FEF72B
:102170001DF9002801D0047802E01522014B1A70E5
:1021800020B23EBD841E002073B5FEF789F90024FD
:10219000A04229D101AE01213000FFF717FEA04275
:1021A00001D0002420E06B469D1D21002800FFF790
:1021B0000DFE0028F5D1FEF785F90028F1D1318810
:1021C0000CB2002CEDDB2A8813B2002BE9DB0748A8
:1021D00000688589AC42E4DAC489A342E1DA92B2AC
:1021E00089B204F0FBF984B220B276BDA4060020C7
:1021F00073B56B469D1C01212800FFF7E7FD002801
:102200001AD101AE01213000FFF7E0FD011E13D10C
:102210006B469C1D2000FFF7D9FD00280CD12388B8
:10222000022B01D9012323800021725E2388002024
:10223000295E024803F033FC73BDC046140600203B
:102240000E23F0B587B06B4401211800FFF7BEFDE7
:10225000002832D112256D4401212800FFF7B6FD78
:1022600000282AD104AE01213000FFF7AFFD00287D
:1022700023D105AF01213800FFF7A8FD011E1CD1B5
:1022800016246C442000FFF7A1FD002815D12388F7
:10229000022B01D9012323800022B35E00216A5E54
:1022A00069460E20095E16206844008801900024CB
:1022B000385F0090024803F0CCFD07B0F0BDC04687
:1022C00014060020F0B50E2687B06E4401213000C0
:1022D000FFF77CFD002836D104AF01213800FFF75D
:1022E00075FD00282FD112246C4401212000FFF736
:1022F0006DFD002827D105AD01212800FFF766FDFF
:10230000011E20D116206844FFF760FD00281AD175
:102310002B88022B01D901232B800022A35E002BE6
:1023200001DA012323800022A35E00217A5E0020CF
:10233000315E16206844007840B2019028880090F1
:10234000024803F0A2FA07B0F0BDC0461406002010
:10235000F0B589B005AD01212800FFF737FD002851
:1023600041D116266E4401213000FFF72FFD0028D1
:1023700039D106AF01213800FFF728FD002832D1FE
:102380001A3001216844FFF721FD00282BD107AC4A
:1023900001212000FFF71AFD011E24D11E206844F0
:1023A000FFF714FD00281ED12388022B01D9012339
:1023B00023801E2068440078298840B234883B88F6
:1023C000029007A80088013301901A206844008811
:1023D0005B1A0130001B00B200901BB222B209B29E
:1023E000024803F042FD09B0F0BDC04614060020CB
:1023F0000E23F0B589B002AA9B1801211800FFF73F
:10240000E5FC002855D106AD01212800FFF7DEFCD0
:1024100000284ED1122602ABF61801213000FFF73A
:10242000D5FC002845D107AF01213800FFF7CEFCCD
:10243000011E3ED1162402ABE4182000FFF7C6FCB3
:10244000002836D102ABDB8902936B460821595E26
:10245000002916DB2B881AB29C46002A11DB338830
:1024600003936B469B891EB2B1420ADC388807B2DF
:10247000BA4206DC104DAB889E4202DAED88AF42CC
:1024800003DB14220D4B1A7013E02588032D01D9AC
:10249000002525802478039B01946446029D013029
:1024A0000133001B00B25B1B00901BB2024803F01B
:1024B000FBFA09B0F0BDC04614060020841E0020BF
:1024C00073B5FDF7EDFF0024A04226D101AD012137
:1024D0002800FFF77BFCA0421AD16B469E1D21000D
:1024E0003000FFF773FCA04212D1FDF7EBFF00288C
:1024F0000ED10023E95E00290ADB0023F25E002AE8
:1025000006DB07488388994202DAC3889A4201DBD6
:10251000002402E003F0C9F9040020B276BDC046F1
:1025200014060020F0B587B0FDF7BAFF03000020C5
:1025300083424DD10E246C4401212000FFF746FC5C
:10254000002824D104AD01212800FFF73FFC00281A
:102550001DD112266E4401213000FFF737FC002800
:1025600015D105AF01213800FFF730FC011E0ED157
:1025700016236B441800FFF729FC002807D1FDF74C
:10258000A1FF002803D10023E15E002901DA002029
:102590001EE00023EA5E002AF9DB0F488588A94285
:1025A000F5DAC488A242F2DA0023FF5E002FEEDBE8
:1025B0000023F35E002BEADB5E18B542E7DDBD18B1
:1025C000AC42E4DD6C46A47D0097019403F02EF943
:1025D00000B207B0F0BDC04614060020F0B5584D5B
:1025E00085B02868012103681B6B98470121554C71
:1025F0000395236801911A78BF2A17D19A1C22608B
:102600005D782368002D07D05A1C22601878013DA0
:10261000FDF722FEEDB2F4E71A780A2A03D017225A
:10262000494B1A7083E00133236001952368464DBE
:102630005A1C22601A78282A3ED0C22A75D100215D
:102640009A1C5E7822609A7802910A2A09D1033393
:102650002360FFF759FB2B780700002B67D101336C
:102660000293019B002B17D0192E0DDD1A2130008B
:1026700006F038FA4131C8B2FDF7EEFD1A213000FC
:1026800006F04AF92F3001E030004130C0B2FDF7CA
:10269000E3FD3A20FDF7E0FDFEF702F82B78002B72
:1026A00007D0022B49D1029B002B46D000233800D3
:1026B0002B707600254B36E0FFF7A4FB2A78060046
:1026C000002A34D10323632830DC2368029219786E
:1026D0000A2909D101332360FFF716FB2B78070085
:1026E000002B24D101330293019B002B0CD000213D
:1026F0001748FDF70FFF002230001100FDF728FFFB
:1027000000211448FDF706FFFDF7CAFF2B78002BC8
:1027100007D0022B0BD1029B002B08D000233800DE
:102720002B700D4B7600F05201E017232B70039BAA
:102730000021186803681B6B984705B0F0BDC046C0
:10274000A4060020B0060020841E0020B41C002037
:1027500082A7000085A70000D8060020144A70B5A3
:102760001368591C116059781E2903D01222114B8D
:102770001A701CE0991C1C7811609978BF290DD142
:10278000DD25D91C0C481160DB7800686D01081A42
:1027900001334019CB1880B2136005E0FFF7B4FA9B
:1027A000044B1B78002B02D1044B6400E05270BD37
:1027B000B0060020841E002008030020B41C002066
:1027C00070B5FFF71FFB1D4B05001A781E00002A8D
:1027D00032D180B2632802D9032333702CE0184C25
:1027E000226812781E2A13D012221A7024E0FFF7F2
:1027F0008BFA3378002B1FD12BB2642BECD0114A0B
:102800005B009852236801351B78ADB20A2B13D1B7
:1028100023685A1C22605A78BF2AE8D10A499A1CB8
:102820000868DD2122609B78101A490101334018A5
:10283000D31880B22360DFE770BDC046841E00203D
:10284000B0060020D80600200803002010B50A4A70
:1028500013681978282906D0C22909D101331360D9
:10286000FFF77CFF07E001331360FFF7A9FF02E0E9
:102870000E22024B1A7010BDB0060020841E0020EC
:10288000F8B5070015001C000E00FFF73DFA0C4BD1
:1028900038801A78002A05D1B04201DBA84201DD58
:1028A000142209E0002C08D006490A68501C086070
:1028B00012780A2A01D017221A701878F8BDC0467B
:1028C000841E0020B00600200021F0B53B4E85B0EC
:1028D0003B4F02AB03ADDE803B6829801B780400D0
:1028E000C32B07D1374B384E1B6833600022AB5ED9
:1028F000019320E00C2BF5D00B0032002800FFF7ED
:10290000BFFF031E58D13A6811780A29EAD1013273
:1029100002A83A6006300022A95E3200FFF7B0FF3D
:10292000002849D1DEE73800FEF7F0F8019B984215
:102930002FDA7D19356037683D78002D3CD0F2E7FD
:10294000224B186803681B6C984783B2002B25D173
:102950003068FEF7DBF802AB063300229B5E834251
:102960002ADB22000021FDF7F3FD21002020FDF7E6
:10297000E1FC33682100D81CFEF7A2F9144B1B7848
:10298000002B19D12000FDF7F1FC32681378D31821
:10299000336033681B78002BD2D10DE01BB20D4A97
:1029A000032B01D01B2B05D11921094B19700023D2
:1029B000137001E01070CBE705B0F0BDFF7F0000A1
:1029C000B006002008030020E81F0020A406002015
:1029D000841E0020B21C0020F7B56B46002107259D
:1029E000344F9E1D01AC3B68218035801B78C32B82
:1029F00001D1248842E00C2BFBD00B002A002000E0
:102A0000FFF73EFF031E54D121883A6831801078C9
:102A10000A28EED101323A6009B22A003000FFF7ED
:102A20002FFF002845D1E4E7E7B23900224802F041
:102A300092FE39000500204802F0C5FE00281BD098
:102A40001E480021FDF766FD0020FDF78FFC2B7866
:102A50001B4F002B17D100251A4829003D70FDF7A8
:102A600059FD20B22A002900FDF772FD2800FDF76C
:102A70007DFC2800FDF77AFC0134A4B20022B35E8D
:102A80009C42D1DD15E02800FEF740F8002211003D
:102A9000FDF75EFD2020FDF7DFFBE81C0021FEF7BF
:102AA0000FF938780028D6D1FDF760FC2B78ED18A7
:102AB000CDE7F7BDB0060020A818002088A70000C9
:102AC000841E00208CA7000013B56B4600219C1DBE
:102AD0000A4B21801B681B78C32B06D1084B217839
:102AE0001A68084802F055FE06E00B000722200095
:102AF000FFF7C6FE0028F1D013BDC046B006002087
:102B000008030020A8180020002337B501AC1900E5
:102B100007222000FFF7B4FE011E1FD16B46104AAA
:102B20009D1D23882B80136818780A2801D02478EB
:102B300009E00133136028000B000722FFF7A0FE15
:102B400000280BD1F3E70022AB5E9C4206DC21009B
:102B50000448013402F008FEE4B2F4E737BDC04691
:102B6000B0060020A8180020F0B5334E85B03368B9
:102B700003AC1B78C32B01D00C2B05D100230722FB
:102B8000238002ABDA8021E0002307221900200015
:102B9000FFF776FE011E4CD1336802A81A78851D16
:102BA0000A2A07D1013328003360FFF70FF9002804
:102BB0003FD101E023882B800023E25E00216B5E81
:102BC0009A4203DD14221D4B1A7032E01C4D24780A
:102BD0002B68019302AB063300229B5E9C4226DCED
:102BE000184F2100380002F0B6FD00220121060036
:102BF00020B2FDF7ADFC00211348FDF78BFC21004E
:102C0000380002F0E0FD011E03D11048FDF782FC00
:102C100007E02E603378002B03D0F01C0021FEF774
:102C20004FF800200134FDF7A1FBE4B2D2E7019B8D
:102C30002B6005B0F0BDC046B0060020841E002009
:102C4000E81F0020A818002066A7000092A7000037
:102C500037B56B4600219C1D114B21801B681B78EA
:102C6000C32B0CD12488002C13D10E4D286803F0FF
:102C70000FFA22002100286803F09EFC0EE00C2BC6
:102C8000F0D00B0001222000FFF7FAFD002805D14B
:102C9000E8E7012C02D1044802F0DEFE37BDC04651
:102CA000B0060020A40600201406002013B56B46D1
:102CB0009C1D0023054A19002000FFF7E1FD0028B4
:102CC00003D10023E05E05F0BBF813BDFF7F0000D9
:102CD00013B56B469C1D0023012219002000FFF74D
:102CE000CFFD002807D101222178034802F0C3FE5E
:102CF0002288024B1A7013BD140600209E18002073
:102D000037B500216B4601AD9C1D08220B00280041
:102D10002180FFF7B5FD011E15D10B4A1368187805
:102D20000A2807D0094B22881868298803685B6C39
:102D3000984708E00133136020000B000822FFF7DA
:102D40009FFD0028EED037BDB0060020A40600206D
:102D500013B56B469C1D0023042219002000FFF7C9
:102D60008FFD002805D1034B2188186803689B6CF0
:102D7000984713BDA406002037B501AD00210123FB
:102D800020222800FFF77CFD011E19D16B469C1DF7
:102D90002000FFF71BF8002812D10023E15E2888ED
:102DA0004B1E9941074AC3B2D35CC9B22180DB07ED
:102DB00003D41B22044B1A7002E000B205F004FA9F
:102DC00037BDC04680AC0000841E002037B501AD81
:102DD0000021012320222800FFF752FD011E17D1F8
:102DE0006B469C1DFF2203002000FFF749FD0028D1
:102DF0000ED12888074AC3B2D35C9B0703D41B2299
:102E0000054B1A7004E00023E15E00B205F0F6F80D
:102E100037BDC04680AC0000841E0020F7B501AE6F
:102E20000021012320223000FFF72AFD011E2DD1B1
:102E30006B469C1D802203002000FFF721FD002827
:102E400024D13378124AD35CDB0703D41B22114B05
:102E50001A701BE0104B114D1A781F00002A02D087
:102E6000280002F067FB0120FEF70EF92288317876
:102E7000280002F0EBF9280002F01CFB0020FEF70E
:102E800003F9012322883B70054B1A80F7BDC04629
:102E900080AC0000841E0020B31C0020A01800207D
:102EA000F0240020F0B5162701242F4B87B01B78A3
:102EB0006F443C80002B03D11D222C4B1A7051E033
:102EC0000E202B4B00211A886844013A12B22300CD
:102ED000FFF7D6FC011E45D12300FF2204A8FFF70F
:102EE000CFFC011E3ED112266E442300FF2230008B
:102EF000FFF7C6FC011E35D105AD0300FF222800F7
:102F0000FFF7BEFC011E2DD11A4A136818780A2853
:102F100011D00120FEF7B8F80022BB5E002B14D0C0
:102F20006A46694628783378127CC989009012482D
:102F300002F0EAFA13E00133136038000B002200BC
:102F4000FFF79EFC00280DD1E3E76A466946287822
:102F50003378127CC9890090074802F0C1FA00203A
:102F6000FEF792F807B0F0BDB31C0020841E0020CD
:102F7000F0240020B0060020A018002013B50B4B51
:102F80001B78002B03D11D22094B1A700CE06B46F5
:102F90009C1D0023032219002000FFF771FC00286C
:102FA00002D12288034B1A8013BDC046B31C0020F7
:102FB000841E002090060020F0B50E27012487B063
:102FC00002ABFF182A4B3C801B78002B03D11D223B
:102FD000284B1A704AE00A26274B00211A8802ABB8
:102FE000F618013A12B223003000FFF749FC011E27
:102FF0003CD105AD0300214A2800FFF741FC011E2A
:1030000034D11F4A136818780A281ED01F212B8834
:103010001C4A9C120020105E5D110C400D401940AE
:1030200081408440854001200391FEF72DF8E2B2F3
:103030006C460023F95E1448EBB2277B00290ED0C2
:103040003188009702F060FA0DE001331360380018
:103050000B002200FFF714FC002807D1D6E73188C7
:10306000009702F03DFA0020FEF70EF807B0F0BD21
:10307000B31C0020841E0020F0240020FF7F0000ED
:10308000B006002090060020A0180020F0B5012412
:103090008BB006ABDC81654B1D221B78002B4FD01B
:1030A000634D06A82A880021013A12B22300063097
:1030B000FFF7E6FB0095011E00D0B5E008AF230046
:1030C0005C4A3800FFF7DCFB011E00D0ACE00A25AB
:1030D000009B00229A5E06ABED1828002300FFF744
:1030E000CFFB031E00D09FE009AE21000322300079
:1030F000FFF7C6FB011E00D096E04F4A1368187810
:103100000A280BD006AB06229A5E00216B5ED3180C
:10311000009A0021525E934211DC0BE00E20013335
:103120001360220006AC0B000019FFF7A9FB002872
:103130007AD1E7E73888FDF739F9041E03D1152263
:103140003E4B1A7070E02B88308858433B88C0187B
:1031500080B2FDF72BF90028F1D00022AB5E0020F1
:103160000293374B0027DF5FBB1C0193FB1C0393CB
:10317000344B5B68049306AB06229B5E05930023E9
:10318000F65E1F239C46029B98423DDA022E13D125
:103190004200A3185B78A25C1B02D3186246654606
:1031A0009BB2991211405A112A40B940BA402B40A3
:1031B00089B292B2BB4017E0032E06D133004343DD
:1031C000E15CE3185A789B780FE00725235C019AAD
:1031D000591191409A102A40019D89B2AA400325B5
:1031E0002B40039D92B2AB409BB200930323059DFD
:1031F00045195D43049B01305D196B461B7869706E
:103200002A70AB7080B2BEE70E2306AA9B1800227C
:103210009B5E002B08D00120FDF736FF094802F025
:1032200045F80020FDF730FF0BB0F0BDB31C0020C7
:10323000F0240020FF7F0000B0060020841E002044
:1032400090060020A0180020F0B50124002185B0D0
:1032500002AB9E1CDC80444B03AD1B7831802C807C
:103260008B4203D11D22414B1A707AE0404F3B68DC
:103270001B78C32B04D13F4C6188012925D870E00D
:103280000C2BF8D00B0022003000FFF7F9FA011EDA
:1032900067D13B681A780A2AEDD101333B602200DE
:1032A00003002800FFF7ECFA011E5AD13B681A7898
:1032B0000A2AE0D101333B60030002A82200063055
:1032C000FFF7DEFA00284CD1D5E70022B35E4A1E94
:1032D000002B1DD10023EE5E002E05D063685978C7
:1032E0001F7801919E7801E03700019603256368FD
:1032F0006A435919180005F098FD63885D436368B7
:10330000033D5D196B461B792F706B70AE7019E031
:103310000023EF5E002F08D003234B436168033B7B
:10332000CB181E785D789F7801E03D003E000323B6
:103330005A436368D81C190005F077FD63681E7056
:103340005D709F7002AB063300229B5E002B08D09D
:103350000120FDF799FE200001F0A8FF0020FDF7F5
:1033600093FE05B0F0BDC046B31C0020841E0020B3
:10337000B0060020A0180020F0B585B001AF0021F4
:103380000123FF223800FFF77BFA011E3CD16B4678
:103390009E1DFF2201233000FFF772FA011E33D178
:1033A00002AD0123FF222800FFF76AFA011E2BD18C
:1033B0000A200123FF226844FFF762FA011E23D18D
:1033C0000123FF2203A8FFF75BFA011E1CD10E2484
:1033D0006C440300FF222000FFF752FA002813D1AB
:1033E0000023FA5E05235343084A03331268D318B7
:1033F00032881A702A885A706A4652899A706A46C8
:103400009289DA7022881A7105B0F0BD000300209D
:1034100073B50123002120226846FFF731FA011E0F
:1034200032D16B469E1C202201233000FFF728FA80
:10343000011E29D1012301AC1A002000FFF720FA58
:10344000011E21D16B469D1DFF2203002800FFF7BE
:1034500017FA002818D16B4618880C4AC3B2D15C01
:103460000123194204D03188CEB2925D1A4203D1B1
:103470001B22074B1A7007E00022AB5E09B2002244
:10348000A25E00B204F0C8FE73BDC04680AC00006E
:10349000841E002073B56B469C1D0023060023800C
:1034A000FCF7FEFF011E1ED101AD2800FEF78EFCC9
:1034B000011E18D10C4A136818780A280AD0FDF7A3
:1034C00001F800280FD121780023E85E3200FDF7D3
:1034D00087F808E00133136020000B000422FFF797
:1034E000CFF90028EBD073BDB006002073B56B4652
:1034F0009C1D002306002380FCF7D2FF011E1ED175
:1035000001AD2800FEF762FC011E18D10C4A1368B9
:1035100018780A280AD0FCF7D5FF00280FD12178A7
:103520000023E85E3200FDF791F808E001331360F4
:1035300020000B001022FFF7A3F90028EBD073BD89
:10354000B006002037B50400FCF7AAFF002817D109
:103550006B469D1D0023FF2219002800FFF790F9FC
:1035600000280DD121002878FCF7E4FE054A1368F5
:1035700019780A2902D101331360E9E7FCF7A2FFA9
:1035800037BDC046B0060020F0B587B00190FCF70B
:1035900087FF011E71D13A4D2C682378C22B0CD1C4
:1035A000631C2B606378374A5B00985AFCF7FEFE79
:1035B0002B680278441C01331EE0282B14D10134FF
:1035C00004AB2C609C1D632203002000FFF758F918
:1035D000002852D10022A35E2B4A5B00985AFCF7C8
:1035E000E5FE0278441C0DE0BF2B07D1631C2B6065
:1035F000637802349AB2E3182B6003E01722234B5E
:103600001A703AE004AB9E1C6B4601251C4905AFBD
:103610001A810B6835803A8018780A2807D0FCF7A1
:1036200051FF002829D104AB5D88013D15E001332D
:103630000B6012B22B0029003000FFF721F9031EA6
:103640001BD132880299AA1A521812B229003800E6
:10365000FFF716F90028E2D00FE00022B35E05AABA
:103660000021525E013BADB29B189D4205DA605DC0
:103670000199FCF75FFE0135EFE707B0F0BDC046EA
:10368000B0060020B41C0020D8060020841E0020B4
:10369000F0B587B0FCF704FF0023011E994200D06B
:1036A00083E002A801337F220630FFF7E9F8011E0C
:1036B00047D104AE01233E4A3000FFF7E1F8011E76
:1036C0003FD10A2502ABED18394A01232800FFF744
:1036D000D7F8011E35D105AF0123354A3800FFF771
:1036E000CFF8011E2DD10E2402ABE418304A03009E
:1036F0002000FFF7C5F8002823D1FCF7E3FE0028DF
:103700001FD13888FCF752FE00903088FCF74EFE3F
:10371000009B0190002B11D000280FD038882388FF
:10372000C01880B2FCF742FE002807D030882B88F2
:10373000C01880B2FCF73AFE002804D115221D4BB8
:103740001A70002331E01C4E02AB9979300004F06E
:10375000EFF80022AB5E3500002B10D0019E0A224C
:1037600002A9019B5218F31A0021525E9BB29342A8
:1037700005DA3178280004F00FF80136EFE700226F
:10378000A35E002B0DD0009E009B0021625EF31A09
:103790009BB2934205DA3178280003F0FDFF013631
:1037A000F2E7280004F02EF983B218B207B0F0BD9A
:1037B000FF7F0000841E002014250020F7B56B4613
:1037C00001249D1D2C80FCF76BFE011E01D0002002
:1037D00033E0230020226846FFF752F8011EF6D19D
:1037E0006B469E1C202223003000FFF749F8011E83
:1037F000EDD101AF030022003800FFF741F8011EB0
:10380000E5D10F4A136818780A280CD0FCF75AFE45
:103810000028DCD168462B783A7831780078FDF7BB
:1038200093FC80B209E00133136028000B002200F2
:10383000FFF726F80028E9D0C9E700B2FEBDC04670
:10384000B0060020F7B56B4601249D1D2C80FCF7C7
:1038500027FE011E01D0002041E0230020226846FF
:10386000FFF70EF8011EF6D16B469E1C22002300C6
:103870003000FFF705F8011EEDD101AF0300194A32
:103880003800FEF7FDFF031EE5D117490A681078DE
:103890000A2804D0FCF716FE0028DCD109E001322A
:1038A0000A6028000F4A2100FEF7EAFF0028F1D045
:1038B000D1E70023FA5EFA239B005A430023F15E0E
:1038C0006B460020185E04F0D9FA0023E95E04F08C
:1038D00099FF044B984201DD0120404280B200B2C2
:1038E000FEBDC046FF7F0000B0060020F7B5FCF724
:1038F000D7FD0024A0422CD16B469F1C1F22012320
:1039000021003800FEF7BCFFA04201D0002420E0D7
:1039100001AE01231F2221003000FEF7B1FF002875
:10392000F4D16B469D1D1F22230021002800FEF7C5
:10393000A7FF0028EAD1FCF7C5FD0028E6D1002347
:10394000FC5E0022B35EA4025B0128881C43044392
:10395000A4B220B2FEBDF7B5FCF7A2FD0024A04240
:103960002CD16B469F1C0722012321003800FEF753
:1039700087FFA04201D0002420E001AE01230722EE
:1039800021003000FEF77CFF0028F4D16B469D1D1E
:103990000322230021002800FEF772FF0028EAD14D
:1039A000FCF790FD0028E6D10023FC5E0022B35E08
:1039B00064019B0028881C430443A4B220B2FEBDCE
:1039C000F0B58DB001232A4A2A496846FEF758FF10
:1039D00000284AD16B469F1C01230C221900380095
:1039E000FEF74EFF002840D1012301AE19001F222F
:1039F0003000FEF745FF011E37D16B469D1D172293
:103A000001232800FEF73CFF011E2ED102AC01234A
:103A10003B222000FEF734FF011E26D103000A20BE
:103A20003D226844FEF72CFF00281ED16B46002281
:103A30009B5E114A0B909B1808930022BB5E03A863
:103A4000013B07930022B35E06930022AB5E059311
:103A50000022A35E04936B460A229B5E039305F04B
:103A6000CDFA0100054801F0F1FD0DB0F0BDC046F2
:103A7000F40700006C07000094F8FFFF9406002094
:103A8000F0B50124222600238BB008AD6E4421003E
:103A900006A82C803380FEF799F9002800D078E042
:103AA0001A236B4421001800FEF790F9002870D10A
:103AB00026276F4421003800FEF788F9002868D1D6
:103AC000210009A8FEF782F9002862D1210007A889
:103AD000FEF77CF9011E5CD11E206844FEF776F9E2
:103AE000011E56D12C4C23681A780A2A06D10133BC
:103AF00028002360FEF76AF900284AD123681A7863
:103B00000A2A08D03888FCF751FC031E0ED1152272
:103B1000224B1A703DE0013323600023012219007B
:103B20003000FEF7ADFE002833D1EBE709AA0020F4
:103B3000115E002901DA0021118007AA0020115E20
:103B4000002901DA012111801E226A440020115E41
:103B5000002901DA0121118000216A5E002A01DAC0
:103B600001222A806A461A21525E69461820095E9F
:103B700030780490288803901E20684400880290C2
:103B800007A80088019009A800880090044802F066
:103B900040F90BB0F0BDC046B0060020841E0020E6
:103BA0001406002037B500216B4601AD9C1D0F4A5D
:103BB0000B0028002180FEF763FE011E14D10C4A81
:103BC000136818780A2806D00A4B228829881878A2
:103BD00001F06AFD08E00133136020000B00034A86
:103BE000FEF74EFE0028EFD037BDC046FF7F000035
:103BF000B00600200403002013B56B469C1D002373
:103C0000202219002000FEF73BFE00280CD123786B
:103C1000064AD35CDB0702D41B22054B03E001F00C
:103C20003DFD2288034B1A7013BDC04680AC0000D6
:103C3000841E00200403002013B56B46FA229C1D4D
:103C40005200002320212000FEF71AFE002802D196
:103C50002288014B1A8013BD04000020F7B5FCF741
:103C60001FFC0024A0423DD16B469D1C1E4A01232F
:103C70001E492800FEF704FEA04230D101AF012307
:103C8000632221003800FEF7FBFDA04227D16B46DE
:103C90009E1D6322230021003000FEF7F1FDA042AB
:103CA0001DD1FCF70FFCA04219D10023FA5E0023BE
:103CB000F15E5318642B03DD14220D4B1A7011E0D2
:103CC0000C4C0023ED5E81420BDD13185B001B5F83
:103CD000AB4201DC84B205E0013080B2F3E700249E
:103CE00000E0054C20B2FEBDFF7F00000080FFFF1A
:103CF000841E0020D8060020FFFF0000012373B5BA
:103D000001AD2B80FCF7CCFB011E01D000214EE061
:103D1000284C20680378BF2B06D1431C23604378CE
:103D2000861C9AB2F3180DE0C22B0DD1431C236000
:103D30004378214A5B00985AFCF738FB23680278E5
:103D4000461C013323601AE0282B14D16B46013046
:103D50009E1D20600B0063223000FEF791FD0028BD
:103D6000D4D10022B35E154A5B00985AFCF71EFBC3
:103D70000278461C03E01722114B1A7017E02368E3
:103D800019780A2908D00023E85E30180138047831
:103D9000FCF798FB21000AE00133236012B20023F4
:103DA00001212800FEF76CFD0028ECD0AEE708B238
:103DB00076BDC046B0060020B41C0020D806002006
:103DC000841E0020F0B585B003AE0123FE22102131
:103DD0003000FEF755FD031E1ED10E276F441E2234
:103DE0000A213800FEF74CFD051E15D10B4C20684A
:103DF00002F04EF92A002900206802F0DDFB20685D
:103E000003685B6D9847064B3A881B6831880093BE
:103E10002068FE2302F049F905B0F0BDA406002099
:103E2000AC0600200123F0B50A258FB05B4204AF39
:103E30003B8002ABED1800234E4C2B8022680126FC
:103E4000511E09789E2901D11E003B80137802AAD9
:103E5000901DC32B02D10023038008E0002307221A
:103E60001900FEF70DFD002801D000257FE0002E8F
:103E70002DD025682B780A2B26D16B1C23606B78FC
:103E8000BF2B18D1AB1C2360AA780193131C202AE6
:103E900000D92023BF2005A9DAB208704B70B138D1
:103EA00002ABC018E91C05F08BFBAB78019A01331B
:103EB000D31823601DE000232F4A19003800FEF7B5
:103EC000DFFC002815D0D0E700233B8011E02368F9
:103ED00031001A780A2A0DD10133236028003300FB
:103EE000093AFEF7CDFC051EBFD11722234B1A70ED
:103EF0003DE0012102ABD888FDF78AF8051EB4D158
:103F00003F88002F03D11E4B1A681E4B18E03FB2AA
:103F10007B1C0BD105A8FCF719FE002803D1102348
:103F2000164A137023E0174B18600AE03800FCF7BC
:103F3000FBFD0190FCF7EAFD8742F0D1114B019A9D
:103F40001A600E4B01251B78002B10D1002E09D1D1
:103F50000B4B22681B689A4209D3802149015B18E8
:103F60009A4204D20125074B1B68033323602800C3
:103F70000FB0F0BDB0060020FF7F0000841E0020BF
:103F800008030020E81F002013B56B469C1D20226B
:103F9000012300212000FEF773FC002812D1FDF759
:103FA000B3FE094A01001378002B0BD12388074C7C
:103FB000D8B2205CC00702D41B23137002E018B2F1
:103FC00004F0E4F813BDC046841E002080AC00005D
:103FD00070B505000C00FDF797FE094B28601A78B4
:103FE000002A0AD1002C08D006490A68501C086033
:103FF00012780A2A01D017221A70187870BDC046AC
:10400000841E0020B00600200223F0B585B002AA6D
:1040100013800023971C04003B80FCF741FA011E2B
:104020005FD103A8FFF7D4FF011E5AD12E4D2B6894
:104030001A780A2A09D0FCF745FA002851D102ABB8
:1040400000229A5E01250A2316E001332B60042228
:10405000030002A8FEF714FC031E42D12A6811785F
:104060000A29E8D101322A60103906223800FEF709
:1040700007FC002835D1DEE7904203DA01305D43CA
:1040800080B2F9E7039E2900300004F045FC01905E
:10409000002805D1002E03DA21002D20FCF74AF973
:1040A0000023F95E6B4622000420185EFCF750FAEC
:1040B00002AB00229B5E002B13D021002E20FCF7C8
:1040C00039F902AB290030001F8804F00BFDCB1733
:1040D000C8187F423FB2584000B222003900FCF7B6
:1040E00037FA05B0F0BDC046B006002010B586B066
:1040F000FCF7D6F9002398423AD1012101A8FFF735
:1041000067FF002821D1012102A8FFF761FF0028E5
:104110001BD1012103A8FFF75BFF002815D1012166
:1041200004A8FFF755FF011E0FD105A8FFF750FFA8
:1041300000280AD1FCF7C6F9002806D10299039A93
:10414000914204DB14220C4B1A70002310E0049CF3
:10415000059B9C42F6DA01988142F3DC8242F1DB56
:104160001B1B401A5843511A04F0D6FB0419A3B282
:1041700018B206B010BDC046841E0020F7B5FDF78A
:10418000C3FD164B04001A78002A26D114320028E9
:1041900005DB134D2A6812780A2A15D017221A70E7
:1041A0001BE02B68002101332B606B469F1D3800FC
:1041B000FDF70CFE002810D13B88013433702B68CA
:1041C000A4B21B780A2B08D1A4B22000FCF7EEF8A9
:1041D000061EE6D11523014A1370F7BD841E002088
:1041E000B00600200023F7B5050001910093474C6D
:1041F000236827001A780C2A00D183E0C32A00D153
:1042000080E0352A33D006D81C2A1AD0342A22D08E
:10421000092A3ED174E0372A2FD022D3382A32D04F
:10422000BF2A36D19A1C22605E78002E41D03B68AE
:1042300029005A1C3A601878013EFCF77BF8F6B268
:10424000F3E701332360FDF75FFD314B00901B78EE
:10425000002B2ED059E0013328002360FFF772F9BC
:1042600027E0013328002360FFF714F921E0013330
:1042700028002360FFF73AF91BE001332800236090
:10428000FFF7C2FE15E0013328002360FFF77CF939
:104290000FE0FDF739FD1E4B1B78002B03D00020EB
:1042A000FCF764F831E06B462A000021595EFCF708
:1042B0004FF9174B1A781900002A21D1019B002BC6
:1042C00003D023681B780A2B1FD022681378092B90
:1042D00016D018000A3801280AD8531C23605378D6
:1042E0000C2B12D0C32B10D0092B00D07FE70CE091
:1042F0000C2B00D17BE7C32B00D178E717230B7081
:104300002800CDE7019B002BFAD0F7BDB0060020B6
:10431000841E0020F0B5A54B85B01B880193A44BEB
:104320001D78A44B1B880293FCF732F8012103206F
:10433000FFF758FFA04BA14C1B78002B00D033E1B6
:104340002378002B00D12FE19D4B186803681B6C6C
:10435000984700280AD09B4B032801D01B2804D182
:104360001921954A11700022E1E0187023781A0093
:10437000613A192A01D8203B23702378202B00D1E1
:10438000F7E0262B00D1F4E01A00413A062A6CD857
:104390008D4A0821D3186278413B10001B7888436E
:1043A000DFB2232808D17AB201330A2A0DDD009545
:1043B000072D14D86F1C0FE02D2A02D0621C009527
:1043C0000EE07AB2002A03DD013BDFB2009506E081
:1043D0000095012D03D96F1EFBB20B270093A21C81
:1043E00014000026237819003039092906D80A213B
:1043F0004E43303EF3189EB20134F3E7A24212D08E
:10440000082E11D007D8002E00D18EE0022E0BD935
:10441000042E09D089E0202E06D0402E04D0102E84
:1044200000D082E000E0019E002203922E2B02D1F8
:104430002D3B013403930299644804F06DFA310076
:1044400004F06AFA039B002B01D04308C018009BBC
:104450007FB2013BFF00FF185D4B7F00F95A5D4BB7
:1044600082B2187801F020F96AE74C2B25D101348B
:1044700021000023227810003038092806D80A20AD
:104480004343303B9B189BB20134F3E78C4200D18D
:1044900056E7082B01D1019352E7082B06D8002BD1
:1044A00043D0022BF7D9042BF5D03EE0202BF2D0DD
:1044B000402BF0D0102B38D1EDE74F2B12D1002537
:1044C000013423781A00303A092A06D80A225543C3
:1044D000303DED18ADB20134F3E76B1E072B24D845
:1044E000EDB22DE7522B38D101342200002623787B
:1044F00019003039092906D80A214E43303EF318F5
:104500009EB20134F3E7944213D0082E12D006D89D
:10451000002E0AD0022E0DD9042E0BD005E0202E3D
:1045200008D0402E06D0102E04D01E22224B1A7026
:104530003AE0019E00272E2B01D101340137029968
:10454000224804F0E9F9310004F0E6F9002F01D027
:104550004308C01803F074FCF2E63C2B03D1072D8E
:1045600007D8013504E03E2B05D1012D01D9013DCD
:10457000EDB20134E4E6542BD7D1013421000023FD
:10458000227810003038092805D80A204343303BF0
:10459000D3180134F4E78C42C7D01A00203ADF2A3E
:1045A000C3D89BB20293CBE605B0F0BD0C0300204C
:1045B0000E03002004000020841E002014050020AB
:1045C000A4060020B21C0020DEAC000080A903007D
:1045D000A4AB00000403002073B501AD01230E4A13
:1045E0000E492800FEF74CF9002814D16B469E1D99
:1045F000094A012309493000FEF742F9041E0AD195
:104600000023E95E06480023F25E01F009F921006B
:104610000220FFF7E7FD73BDFF7F00000080FFFF72
:104620001406002073B501AD0021012304222800E7
:10463000FEF726F9011E11D16B469E1D084A012383
:104640003000FEF71DF9041E08D12978054832888C
:1046500001F0FCF921000520FFF7C4FD73BDC04641
:10466000881300001406002070B5104D28680378E8
:10467000BF2B07D1FCF76AFA041E11D110220C4B94
:104680001A7011E0FDF740FB094B06001B78002B68
:104690000AD1FCF749FA0400FCF738FA8642EDD15A
:1046A000044B1C6003342C6070BDC046B006002073
:1046B000841E0020E81F0020F8B5184D28680378F4
:1046C000BF2B05D1FCF742FA041E0FD1102212E0D5
:1046D000FDF71AFB124B06001B78002B1DD1FCF7CF
:1046E00023FA0400FCF712FA8642EFD10D48037852
:1046F000082B03D906220A4B1A700EE00A4A0B490E
:1047000017689E0077509E1C01330670DBB2286844
:104710009B001460033458502C60F8BDB006002094
:10472000841E0020A8060020E81F00205C1E002038
:10473000F8B52B4C2B4D23685A1C22601A78C22ADC
:1047400001D00C232EE05F78FEF708F82B78002BC1
:1047500044D123681A78042A0AD101332360FDF773
:10476000D3FA236806001A780120052A10D101E047
:104770000D2317E001332360FDF7C6FA002805DAA0
:10478000194B1B1AB34208DD02230BE0002804D0AA
:10479000164B02B29B1AB342F6DB154B1B78142B57
:1047A00002D908232B7019E01249134A09689D00A9
:1047B000A95021685D1C9C1CEDB2E4B2A400AD00C0
:1047C000A950A650DC1CE4B200B2A400A050581DB1
:1047D00004330749DBB29B0008709F50F8BDC04608
:1047E000B0060020841E00200180FFFFFF7F000034
:1047F0009F180020E81F0020841F002010B5FDF73F
:1048000083FA0C4B1A78002A02D00F221A7010E09B
:1048100000280ED1084C2068FCF7CEF922000028B1
:1048200006D113681978C32903D001331360F8E760
:10483000206010BD841E0020B0060020F8B50023C3
:1048400017278C4C23708C4D2B681B78C32B00D101
:10485000C4E18A4E306803681B6C984700280AD070
:10486000874B032801D01B2804D119222270002273
:104870001A70B3E118702B685A1C2A601878C22885
:1048800000D99DE103F0B4FFC600C900CC00CF0001
:104890009C019C01D200D500DB00D8009C019C014A
:1048A000A501D8009C019C019C019C019C019C01DC
:1048B0009C019C019C019C019C019C019C019C0110
:1048C0009C019C019C019C019C019C019C019C0100
:1048D0009C019C019C019C01F000E1000F01FE0085
:1048E000FE000301DE00E700EA00E4001E019C0177
:1048F0009C019C019C019C019C019C019C019C01D0
:104900009C019C019C019C019C019C019C019C01BF
:104910009C019C019C019C019C019C017201220153
:1049200025012B0128012E01340131013701A1019C
:10493000060109010C019C019C019C019C019C0148
:104940009C019C019C019C019C019C019C019C017F
:104950009C019C019C019C019C019C019C019C016F
:104960009C019C019C019C019C019C019C019C015F
:104970009C019C019C019C019C019C019C019C014F
:104980009C019C019C019C019C019C019C019C013F
:104990009C019C019C019C019C019C019C019C012F
:1049A0009C019C019C019C019C019C019C019C011F
:1049B0009C013A013D014001430146011B011501E3
:1049C0001801120169016C014E016501D800F30064
:1049D000490169015F015C0162014B016F017501D1
:1049E00078017B017E0184018A018D0181019001A2
:1049F00087019C019C01930196019C0199019901F9
:104A000099019C019C01C3009C019C01ED00FCF7F5
:104A10002BFDDEE0FFF728FEDBE0FFF74DFED8E0E0
:104A2000FCF72CFDD5E0FFF783FED2E0FCF748FD54
:104A3000CFE0FFF7E3FECCE0FCF794FDC9E0FCF724
:104A40009DFDC6E0FEF704F9C3E0FEF72FF9C0E0D4
:104A5000FDF74AFBBDE0FEF753F9BAE0FEF778F93F
:104A6000B7E0FDF77BFEB4E0FDF7AAFEB1E0FDF78D
:104A7000EDFEAEE0841E0020B0060020A40600205B
:104A8000B21C002000210800FFF7ACFBA1E0FDF7FD
:104A9000A5FD9EE0FEF770F99BE0FEF797F998E020
:104AA000FEF7B6FC95E0FFF769FB92E0FEF788FFA2
:104AB0008FE0FDF7BDF98CE0FDF710FA89E0FCF717
:104AC00067FB86E0306801F021FB82E0FDF790FB98
:104AD0007FE0FDF7B5FB7CE0FDF7F4FB79E0FDF747
:104AE00037FC76E0FEF7CCFF73E0FDF781FC70E069
:104AF000FFF772FD6DE0FFF795FD6AE0FFF752F8F2
:104B000067E000F0CBFD64E0FFF776F861E0FFF7C7
:104B100001FC5EE0FFF790F85BE002201AE0FCF792
:104B200053FC56E03068002103681B6B9847002057
:104B3000FDF7CAFE3068012103681B6B984748E007
:104B4000FDF74AFF45E0FEF70FF842E0FDF7DCFF16
:104B50003FE00020FCF790F93BE0FFF763F938E015
:104B6000FDF7B2FF35E0FFF72DF932E0FEF7B0F8C0
:104B70002FE0FDF701FA2CE0FEF750F929E0FCF7F1
:104B800097FA26E0FCF7B2FA23E0FEF78BF920E073
:104B9000FEF712FA1DE0FEF7F1F91AE0FCF7BAFA97
:104BA00017E0FEF751FB14E0FEF770FA11E0FBF797
:104BB00063FB0EE0FEF7E0FB0BE01323237012E033
:104BC0002B601B785C3B202B02D8FFF7DDF900E05F
:104BD00027702378002B00D135E604E0034B1868DA
:104BE0000378C01800E00020F8BDC046E81F002090
:104BF00000230D4A10B513700C4A0D4C13709842E7
:104C00000FD10C4B1B68236023681A78002A0AD046
:104C1000094A03331360FFF711FE084B1B78002B82
:104C200001D12060F0E710BDA80600209F180020E9
:104C3000E81F002008030020B0060020841E00208A
:104C400070B52D4A2D49531C0B601378A52B1BD032
:104C50000AD82E2B40D002D80D2B4AD03FE09E2BF5
:104C60000FD0A22B45D03AE0BB2B22D004D8BA2BD0
:104C700035D1FCF731F92AE0BC2B2AD0BD2B38D036
:104C80002DE0FFF7CFF822E0FFF7CCF80124002851
:104C900030D01B4D0021286803681B6B9847194BC7
:104CA0001868FFF7A5FF2868210003681B6B984769
:104CB00020E0134C0021206803681B6B98470020FC
:104CC000FFF796FF2068012103681B6B98470124BA
:104CD00010E0FDF7A7F9FAE7FDF7BAFF09E0084C85
:104CE0000A602068002103681B6B9847FFF7A6FD48
:104CF000E8E70024200070BD851E0020B0060020DB
:104D0000A4060020E81F0020F7B50020FCF7B4F847
:104D1000F020000104F06CF801270026534D2860B4
:104D2000FBF7AAFA524800F0C7FD524B524C1F70D5
:104D300052482B681822502120600093FE2301F076
:104D4000B4F94F4800F05CFC4E4802F063FDFDF7FB
:104D50007FFF2068002103681B6B984700214A48A9
:104D6000FBF7D8FB0020FBF701FB00214748FBF7CE
:104D7000D1FB00214648FBF7CDFB0020FBF7F6FAFC
:104D8000444D30002E70FCF761FA2068390003684A
:104D90001B6B98473100052003F0F8F931000B2018
:104DA00003F0F4F902223C49052002F095FF3B484C
:104DB0000222310002F0E4FE0B2003F01BFAB042A5
:104DC00004D10100FCF724F9061E42D0206801211D
:104DD00003681B6B984720680368DB6D98470028C1
:104DE000F9D023689E693078002802D1FBF7BEFA1B
:104DF000F1E7300004F0A8FBFD2805D91A230020B4
:104E00002B70FBF7B3FA1BE0254F3100380004F09C
:104E100093FB3800FBF730FB0020FBF7A7FAFBF70A
:104E2000F7FC2B78002B01D001200AE01D4B1A78EB
:104E3000BE2A09D11870FBF7FBFE2B78002BCAD0D5
:104E40000020FCF703FAC6E7FFF7FAFE0028C2D0FD
:104E5000F6E72068310003681B6B98473000FFF7C6
:104E6000C7FE3000FBF782FA2E70AFE7AC060020D9
:104E7000140600209E180020A406002070060020C2
:104E8000940600201425002099A70000AFA7000079
:104E9000C1A70000841E002011020000B8060020F7
:104EA000A0170020851E002010B5FFF72DFF10BDB4
:104EB0008023A32101220220DB05C90010B5DA609E
:104EC0005850E1219A604902044803F090FA00200A
:104ED00003F006F803F01AFC10BDC046EC250020D4
:104EE000034B10B51B68002B00D0984710BDC0467F
:104EF00088260020034B10B51B68181E00D0984769
:104F000010BDC0468426002010B50400207800287B
:104F100003D0FFF7E5FF0134F8E710BD70B5041EBC
:104F2000092C16D9632809D9642103F06BFC05000C
:104F30003030FFF7D5FF64206843241A0A2120008F
:104F400003F060FC05003030FFF7CAFF0A20684319
:104F5000241A20003030FFF7C3FF70BD70B50D4C30
:104F600006000D1E236807D0002B0BD10A48FFF75F
:104F7000CBFF0123236005E0002B03D00748FFF798
:104F8000C3FF25603000FFF7ABFF054A136801330C
:104F9000136070BD0025002044AD000049AD000045
:104FA0001003002070B505000C00884203D10A48A8
:104FB000FFF7AAFF0EE00948FFF7A6FF681CFFF7FE
:104FC000ADFF3B20FFF78CFF601CFFF7A7FF7220AF
:104FD000FFF786FF70BDC0464EAD000052AD000029
:104FE00070B505000C000848FFF78EFF681CFFF73E
:104FF00095FF3B20FFF774FF601CFFF78FFF4820F1
:10500000FFF76EFF70BDC04652AD0000014B186047
:105010007047C04684260020014B18607047C04688
:105020008826002010B50021FFF798FF10BD000072
:1050300070B51F4E04003368834237D025051D48E4
:105040002D0FFFF761FF6B1E072B06D81A48FFF7DD
:105050005BFF28002F30FFF743FF25042D0F6B1E49
:10506000072B06D81548FFF74FFF28002F30FFF712
:1050700037FFA30702D51248FFF746FFE30702D523
:105080000E48FFF741FF630702D50E48FFF73CFFCC
:10509000230702D50C48FFF737FFE30602D50B487C
:1050A000FFF732FF6D20FFF71BFF346070BDC04675
:1050B0001803002055AD000059AD00005CAD0000A4
:1050C0005FAD000062AD000065AD000068AD00009E
:1050D000064B10B51C68064A844202D114688C4203
:1050E00003D018601160FFF77BFF10BD1403002090
:1050F0001003002010B50B4B0B4C19682068FFF70C
:1051000051FF00212068FFF76BFF0848FFF7FCFE06
:1051100000210800FFF746FF054B20681968FFF7DC
:105120005FFF10BD1C030020140300206FAD0000C2
:105130001003002010B50C4B0C4C18682168FFF7C9
:1051400031FF00212068FFF74BFF0948FFF7DCFE25
:1051500000210800FFF726FF064B1968064B186868
:10516000FFF73EFF10BDC046FC2400201C030020BA
:1051700073AD0000100300201403002010B5024896
:10518000FFF7C2FE10BDC04676AD000000B5FF209F
:1051900000BD000010B50248FFF7B6FE10BDC046C6
:1051A00083AD0000024B1860024B19607047C04687
:1051B000FC2400201C03002010B504000448FFF765
:1051C000A3FE6C20002C00D06820FFF789FE10BDE4
:1051D0008BAD000073B5FFF78DFE08237F2830D01C
:1051E000031E1B2B2DD1FFF785FEFF28FBD01B23B1
:1051F000984226D05B2801D0FF2322E00024FFF74D
:1052000079FEFF28FBD0030001AD413B6055621CD5
:10521000192B04D97E2802D0141E032CEFD10023B1
:105220001C00094EAB54A3009959280004F07AF9E8
:10523000002802D12300803303E00134172CF2D17F
:10524000DAE7180076BDC046E8AC0000F8B50325E3
:1052500004002800134B8900CF585043160003F078
:10526000C7FD2770FFB23B00A022C133FF33D20538
:105270009B00606066809D500123BB400A495350EB
:1052800000231900B3420BDA2A005A436068013345
:105290008154606880184170606882189170F1E7ED
:1052A000F8BDC04698BB00000C0500000123F0B516
:1052B00002787E499340A022D205060085B0535063
:1052C00032200138C046C046C046C046C046C0462F
:1052D000C046C046C046C046C046C046F1D17088F0
:1052E000029000200190A120C000029C019DA542D7
:1052F00000DBDDE00324019D77686C433C19E71C6B
:1053000003974027BC467F2527781350AF430AD028
:10531000C046C046C046C046C046C046C046C0465D
:10532000C046535009E0C0465350C046C046C04630
:10533000C046C046C046C046C046654627781350A2
:105340002F420AD0C046C046C046C046C046C046EE
:10535000C046C046C046535009E0C0465350C04600
:10536000C046C046C046C046C046C046C046277874
:105370001350BD060AD5C046C046C046C046C0460A
:10538000C046C046C046C046535009E0C0465350D0
:10539000C046C046C046C046C046C046C046C046DD
:1053A00027781350FD060AD5C046C046C046C04601
:1053B000C046C046C046C046C046535009E0C0463D
:1053C0005350C046C046C046C046C046C046C04610
:1053D000C046277813503D070AD5C046C046C04690
:1053E000C046C046C046C046C046C046535009E00D
:1053F000C0465350C046C046C046C046C046C046E0
:10540000C046C046277813507D070AD5C046C0461F
:10541000C046C046C046C046C046C046C0465350BF
:1054200009E0C0465350C046C046C046C046C046CC
:10543000C046C046C04627781350BD070AD5C046AF
:10544000C046C046C046C046C046C046C046C0462C
:10545000535009E0C0465350C046C046C046C046FF
:10546000C046C046C046C04627781350FD070AD53F
:10547000C046C046C046C046C046C046C046C046FC
:10548000C046535009E0C0465350C046C046C046CF
:10549000C046C046C046C046C046039D0134AC422B
:1054A00000D030E7019C013401941EE70C05000098
:1054B00005B0F0BD002370B5190003254288934262
:1054C0000BDA2A005A4344680133A1544468A418F3
:1054D00061704468A2189170F0E7FFF7E7FE70BDB5
:1054E00070B5468804AC257801248E420AD902346E
:1054F00061434468641862700024426853544368EE
:1055000059188D70200070BD70B5468804AC2578A0
:1055100001248E420CD902346143446864186270DD
:10552000426800245354436859188D70FFF7BEFE3B
:10553000200070BD10B50400406803F063FC002338
:105540006380237010BD0000114A30B501239042E2
:105550001CD882051AD1022180250E4B0E4AED007F
:10556000995080245959E4000029FAD0A121094D0D
:10557000C900685019590029FCD0002005498850FD
:105580008021C9005A58002AFCD00023180030BDE1
:10559000FFFF030000E0014004050000F0B5154CDA
:1055A0000123A04223D8840521D11D008C071ED1E0
:1055B000114C124BA4461D518025ED005C59002C66
:1055C000FCD080270024FF008025ED00944207D204
:1055D000A5004E594651DD59002DFCD00134F3E7AA
:1055E000002261465A505A59002AFCD00023180064
:1055F000F0BDC046FFFF03000405000000E00140CD
:10560000A12270B501260F4C0F4BD200C12166605C
:10561000A660A35000238900635040316350050009
:10562000436003608020A1580002891903F0EAF862
:10563000A86001008020400403F0E4F8E8602660E0
:1056400070BDC04600B00040FF07000010B5040068
:10565000044B054A0160D058A16803F0D3F860609C
:10566000002010BD0405000000B0004070B504002B
:10567000084A094BA168D05803F0C4F863680500D4
:10568000C01AE368C018190003F042F92368C8186B
:1056900021C470BD00B00040040500000122014B90
:1056A0005A60704700800040F7B5A22601251A4BCA
:1056B0008000C3580192194A194F1B021343F60088
:1056C000BB51184B184CFD500023184A6560E5602B
:1056D000A3500422A251A122D200A350144803F0E7
:1056E0001BF9A823E840DB00E05080239B00E55035
:1056F000104A114B0D499F50104A9A510B4A9A5823
:105700002A435A50019B2560002B03D0180002F059
:1057100097FB6560F7BDC04698BB0000030003001F
:1057200000600040FC0F0000008000400405000005
:1057300040420F001405000000F00140408100408D
:1057400010B502AC2488018084805C43091B428030
:10575000C380018110BD0200808813894843C118AD
:1057600053884B431800704770B50500FFF7F3FFEF
:1057700000240600AB88A34209D9688860438019D9
:10578000FFF7E2FE002803D10134E4B2F2E7002083
:1057900070BDF8B50C0007001600FFF7DCFF210014
:1057A00005003800FFF7E0FF041E09D17A88BB88A6
:1057B00031005A43921092B22800FFF7EFFE00E04A
:1057C00001242000F8BD10B5FFF7C5FF02780300E3
:1057D0000120FF2A04D15878FF38431E9841C0B2F7
:1057E00010BDF8B504000F001500FFF7B4FF390035
:1057F00006002000FFF7E7FF1623002807D0A38844
:10580000628831005A43280003F006FB0023180089
:10581000F8BD7047002070477047704728307047C8
:10582000030050304E33198002807047F0B51600E7
:1058300007000D0085B001930AAB00229B5E009625
:1058400002930BAB1B780393029B009AF3189A42C6
:1058500015DA2C00019BEB189C420BDA3B683200F6
:105860005B6B290038009847039B984209D00134AC
:1058700024B2EFE7009B01331BB20093E4E7002062
:1058800000E0012000B205B0F0BD37B507AD2D78BE
:1058900006AC24886DB208300094002D02D001F0CF
:1058A0002AFD01E001F0C4FB37BD10B5083001F05E
:1058B000D7F900B210BD0000030070B50124050047
:1058C0004C331C800E4B821D1B68083543651978CC
:1058D000D1875B784432EB8705238380C380030044
:1058E00048331C80002350301380938003802800AD
:1058F00001F050F92800210001F02CFF200070BDBC
:10590000000300200300F0B585B002915833040075
:105910001878042800D994E00233039302F05EFF64
:105920000324436282000625002605222368009294
:105930000196DF6A3100130020003200B847236867
:105940002AB2DB6B310020009847236802991B6C58
:1059500020009847039B013D1888ADB202F070FA11
:105960002BB20133E0D16CE00127374D05232268CB
:1059700000930197D66A002220001100B0472368E7
:105980002AB2DB6B002120009847236802991B6C28
:1059900020009847039B01351888ADB202F050FAF9
:1059A000012DE3D14DE00227274D05232268009306
:1059B0000197D66A002220001100B047236829B25F
:1059C0000022DB6B20009847236802991B6C2000A3
:1059D0009847039B01351888ADB202F031FA012DCA
:1059E000E3D12EE0062503270523226800930197C3
:1059F000D66A002220001100B047236829B2002295
:105A0000DB6B20009847236802991B6C20009847A5
:105A1000039B013D1888ADB202F012FA2BB201339C
:105A2000E2D10EE0002223681100DB6B20009847D2
:105A3000236820001B6C02999847039B188802F08A
:105A4000FFF905B0F0BDC046FAFF000003005A3070
:105A50005833197002807047030010B504004A33B0
:105A60001988083000F0C2FF220000234E32503463
:105A70001380238010BD70B504000D00002A04D0EF
:105A8000FFF7EAFF642002F0DBF920000830002D68
:105A900002D001F0C3F801E001F0BAF870BD10B512
:105AA000083000F0B1FF10BDF0B585B001930AAB2E
:105AB000150000229B5E083002930BAB1E780C0091
:105AC000009001F04AFE6F4B80001818865D009828
:105AD00001F043FE02280ED0032816D001281DD164
