:10000000004000204D4700008D4700008F47000052
:1000100000000000000000000000000000000000E0
:1000200000000000000000000000000091470000F8
:10003000000000000000000093470000954700000A
:100040009747000097470000754E00009747000053
:100050009747000000000000974700009747000006
:100060009747000085490000974700009747000028
:100070009747000097470000974700009747000008
:1000800097470000E54700009747000097470000AA
:1000900097470000974700009747000097470000E8
:1000A0009747000097470000000000000000000094
:1000B0000000000000000000000000000000000040
:1000C000054B0648033310B51B1A062B03D9044B06
:1000D000002B00D0984710BD880400208804002021
:1000E000000000000648074910B5091A8910CB0F17
:1000F0005918491003D0044B002B00D0984710BD6D
:1001000088040020880400200000000010B5074C7F
:100110002378002B09D1FFF7D3FF054B002B02D02A
:10012000044800E000BF0123237010BD88040020B4
:100130000000000070620000094B10B5002B03D0D6
:100140000849094800E000BF08480368002B02D1B5
:10015000FFF7C8FF10BD064B002BF9D09847F7E713
:10016000000000008C040020706200008404002065
:1001700000000000164B002B00D1144B9D4640227E
:1001800092029A1A924600218B460F461348144A4F
:10019000121A05F073F90F4B002B00D098470E4B45
:1001A000002B00D098470020002104000D000D48CE
:1001B000002802D00C4800E000BF05F007F920003D
:1001C000290004F075FE05F0EBF8C04600000800B9
:1001D0000040002000000000000000008804002013
:1001E0000C1E00200000000000000000704700000E
:1001F000034B10B5010018680268926B904710BD60
:10020000E01A002010B5040004F066FE200010BDC6
:100210000200613A0123192A06D900231922413824
:10022000C0B282425B41DBB2180070470300092272
:100230000020303BDBB29A424041C0B2704710B55B
:10024000040005F0EDF9210005F062F8013108B273
:1002500010BD013AD2B2FF2A06D08B5C013AD2B26D
:100260008342F8D1012000E000207047054A10B514
:10027000138819B27F2903DC034C013360541380C7
:1002800010BDC0466E1D0020A408002010B5002936
:1002900002D1FFF7ADFF0BE0012905D1054B0100AD
:1002A000186803F0A1FC03E0032901D1FFF7DEFF8A
:1002B00010BDC046E01A002010B5002805D1094B3A
:1002C000186803681B6E98470BE0012804D1054BA2
:1002D000186803F08BFC04E0032802D10730FFF715
:1002E000C5FF10BDE01A0020002110B5034B80228D
:1002F0000348198005F0C2F810BDC0466E1D0020ED
:10030000A40800201C4B020019688B89C88943434C
:100310009BB2934202D98B6898182BE0A021174B0F
:10032000FF31D31898B2884201D8154821E0154B07
:100330001548D31899B2FF291BD9144B1449D31867
:1003400098B2884202D8134A106812E0124B13493F
:10035000D31898B2884201D811480AE0114B1249CB
:10036000D3189BB200208B4204D8104BD018104BEE
:100370001B6818187047C046E01A002000E7FFFF0E
:10038000641B002060E5FFFFA609002060E4FFFF7A
:10039000FF0F00000400002060D4FFFFFF030000F7
:1003A000A404002060D0FFFFFF07000063D0FFFF20
:1003B000A41A002010B5040005F092F900220138BB
:1003C00080B2002807D023181978202903D10138DA
:1003D0001A7080B2F5E7200010BD00000649074AF8
:1003E0000B681878132802D01123137001E0013331
:1003F0000B6010787047C046701A0020A21A0020C7
:100400000649074A0B681878142802D01123137084
:1004100001E001330B6010787047C046701A00206D
:10042000A21A0020F8B50D4C050020680F00867F49
:10043000002E03D0036800211B6B98472878002802
:1004400004D039000135FFF721FFF7E7002E04D073
:100450002068012103681B6B9847F8BDE01A002053
:100460002023F0B585B00E1E0292019303DA4E42AE
:10047000103336B20193002803DA4442A4B20123B8
:1004800001E0002384B2002206270093174B9A71E3
:10049000039320000A2104F051FE7D1E039B30319E
:1004A000EDB2595520000A2104F0C2FD84B2002C9F
:1004B00001D02F00EDE7009B002B04D02D23BD1EA3
:1004C0000A4AEDB253550624641BB44206DA029977
:1004D0000198013EFFF7DAFE36B2F6E7034B0299C8
:1004E0005819FFF79FFF05B0F0BDC046E41A002081
:1004F000F8B585B217480423854207D8013BFF2D84
:1005000004D80C33AB429B415B420133002905D038
:1005100089B2181C8B4200D2081C83B200240F2120
:100520000D482F00A60076420C3637413E000E40A3
:1005300037003737092E01D83036370027540134B9
:10054000042CEED10021E31A0171C0181100FFF74D
:1005500069FFF8BDFF0F0000E41A0020F7B583B271
:1005600001930F240023114E019D012025410540D8
:100570002F308446AC446746301BC7733000002BD5
:1005800003D1002D01D0631C9BB2013CECD20024AE
:1005900089B204741C1C8B4200D20C1CA4B2001B38
:1005A00010301100FFF73EFFF7BDC046E41A0020EF
:1005B000F7B500240226384D28680368DB6B98479E
:1005C0000D281CD0032803D11922344B1A7016E0D1
:1005D0001B28F9D0082851D07F284FD0002C06D1F5
:1005E00003002B3BB343DBB2002B3AD001E0052CD8
:1005F0003FD80300303BDBB2092B32D939E0002071
:10060000FFF75AFE0023264D2B552A782B2A03D0BC
:100610002D2A03D1012301E0012200E01A001F4925
:1006200000260F7801910A2130008C46AC5C002C2A
:100630000ED0614641433039091989B2013200B206
:100640000CB2D2B2A04201DD012602270800EDE77C
:10065000002E01D0019A1770002B1AD0404280B2B0
:1006600017E0651C0E4BEDB21855FFF7C1FD2C00CD
:10067000A1E728680368DB6A98479CE7002CF8D05C
:10068000286803F0B4FD013C2868E4B203F089FC5B
:1006900091E700B2FEBDC046E01A0020A21A002079
:1006A000E41A0020F7B5070001261A4C0191019BBE
:1006B0009E4204D923B20025013313D128E000253E
:1006C0001548AB0032003900185805F011F8002821
:1006D00004D1731C0096ACB29EB2E8E70135BF2D81
:1006E000EED1E7E70C4AAB009C58200004F0F8FF7D
:1006F000009B984208D11A003900200004F0F8FF4E
:10070000002801D1ACB203E00135BF2DEAD1014C84
:1007100020B2FEBDFFFF000008000020F0B500245D
:10072000814D85B02B78002B18D02E78202E1BD031
:100730003300093B042B19D816E017B27E30C01BDA
:1007400086421EDA0234E4B22000DBB28B55013A55
:1007500092B216B2013632D1E318DCB2C322734B27
:10076000601C1A55C0B2DCE00135DEE7280004F059
:10077000B7FF81B22800FFF795FF071E25DB7E2C0F
:1007800001D9042232E0694BBA001F55684B661C40
:10079000D05804F0A5FFF6B22D186449AE2F00D052
:1007A000BAE02B78202B25D0093B042B22D900233B
:1007B000E85C9AB25F1C0028BFD03B00F8E72F78B6
:1007C000461C0F540135F0B2C1E73300303B092B12
:1007D00030D8802000230A2100024B4301356A1ED5
:1007E0001278303BD318834206D90222514B0020A5
:1007F0001A7096E00135D4E72A78303A092AECD904
:100800007C2CBED88021494A09028B4206D1002C9B
:1008100004D01119013909780E29E6D1BF21601CD5
:100820001155C0B2A11C1354C9B203341B0AE4B25F
:10083000535477E7222E0BD100236E1CE918497818
:100840009AB2222934D0581C002931D00300F5E790
:100850003000FFF7DDFC00281CD07D2C91D8330040
:10086000613B192B01D8203EF6B2413EF7B26E78BB
:100870003300303B062B4BD9002601202B49032C9B
:100880000AD90B199A1E1278C22A05D1043B1B788B
:10089000C22B01D11722A9E7C2230B551A235E43AD
:1008A000621CD2B20234BE19E4B28E542D1839E75C
:1008B0007F2110B2091A8C4200DB62E7C0211B4F76
:1008C000A01C3955D9B20191694601340979E4B2C5
:1008D000C0B23955350004000397013A92B217B2FD
:1008E000791C0AD02F78611CBC4602916146039F97
:1008F0000135395569460C7AEFE79DB275192B78A9
:10090000019A223B81185A425341CCB2ED1809E7B3
:100910002F3EF6B20220B1E70D2F00D141E734009F
:1009200000E705B0F0BDC046E41A0020250900200C
:1009300008000020A21A0020064B1B68180002784D
:10094000002A01D08018FAE7181A034BC31818B20E
:100950007047C04604000020FF0F00000378002B02
:1009600004D0837840781B02184300E0014800B2AD
:100970007047C046FFFF000070B50600064B1C68BC
:100980002578002D06D02000FFF7E8FFB04201DAFD
:100990006419F5E7200070BD04000020F8B50D4B88
:1009A00047781C68851C2678002E0ED0E378C02B73
:1009B00009D12379BB4206D1611D3A00280004F019
:1009C000B9FE002803D0A419EDE7300000E02000B4
:1009D000F8BDC04604000020F8B507000024084B0D
:1009E0001D682E78002E08D02800FFF7B7FFB84208
:1009F00004DA0134A4B2AD19F3E7024C2000F8BDCB
:100A000004000020FF7F00000378C32B17D0BF2B0A
:100A100011D005D8072B12D0092B0ED101300FE0D1
:100A2000C12B08D003D3C22B07D10230ECE74378A7
:100A30000133C018E8E70330E6E70130E4E70020BF
:100A400070470000F7B5070000240B4B01911D68AB
:100A50002E78002E0DD02800FFF780FF002808DB3D
:100A6000B84204DB019B984201DC0134A4B2AD1909
:100A7000EEE72000FEBDC0460400002070B5FFF781
:100A80005BFF204D2B78984203DA05221E4B1A702B
:100A900037E02800FFF762FF0600FFF76DFF040054
:100AA000FFF75CFF864210D121002278A21810784F
:100AB000002809D00023834202D1C918D218F6E7D2
:100AC000D65CCE540133F6E708702878042818D095
:100AD00021000B78002B01D0C918FAE70A1B01325C
:100AE00092B208185242934203D0CE5CC654013BE6
:100AF000F9E700232978994203D0EA5CE2540133F4
:100B0000F9E770BD25090020A21A0020F7B50400FE
:100B10000D002378C32B00D1B0E0BE2B3ED8584A3D
:100B20009B0029009858FFF77DFC67780C2F21D097
:100B30002678752253493000FFF78BFB002806D03A
:100B4000362251493800FFF784FB002803D00C3EC1
:100B5000012E0BD80EE0142E0CD1C32F0AD01B226D
:100B60004A493800FFF775FB002803D129002020EF
:100B7000FFF78CFB2378AE2B03D1A61C64783419C5
:100B800004E00D2BF9D0661C3400C2E7B44275D0E6
:100B900030782900FFF77AFB0136F7E7BF2B09D140
:100BA000A07863780002184300B22A000021FFF702
:100BB00057FC0EE0C12B0FD129002420FFF766FB64
:100BC000A07863780002184300B22A000221FFF7E0
:100BD0008FFCE61CE07818E0C22B1FD167781A2141
:100BE000380004F0ABFA4131C8B22900A61CFFF767
:100BF0004DFB192F08D91A21380004F019FA2F30AB
:100C0000C0B22900FFF742FBA0781B221F49FFF763
:100C100020FB0028B8D12900203029E0C02B2AD1A0
:100C20006378002B06D0E2185278222A04D0013BC8
:100C3000DBB2F6E7222300E0272301932900019885
:100C4000FFF724FB6678A71CBE19BE4205D0387892
:100C50002900FFF71BFB0137F7E729000198FFF791
:100C600015FB3378C22B01D0092B8DD12900202010
:100C7000FFF70CFB88E71822054B1A70F7BDC0463A
:100C800008000020AD5B0000225C0000B8570000A7
:100C9000A21A0020022302009A4310B5131E0BD0A3
:100CA00000230E4A13700E4A13700E4A11680B701F
:100CB00012680D4B1A6010E01400D2220B4952004A
:100CC0005C5202339342FBD100231900084A995227
:100CD0000233C82BFBD10228E2D110BDA5090020A8
:100CE000A11A002004000020B41A0020641B002078
:100CF000A6090020F0B5474E85B034682378BF2B95
:100D000013D12000FFF72AFE0A27E31C3360E378A3
:100D100085B2BB420BD12379201D30601722BF2B37
:100D200010D1FFF71BFE87B201E00A273D003A4CC5
:100D300000202100FFF786FE0394002D01D0002F34
:100D400003D11422354B1A7062E0013880B2784327
:100D5000039B40199842F4DC314B324E1B683360E0
:100D600033681A780292002A40D00024013301939C
:100D7000029B013B9C4235DA019B1B5DBF2B2CD0B3
:100D800002D8012B07D92AE0C12B26D01FD3C22BB2
:100D900025D1023424E0631C019A9BB2D218009240
:100DA0001278BF2A01D01C00E2E70098FFF7D6FDB9
:100DB00080B2FFF711FE039B0434984210D07843B1
:100DC000281880B2009A03129370507008E0013422
:100DD000019AA3B2D25C9C1802E0033400E0013413
:100DE000A3B2E0E732681378D318B8E70C4B1B685E
:100DF000336033681A78002A0AD05D7032682B128B
:100E0000937032687D191378ADB2D3183360F0E770
:100E100005B0F0BD701A0020FF7F0000A21A00206C
:100E200004000020B41A002070B50C4DC4B20E00AE
:100E30002800210002F08BFC002804D11622084B68
:100E400001301A7009E03000FFF724FF054B210044
:100E50001A68280002F089FC002070BDAA1A002040
:100E6000A21A00200400002010B5054C206802F0F2
:100E7000BFFF00222068110003F04EFA10BDC046EB
:100E8000E01A002070B50B4B1C78002C03D0002218
:100E9000A4B21A700BE0084D286803681B6C9847D1
:100EA000002804D028680368DB6B984784B220B21E
:100EB00070BDC046741A0020E01A0020FA2010B558
:100EC000400003F081FC064B1A781C00012A03D174
:100ED000044B186802F087FE0023237010BDC04643
:100EE000A81A0020E01A0020F7B5164C23780194C8
:100EF000002B01D0FFF7E2FF134A13681978C029CD
:100F000003D01422114B1A701BE0991C11605F78FA
:100F100000230A261900BB420CD210680578303D28
:100F2000ECB2092CEDD8714301300133691810601F
:100F30009BB2F0E7064B186802F054FE0123019AB9
:100F40001370F7BDA81A0020701A0020A21A002002
:100F5000E01A0020F7B52D4D040028680021036831
:100F60001B6B98472A4A2B4F13780192002B3DD0D8
:100F7000294A9B001168294A126891422FD3802088
:100F80004001121891422AD2254E32681278002A66
:100F900025D0002C23D1F8582100FFF743FA210077
:100FA0002048FFF73FFA3068FFF7D8FC2200210005
:100FB000FFF756FA2000FFF77FF93068FFF7CEFC05
:100FC00022002100FFF74CFA21001748FFF72AFA08
:100FD000306821000330FFF799FD200004E0F85845
:100FE0000021FFF71FFA0020FFF766F9386800219B
:100FF000FFF718FA0020FFF75FF90023019A28682D
:101000001370036801211B6B9847F7BDE01A00209D
:10101000A21A002020030020701A002004000020E3
:10102000B41A0020D35700003C58000010B501F05E
:1010300025FB2C4B04001B78002B4FD12A4B1A6840
:10104000511C196010781A38092845D803F0DCFFC4
:101050002A0C2005180C0C11333D01F00FFB24B2B3
:10106000241A60424441E9E701F008FB24B2241A43
:101070002FE001F003FB24B2012384420FDB0DE0DB
:1010800001F0FCFA22B2D40FC31790425C4110E089
:1010900001F0F4FA24B20123844200DC0023DCB224
:1010A000A4B2CBE701F0EAFA22B2D417C30F82420E
:1010B0005C41E4B2C2E701F0E1FA00239C4202D0B5
:1010C000431E9841C3B29CB2B8E701F0D7FA04437B
:1010D00024B2601E8441B1E71A6000E0034C20B2E4
:1010E00010BDC046A21A0020701A0020FFFF0000A9
:1010F00070B505000C00FFF799FF094B28801A789E
:10110000002A0AD1002C08D006490A68501C086041
:1011100012780A2A01D017221A70187870BDC046BA
:10112000A21A0020701A002013B5FFF757F900210A
:1011300088420DD16B469C1D2000FFF7D9FF002887
:1011400001D0002104E0FFF75BF90028F9D12188E4
:1011500008B216BD37B501AD01212800FFF7C8FF61
:10116000011E15D16B469C1D2000FFF7C1FF002812
:101170000ED10022AB5E022B07D12288531C9BB2FA
:10118000082B02D8034B9A8002E01422024B1A70FB
:1011900037BDC046741D0020A21A002073B501ACF3
:1011A00000212000FFF7A4FF011E54D16D462A4AFA
:1011B000AE1D136818780A2807D101333000136078
:1011C000FFF796FF002846D101E02388338024886A
:1011D0000023F55E23B29D4203DA14221F4B1A70DE
:1011E00039E0A4B29D421BD12800FFF7C5FB0400E3
:1011F000FFF7B4FB85422ED12278A218117800297E
:1012000009D000238B4202D1E418D218F6E7D05C53
:10121000E0540133F6E721701DE029700134A4B2D7
:101220000022B35E9C4216DC20B2FFF7A5FB05004E
:10123000FFF794FB8442F1D12A78AA18117800298B
:10124000EBD000238B4202D1ED18D218F6E7D05C28
:10125000E8540133F6E773BD701A0020A21A00208B
:1012600073B501AC01212000FFF742FF011E22D11E
:101270006B469D1D2800FFF73BFF021E1BD10E4B46
:101280000026A15F18688389994202DB013B238015
:1012900002E0002900DA2280C38900216A5E9A42B6
:1012A00001DB013B02E0002A01DA00232B802A88BF
:1012B000218803F031F873BDE01A002037B5FFF73D
:1012C0008DF80024A04217D16B469D1D21002800F7
:1012D000FFF70EFFA04201D000240DE0FFF790F8C9
:1012E0000028F9D12888FFF70DF8002801D00478EC
:1012F00002E01522014B1A7020B23EBDA21A002056
:1013000073B5FFF76BF80024A04229D101AE01218B
:101310003000FFF7EDFEA04201D0002420E06B4634
:101320009D1D21002800FFF7E3FE0028F5D1FFF7FF
:1013300067F80028F1D131880CB2002CEDDB2A8847
:1013400013B2002BE9DB074800688589AC42E4DA78
:10135000C489A342E1DA92B289B202F0EFFF84B20B
:1013600020B276BDE01A002013B56B469C1D00210B
:101370002000FFF7BDFE002804D1034B2178186838
:1013800002F032FC13BDC046E01A0020F0B5002682
:10139000534C85B02068012103681B6B9847039468
:1013A0000121504C0191236827001A78C02A14D1DA
:1013B0009A1C22605D78002D08D03B68013D5A1CC4
:1013C0003A601878FEF714FFEDB2F4E723681A7854
:1013D0000A2A7AD10133236001952368424D5A1CB1
:1013E00022601A78272A2AD0C22A64D19A1C5F78F0
:1013F00022609A780A2A08D103332360FFF716FE89
:101400002B780290002B63D10126019B002B07D083
:1014100038004130C0B2FEF7EBFE3A20FEF7E8FE9E
:10142000FFF7C6F82B78002B06D0022B56D1002EE2
:1014300054D0002302982B707F002C4B35E0FFF72F
:1014400073FE2B780700002B42D1632801DD0333A4
:1014500032E023681A780A2A08D101332360FFF7A3
:10146000E5FD2B780290002B32D10126019B002B49
:101470000CD000211E48FEF7D5FF002238001100D5
:10148000FEF7EEFF00211B48FEF7CCFFFFF790F8B8
:10149000154B1A78002A06D0022A19D1002E17D02F
:1014A000002202981A70144B7F00F85223681A78B1
:1014B0000C2A03D10CE017232B7009E0C32A07D0B4
:1014C0000A2A02D1013323606AE71722064B1A70F9
:1014D000039B0021186803681B6B984705B0F0BD9B
:1014E000E01A0020701A0020A21A0020641B0020BD
:1014F000D8570000DB570000A6090020144A70B539
:101500001368591C116059781D2903D01222114B00
:101510001A701CE0991C1C7811609978C0290DD1B3
:10152000DD25D91C0C481160DB7800686D01081AB4
:1015300001334019CB1880B2136005E0FFF776FD48
:10154000044B1B78002B02D1044B6400E05270BDA9
:10155000701A0020A21A002004000020641B002042
:1015600070B5FFF7E1FD1D4B05001A781E00002A3B
:1015700032D180B2632802D9032333702CE0184C97
:10158000226812781D2A13D012221A7024E0FFF765
:101590004DFD3378002B1FD12BB2642BECD0114AB8
:1015A0005B009852236801351B78ADB20A2B13D12A
:1015B00023685A1C22605A78C02AE8D10A499A1C2A
:1015C0000868DD2122609B78101A49010133401818
:1015D000D31880B22360DFE770BDC046A21A002096
:1015E000701A0020A60900200400002010B50A4A45
:1015F00013681978272906D0C22909D1013313604D
:10160000FFF77CFF07E001331360FFF7A9FF02E05B
:101610000E22024B1A7010BD701A0020A21A002070
:10162000F8B5070015001C000E00FFF7FFFC0C4B7F
:1016300038801A78002A05D1B04201DBA84201DDCA
:10164000142209E0002C08D006490A68501C0860E2
:1016500012780A2A01D017221A701878F8BDC046ED
:10166000A21A0020701A00200021F0B53B4E85B070
:101670003B4F02AB03ADDE803B6829801B78040042
:10168000C32B07D1374B384E1B6833600022AB5E4B
:10169000019320E00C2BF5D00B0032002800FFF75F
:1016A000BFFF031E58D13A6811780A29EAD10132E6
:1016B00002A83A6006300022A95E3200FFF7B0FFB0
:1016C000002849D1DEE73800FFF748F9019B98422E
:1016D0002FDA7D19356037683D78002D3CD0F2E770
:1016E000224B186803681B6C984783B2002B25D1E6
:1016F0003068FFF733F902AB063300229B5E83426A
:101700002ADB22000021FEF7ABFE21002020FEF79D
:10171000BDFD33682100D81CFFF7F8F9144B1B7886
:10172000002B19D12000FEF7C7FD32681378D318BB
:10173000336033681B78002BD2D10DE01BB20D4A09
:10174000032B01D01B2B05D11921094B1970002344
:10175000137001E01070CBE705B0F0BDFF7F000013
:10176000701A002004000020B41A0020E01A0020A3
:10177000A21A0020741A0020F7B507256B46002135
:101780000F4E01AF9C1DDD80336839801B78C32B61
:1017900015D00C2B13D00B002A003800FFF740FFA8
:1017A000031E0CD139883268218010780A2806D1AE
:1017B0000132326009B22A002000FFF731FFF7BD85
:1017C000701A0020002337B501AC19000722200051
:1017D000FFF726FF011E1FD16B46104A9D1D23886F
:1017E0002B80136818780A2801D0247809E0013387
:1017F000136028000B000722FFF712FF00280BD10F
:10180000F3E70022AB5E9C4206DC21000448013471
:1018100001F06EFFE4B2F4E737BDC046701A002055
:10182000AA1A002013B56B469C1D0023054A190017
:101830002000FFF7F5FE002803D10023E05E02F050
:10184000C3FF13BDFF7F000037B500216B4601AD1C
:101850009C1D08220B0028002180FFF7E1FE011EDD
:1018600015D10B4A136818780A2807D0094B22882B
:101870001868298803685B6C984708E00133136097
:1018800020000B000822FFF7CBFE0028EED037BD6A
:10189000701A0020E01A002013B56B469C1D00232F
:1018A000042219002000FFF7BBFE002805D1034BDE
:1018B0002188186803689B6C984713BDE01A0020C4
:1018C00037B501AD0021012320222800FFF7A8FE33
:1018D000011E19D16B469C1D2000FFF709FC002852
:1018E00012D10023E15E28884B1E9941074AC3B2FA
:1018F000D35CC9B22180DB0703D42222044B1A70C7
:1019000002E000B203F0A2F837BDC046585C000008
:10191000A21A002037B56B469D1DF5235B002B8076
:101920006B469C1C0021012320222000FFF778FE3B
:10193000011E1DD103000F4A01A8FFF771FE011E11
:1019400016D10D4A136818780A2808D023780B4A54
:10195000D35C9B070CD42222094B1A7008E0013398
:10196000136028000B00074AFFF75AFE0028EDD04D
:1019700037BDC046FF0F0000701A0020585C000001
:10198000A21A0020FF7F000073B56B469C1D002348
:1019900006002380FEF722FD011E1ED101AD2800A6
:1019A000FFF7A6FB011E18D10C4A136818780A2805
:1019B0000AD0FEF725FD00280FD121780023E85E2C
:1019C0003200FEF795FD08E00133136020000B00A4
:1019D0000422FFF725FE0028EBD073BD701A00200B
:1019E00073B56B469C1D002306002380FEF7F6FCB2
:1019F000011E1ED101AD2800FFF77AFB011E18D190
:101A00000C4A136818780A280AD0FEF7F9FC002857
:101A10000FD121780023E85E3200FEF79FFD08E039
:101A20000133136020000B001022FFF7F9FD00289E
:101A3000EBD073BD701A0020F0B587B00190FEF7AF
:101A4000CDFC011E71D13A4E35682B78C22B0CD1DA
:101A50006B1C33606B78374A5B00985AFEF752FC78
:101A600002350278441C356024E0272B14D104ABE6
:101A70009C1D01350300632220003560FFF7D0FD77
:101A8000002852D10022A35E2B4A5B00985AFEF731
:101A900039FC0278441C0DE0C02B07D16B1C33606D
:101AA0006B78AC1C9AB2E318336003E01722234B27
:101AB0001A703AE004AB9E1C6B4601251C4905AF29
:101AC0001A810B6835803A8018780A2807D0FEF70B
:101AD00097FC002829D104AB5D88013D15E0013356
:101AE0000B6012B22B0029003000FFF799FD031E96
:101AF0001BD132880299AA1A521812B22900380052
:101B0000FFF78EFD0028E2D00FE00022B35E05AAA9
:101B10000021525E013BADB29B189D4205DA605D2B
:101B20000199FEF7B3FB0135EFE707B0F0BDC04602
:101B3000701A0020641B0020A6090020A21A0020B1
:101B400037B56B4601249D1D2C80FEF747FC011E16
:101B500026D1230020226846FFF762FD011E1FD117
:101B60006846230020220230FFF75AFD011E17D1DC
:101B70000300220001A8FFF753FD011E10D1094AFE
:101B8000136818780A2802D0FEF73AFC08E00133FF
:101B9000136028000B002200FFF742FD0028F3D05D
:101BA00000203EBD701A0020F7B56B4601249D1D34
:101BB0002C80FEF713FC011E01D0002041E0230021
:101BC00020226846FFF72CFD011EF6D16B469E1CB5
:101BD000220023003000FFF723FD011EEDD101AFED
:101BE0000300194A3800FFF71BFD031EE5D1174912
:101BF0000A6810780A2804D0FEF702FC0028DCD11D
:101C000009E001320A6028000F4A2100FFF708FDB1
:101C10000028F1D0D1E70023FA5EFA239B005A4353
:101C20000023F15E6B460020185E02F0EBFD0023FE
:101C3000E95E03F0FDF9044B984201DD01204042CA
:101C400080B200B2FEBDC046FF7F0000701A0020C7
:101C50000023F0B585B003AD032219002800FFF77B
:101C6000DFFC00284ED12A8813B2012B27D1264B46
:101C700019680E780A2E01D0172205E04C1C1C6052
:101C80004C78C02C03D01422204B1A703AE0CC1CA4
:101C90001C6004008F7800930196B84227D2009B05
:101CA00019680E78303EF3B2092BECD8019B013154
:101CB0005C43009B01303419196080B2EDE70400E9
:101CC000032B14D1104A010013680133136002ABD7
:101CD0009C1D012203002000FFF7A2FC002811D167
:101CE0000B4B217818680368DB6C98470AE0084BB7
:101CF000D1B21868220001F07CFF064B2A881A70C6
:101D0000054B1C6005B0F0BD701A0020A21A00201F
:101D1000E01A0020DC1A0020080300200123F7B598
:101D200001AE3380FEF75AFB002801D000204FE0BF
:101D3000284D2C682378C02B07D1631C2B60637857
:101D4000A71C9AB2FB182B602AE0C22B0CD1631C93
:101D50002B606378204A5B00985AFEF7D3FA02346E
:101D60000278471C2C601BE0272B15D16B460134F1
:101D70002C609C1D0100030063222000FFF750FC33
:101D80000028D3D10022A35E144A5B00985AFEF7C4
:101D9000B9FA0278471C03E01722114B1A7017E0BA
:101DA0002B6819780A2908D00023F05E3F18013FFC
:101DB0003C78FEF725FB20000AE001332B6012B2CD
:101DC000002301213000FFF72BFC0028ECD0ADE709
:101DD00000B2FEBD701A0020641B0020A60900207E
:101DE000A21A002073B5FEF7F9FA0023011E9942EA
:101DF00037D16B469D1C1F2201232800FFF710FCE2
:101E0000011E2DD101AC012320222000FFF708FC88
:101E1000011E25D16B469E1D1F2203003000FFF7D7
:101E2000FFFB00281CD1FEF7EBFA002818D1002296
:101E3000A35E1F2B01DD3F2300E05B001F222380F8
:101E400028883388C102134019430800FC212388E5
:101E5000C9005B010B401A00030013439BB200E072
:101E6000002318B276BD0000F0B585B003AE0123A3
:101E7000802210213000FFF7D3FB031E29D10E274B
:101E80006F442D220A213800FFF7CAFB002820D119
:101E9000114B1D78002D1CD1104C206801F0A8FFBB
:101EA0002A002900206802F037FA206803685B6D79
:101EB00098470B4B3A881B68318800932068802331
:101EC00001F0A3FF074B20681978074B1A6801F04F
:101ED00090FE05B0F0BDC0466C1D0020E01A002049
:101EE000B81A0020DC1A00200803002013B56B4646
:101EF0009C1D2022012300212000FFF791FB0028D8
:101F000012D1FFF793F8094A01001378002B0BD187
:101F10002388074CD8B2205CC00702D42223137058
:101F200002E018B202F074FD13BDC046A21A0020F0
:101F3000585C000070B505000C00FFF777F8094BFE
:101F400028601A78002A0AD1002C08D006490A68AD
:101F5000501C086012780A2A01D017221A701878CB
:101F600070BDC046A21A0020701A00200223F0B5EE
:101F700085B002AA13800023971C04003B80FEF763
:101F80002DFA011E5FD103A8FFF7D4FF011E5AD11D
:101F90002E4D2B681A780A2A09D0FEF731FA00284C
:101FA00051D102AB00229A5E01250A2316E00133CB
:101FB0002B600422030002A8FFF732FB031E42D16C
:101FC0002A6811780A29E8D101322A6010390622DC
:101FD0003800FFF725FB002835D1DEE7904203DA11
:101FE00001305D4380B2F9E7039E2900300003F021
:101FF000A9F80190002805D1002E03DA21002D2038
:10200000FEF744F90023F95E6B4622000420185EB7
:10201000FEF726FA02AB00229B5E002B13D02100B4
:102020002E20FEF733F902AB290030001F8803F0A1
:102030006FF9CB17C8187F423FB2584000B2220058
:102040003900FEF70DFA05B0F0BDC046701A002049
:1020500010B586B0FEF7C2F9002398423AD10121AB
:1020600001A8FFF767FF002821D1012102A8FFF78F
:1020700061FF00281BD1012103A8FFF75BFF0028A7
:1020800015D1012104A8FFF755FF011E0FD105A8A6
:10209000FFF750FF00280AD1FEF7B2F9002806D159
:1020A0000299039A914204DB14220C4B1A7000230C
:1020B00010E0049C059B9C42F6DA01988142F3DC17
:1020C0008242F1DB1B1B401A5843511A03F03AF8C5
:1020D0000419A3B218B206B010BDC046A21A00205F
:1020E000F7B5AE4D2A682900501C286013784C2B98
:1020F00000D1FDE15ED83F2B00D136E12FD8272B50
:1021000000D1D8E016D8132B00D1D0E008D80E2B80
:1021100000D1B8E00F2B00D00BE2FFF7E1FFB5E0F4
:10212000242B00D1B5E0252B00D002E2FFF7D8FF29
:10213000C043ABE03B2B00D111E108D8392B00D1D3
:10214000DBE03A2B00D0F4E1FFF782FF9EE06A4625
:10215000941D3D2B00D1C1E000D8E3E0EDE0452B1C
:1021600000D1FFE013D8422B00D1F1E008D8402B7A
:1021700000D147E1412B00D0DBE1FFF79FF885E07C
:10218000432B00D1E7E0442B00D1E4E0D1E1482B20
:1021900000D170E106D8462B00D15DE1472B00D17C
:1021A0005AE1C6E16A46941D4A2B00D157E100D896
:1021B0007FE1A6E1912B00D157E12ED8692B00D108
:1021C000AFE113D8662B00D1ADE108D84D2B00D17B
:1021D00083E1592B00D0ACE1FFF7E6FC56E0672B1A
:1021E00000D19EE1682B00D19DE1A2E18D2B00D1B1
:1021F00097E109D88B2B00D18CE18C2B00D098E192
:10220000674B1B68DA8991E16A4606328F2B00D151
:1022100084E100D882E1012381E1982B00D180E1A3
:1022200015D8942B00D11DE107D8922B00D178E16D
:10223000932B00D07DE1C82215E16A460632962B29
:1022400000D114E100D914E1DD235B0167E19B2B90
:1022500000D16AE107D8992B00D164E19A2B00D014
:1022600067E1022262E1C12B04D0C22B18D0BF2B40
:1022700000D05EE1937850781B0203436846033236
:10228000C3800A606BE1FFF72BFF40426B46D880AA
:1022900065E1FFF725FF6A4643424341D3805EE193
:1022A000931C2B6053783F4A5B009A5A3EE12A60A8
:1022B000FEF73AFFEAE7FEF737FF6B463A4A063386
:1022C00011781880002900D049E1632802DD03233A
:1022D000137044E1354A4000825A07E1FEF724FFBB
:1022E000314B20801A78002A00D038E114320028BF
:1022F00000DA33E1FDF7A3FF43E1FEF715FF6B467C
:102300002B4906331880284A884201D102211170D6
:102310001278002A00D022E1002800DB1FE14042B1
:1023200018801CE1FEF75AF8002800D017E1FEF7EC
:1023300067F8002800D012E114E1FEF74FF80028FA
:1023400000D00CE1FEF75CF8002800D007E10CE1BA
:10235000FEF7D6FF9AE72722134B1A707CE0FFF7AF
:10236000DDFC93E7FFF73EFD90E7FEF737F8041E2C
:1023700000D0F4E06A462F68961D3B78C22B19D135
:102380007B1C2B607B78074A5B00985AFDF7BAFFED
:102390000378023733802F6031E0C046701A002086
:1023A000E01A0020641B0020A21A0020A6090020C9
:1023B0000080FFFF272B14D10137030001006322A7
:1023C00030002F60FFF72CF9002800D0DBE000225E
:1023D000B35E6E4A5B00985AFDF794FF0378338032
:1023E0000DE0C02B08D17A1C2A607B7833807B7883
:1023F0000133D3182B6002E01722654B1A70FDF7EA
:10240000FFFFACE068465378841D132B07D1937807
:10241000142B04D10023033223802A6007E0FEF747
:1024200083FE5B4B20801B78002B00D097E0238835
:10243000002B02D102F0B0F907E0012B08D102F025
:10244000ABF9FA21890002F0F3FD4004400C98E05A
:1024500000231422238080E06B46002267E0FFF710
:102460006FFB8EE0D522520160E04A4A5EE04A4BA3
:1024700055E04A4B53E0FDF7B1FF011E6FD16B46AB
:102480009C1D202203002000FFF7CAF8002866D117
:10249000FDF7B6FF002862D12088414AC3B2D35C61
:1024A0002222DB0759D500B202F0E6FA002323808E
:1024B00055E0FDF793FF011E51D1030020222000BB
:1024C000FFF7AEF800284AD1FDF79AFF002846D161
:1024D0000023E05E02F0C8F953E0FEF725FE6B46EC
:1024E0002B4AD88012780633002A38D11A8036E079
:1024F000FDF774FF002832D1FDF782FF00282ED1AE
:1025000036E0FDF76BFF002829D1FDF779FF0028A1
:1025100025D132E0234B1B689A8907E00023138002
:102520001DE0002202E0012200E003226B46DA8077
:1025300015E00A6013781C006A3CE2B2202A08D930
:102540001A006432D2B2032A06D89C3B164A9B007A
:102550009C58A4B2086016E017220D4B1A706B4607
:10256000DC8810E0FEF7E8F90BE0FEF78BFC08E0F2
:102570000C4B186801F039FB88E60A4B186801F02B
:1025800036FB2080EBE720B2FEBDC046A609002046
:10259000A21A0020A02B0000A02F0000A0370000EE
:1025A000585C0000E01A00207C5C000070B5FFF76A
:1025B00097FD2F4D04002B78002B54D12D4A136822
:1025C00018781038162850D802F01EFD0C121F4F34
:1025D0004F4F2A313F394F4F4F4F4F4F4F4F4F4F74
:1025E0004F4F460001331360FFF77AFD604331E03F
:1025F00001331360FFF774FD011E02D101232B701C
:1026000031E020B202F09EFD24E001331360FFF7B9
:1026100067FD011EF2D020B202F07AFE8CB2CDE747
:1026200001331360FFF75CFDA4B2844005E0013381
:102630001360FFF755FDA4B20441A4B2BEE7013315
:102640001360FFF74DFD204004E001331360FFF7F6
:1026500047FD204384B2B1E701331360FFF740FD2B
:10266000604080B202E0044800E0200000B270BD8B
:10267000A21A0020701A0020FFFF000010B5FFF71B
:1026800095FF0E4B04001B78002B13D10C4A1368E6
:1026900019780E2907D00F290DD101331360FFF7E8
:1026A00085FF241804E001331360FFF77FFF241A2D
:1026B000A4B2EBE7034C20B210BDC046A21A002022
:1026C000701A0020FFFF0000F7B5FEF7AFFC1A4BB1
:1026D00004001A78002A2ED11432002805DB174D89
:1026E0002A6812780A2A02D017221A7023E0144AA4
:1026F0008018144A80B2904214D81522F5E72B684E
:10270000002101332B606B469F1D3800FEF7F0FC63
:10271000002810D13B88013433702B68A4B21B7899
:102720000A2B08D1A4B22000FDF7ECFD061EE6D16D
:102730001523014A1370F7BDA21A0020701A002059
:1027400060D0FFFFFF0700000023F0B5050085B053
:10275000019100934E4C236827001A780C2A00D16F
:1027600090E0C32A00D18DE0352A3ED006D81B2A3E
:102770001AD0342A22D0092A49D181E0372A3AD006
:102780002DD3382A3DD0C02A41D19A1C22605E78D0
:10279000002E4ED03B6829005A1C3A601878013E42
:1027A000FDF774FDF6B2F3E701332360FEF73EFC5C
:1027B000384B00901B78002B3BD066E00133236040
:1027C00002AB9E1D0023FF2219003000FEF728FFF8
:1027D00000282ED130782900FDF758FD29E001337B
:1027E00028002360FFF7D0F823E00133280023609E
:1027F000FFF7F6F81DE0013328002360FFF7B6FB72
:1028000017E0013328002360FFF716F911E0FEF707
:102810000DFC02ABD8801F4B1B78002B03D000208F
:10282000FDF74AFD31E06B462A000021595EFDF7B5
:1028300017FE184B1A781900002A21D1019B002B92
:1028400003D023681B780A2B1FD022681378092B2A
:1028500016D018000A3801280AD8531C2360537870
:102860000C2B12D0C32B10D0092B00D072E70CE038
:102870000C2B00D16EE7C32B00D16BE717230B7035
:102880002800CDE7019B002BFAD005B0F0BDC04673
:10289000701A0020A21A002010B5FDF725FD0121B5
:1028A0000320FFF751FF094C200002F019FF084BED
:1028B0003F2801D923221A701A782000002A04D058
:1028C0000020152A01D10E321A7010BDA408002074
:1028D000A21A002073B56B469E1D01230021164CE1
:1028E000338001AD236829801B78C32B1CD0C02BFB
:1028F00002D0343B042B10D8FFF7CEFF002819D0AC
:1029000023681A780A2A15D1013323600023093A73
:1029100019003000FEF784FE0CE00B0007222800AF
:10292000FEF77EFE002805D1044B29781A6804487A
:1029300000F0F3FE73BDC046701A002004000020B2
:10294000AA1A0020F0B5574E95B033681B78C02BFB
:1029500003D01A00343A042A2ED8FFF79DFF041E34
:1029600000D19CE00025200002F0BAFE85420AD288
:102970006219137819006139192901D8203B1370A5
:102980000135EDB2EFE72378002B00D187E000237B
:1029900004210138C0B245B2002D6DDB65192A78DB
:1029A0002F2A74D015008D432A2D01D03F2A00D143
:1029B00001230138C0B2EEE702AA941DC32B01D057
:1029C0000C2B05D100230722238004AB1A8020E0C2
:1029D0000023072219002000FEF722FE011E5ED10F
:1029E000336804AD1A780A2A07D10133280033600E
:1029F000FEF77EFB002852D101E023882B800023C4
:102A0000E25E00216B5E9A4203DD1422264B1A70AF
:102A100045E0264D24782B68019304AB00229B5E91
:102A20009C4226DC224F2100380000F058FE002294
:102A30000121060020B2FDF713FD00211D48FDF71E
:102A4000F1FC2100380000F082FE011E03D11A487B
:102A5000FDF7E8FC07E02E603378002B03D0F01C74
:102A60000021FEF753F800200134FDF725FCE4B205
:102A7000D3E7019B2B6012E0012B10D1210004A8A9
:102A800002F026FE0D49200002F022FE07E0012B95
:102A900005D1691C04A802F01BFE00236B7015B061
:102AA000F0BDC046701A0020A21A0020B41A0020FF
:102AB000AA1A0020FB570000E0570000DE57000074
:102AC0000123F0B50A268FB002AA5B4213810023CE
:102AD0005E4DB6182A683380511E09780127A8294F
:102AE00002D11F0002A90B811378C02B03D01A005A
:102AF000343A042A05D8FFF7CFFE012400280FD16D
:102B000076E002AA901DC32B02D10024048007E0C6
:102B1000002307221900FEF783FD002868D1040076
:102B2000002F32D02E6833780A2B27D1731C2B60EC
:102B30007378C02B19D1B31C2B60B2780193131C8E
:102B4000202A00D92023C02005A9DAB208704B70D2
:102B5000B23802ABC018F11C02F0FEFDB378019A46
:102B60000133D318394A136069E00023384A190049
:102B700004A8FEF755FD002861D039E0002302AA21
:102B800013819C4224D101211BE02B681A780A2A68
:102B900014D101332B60093A3B0039003000FEF7B5
:102BA0003FFD002824D1002C04D002AB1C89002C4E
:102BB00013D10DE01722274B1A7044E0002CF4D1FA
:102BC000390002ABD888FEF72FF90028EDD00FE0CE
:102BD000214B1A68214B1A6019E024B2631C0CD1F6
:102BE00005A8FDF7DBFE002804D11022194B1A704E
:102BF000002028E0194B186009E02000FDF7BCFE1A
:102C00000500FDF7ABFE8442EFD1144B1D60114B64
:102C100001201B78002B16D10C4A002F09D10E4B36
:102C200011681B6899420ED3802464011B199942D4
:102C300009D20A4B01201B680333136003E0012112
:102C4000002CBED0B1E70FB0F0BDC046701A002016
:102C5000FF7F0000A21A002004000020B41A002008
:102C6000F8B5070000250B4B1C682678002E07D00E
:102C70002000FDF773FEB84202DA2500A419F4E73C
:102C8000002D03D02800FDF769FE00E0024800B2E5
:102C9000F8BDC04604000020FFFF000070B505002D
:102CA000FDF76AFE0400FDF759FE854204D1207845
:102CB0002018FDF753FE00E0014800B270BDC04689
:102CC000FFFF000070B50600FDF756FE0500FDF79A
:102CD00045FE0024864211D1FDF706FB03222100A8
:102CE0003000FDF7BDFB2020FDF7C0FAE81C0321F2
:102CF000FDF70CFF2000FDF7B9FA014C200070BD74
:102D0000A408002037B56B46DC1D74230120237016
:102D100002F082FB050002F089FB00212A48FDF742
:102D200081FB201400220421FDF7E2FB002220B2E7
:102D30000421FDF7DDFB0020FDF7BEFA002123484A
:102D4000FDF770FB281400220421FDF7D1FB28B207
:102D500000220421FDF7CCFB0020FDF7ADFA002195
:102D60001B48FDF75FFB0022601B110000B2FDF75E
:102D700077FB0020FDF7A0FA00211648FDF752FB73
:102D8000154B002218780121FDF76AFB0020FDF7A2
:102D900093FA00211148FDF745FB114B00221878EA
:102DA0000121FDF75DFB0020FDF786FA00210D48AB
:102DB000FDF738FB0C4B002218780121FDF750FB82
:102DC0000020FDF779FA37BDE7570000F257000001
:102DD000FD570000085800006C1D0020105800002E
:102DE000040300201C580000DC1A0020034A11686C
:102DF0000B780133CB1813607047C046701A00205F
:102E000070B5104D28680378C02B07D1FDF7C6FDBB
:102E1000041E11D110220C4B1A7011E0FEF706F9B6
:102E2000094B06001B78002B0AD1FDF7A5FD040015
:102E3000FDF794FD8642EDD1044B1C6003342C60F9
:102E400070BDC046701A0020A21A0020B41A0020DB
:102E5000F8B5184D28680378C02B05D1FDF79EFD05
:102E6000041E0FD1102212E0FEF7E0F8124B06000C
:102E70001B78002B1DD1FDF77FFD0400FDF76EFDD3
:102E80008642EFD10D480378082B03D906220A4B5E
:102E90001A700EE00A4A0B4917689E0077509E1C74
:102EA00001330670DBB228689B001460033458506D
:102EB0002C60F8BD701A0020A21A0020A50900207D
:102EC000B41A0020781A002010B50B480378012BA3
:102ED00003D80722094B1A700DE05A1E0849D2B2D6
:102EE0009200023B5458DBB2064A03709B00146008
:102EF0005A58054B1A6010BDA5090020A21A0020DF
:102F0000781A0020701A0020B41A0020F8B52B4C53
:102F10002B4D23685A1C22601A78C22A01D00C2338
:102F20002EE05F78FEF7EAFA2B78002B44D1236875
:102F30001A78042A0AD101332360FEF777F8236850
:102F400006001A780120052A10D101E00D2317E0B0
:102F500001332360FEF76AF8002805DA194B1B1AC3
:102F6000B34208DD02230BE0002804D0164B02B266
:102F70009B1AB342F6DB154B1B78142B02D908239E
:102F80002B7019E01249134A09689D00A950216865
:102F90005D1C9C1CEDB2E4B2A400AD00A950A6508B
:102FA000DC1CE4B200B2A400A050581D0433074951
:102FB000DBB29B0008709F50F8BDC046701A00201D
:102FC000A21A00200180FFFFFF7F0000A11A00204D
:102FD000B41A0020081D0020F0B5224E09223078D6
:102FE000042813D9204A214C431E9B001959136809
:102FF0005D1C15601D78C22D01D00A2206E09D1CC3
:1030000015605A780BB29A4203D00B22184B1A70F3
:1030100026E0184D831E52009B001959535B8FB256
:103020005B189BB25353C21E92001259451F92B2B5
:10303000090404D51BB212B2934208DA05E0002F4E
:1030400005D019B212B2914201DD357008E0031FBC
:103050009B00E258044B1A60AB00E258064B1A6022
:10306000F0BDC046A11A0020701A0020081D0020E3
:10307000A21A0020641B0020B41A002010B5FDF72E
:10308000D5FF0C4B1A78002A02D00F221A7010E0DC
:1030900000280ED1084C2068FDF7B6FC220000285D
:1030A00006D113681978C32903D001331360F8E7F8
:1030B000206010BDA21A0020701A0020044A136874
:1030C0001978C32902D001331360F8E77047C0466E
:1030D000701A0020044A11680B78002B02D0CB181C
:1030E0001360F8E77047C046B41A0020F8B5002313
:1030F00027258E4C23708E4E33681B78C32B00D14E
:103100007DE18C4F386803681B6C984700280AD013
:10311000894B032801D01B2804D1192222700022D8
:103120001A706CE1187033685A1C32601878C22823
:1031300000D955E101F072FFC600C900CC00CF00F4
:1031400054015401D200D500DB00D80054015401D1
:103150005E01D8005401540154015401540154013A
:1031600054015401540154015401540154015401B7
:1031700054015401540154015401540154015401A7
:10318000540154015401F0005E01E1000B01F6000E
:10319000F6000201DE00E700EA00E4000E014F0144
:1031A0005401540154015401540154015401540177
:1031B0005401540154015401540154015401540167
:1031C0005401540154015401540154015401540157
:1031D000540154014F014F014F014F014F014F0165
:1031E0004F015901050108015E01540120011A0136
:1031F0001D01150112015E015E015E0154015E01B7
:103200004F015E0154015401540154015401540111
:103210005401540154015401540154015401540106
:1032200054015401540154015401540154015401F6
:1032300054015401540154015401540154015401E6
:1032400054015401540154015401540154015401D6
:1032500054015401540154015401540154015401C6
:1032600054015401540154015401540154015401B6
:1032700054015401540154015E015E015E015E017E
:103280005E015E015E015E01460149015E015E0173
:1032900028014201D800F30023014601390136011B
:1032A0003C015E013F0125014F014C014F015101DD
:1032B0005101510154015401C3005401ED00FFF7C5
:1032C00095FD97E0FFF79CFD94E0FFF7C1FD91E0CD
:1032D000FFF7FAFD8EE0FFF719FE8BE0FFF77CFEAB
:1032E00088E0FFF7CBFE85E0FFF7E8FE82E0FFF71E
:1032F000F1FE7FE0FDF7B8FD7CE0FEF793FA79E0A0
:10330000FDF7AEFF76E0FEF79FFA73E0FEF7C4FA32
:1033100070E0FEF7F3F86DE0FEF722F96AE0FEF7E1
:1033200065F967E0002108001DE0C046A21A0020F0
:10333000701A0020E01A0020741A0020FEF726F808
:1033400058E0FEF7BDFA55E0FEF7E4FA52E0FFF769
:10335000BBF94FE0386800F089FD4BE0FEF704F858
:1033600048E000210120FFF7EFF943E0FDF7BCFD45
:1033700040E0FDF7A3FD3DE0FEF76AFC3AE00220E5
:103380001DE0FFF7BFFC35E03868002103681B6BC8
:1033900098470020FEF768F93868012103681B6B25
:1033A000984727E0FEF7E8F924E0FFF7CBFA21E0A1
:1033B000FDF7D0FE1EE0FEF705FA1BE00020FDF74A
:1033C00069FC17E0FFF77CFB14E0FFF783FA11E0DC
:1033D000FEF74AFD0EE025700CE01323237013E086
:1033E00033601B786A3B202B02D8FEF77FFD01E09B
:1033F000172323702378002B00D17CE604E0034BD5
:1034000018680378C01800E00020F8BDB41A002046
:1034100000230D4A10B513700C4A0D4C13709842DE
:103420000FD10C4B1B68236023681A78002A0AD03E
:10343000094A03331360FFF759FE084B1B78002B32
:1034400001D12060F0E710BDA5090020A11A0020DD
:10345000B41A002004000020701A0020A21A0020D4
:1034600070B5264A2649531C0B601378BB2B2ED00F
:1034700004D8A82B09D0B12B0AD02EE0BD2B29D01F
:103480001BD30024BE2B37D027E0FFF719FB32E017
:10349000FFF716FB012400282ED01A4D00212868C2
:1034A00003681B6B9847184B1868FFF7B1FF286833
:1034B000210003681B6B98471EE0124C0021206816
:1034C00003681B6B98470020FFF7A2FF0EE0FDF793
:1034D00011FC10E0FDF762FE0DE00A4C0A60206866
:1034E000002103681B6B9847FFF700FE206801214D
:1034F00003681B6B98470124200070BD250900203C
:10350000701A0020E01A0020B41A0020F7B500203D
:10351000FDF7C0FBF020C00001F07EFF0300404A31
:10352000404C1060404818222060502100938023B6
:1035300000F06BFC3D4B206819783D4B1A6800F099
:1035400058FB3C4B1A783C4B1A703C4B1A783C4B5E
:103550001A70FDF789FC2068002103681B6B9847EF
:1035600000213848FCF75EFF0020FCF7A5FE002193
:103570003548FCF757FF00213448FCF753FF002083
:10358000FCF79AFE0020324D2870FDF7E3FC20681E
:10359000012103681B6B98472068012103681B6B9E
:1035A000984720680368DB6D98470028F9D02368A6
:1035B0009E693078002802D1FCF77EFEF1E73000EA
:1035C00002F08EF87F2805D91A2300202B70FCF713
:1035D00073FE1BE01F4F3100380002F079F838000D
:1035E000FCF7E8FE0020FCF767FEFDF797F82B7864
:1035F000002B01D001200AE0174B1A78BF2A09D10D
:103600001870FDF73BFA2B78002BCAD00020FDF78D
:10361000A1FCC6E7FFF724FF0028C2D0F6E7C046AA
:10362000B81A0020E01A0020BC1A0020DC1A002082
:1036300008030020040300200C030020A01A00202F
:1036400024090020285800003E580000505800006F
:10365000A21A0020E41A00202509002007B5104B0B
:10366000104A1B681048197811805A780F4B10497E
:103670001A80104B1A78104B1A7000230371437193
:103680000E4B0F4A036001F075FE04238022802157
:103690000093D200DB1849000A4800F015F807BD76
:1036A000A41A0020721D0020BC1A0020701D0020EA
:1036B000ED0100006C1D00206E0A0020985D0000E6
:1036C00000000020AA1A002010B502AC2488018056
:1036D00084805C43091B4280C380018110BD0200CD
:1036E000808813894843C11853884B43180070479A
:1036F00070B50500FFF7F3FF00240600AB88A34276
:1037000009D968886043801900F010FA002803D1B5
:103710000134E4B2F2E7002070BDF8B50C000700F8
:103720001600FFF7DCFF210005003800FFF7E0FF7F
:10373000041E09D17A88BB8831005A43921092B294
:10374000280000F01DFA00E001242000F8BD10B5AB
:10375000FFF7C5FF027803000120FF2A04D1587843
:10376000FF38431E9841C0B210BDF8B504000F00E9
:103770001500FFF7B4FF390006002000FFF7E7FF50
:103780001623002807D0A388628831005A432800F6
:1037900001F056FE00231800F8BD10B5FFF7B6FE85
:1037A00010BD0000E12110B54902044801F0E8F91C
:1037B000002001F059F801F073FB10BD901D0020AE
:1037C000034B10B51B68002B00D0984710BDC046B6
:1037D000041E0020034B10B51B68181E00D098472C
:1037E00010BDC046001E002010B50400207800283F
:1037F00003D0FFF7E5FF0134F8E710BD70B5041EF4
:10380000092C16D9632809D9642101F011FC05009F
:103810003030FFF7D5FF64206843241A0A212000C6
:1038200001F006FC05003030FFF7CAFF0A206843AC
:10383000241A20003030FFF7C3FF70BD70B50D4C67
:1038400006000D1E236807D0002B0BD10A48FFF796
:10385000CBFF0123236005E0002B03D00748FFF7CF
:10386000C3FF25603000FFF7ABFF054A1368013343
:10387000136070BD801D0020E85C0000ED5C00005E
:103880001003002070B505000C00884203D10A48DF
:10389000FFF7AAFF0EE00948FFF7A6FF681CFFF735
:1038A000ADFF3B20FFF78CFF601CFFF7A7FF7220E6
:1038B000FFF786FF70BDC046F25C0000F65C0000BA
:1038C00070B505000C000848FFF78EFF681CFFF775
:1038D00095FF3B20FFF774FF601CFFF78FFF482028
:1038E000FFF76EFF70BDC046F65C0000014B18602C
:1038F0007047C046001E0020014B18607047C0464C
:10390000041E002010B50021FFF798FF10BD000035
:1039100070B51F4E04003368834237D025051D481B
:103920002D0FFFF761FF6B1E072B06D81A48FFF714
:103930005BFF28002F30FFF743FF25042D0F6B1E80
:10394000072B06D81548FFF74FFF28002F30FFF749
:1039500037FFA30702D51248FFF746FFE30702D55A
:103960000E48FFF741FF630702D50E48FFF73CFF03
:10397000230702D50C48FFF737FFE30602D50B48B3
:10398000FFF732FF6D20FFF71BFF346070BDC046AC
:1039900018030020F95C0000FD5C0000005D0000E1
:1039A000035D0000065D0000095D00000C5D000085
:1039B000064B10B51C68064A844202D114688C423A
:1039C00003D018601160FFF77BFF10BD14030020C7
:1039D0001003002010B50B4B0B4C19682068FFF743
:1039E00051FF00212068FFF76BFF0848FFF7FCFE3E
:1039F00000210800FFF746FF054B20681968FFF714
:103A00005FFF10BD1C03002014030020135D0000A5
:103A10001003002010B50C4B0C4C18682168FFF700
:103A200031FF00212068FFF74BFF0948FFF7DCFE5C
:103A300000210800FFF726FF064B1968064B18689F
:103A4000FFF73EFF10BDC0467C1D00201C03002078
:103A5000175D0000100300201403002010B5024879
:103A6000FFF7C2FE10BDC0461A5D000000B5FF2082
:103A700000BD000010B50248FFF7B6FE10BDC046FD
:103A8000275D0000024B1860024B19607047C0466A
:103A90007C1D00201C03002010B504000448FFF723
:103AA000A3FE6C20002C00D06820FFF789FE10BD1B
:103AB0002F5D000073B5FFF78DFE08237F2830D0FF
:103AC000031E1B2B2DD1FFF785FEFF28FBD01B23E8
:103AD000984226D05B2801D0FF2322E00024FFF784
:103AE00079FEFF28FBD0030001AD413B6055621C0D
:103AF000192B04D97E2802D0141E032CEFD10023E9
:103B00001C00094EAB54A3009959280001F0D6FDC2
:103B1000002802D12300803303E00134172CF2D1B6
:103B2000DAE7180076BDC0468C5C0000114A30B55B
:103B3000012390421CD882051AD1022180250E4B08
:103B40000E4AED00995080245959E4000029FAD01A
:103B5000A121094DC900685019590029FCD0002045
:103B6000054988508021C9005A58002AFCD00023FA
:103B7000180030BDFFFF030000E001400405000015
:103B8000F0B5154C0123A04223D8840521D11D0096
:103B90008C071ED1114C124BA4461D518025ED00FF
:103BA0005C59002CFCD080270024FF008025ED000C
:103BB000944207D2A5004E594651DD59002DFCD044
:103BC0000134F3E7002261465A505A59002AFCD0CA
:103BD00000231800F0BDC046FFFF030004050000ED
:103BE00000E0014070477047704770477047002001
:103BF00070477047704770470800704710B50368FA
:103C000000219B6A984710BD704770B50D000400F5
:103C1000160028001100FFF7CBFE6682A58270BD5A
:103C200070B51D0004001000FFF7C2FE2800FFF76A
:103C300069FE618AA08AFFF7BBFE70BD10B5072040
:103C4000FFF760FE10BD10B5FFF708FF10BD10B5FF
:103C500008000021FFF7ACFEFFF70CFF10BD10B508
:103C6000FFF7D8FE10BD10B5040008000021FFF7D3
:103C70009FFEFFF7AFFE618AA08AFFF799FE10BD95
:103C800010B504000848FFF737FE0848FFF72EFE7E
:103C9000FFF7ECFEE18900200139FFF7F3FE002376
:103CA0002371034B1C6010BD853D0000593D000091
:103CB000841D002010B5FFF7FDFE0300C0B28B3855
:103CC000042806D801F0A0F9030B070509000C2011
:103CD00006E0D8B204E00E2002E0122000E004204A
:103CE00010BD10B581770800FFF7D6FE10BD0000AB
:103CF00010B5042904D8034B4900C85AFFF708FE41
:103D000010BDC046FC5D000010B508290AD8082A7D
:103D100008D8054B4900C85A044B5200D35A1843DF
:103D2000FFF7F6FD10BDC0467C5D00006A5D000037
:103D300010B503790400002B01D0002008E00548ED
:103D400000F05EFF0028F8D023682000DB6B984766
:103D500010BDC046901D002010B5084B1B681B7994
:103D6000002B09D1064C200000F04AFF0028F9D0B2
:103D7000200000F04FFFC0B210BDC046841D0020DF
:103D8000901D002010B5054B01001B681B79002B0E
:103D900002D1034800F0FCFE10BDC046841D002087
:103DA000901D002070B504000368DB689847E57F2C
:103DB000002D05D1A068002802D001F037FBA560D6
:103DC00070BD70B50400828908000D005043A368DF
:103DD0000021181801F052FB2368E9B22000DB69CA
:103DE00098472368A27C217D1B692000984770BDFD
:103DF00010B5040003689B699847A289E389A0680D
:103E00005A43002101F03AFB10BD70B50382002334
:103E100004008377036881819B68C281049D984771
:103E2000E37F002B04D1A068002801D001F0FEFA46
:103E3000002D07D1A089E389E577584301F0ECFA1A
:103E4000A06002E00123A560E3772000FFF7D0FF28
:103E5000236820001B6B012198472368A27C217DE9
:103E60001B69200098470123237770BD70B50400BB
:103E70000025E2892368AA4206D929009B6D20000B
:103E800001359847ADB2F4E7A27C217D1B69200083
:103E9000984770BDF7B5CBB2019303680E00DB699C
:103EA000C9B2040000259847A3899D4218D27343E4
:103EB000A26820005219D15C23681B6D9847002826
:103EC0000BD0A389A26873435219D35C2268E9B26C
:103ED000526920001700019AB8470135ADB2E3E7F7
:103EE000F7BD10B50400C28981898368013A4A434D
:103EF0001800591801F0ADFA236820005B6B984751
:103F0000236820001B6A9847E1892000013989B2A3
:103F1000FFF757FF2368A27C217D1B69200098478B
:103F200010BD10B50400E289A3688089013A4243BC
:103F30001900181801F08DFA236820005B6B984770
:103F4000236820005B6A984720000021FFF739FFB3
:103F50002368A27C217D1B692000984710BD70B5A5
:103F6000C2890500013A0C1E94420BDA81898368EC
:103F7000A01C4843121B013A4A43411A5918181809
:103F800001F067FAAA89013410006043AB68002190
:103F9000181801F073FA2B682800E1B29B6A984761
:103FA00070BDF8B504008089A38A5843638AC0189D
:103FB000A36818180378002B26D005002B782E1A3A
:103FC000B6B2002B01D00135F8E7012E03D9721EDD
:103FD000411C01F03EFA6B1E00251D70678AA18905
:103FE000B81901F0AFF8A18A2368A84207DB491984
:103FF00089B29B6D200001359847EDB2EEE7FAB229
:10400000C9B21B6920009847F8BD70B5858AC3897D
:10401000691C89B20AB204009A4202DBFFF761FF11
:10402000A9B22368C9B21B6900222000984770BD5D
:1040300070B50400428A838A013292B2A18910B21B
:104040009DB288420BDB01339BB2E28919B29142E7
:1040500003DB2000FFF745FF00E01D00002223687E
:10406000E9B2D2B21B692000984770BD0B0070B551
:1040700004008189828A4A43418A806882185354A5
:104080002068227D4569A17C2000A8472000FFF719
:10409000CFFF70BDF0B5836889B001930591868923
:1040A000838A019A009373430293458A04005B1943
:1040B000D7180022B95C93B2501C002901D002002D
:1040C000F8E712040392E2890692002B02D0237FC4
:1040D000002B31D1039B31001A0C5519681C01F0DB
:1040E00031F8009BC018069B98420BDB2000FFF7BD
:1040F000F8FEA18A23680139A27CC9B21B6920009D
:10410000984713E0731E9D4210DB0299019A8C467A
:104110006244D35C002B09D13100280001F012F871
:10412000009B181881B22000FFF719FF236805993A
:104130009B6B2000984758E0039B31001B0CED1847
:1041400004936B1C1800079300F0FCFF009BC01841
:10415000069B98420DDB2000FFF7C3FEA389A18ACE
:10416000FF1A23680139A27CC9B21B692000984755
:1041700017E03100681C01F0CBF8731E994210D192
:10418000029A019B944663445B5D002B09D1310088
:10419000280000F0D7FF009B181881B22000FFF71D
:1041A000DEFE039B39001A0C781C01F052F96B46B5
:1041B0001B7D20003B70FFF73BFF0025049B668AB8
:1041C000A189F01800F0BEFFA18A2368A84207DB8E
:1041D000491989B29B6D200001359847EDB2EDE792
:1041E000F2B2C9B21B692000984709B0F0BD10B502
:1041F000428A0400838A002A10D081894B43816857
:104200008A18D318013B197803681B6D984700285A
:104210001ED0628A217D013AD2B215E0002B17D060
:104220008189013B4B431A0083685B189B18013B53
:10423000197803681B6D9847002809D0A289A18AC4
:10424000013A0139D2B2C9B2236820001B699847EC
:1042500010BD10B50400418A8289481CA38A90428F
:1042600010DA5343A26820005118C95C23681B6D03
:10427000984700281BD0628A23680132D2B2217D80
:104280001B6912E0E18901338B4210DA5343A268C3
:104290002000D15C23681B6D9847002807D00022BE
:1042A000A18A236801311B69C9B22000984710BD5B
:1042B00070B505008489AA89AB8A013C5343AA687A
:1042C000A4B2D31826B2995D2B6828001B6D9847BD
:1042D000002801D1002EEEDC2B68297D2800E2B2F7
:1042E0001B69984770BD70B50500C489013CA4B234
:1042F000002C0AD0AA8923B25343AA682800D15CB3
:104300002B681B6D98470028F0D02B682800E1B27D
:104310001B690022984770BD838910B514008B4239
:1043200001D8013B99B2C389CAB2191CA34200D972
:10433000211C0368C9B21B69984710BD30B5848938
:10434000030000208C4206D9DD89954203D96243DF
:104350009B685918885C30BD10B5818A8389826852
:104360004B43448AD318002C02D14C1EA1415B1A46
:10437000934206D91978002901D15A1C03E0013B68
:10438000F6E79342F9D18261012010BD70B5002497
:104390000A268589694385686D182878FBF746FFEA
:1043A000002808D074432878303C094B04199C42FB
:1043B00009D80135F1E7002C05D02B78202B02D14C
:1043C0006B78002B01D10124644220B270BDC0463D
:1043D000FF7F0000F0B5C18985B0013909B2040042
:1043E000FFF7D4FF002804DC294B188803B2002B08
:1043F00041DD00B2FEF752FC061E39DDFEF762FC1D
:10440000070001F06DF9002583B203936B460C227F
:104410009B5E0193A38901981900029300F092FE1C
:10442000A84205DB20000135FFF75BFDEDB2EDE7AB
:10443000E3893900013B181A029B00254343180009
:10444000A368181801F044F9A189019800F07AFED8
:10445000A8420ADBE18923680139491B89B29B6DB7
:10446000200001359847EDB2EEE7094B1E8005E0CC
:104470000022074B1A802000FFF733FD236820003D
:10448000A27C217D1B699847002005B0F0BDC04685
:10449000881D002070B5838AC289013304009342CD
:1044A00029DA828981685343428ACB18995C036870
:1044B0001B6D9847628A1500D2B2002813D1A38AD7
:1044C000A28901335343A2682EB2D318995D2368A1
:1044D00020001B6D9847002804D1002E02DD013D0D
:1044E000ADB2ECE7EAB2A18A23680131C9B21B6917
:1044F0002000984703E0934201D1FFF76BFF70BDA6
:10450000F7B500210400FFF741FF00282DDDFEF77D
:10451000A7FB002829DDFEF7D5FB070001F0E0F836
:10452000002583B201936B4604269E5FA18930006B
:1045300000F008FEA84205DB20000135FFF7F1FC82
:10454000EDB2F0E73900A06801F0C2F80025A189BA
:10455000300000F0F7FDA8420ADB2368A9B29B6D8A
:10456000200001359847EDB2F1E72000FFF7D9FCB4
:1045700023682000A27C217D1B6998470020FEBD96
:1045800070B5838A0400002B2AD08289013B5343F3
:104590008168428ACB18995C03681B6D9847628AD0
:1045A0001500D2B2002813D1A38AA289013B53433C
:1045B000A2682EB2D318995D236820001B6D98471E
:1045C000002804D1002E02DD013DADB2ECE7EAB2D5
:1045D000A18A23680139C9B21B692000984701E00C
:1045E000FFF78EFF70BD70B5040023682000DB6B01
:1045F0009847236805001B6B002120009847832DF6
:1046000000D173E020D80E2D00D17BE00CD8082D0E
:1046100065D003D8042D00D179E07DE00C2D2BD09E
:104620000D2D00D189E077E0802D63D004D8122DC4
:1046300048D0182D56D06FE0812D5FD0822D6BD1E0
:104640002000FFF7D4FD72E0882D2BD007D8852DF0
:1046500048D015D3862D3DD0872D14D05CE08C2D0D
:1046600055D004D8892D31D08B2D05D054E08D2D17
:1046700048D08F2D26D04FE02000FFF7B9FB1BE07C
:10468000A28A00211AE0638A2000002B07D1E38967
:10469000A28A013B9A4202D1FFF79CFE47E0FFF756
:1046A00022FE44E0638A002B06D1A38A002B03D1AB
:1046B0002000FFF725FF3AE0002211002000FFF75D
:1046C0002BFE34E02000FFF7D1FB30E02000FFF7A5
:1046D000EFFD2CE0237F5A425341237727E020004F
:1046E000FFF785FD2000FFF75CFC20E02000FFF7CE
:1046F000B0FD1CE02000FFF7CDFE18E02000FFF722
:104700003FFF14E0A18A2000FFF729FC0FE0A18AF7
:104710002000FFF756FB0AE0236829001B6D2000EC
:104720009847002803D029002000FFF7B3FC236836
:1047300001211B6B2000984757E7236801211B6B61
:10474000200098472000FFF707FE70BD03210A48AC
:1047500002680A430260094802680A430260084985
:10476000084A094B9B1A03DD043BC858D050FBDCB8
:1047700000F094F9FBF7FEFC2405004054050040CE
:104780007C6200000000002088040020FEE7FEE7B5
:10479000FEE7FEE7FEE7FEE7084A0949094B10B5C8
:1047A0001B688858FA22190A1B0618439200002336
:1047B00000F0B4FD4904C00B084310BD040500001F
:1047C000001001408C1D002070B5041E09D0FFF7B9
:1047D000E3FF050000F014F8FFF7DEFF401B844202
:1047E000F8D870BD0022044B9A60044A1368013364
:1047F000DBB213607047C046FC1001408C1D0020E6
:1048000070470000F8B50124002716008440B94223
:1048100000D02700104D1149286800F009FC0D2137
:10482000704300F005FC210003003A000C4800F042
:1048300057FB0400002084420DD00A4BFA215C4350
:10484000FA2389009B012868E41800F0F1FB0100BD
:10485000200000F0EDFBF8BD0804002040420F00EE
:1048600010050050C8320000F7B50023202877D883
:104870003C4B8000C258042A14D006D8022A0DD01E
:104880000ED80423012A14D069E0062A0ED00BD3D7
:104890001A2A0DD002231B2A0BD060E0082308E05F
:1048A000102306E0202304E0402302E0802300E000
:1048B00001232D4A1268082A04D9092A05D00A21A1
:1048C000022404E00821002401E011000124A025B5
:1048D00001261C272548ED004651254D254E2D6803
:1048E0001B02AD003D400195234D2D680095855973
:1048F000AC466746214D3D401D4385518359C02537
:104900009C46009BAD021D40FF2367461B023B40B7
:104910002B43019D1D43009B5F0160231F402B0023
:104920003B431C4301238451154C036063680F48CB
:10493000002BFBD00024124B01255C60A123DB007F
:10494000C3584560A025ED0044511BB2914207D0E9
:1049500002D98A1AD34003E0521A934000E00023A0
:104960001800FEBDB4600000C803002000700040C5
:10497000C403002004050000C0030020FF00FFFF67
:10498000FC7000401E4BF0B5596C18001D4A002900
:1049900014D0A025A12600230124ED05F600D1584E
:1049A0004F1C06D0D7187F68002F02D027008F40F9
:1049B000AF5114333C2BF2D100234364131DA025C7
:1049C00040329446002001240F4EED05DA680F496D
:1049D000920057180A495218526C002A0CD01A1F1C
:1049E0001268511C05D01968FF2902D0210091409E
:1049F000A9513A00FC32506414339C45E6D1F0BD15
:104A0000FC900040CC0300200C050000009000400A
:104A100000B5202816D80C4A83009B58032911D8CA
:104A2000A0220800C133FF33D2059B0000F0ECFA4E
:104A300002080406002104E00C2102E0042100E049
:104A40000321D15000BDC046B460000020280DD81D
:104A5000074B8000C058A0220123D20583400029C3
:104A600001D1044901E0A121C90053507047C0465B
:104A7000B46000000C05000003000020202B0AD8C1
:104A8000A222A021D200C9058858034A9B009B5846
:104A9000D840012318407047B46000002D4B10B57A
:104AA0001A78012A19D12C4A1268120715D12B4AFB
:104AB000E0241168F0220800104021420BD128495F
:104AC0000968114209D12749274A11608021274AE4
:104AD0000902116001E03028F1D01A78012A0DD1C5
:104AE0001D490968090709D1F0201C4909680140DE
:104AF000402903D11A490968014223D01B68DBB25F
:104B0000012B25D1144B1B681B0721D1134B1A68AD
:104B1000F0231A40A02A04D1114A12681A4203D085
:104B200016E0D02A14D1F7E7114B1A68012A03D1F5
:104B3000C022104B1A600BE00F4A1A601A68012A53
:104B4000FCD1F5E7C1218020C900C0054250D5E75E
:104B500010BDC046E00F00F0E40F00F0E80F00F0D9
:104B6000EC0F00F0DFFF07C004050040186C0040A8
:104B700000EC064014EC06407593000001207047DD
:104B800010B503681322DB69984710BD7047000019
:104B90000369054A9950FC331A6A002AFCD00022A6
:104BA00001201A627047C0461C050000030010B5C2
:104BB0005C331A781F2313400122110099400D4BDA
:104BC0000424D967C221036989005C505A60DA6005
:104BD000A0220021D20099500122074952425A5086
:104BE000064914305A500C395A5008315A5000F0C6
:104BF000E9F910BD04E100E00C0500001405000017
:104C000010B5143000F0F0F910BD10B5143000F0FC
:104C1000F1F910BD10B5143000F0D8F910BD000046
:104C2000030070B55E331C780269604BD4500300FA
:104C30005D331C785E4BD450030061331C785D4BB0
:104C4000012C0CD105005F352E78A225ED005651C0
:104C5000050060352E78A125ED00565100E00024B6
:104C6000D4509623DB00994238D996231B019942F0
:104C700037D996235B01994236D996239B019942F5
:104C800034D9E1239B01994232D99623DB01994221
:104C900031D9E123DB0199422FD996231B02994296
:104CA0002DD9E1231B0299422BD996235B0299420D
:104CB00029D9E1235B02994227D9E1239B0299423A
:104CC00025D93D4B994224D9E123DB02994223D9CE
:104CD000E1231B03994221D8384B21E09E23DB02BC
:104CE0001EE09D231B031BE0354B19E0354B17E0FD
:104CF000EC239B0314E0344B12E0344B10E0344BB4
:104D00000EE0344B0CE0344B0AE0344B08E0344BFB
:104D100006E08023DB0403E0324B01E080235B05E7
:104D20003149002453500423243953501100FC31DD
:104D3000CC600C62C1210134890014605C30946045
:104D4000535003781F202200D9B20840824080349B
:104D50002648FF345BB20251002B13DA0F230B40BD
:104D6000083B234C9B089B001B1903242140A140B6
:104D7000FC348C40DD69A543C0248C4021002943CC
:104D8000D96111E0194C9B089B001B190324214099
:104D9000A140C025FC348C40AD005E59A643C02420
:104DA0008C40210031435951026070BD0C05000058
:104DB000140500006C05000090D0030000D0BE0E6A
:104DC00000B013000050270000A04E0000F0750056
:104DD00000509D0000F0EB0000903A0100E0D70188
:104DE00000B0AF0300705F072405000000E100E0A1
:104DF00000ED00E0F7B5009308AB1B7800250193A8
:104E0000FA2304009B0083600E4B45600833036067
:104E100014300F00160000F0BFF823005C33276148
:104E20001E70009B084A9B00995823005D3319703F
:104E3000019B20009B009A5823005E33DD701A709E
:104E4000FEBDC04638610000B4600000036910B5C3
:104E50001A00FC32D2680400002A0AD0A322D20031
:104E600099581430C9B200F0A2F800222369FC332B
:104E7000DA6010BD10B50248FFF7E8FF10BDC0466C
:104E8000901D0020162307B5022200930249013B22
:104E90000248FFF7AFFF07BD00200040901D002033
:104EA00010B5002801D000F08DFB10BD7047000048
:104EB00010B500F033F8FFF7F9FF0120FFF784FC8D
:104EC000FEF770FCFEF769FC024B002BFAD000E005
:104ED00000BFF7E70000000010B500F0A7FA10BD12
:104EE00030B504680C40944206D1013B002BF8D148
:104EF00012E0013B002B0FD004680C409442F8D123
:104F0000002405680D40954204D101349C42F8D13B
:104F1000002002E0201C00E0181C30BDC421114A12
:104F200089005058104B0340C020000203435350E7
:104F3000802391399B02FF39535013608023A322B1
:104F40000021DB05D20099500122A1209A60074B75
:104F5000C0001950C1200231800019504030195052
:104F60001A60704700E100E0FF00FFFF0010014001
:104F7000F7B506000D000C008B180193019B671B11
:104F80009C4207D0336821781B6830009847013471
:104F90000028F3D13800FEBD10B5402200210400E6
:104FA00000F06CFA002320002364636410BD3F23EB
:104FB000026C10B5541C2340446C9C4201D08154B7
:104FC000036410BD0023036443647047436C026CA8
:104FD000934206D03F21C25C01330B404364100072
:104FE00001E0012040427047036C406C181A00D564
:104FF00040307047436C026C934201D0C05C01E0CA
:10500000012040427047000002B47146490849003F
:10501000095C49008E4402BC7047C04603B4714627
:10502000490840004900095A49008E4403BC7047B2
:10503000002243088B4274D303098B425FD3030AD7
:105040008B4244D3030B8B4228D3030C8B420DD3EA
:10505000FF22090212BA030C8B4202D31212090278
:1050600065D0030B8B4219D300E0090AC30B8B42B6
:1050700001D3CB03C01A5241830B8B4201D38B0364
:10508000C01A5241430B8B4201D34B03C01A524109
:10509000030B8B4201D30B03C01A5241C30A8B424C
:1050A00001D3CB02C01A5241830A8B4201D38B0237
:1050B000C01A5241430A8B4201D34B02C01A5241DB
:1050C000030A8B4201D30B02C01A5241CDD2C3094D
:1050D0008B4201D3CB01C01A524183098B4201D3C9
:1050E0008B01C01A524143098B4201D34B01C01AB4
:1050F000524103098B4201D30B01C01A5241C3082C
:105100008B4201D3CB00C01A524183088B4201D39A
:105110008B00C01A524143088B4201D34B00C01A86
:105120005241411A00D20146524110467047FFE7F2
:1051300001B5002000F0F0F802BDC0460029F7D00C
:1051400076E7704703460B437FD4002243088B4227
:1051500074D303098B425FD3030A8B4244D3030BFE
:105160008B4228D3030C8B420DD3FF22090212BAC3
:10517000030C8B4202D31212090265D0030B8B423F
:1051800019D300E0090AC30B8B4201D3CB03C01A29
:105190005241830B8B4201D38B03C01A5241430B04
:1051A0008B4201D34B03C01A5241030B8B4201D3F4
:1051B0000B03C01A5241C30A8B4201D3CB02C01A5F
:1051C0005241830A8B4201D38B02C01A5241430AD7
:1051D0008B4201D34B02C01A5241030A8B4201D3C6
:1051E0000B02C01A5241CDD2C3098B4201D3CB016D
:1051F000C01A524183098B4201D38B01C01A52411C
:1052000043098B4201D34B01C01A524103098B421F
:1052100001D30B01C01A5241C3088B4201D3CB000A
:10522000C01A524183088B4201D38B00C01A5241ED
:1052300043088B4201D34B00C01A5241411A00D29D
:1052400001465241104670475DE0CA0F00D0494206
:10525000031000D34042534000229C4603098B4276
:105260002DD3030A8B4212D3FC22890112BA030AFE
:105270008B420CD3890192118B4208D38901921180
:105280008B4204D389013AD0921100E08909C30905
:105290008B4201D3CB01C01A524183098B4201D307
:1052A0008B01C01A524143098B4201D34B01C01AF2
:1052B000524103098B4201D30B01C01A5241C3086A
:1052C0008B4201D3CB00C01A524183088B4201D3D9
:1052D0008B00C01A5241D9D243088B4201D34B00F4
:1052E000C01A5241411A00D20146634652415B1036
:1052F000104601D34042002B00D549427047634617
:105300005B1000D3404201B5002000F005F802BD5B
:105310000029F8D016E770477047C046F0B54F46F1
:105320004646C0B41604360C9946330005042C0CCE
:10533000070C150C63437E436F4365431C0CAD198A
:1053400064199C46A64203D980235B0298464744D1
:105350006346250CEF191D044B464A4343432D0C6D
:10536000240464199918C91920000CBC9046994668
:10537000F0BDC0460B0010B50100180000F002F8A7
:1053800010BD000070B5054C05001300201E04D0B0
:105390000A000220290000E000BF70BD00000000EC
:1053A000084B10B50400002B02D0002100E000BF24
:1053B000054B1868836A002B00D09847200000F046
:1053C000EDF9C04600000000686100000E4B70B5AA
:1053D00000251E000D4CE41AA410A54204D0AB0019
:1053E000F35898470135F8E700F0DAF9084B002543
:1053F0001E00084CE41AA410A54204D0AB00F358D8
:1054000098470135F8E770BD74040020740400204B
:10541000740400208004002010B5034B01001868BC
:1054200000F07AF810BDC0466C04002010B5034BA4
:105430000100186800F02AF810BDC0466C04002076
:10544000002310B59A4203D0CC5CC4540133F9E771
:1054500010BD10B5884202D98B18984201D30023A1
:1054600005E09B1A013A08D3995C8154FAE793420C
:1054700003D0CC5CC4540133F9E710BD030082189B
:10548000934202D019700133FAE7704730B5002912
:105490003ED004390B68002B00DAC9181D4A136886
:1054A0001400002B02D14B60116031E08B420DD90A
:1054B0000A688818834203D118685B6882180A60FA
:1054C0004B60216024E08A4203D813005A68002A06
:1054D000F9D11D685C198C420BD1096869185818FC
:1054E0001960824214D110685268411819605A60DC
:1054F0000EE08C4202D90C23036009E008680C1806
:10550000A24203D114685268201808604A605960AA
:1055100030BDC046F81D0020032370B5CD1C9D434F
:10552000083506000C2D01D20C2505E0002D03DA0C
:105530000C230020336040E0A942F9D81F4B1C68BF
:105540001A002100002913D00B685B1B0DD40B2B14
:1055500002D90B60CC181EE08C4202D16368136044
:105560001AE04B6863600C0016E00C004968E9E73C
:10557000134C2368002B03D1300000F08DF820601D
:105580002900300000F088F8431CD1D00323C41C4C
:105590009C43A0420AD12560200007220B30231D26
:1055A0009043C31A09D05A42E25006E0211A300053
:1055B00000F072F8431CEED1BAE770BDF81D002070
:1055C000F41D0020104B70B51C680500A36B002B68
:1055D00015D11820FFF720FF0C4BA06303800C4B64
:1055E000012243800B4B83800B4BC3800B4B038109
:1055F0000523438106338381002302614361002236
:10560000A36B1D615A6170BD6C0400200E33000055
:10561000CDABFFFF341200006DE6FFFFECDEFFFFB5
:10562000154B10B51C68A36B002B15D11820FFF784
:10563000F3FE124BA0630380114B01224380114BF8
:105640008380114BC380114B0381052343810633B3
:105650008381002302614361A46B0D4A2069616963
:105660000C4BFFF75BFE012200238018594120619B
:1056700061614800400810BD6C0400200E3300003A
:10568000CDABFFFF341200006DE6FFFFECDEFFFF45
:105690002D7F954C2DF45158002370B5064C050014
:1056A0000800236000F06CF8431C03D12368002B32
:1056B00000D02B6070BDC046081E002002780B7819
:1056C000002A03D0013001319A42F7D0D01A704736
:1056D000031C0A7801311A700133002AF9D170478E
:1056E0000023C25C0133002AFBD1581E7047000022
:1056F000F7B5002503270E4B01921E68019BAB42B4
:1057000013D0435DF41864783C40012C00D1203361
:105710004C5D321952783A40012A00D120341B1BCB
:1057200004D10135002CE9D100E000231800FEBDB2
:1057300070040020002330B59A420BD0013AC45CBB
:10574000CD5CAC4205D19A4202D00133002CF6D197
:105750002500631B180030BD030030B5002A0DD0B2
:105760000C7801335D1E013A2C700131002CF5D10B
:105770009A189A4202D01C700133FAE730BD00003B
:10578000044A1368002B03D01818106018007047E3
:10579000014BF9E7FC1D0020101E0020FEE7C0466B
:1057A000F8B5C046F8BC08BC9E467047F8B5C04680
:1057B000F8BC08BC9E4670470E0F10111213141649
:1057C0001718191A1B1C1D1E1F20212425260A0B21
:1057D0000C0DC320696E2000402800293A002F00DC
:1057E000286E6F6E652900537461636B20546F706F
:1057F0003A004865617020546F70203A005352415E
:105800004D20467265653A0073636D6F64653A00BA
:10581000736353697A654D6F64653A0073657269A5
:10582000616C4D6F64653A00544F594F5348494B72
:10583000492054494E592042415349432000417266
:105840006475696E6F206D6963726F3A6269740086
:105850002045646974696F6E2056302E30320047DF
:105860004F544F00474F5355420052455455524EE6
:105870000053544550004E45585400494600454E8B
:105880004400454C5345002C003B0027002D002BC5
:10589000002A0025003C3C003E3E007C0026003EE5
:1058A0003D0023003C3D00213D003C3E00414E4474
:1058B0000021005E004000434C5400574149540011
:1058C000504F4B45003F00494E50555400434C53F8
:1058D00000434F4C4F520041545452004C4F4341EF
:1058E00054450052454452415700435343524F4C94
:1058F0004C00434852240042494E24004845582455
:1059000000444D502400535452240041425300415E
:105910005343004652454500524E4400494E4B45C4
:1059200059004C454E005449434B00565045454B99
:1059300000475045454B0047494E500052474200F2
:1059400049324357004932435200414E41005348C7
:10595000494654494E00535245414459005352451B
:105960004144004545505245414400505345540080
:105970004C494E45005245435400434952434C451F
:10598000004249544D415000475052494E5400473F
:105990005343524F4C4C004750494F00504F5554C1
:1059A0000053484946544F55540050554C534549AF
:1059B0004E00534D4F444500534F50454E00534306
:1059C0004C4F534500535052494E5400535752497F
:1059D0005445004C44424D50004D4B4449520052F6
:1059E0004D4449520046434F5059004341540044EE
:1059F00057424D500052454D4F5645004849474883
:105A0000004C4F57004F4E004F464600504E30005E
:105A1000504E3100504E3200504E3300504E340044
:105A2000504E3500504E3600504E3700504E380024
:105A3000504E3900504E313000504E313100504EF2
:105A4000313200504E313300504E313400504E311F
:105A50003500504E313600504E313700504E3138FF
:105A600000504E313900504E323000504E3231002D
:105A7000504E323200504E323300504E32340050CD
:105A80004E323500504E323600504E323700504EB6
:105A9000323800504E323900504E333000504E33C1
:105AA0003100504E3332004348004757004C5342B8
:105AB000004D5342004D454D005652414D00564158
:105AC000520041525241590050524700464E540034
:105AD0004752414D00555000444F574E00524947E0
