:1000000000400020DD6800001D6900001F6900003D
:1000100000000000000000000000000000000000E0
:100020000000000000000000000000002169000046
:1000300000000000000000002369000025690000A6
:1000400027690000276900002D7200002769000061
:100050002769000000000000156A00002769000001
:10006000276900004D6C0000A958000027690000B6
:100070002769000027690000276900002769000040
:1000800027690000AD6A00002769000027690000A9
:100090002769000027690000276900002769000020
:1000A0002769000027690000000000000000000030
:1000B0000000000000000000000000000000000040
:1000C000054B0648033310B51B1A062B03D9044B06
:1000D000002B00D0984710BD780400207804002041
:1000E000000000000648074910B5091A8910CB0F17
:1000F0005918491003D0044B002B00D0984710BD6D
:1001000078040020780400200000000010B5074C9F
:100110002378002B09D1FFF7D3FF054B002B02D02A
:10012000044800E000BF0123237010BD78040020C4
:100130000000000000900000094B10B5002B03D018
:100140000849094800E000BF08480368002B02D1B5
:10015000FFF7C8FF10BD064B002BF9D09847F7E713
:10016000000000007C0400200090000074040020C7
:1001700000000000164B002B00D1144B9D4640227E
:1001800092029A1A924600218B460F461348144A4F
:10019000121A07F0F9FA0F4B002B00D098470E4BBC
:1001A000002B00D098470020002104000D000D48CE
:1001B000002802D00C4800E000BF07F08DFA2000B4
:1001C000290007F051F807F071FAC0460000080056
:1001D0000040002000000000000000007804002023
:1001E000401F0020000000000000000070478088D1
:1001F0007047C0887047000010B50400034B0360CF
:10020000083005F08BFA200010BDC046E8840000DD
:1002100010B5052006F094FD0B4C002803D106F024
:100220001FFC20600FE006F01BFC2368C01A074B80
:10023000984208D9BFF34F8F054A064BDA60BFF3E7
:100240004F8FC046FDE710BD181B0020871300002C
:100250000400FA0500ED00E0034B10B5010018683A
:100260000268926B904710BDD41D002010B50400A9
:1002700007F00EF8200010BD0200613A0123192A90
:1002800006D9002319224138C0B282425B41DBB259
:1002900018007047030009220020303BDBB29A426D
:1002A0004041C0B270472022010091430A00413A08
:1002B00003000120052A06D900200922303BDBB2C9
:1002C0009A424041C0B2704710B5040007F02EFBBF
:1002D000210007F0A3F9013108B210BD013AD2B2F2
:1002E000FF2A06D08B5C013AD2B28342F8D10120BA
:1002F00000E0002070470000054A10B5138819B2CD
:100300007F2903DC034C01336054138010BDC046C9
:10031000CC1D00209408002010B5002902D1FFF761
:100320009BFF11E0022904D10100084804F06FFB93
:100330000AE0032902D1FFF7DFFF05E0052903D119
:100340000100024804F014F910BDC046BC1A002098
:1003500010B5002805D1064B186803681B6E984736
:1003600004E0032802D10730FFF7C6FF10BDC046E6
:10037000D41D0020214B10B51A689389D1894B43B5
:100380009BB2834201D9936807E0A0221C4BFF3245
:10039000C31899B2914202D81A48C0182CE01A4BDF
:1003A000C3189AB2FF2A01D81848F6E7184B194A21
:1003B000C31899B2914202D8174A1068EDE7174B5B
:1003C000174AC31899B2914201D81648E5E7164B6F
:1003D000164AC3189BB2934204D8154BC018154B4C
:1003E0001B68DAE7144BC418A3B200201A2B03D8F9
:1003F000124804F049F8001910BDC046D41D002071
:1004000000E7FFFFC41B002060E5FFFF9609002006
:1004100060E4FFFFFF0F00000400002060D4FFFF36
:10042000FF0300009404002060D0FFFFFF070000DE
:1004300063D0FFFFB802002060C8FFFFBC1A002095
:1004400010B5040007F0D2FA0022013880B200286B
:1004500007D023181978202903D101381A7080B2E7
:10046000F5E7200010BD00000649074A0B68187820
:10047000132802D01123137001E001330B601078B0
:100480007047C046601A0020691A00200649074AD2
:100490000B681878142802D01123137001E001337F
:1004A0000B6010787047C046601A0020691A00205F
:1004B0000300303BDAB29BB2092A0CD90300613B3E
:1004C000052B01D8573805E00200413A0023052AE0
:1004D00001D8373883B2180070470000F8B50D4CCA
:1004E000050020680F00867F002E03D003680021DE
:1004F0001B6B98472878002804D039000135FFF796
:100500000BFFF7E7002E04D02068012103681B6B66
:100510009847F8BDD41D00202023F0B585B00E1EED
:100520000292019303DA4E42103336B2019300284F
:1005300003DA4442A4B2012301E0002384B2002282
:1005400006270093174B9A71039320000A2106F0A7
:100550007BFF7D1E039B3031EDB2595520000A21EF
:1005600006F0ECFE84B2002C01D02F00EDE7009BDA
:10057000002B04D02D23BD1E0A4AEDB2535506248C
:10058000641BB44206DA02990198013EFFF7C4FEEB
:1005900036B2F6E7034B02995819FFF79FFF05B0F3
:1005A000F0BDC046441B0020F8B585B217480423AF
:1005B000854207D8013BFF2D04D80C33AB429B4149
:1005C0005B420133002905D089B2181C8B4200D24E
:1005D000081C83B200240F210D482F00A60076428C
:1005E0000C3637413E000E4037003737092E01D810
:1005F0003036370027540134042CEED10021E31AA1
:100600000171C0181100FFF769FFF8BDFF0F00006E
:10061000441B0020F7B583B201930F240023114E31
:10062000019D0120254105402F308446AC4467469A
:10063000301BC7733000002B03D1002D01D0631C89
:100640009BB2013CECD2002489B204741C1C8B4286
:1006500000D20C1CA4B2001B10301100FFF73EFFAB
:10066000F7BDC046441B0020F7B500240226384DD4
:1006700028680368DB6B98470D281CD0032803D13A
:100680001922344B1A7016E01B28F9D0082851D0D3
:100690007F284FD0002C06D103002B3BB343DBB2A5
:1006A000002B3AD001E0052C3FD80300303BDBB2F1
:1006B000092B32D939E00020FFF74AFE0023264DEE
:1006C0002B552A782B2A03D02D2A03D1012301E0B0
:1006D000012200E01A001F4900260F7801910A212B
:1006E00030008C46AC5C002C0ED061464143303962
:1006F000091989B2013200B20CB2D2B2A04201DDB6
:10070000012602270800EDE7002E01D0019A17709C
:10071000002B1AD0404280B217E0651C0E4BEDB2A0
:100720001855FFF799FD2C00A1E728680368DB6ADC
:1007300098479CE7002CF8D0286804F0DCFC013CCA
:100740002868E4B204F0B1FB91E700B2FEBDC046F8
:10075000D41D0020691A0020441B0020F7B50700B3
:1007600001261A4C0191019B9E4204D923B2002517
:10077000013313D128E000251548AB0032003900C1
:10078000185807F03BF9002804D1731C0096ACB24E
:100790009EB2E8E70135AC2DEED1E7E70C4AAB009D
:1007A0009C58200007F022F9009B984208D11A00BB
:1007B0003900200007F022F9002801D1ACB203E093
:1007C0000135AC2DEAD1014C20B2FEBDFFFF000087
:1007D00008000020F0B500249E4D85B02B78002B3A
:1007E00018D02B78202B1BD0093B042B1AD817E0EC
:1007F00010B27E31091A8E421FDA741CE4B2200056
:100800009549DBB28B55013A92B216B201366DD1E1
:10081000E318DCB2B022904B601C1A55C0B217E14D
:100820000135DEE7280007F0E1F881B22800FFF784
:1008300095FF071E47DB7E2C01D90422C0E0864BC2
:10084000BA001F55854B661CD05807F0CFF8F6B29A
:100850002D18152F34D12878FFF725FD002800D159
:10086000BEE000232F000193019B0137180183B2E2
:1008700001937B1E1878FFF71BFE019B181883B2AB
:1008800001937B1B9BB238780293FFF70CFD002885
:10089000EAD1029B042B01D9022291E07C2ECCD814
:1008A000AE226D4B3D001A556A4612799A55019B4E
:1008B000E61C18120234684BE4B2F6B218558FE009
:1008C0009E2F03D034000D2F16D126002B78202B1D
:1008D00000D187E0093B042B00D883E00023E95CCA
:1008E0009AB2581C002983D00300F8E72F78461CE1
:1008F0000F540135F0B286E7002F00DB6EE72E784B
:100900003300303B092B29D8802000230A21000224
:100910004B4301356A1E1278303BD3188342BBD853
:100920002A78303A092AF3D97C2C86D880214A4A81
:1009300009028B4206D1002C04D011190139097823
:100940000E29A9D1AC211155611CA01CC9B2535468
:10095000C0B203341B0AE4B213543FE7222E0BD17A
:1009600000236E1CE91849789AB222293CD0581C01
:10097000002939D00300F5E73000FFF77DFC00289F
:100980001DD07D2C00D958E73300613B192B01D8CD
:10099000203EF6B26B78413E1A00303AF6B2062A93
:1009A00052D9002301202C49032C0DD90A19971E76
:1009B0003F78AF2F08D1043A1278AF2A04D117221A
:1009C000274B00201A7043E0AF270F55953F7B431C
:1009D000621CD2B20234F618E4B28E542D18FDE631
:1009E0003400FBE6013571E77F2110B2091A8C4211
:1009F00000DB22E7AD21184FA01C3955D9B2019177
:100A0000694601340979E4B2C0B2395535000400B1
:100A10000397013A92B217B2791C0AD02F78611C61
:100A2000BC4602916146039F0135395569460C7AEF
:100A3000EFE79DB275192B78019A223B81185A4233
:100A40005341CCB2ED18C9E62F3BDBB20220AAE736
:100A500005B0F0BD441B0020140900200800002050
:100A6000691A0020064B1B6818000278002A01D082
:100A70008018FAE7181A034BC31818B27047C0461B
:100A800004000020FF0F00000378002B04D08378BF
:100A900040781B02184300E0014800B27047C0468E
:100AA000FFFF000070B50600064B1C682578002D7E
:100AB00006D02000FFF7E8FFB04201DA6419F5E73D
:100AC000200070BD04000020F8B50D4B47781C686D
:100AD000851C2678002E0ED0E378AD2B09D1237922
:100AE000BB4206D1611D3A00280006F0A9FF00288C
:100AF00003D0A419EDE7300000E02000F8BDC046A7
:100B000004000020F8B507000024084B1D682E786B
:100B1000002E08D02800FFF7B7FFB84204DA0134EE
:100B2000A4B2AD19F3E7024C2000F8BD0400002088
:100B3000FF7F00000378B02B17D0AC2B11D005D865
:100B4000072B12D0092B0ED101300FE0AE2B08D0AD
:100B500003D3AF2B07D10230ECE743780133C01841
:100B6000E8E70330E6E70130E4E7002070470000E3
:100B7000F7B5070000240B4B01911D682E78002E5D
:100B80000DD02800FFF780FF002808DBB84204DB07
:100B9000019B984201DC0134A4B2AD19EEE72000BC
:100BA000FEBDC0460400002070B5FFF75BFF204D7E
:100BB0002B78984203DA05221E4B1A7037E0280082
:100BC000FFF762FF0600FFF76DFF0400FFF75CFF11
:100BD000864210D121002278A2181078002809D06E
:100BE0000023834202D1C918D218F6E7D65CCE544E
:100BF0000133F6E708702878042818D021000B7814
:100C0000002B01D0C918FAE70A1B013292B208186A
:100C10005242934203D0CE5CC654013BF9E7002315
:100C20002978994203D0EA5CE2540133F9E770BDB8
:100C300014090020691A0020F7B504000D0023787C
:100C4000B02B00D1B0E0AB2B3ED8584A9B00290016
:100C50009858FFF743FC67780C2F21D02678732231
:100C600053493000FFF73AFB002806D030225149A3
:100C70003800FFF733FB002803D00C3E012E0BD8C1
:100C80000EE0142E0CD1B02F0AD01B224A49380096
:100C9000FFF724FB002803D129002020FFF73CFBAD
:100CA00023789E2B03D1A61C6478341904E00D2B05
:100CB000F9D0661C3400C2E7B44275D03078290000
:100CC000FFF72AFB0136F7E7AC2B09D1A078637850
:100CD0000002184300B22A000021FFF71DFC0EE0BD
:100CE000AE2B0FD129002420FFF716FBA0786378E4
:100CF0000002184300B22A000221FFF755FCE61C4F
:100D0000E07818E0AF2B1FD167781A21380006F081
:100D10009BFB4131C8B22900A61CFFF7FDFA192F31
:100D200008D91A21380006F009FB2F30C0B229007B
:100D3000FFF7F2FAA0781B221F49FFF7CFFA00282D
:100D4000B8D12900203029E0AD2B2AD16378002BBF
:100D500006D0E2185278222A04D0013BDBB2F6E733
:100D6000222300E02723019329000198FFF7D4FAFA
:100D70006678A71CBE19BE4205D038782900FFF757
:100D8000CBFA0137F7E729000198FFF7C5FA337866
:100D9000AF2B01D0092B8DD129002020FFF7BCFA01
:100DA00088E71822054B1A70F7BDC04608000020DE
:100DB000287E00009B7E0000C47A0000691A002093
:100DC000022302009A4310B5131E0BD000230E4AD3
:100DD00013700E4A13700E4A11680B7012680D4B97
:100DE0001A6010E01400D2220B4952005C52023308
:100DF0009342FBD100231900084A99520233C82BB1
:100E0000FBD10228E2D110BD94090020681A00200D
:100E100004000020981A0020C41B0020960900201E
:100E2000F0B5474E85B034682378AC2B13D1200041
:100E3000FFF72AFE0A27E31C3360E37885B2BB4242
:100E40000BD12379201D30601722AC2B10D1FFF776
:100E50001BFE87B201E00A273D003A4C002021002A
:100E6000FFF786FE0394002D01D0002F03D114223A
:100E7000354B1A7062E0013880B27843039B401909
:100E80009842F4DC314B324E1B68336033681A7879
:100E90000292002A40D0002401330193029B013BBF
:100EA0009C4235DA019B1B5DAC2B2CD002D8012B68
:100EB00007D92AE0AE2B26D01FD3AF2B25D1023481
:100EC00024E0631C019A9BB2D21800921278AC2ADB
:100ED00001D01C00E2E70098FFF7D6FD80B2FFF7D3
:100EE00011FE039B0434984210D07843281880B236
:100EF000009A03129370507008E00134019AA3B273
:100F0000D25C9C1802E0033400E00134A3B2E0E7B5
:100F100032681378D318B8E70C4B1B68336033681A
:100F20001A78002A0AD05D7032682B1293703268EA
:100F30007D191378ADB2D3183360F0E705B0F0BD7A
:100F4000601A0020FF7F0000691A002004000020C2
:100F5000981A002070B50C4DC4B20E002800210074
:100F600003F067FA002804D11622084B01301A70EA
:100F700009E03000FFF724FF054B21001A68280024
:100F800003F065FA002070BD8C1A0020691A002059
:100F90000400002070B50B4B1C78002C03D00022FD
:100FA000A4B21A700BE0084D286803681B6C9847C0
:100FB000002804D028680368DB6B984784B220B20D
:100FC00070BDC046641A0020D41D0020F7B507008C
:100FD0000E0007240025019200933000009905F0CF
:100FE00099FE019B3800002B05D105F0A9FE0723CF
:100FF0001B1B984002E005F0A3FEA04000990543AA
:101000004B4259413000EDB205F084FE013CE4D280
:101010002800FEBDF7B52D4D0400286800210368A7
:101020001B6B98472A4A2B4F13780192002B3DD017
:10103000294A9B001168294A126891422FD38020C7
:101040004001121891422AD2254E32681278002AA5
:1010500025D0002C23D1F8582100FFF73FFA2100BA
:101060002048FFF73BFA3068FFF70EFD2200210011
:10107000FFF752FA2000FFF76BF93068FFF704FD25
:1010800022002100FFF748FA21001748FFF726FA4F
:10109000306821000330FFF7CFFD200004E0F8584E
:1010A0000021FFF71BFA0020FFF752F938680021F2
:1010B000FFF714FA0020FFF74BF90023019A286884
:1010C0001370036801211B6B9847F7BDD41D0020E6
:1010D000691A0020CC020020601A002004000020C1
:1010E000981A0020DF7A0000307B0000F8B5070076
:1010F00000250B4B1C682678002E07D02000FFF738
:10110000C3FCB84202DA2500A419F4E7002D03D08D
:101110002800FFF7B9FC00E0024800B2F8BDC04665
:1011200004000020FFFF000070B50500FFF7BAFCC7
:101130000400FFF7A9FC854204D120782018FFF7AE
:10114000A3FC00E0014800B270BDC046FFFF0000F4
:10115000F8B50700FFF7A6FC0500FFF795FC002493
:10116000874217D10C4E0D4B2100802230001C808D
:1011700006F00AFB032221003800FFF7CDF92020FA
:10118000FFF7BAF8E81C0321FFF756FD2000FFF730
:10119000B3F834002000F8BD94080020CC1D0020D6
:1011A00037B56B46DC1D74230120237006F0BAFAB4
:1011B000050006F0C1FA00211748FFF78FF9201447
:1011C00000220421FFF7F0F9002220B20421FFF7EA
:1011D000EBF90020FFF7BCF800211048FFF77EF97B
:1011E000281400220421FFF7DFF928B2002204218D
:1011F000FFF7DAF90020FFF7ABF800210848FFF706
:101200006DF90022601B110000B2FFF785F9002084
:10121000FFF79EF837BDC046E47A0000EF7A000081
:10122000FA7A0000034A11680B780133CB18136077
:101230007047C046601A002010B50B480378012B98
:1012400003D80722094B1A700DE05A1E0849D2B282
:101250009200023B5458DBB2064A03709B001460B4
:101260005A58054B1A6010BD94090020691A0020D5
:101270001C1B0020601A0020981A0020F0B5224E96
:1012800009223078042813D9204A214C431E9B00A0
:10129000195913685D1C15601D78AF2D01D00A2205
:1012A00006E09D1C15605A780BB29A4203D00B22BF
:1012B000184B1A7026E0184D831E52009B001959D6
:1012C000535B8FB25B189BB25353C21E92001259EC
:1012D000451F92B2090404D51BB212B2934208DA38
:1012E00005E0002F05D019B212B2914201DD357030
:1012F00008E0031F9B00E258044B1A60AB00E25861
:10130000064B1A60F0BDC046681A0020601A002023
:10131000681D0020691A0020C41B0020981A0020B4
:10132000044A13681978B02902D001331360F8E732
:101330007047C046601A0020044A11680B78002BE1
:1013400002D0CB181360F8E77047C046981A002007
:1013500037B5174B174A1B6817481978174D118076
:101360005A78174B17491A80002303714371164BA3
:101370002A00036006F084F9144C154B2000083055
:10138000236004F0B7F92A001249200006F078F92A
:101390000423802280210093D200DB1849000E48EC
:1013A00003F004F81D210D4805F066F937BDC0466D
:1013B000B8020020661A00209C1A002000000020BD
:1013C000CE1D0020ED01000068850000BC1A002041
:1013D000E8840000F90100008C1A00206C1A00203B
:1013E000F0B587B0FFF740F80023011E994200D006
:1013F0007BE002AB9C1D7F220123200001F0F8F866
:10140000011E48D104AE0123394A300001F0F0F842
:10141000011E40D10A2702ABFF18354A01233800CC
:1014200001F0E6F8011E36D10123314A05A801F08A
:10143000DFF8011E2FD10E2502ABED182C4A030058
:10144000280001F0D5F8002825D1FFF71FF8002863
:1014500021D13088FEF78EFF02AB00909889FEF70D
:1014600089FF009B0190002B12D0002810D03088FB
:101470003B88C01880B2FEF77DFF002808D002AB81
:1014800098892B88C01880B2FEF774FF002804D119
:101490001522184B1A70002327E0174E21783000D0
:1014A00005F06EF83A88002A04D012B20099300094
:1014B00004F07DFF300005F0CDF82A8880B20300EB
:1014C000002A12D0002810D1217812B2300005F085
:1014D00052F8019C300004F07DFF0028DBD0300082
:1014E00004F07DFF20700134F4E718B207B0F0BDBE
:1014F000FF7F0000691A0020F01D002073B5AD4D7C
:101500002A682900501C28601378582B00D101E26A
:1015100063D83E2B00D135E12FD8272B00D1DAE05C
:1015200016D8132B00D1D2E008D80E2B00D1BAE088
:101530000F2B00D0FCE1FFF7E1FFB7E0242B00D137
:10154000B7E0252B00D0F3E1FFF7D8FFC043ADE0B3
:101550003A2B00D113E108D8382B00D1DEE0392B2B
:1015600000D0E5E101F0F6FFA0E06A46941D3C2BB7
:1015700000D1C4E000D8E6E0F0E0442B00D179E1EE
:1015800015D8412B00D1F4E008D83F2B00D147E11A
:10159000402B00D0CCE100F007FC87E0422B00D1CB
:1015A000EAE0432B00D0C3E100F07CFE7EE0472B55
:1015B00000D192E106D8452B00D15EE1462B00D147
:1015C0006FE1B5E1562B00D15AE100D9A4E1482BD7
:1015D00000D0ADE101F09AFC68E0862B00D154E127
:1015E0002ED87F2B00D18EE114D87C2B00D199E12D
:1015F00006D8592B00D18FE15A2B00D18AE197E10F
:101600007D2B00D190E17E2B00D091E16A4B1B68CD
:101610009A898AE1822B00D17CE108D8802B00D105
:1016200075E1812B00D083E1644BDA887DE16A4665
:101630000632842B00D12DE100D924E101232AE1D7
:101640008C2B00D168E112D8892B00D125E107D875
:10165000872B00D11BE1882B00D069E1DD2217E147
:101660008A2B00D11BE18B2B00D153E160E18F2B42
:1016700000D155E107D88D2B00D14FE18E2B00D042
:1016800056E1032251E1AE2B04D0AF2B18D0AC2B86
:1016900000D04DE1937850781B0203436846033233
:1016A000C3800A605AE1FFF729FF40426B46D880A9
:1016B00054E1FFF723FF6A4643424341D3804DE1A3
:1016C000931C2B6053783E4A5B009A5A2DE12A60A6
:1016D00000F06EFAEAE700F06BFA6B46394A06331F
:1016E00011781880002900D038E1632802DD032337
:1016F000137033E1344A4000825A1A802EE100F020
:1017000057FA304B20801A78002A00D026E1143294
:10171000002800DA21E1FEF7D7FD27E100F048FAC2
:101720006B462A4906331880264A884201D1022195
:1017300011701278002A00D010E1002800DB0DE1C2
:10174000404218800AE1FEF78FFE002800D005E134
:10175000FEF79CFE002800D000E102E1FEF784FEC7
:10176000002800D0FAE0FEF791FE002800D0F5E056
:10177000FAE000F03BFB99E700F062FD96E701F02C
:1017800011FD93E7FEF770FE041E00D0E6E0694607
:101790002B688E1D1A78AF2A1AD15A1C2A605B78E2
:1017A000074A5B00985AFEF7E5FD037833802B6803
:1017B00001332DE0601A0020D41D0020BC1A002047
:1017C000C41B0020691A0020960900200080FFFF3A
:1017D000272A14D101332B60010003003C32300072
:1017E00000F006FF002800D0C2E00022B35E614A8C
:1017F0005B00985AFEF7BEFD037833800DE0AD2AFA
:1018000008D15A1C2A60597831805B780133D3188B
:101810002B6002E01722584B1A70FEF737FE9DE04E
:1018200068465378841D132B07D19378142B04D169
:101830000023033223802A6007E000F0B9F94E4B01
:1018400020801B78002B00D088E02388002B02D159
:1018500005F006F907E0012B08D105F001F9FA219E
:10186000890005F06BFD4004400C7FE0002314224A
:10187000238071E001F0B4FA18E7FFF7B1FD15E736
:1018800001F088FB12E7002305E0C82200E0D52222
:1018900052014AE0394B138060E0394A45E0394A49
:1018A00043E0FEF7E1FD011E58D16B469C1D20224E
:1018B0000300200000F09CFE00284FD1FEF7E6FD5B
:1018C00000284BD12088304AC3B2D35C2222DB07E8
:1018D00042D500B205F034FA48E0FEF7C5FD011E1E
:1018E0003CD16B469C1D20220300200000F080FEAE
:1018F000002833D1FEF7CAFD00282FD10023E05E77
:1019000005F016F932E0214B1B68DA890DE0204B17
:101910009A880AE0002208E0012206E0022204E0A0
:10192000042202E0052200E00B226B46DA8015E07B
:101930000A6013781C005B3CE2B2202A08D91A0026
:101940007032D2B2032A06D8903B124A9B009C58B0
:10195000A4B208600CE01722074B1A706B46DC88B3
:1019600006E0FFF77FF801E0FFF714FB2080F5E7C2
:1019700020B276BD96090020691A0020A02B000035
:10198000A02F0000A0370000CB7E0000D41D002057
:10199000BC1A0020EC7E000070B5FFF7AFFD2F4DA4
:1019A00004002B78002B54D12D4A13681878103876
:1019B000162850D805F0B8FC0C121F4F4F4F2A3193
:1019C0003F394F4F4F4F4F4F4F4F4F4F4F4F4600A5
:1019D00001331360FFF792FD604331E00133136080
:1019E000FFF78CFD011E02D101232B7031E020B2E4
:1019F00005F02EFD24E001331360FFF77FFD011E8B
:101A0000F2D020B205F00AFE8CB2CDE701331360AC
:101A1000FFF774FDA4B2844005E001331360FFF7C3
:101A20006DFDA4B20441A4B2BEE701331360FFF719
:101A300065FD204004E001331360FFF75FFD2043A4
:101A400084B2B1E701331360FFF758FD604080B204
:101A500002E0044800E0200000B270BD691A0020D6
:101A6000601A0020FFFF000010B5FFF795FF0E4B36
:101A700004001B78002B13D10C4A136819780E2927
:101A800007D00F290DD101331360FFF785FF24180C
:101A900004E001331360FFF77FFF241AA4B2EBE7E1
:101AA000034C20B210BDC046691A0020601A002005
:101AB000FFFF000010B5FFF7D7FF2C4B04001B7889
:101AC000002B4FD12A4B1A68511C196010781A3814
:101AD000092845D805F028FC2A0C2005180C0C1103
:101AE000333DFFF7C1FF24B2241A60424441E9E7C5
:101AF000FFF7BAFF24B2241A2FE0FFF7B5FF24B294
:101B0000012384420FDB0DE0FFF7AEFF22B2D40FBA
:101B1000C31790425C4110E0FFF7A6FF24B20123F7
:101B2000844200DC0023DCB2A4B2CBE7FFF79CFFC9
:101B300022B2D417C30F82425C41E4B2C2E7FFF77E
:101B400093FF00239C4202D0431E9841C3B29CB233
:101B5000B8E7FFF789FF044324B2601E8441B1E770
:101B60001A6000E0034C20B210BDC046691A002084
:101B7000601A0020FFFF000070B505000C00FFF7A1
:101B800099FF094B28801A78002A0AD1002C08D026
:101B900006490A68501C086012780A2A01D01722E8
:101BA0001A70187870BDC046691A0020601A0020AB
:101BB00013B5FEF759FC002188420DD16B469C1DE0
:101BC0002000FFF7D9FF002801D0002104E0FEF734
:101BD0005DFC0028F9D1218808B216BD37B5254C27
:101BE000200004F035FE200004F04CFD6B46188008
:101BF000200004F04AFD6B465880200004F048FDA8
:101C00006B46002498801C4D2B681A78AF2A0BD1A4
:101C100068465A1C2A605A786100405A1749520097
:101C2000023350522B6014E0272A18D101332B6065
:101C3000FFF7BEFF124B1A78002A19D182B2632A2D
:101C400001D903220DE06A466300D25A0D4B4000D1
:101C5000C252022C0CD02B681A780A2A03D0172201
:101C6000074B1A7004E0013301342B60032CCAD1F6
:101C700037BDC0466C1A0020601A0020C41B00202B
:101C8000691A00209609002073B501AC00212000DC
:101C9000FFF772FF011E54D16D462A4AAE1D13682C
:101CA00018780A2807D1013330001360FFF764FF6A
:101CB000002846D101E02388338024880023F55E84
:101CC00023B29D4203DA14221F4B1A7039E0A4B2EA
:101CD0009D421BD12800FEF7E5FE0400FEF7D4FE6E
:101CE00085422ED12278A2181178002909D000232C
:101CF0008B4202D1E418D218F6E7D05CE0540133ED
:101D0000F6E721701DE029700134A4B20022B35E11
:101D10009C4216DC20B2FEF7C5FE0500FEF7B4FEBD
:101D20008442F1D12A78AA1811780029EBD0002337
:101D30008B4202D1ED18D218F6E7D05CE85401339B
:101D4000F6E773BD601A0020691A002073B501AC74
:101D500001212000FFF710FF011E22D16B469D1DBF
:101D60002800FFF709FF021E1BD10E4B0026A15FC2
:101D700018688389994202DB013B238002E0002935
:101D800000DA2280C38900216A5E9A4201DB013BAE
:101D900002E0002A01DA00232B802A88218803F040
:101DA0003FFA73BDD41D002037B5FEF75DFB00245C
:101DB000A04217D16B469D1D21002800FFF7DCFED5
:101DC000A04201D000240DE0FEF760FB0028F9D10D
:101DD0002888FEF7CFFA002801D0047802E0152207
:101DE000014B1A7020B23EBD691A002073B5FEF790
:101DF0003BFB0024A04229D101AE01213000FFF7B6
:101E0000BBFEA04201D0002420E06B469D1D2100B6
:101E10002800FFF7B1FE0028F5D1FEF737FB0028B8
:101E2000F1D131880CB2002CEDDB2A8813B2002BE3
:101E3000E9DB074800688589AC42E4DAC489A3423B
:101E4000E1DA92B289B203F0FDF984B220B276BD34
:101E5000D41D002073B56B469C1C01212000FFF7A8
:101E60008BFE6B4601AD9E1D00280AD10121280082
:101E7000FFF782FE011E04D13000FFF77DFE00282F
:101E800005D00022A35E002B01DA0023238000226C
:101E9000AB5E002B01DA00232B800E480021625E2E
:101EA00083889A4201DB013B2380C38800216A5E5C
:101EB0009A4201DB013B2B803388022B01D901239D
:101EC000338000216A5E33880021615E02F01BFCD2
:101ED00073BDC046BC1A0020F0B50E2489B002AB19
:101EE000E41801212000FFF747FE122502ABED1890
:101EF00006AE07AF002818D101212800FFF73CFEED
:101F0000002812D101213000FFF736FE00280CD145
:101F100001213800FFF730FE011E06D1162002AB6A
:101F2000C018FFF729FE002805D00022A35E002B71
:101F300001DA002323800022AB5E002B01DA0023AC
:101F40002B800023F25E0292002A01DA0023238014
:101F50000023FA5E0392002A01DA00232B801A483C
:101F60000023E15E82880300914201DB511E218043
:101F7000DB880020295E994201DB591E29800299E5
:101F80008A4201DC013A3280039A934201DC013B30
:101F90003B80162302AA9B181A88022A01D9012223
:101FA0001A800022B35E00216A5E0020215E1620A6
:101FB00002AC0019008801900024385F00900248AC
:101FC00002F07BFD09B0F0BDBC1A0020F0B50E2474
:101FD00087B06C44012120001226FFF7CDFD04AD2F
:101FE0006E4405AF002817D101212800FFF7C4FD7A
:101FF000002811D101213000FFF7BEFD00280BD1D0
:1020000001213800FFF7B8FD011E05D116206844F4
:10201000FFF7B2FD002805D00022A35E002B01DAF5
:10202000002323800022AB5E002B01DA00232B80EB
:10203000154B0020215E9A88914201DB013A2280F3
:10204000DB8800216A5E9A4201DB013B2B803B88E2
:10205000022B01D901233B800022B35E002B01DA61
:10206000012333800022B35E00216A5E0020215EDE
:1020700016206844007840B20190388800900248E9
:1020800002F039FA07B0F0BDBC1A0020F0B58BB0F1
:10209000012107A8FFF770FD002862D1162502ABC9
:1020A000ED1801212800FFF767FD002859D108AE7F
:1020B00001213000FFF760FD002852D11A2702AB42
:1020C000FF1801213800FFF757FD002849D109AC5E
:1020D00001212000FFF750FD011E42D11E2302AA5C
:1020E0009B181800FFF748FD00283AD102AB9B8AE5
:1020F00004936B461021595E002916DB2B8805934B
:102100006B4614229A5E002A0FDB33881EB29C466F
:10211000B1420ADC388803B29A4206DC124DAF881D
:10212000BE4202DAED88AB4203DB14220F4B1A7079
:1021300017E02388022B01D9012323806346049DE5
:1021400001335B1B02ADAD7F01306DB20295248877
:102150001BB20194059C001B00B20090024802F0E3
:10216000B8FC0BB0F0BDC046BC1A0020691A0020B4
:102170000E23F0B589B002AA9B1801211800FFF7C1
:10218000FBFC002855D106AD01212800FFF7F4FC27
:1021900000284ED1122602ABF61801213000FFF7BD
:1021A000EBFC002845D107AF01213800FFF7E4FC24
:1021B000011E3ED1162402ABE4182000FFF7DCFC20
:1021C000002836D102ABDB8902936B460821595EA9
:1021D000002916DB2B881AB29C46002A11DB3388B3
:1021E00003936B469B891EB2B1420ADC388807B262
:1021F000BA4206DC104DAB889E4202DAED88AF424F
:1022000003DB14220D4B1A7013E02588032D01D92E
:10221000002525802478039B01946446029D0130AB
:102220000133001B00B25B1B00901BB2024802F09E
:102230006FFA09B0F0BDC046BC1A0020691A002030
:1022400073B5FEF711F90024A04226D101AD01219A
:102250002800FFF791FCA0421AD16B469E1D210079
:102260003000FFF789FCA04212D1FEF70FF90028D9
:102270000ED10023E95E00290ADB0023F25E002A6A
:1022800006DB07488388994202DAC3889A4201DB59
:10229000002402E002F03FF9040020B276BDC046FF
:1022A000BC1A0020F0B587B0FEF7DEF8030000206E
:1022B00083424DD10E246C4401212000FFF75CFCC9
:1022C000002824D104AD01212800FFF755FC002887
:1022D0001DD112266E4401213000FFF74DFC00286D
:1022E00015D105AF01213800FFF746FC011E0ED1C4
:1022F00016236B441800FFF73FFC002807D1FEF7B8
:10230000C5F8002803D10023E15E002901DA00208E
:102310001EE00023EA5E002AF9DB0F488588A94207
:10232000F5DAC488A242F2DA0023FF5E002FEEDB6A
:102330000023F35E002BEADB5E18B542E7DDBD1833
:10234000AC42E4DD6C46A47D0097019402F0A4F851
:1023500000B207B0F0BDC046BC1A0020F0B50026A0
:10236000534C85B02068012103681B6B9847039488
:102370000121504C0191236827001A78AD2A14D10D
:102380009A1C22605D78002D08D03B68013D5A1CE4
:102390003A601878FDF760FFEDB2F4E723681A7829
:1023A0000A2A7AD10133236001952368424D5A1CD1
:1023B00022601A78272A2AD0AF2A64D19A1C5F7823
:1023C00022609A780A2A08D103332360FFF772FB50
:1023D0002B780290002B63D10126019B002B07D0A4
:1023E00038004130C0B2FDF737FF3A20FDF734FF27
:1023F000FEF73AF92B78002B06D0022B56D1002E8F
:1024000054D0002302982B707F002C4B35E0FFF74F
:10241000CFFB2B780700002B42D1632801DD03336B
:1024200032E023681A780A2A08D101332360FFF7C3
:1024300041FB2B780290002B32D10126019B002B0F
:102440000CD000211E48FEF749F800223800110088
:10245000FEF762F800211B48FEF740F8FEF704F98A
:10246000154B1A78002A06D0022A19D1002E17D04F
:10247000002202981A70144B7F00F85223681A78D1
:102480000C2A03D10CE017232B7009E0B02A07D0E7
:102490000A2A02D1013323606AE71722064B1A7019
:1024A000039B0021186803681B6B984705B0F0BDBB
:1024B000D41D0020601A0020691A0020C41B0020CF
:1024C000057B0000087B000096090020144A70B5C7
:1024D0001368591C116059781D2903D01222114B21
:1024E0001A701CE0991C1C7811609978AD290DD1E7
:1024F000DD25D91C0C481160DB7800686D01081AD5
:1025000001334019CB1880B2136005E0FFF7D2FA0F
:10251000044B1B78002B02D1044B6400E05270BDC9
:10252000601A0020691A002004000020C41B00204B
:1025300070B5FFF73DFB1D4B05001A781E00002A01
:1025400032D180B2632802D9032333702CE0184CB7
:10255000226812781D2A13D012221A7024E0FFF785
:10256000A9FA3378002B1FD12BB2642BECD0114A7F
:102570005B009852236801351B78ADB20A2B13D14A
:1025800023685A1C22605A78AD2AE8D10A499A1C5D
:102590000868DD2122609B78101A49010133401838
:1025A000D31880B22360DFE770BDC046691A0020EF
:1025B000601A0020960900200400002010B50A4A85
:1025C00013681978272906D0AF2909D10133136080
:1025D000FFF77CFF07E001331360FFF7A9FF02E07C
:1025E0000E22024B1A7010BD601A0020691A0020DA
:1025F000F8B5070015001C000E00FFF75BFA0C4B46
:1026000038801A78002A05D1B04201DBA84201DDEA
:10261000142209E0002C08D006490A68501C086002
:1026200012780A2A01D017221A701878F8BDC0460D
:10263000691A0020601A00200021F0B53B4E85B0D9
:102640003B4F02AB03ADDE803B6829801B78040062
:10265000B02B07D1374B384E1B6833600022AB5E7E
:10266000019320E00C2BF5D00B0032002800FFF77F
:10267000BFFF031E58D13A6811780A29EAD1013206
:1026800002A83A6006300022A95E3200FFF7B0FFD0
:10269000002849D1DEE73800FEF7F6F9019B9842A1
:1026A0002FDA7D19356037683D78002D3CD0F2E790
:1026B000224B186803681B6C984783B2002B25D106
:1026C0003068FEF7E1F902AB063300229B5E8342DD
:1026D0002ADB22000021FDF71FFF21002020FDF74B
:1026E0001BFE33682100D81CFEF7A6FA144B1B789A
:1026F000002B19D12000FDF72BFE32681378D31878
:10270000336033681B78002BD2D10DE01BB20D4A29
:10271000032B01D01B2B05D11921094B1970002364
:10272000137001E01070CBE705B0F0BDFF7F000033
:10273000601A002004000020981A0020D41D0020F8
:10274000691A0020641A0020F7B56B46002107259E
:10275000344F9E1D01AC3B68218035801B78B02B27
:1027600001D1248842E00C2BFBD00B002A00200072
:10277000FFF73EFF031E54D121883A68318010785C
:102780000A28EED101323A6009B22A003000FFF780
:102790002FFF002845D1E4E7E7B23900224801F0D5
:1027A00010FE39000500204801F043FE00281BD030
:1027B0001E480021FDF792FE0020FDF7C9FD2B7891
:1027C0001B4F002B17D100251A4829003D70FDF73B
:1027D00085FE20B22A002900FDF79EFE2800FDF7A5
:1027E000B7FD2800FDF7B4FD0134A4B20022B35EAA
:1027F0009C42D1DD15E02800FEF746F900221100C9
:10280000FDF78AFE2020FDF727FDE81C0021FEF7DA
:1028100013FA38780028D6D1FDF79AFD2B78ED18F9
:10282000CDE7F7BD601A00208C1A00200B7B00005A
:10283000691A00200F7B000013B56B4600219C1D18
:102840000A4B21801B681B78B02B06D1084B2178DE
:102850001A68084801F0D3FD06E00B0007222000AB
:10286000FFF7C6FE0028F1D013BDC046601A002055
:10287000040000208C1A0020002337B501AC190099
:1028800007222000FFF7B4FE011E1FD16B46104A3D
:102890009D1D23882B80136818780A2801D024787E
:1028A00009E00133136028000B000722FFF7A0FEA8
:1028B00000280BD1F3E70022AB5E9C4206DC21002E
:1028C0000448013401F086FDE4B2F4E737BDC046A8
:1028D000601A00208C1A0020F0B5334E85B03368A2
:1028E00003AC1B78B02B01D00C2B05D100230722A1
:1028F000238002ABDA8021E00023072219002000A8
:10290000FFF776FE011E4CD1336802A81A78851DA8
:102910000A2A07D1013328003360FFF72DF9002878
:102920003FD101E023882B800023E25E00216B5E13
:102930009A4203DD14221D4B1A7032E01C4D24789C
:102940002B68019302AB063300229B5E9C4226DC7F
:10295000184F2100380001F034FD0022012106004B
:1029600020B2FDF7D9FD00211348FDF7B7FD210086
:10297000380001F05EFD011E03D11048FDF7AEFDE9
:1029800007E02E603378002B03D0F01C0021FEF707
:1029900053F900200134FDF7DBFCE4B2D2E7019BE0
:1029A0002B6005B0F0BDC046601A0020691A0020F7
:1029B000981A00208C1A0020F87A0000157B00007D
:1029C00037B56B4600219C1D114B21801B681B787D
:1029D000B02B0CD12488002C13D10E4D286802F0A6
:1029E0008BF922002100286802F01AFC0EE00C2B63
:1029F000F0D00B0001222000FFF7FAFD002805D1DE
:102A0000E8E7012C02D1044801F05CFE37BDC04666
:102A1000601A0020D41D0020BC1A002013B56B469C
:102A20009C1D0023054A19002000FFF7E1FD002846
:102A300003D10023E05E04F02BF813BDFF7F0000FC
:102A400013B56B469C1D0023012219002000FFF7DF
:102A5000CFFD002803D12178014801F042FE13BDCB
:102A6000BC1A002037B500216B4601AD9C1D082221
:102A70000B0028002180FFF7BBFD011E15D10B4A7A
:102A8000136818780A2807D0094B22881868298803
:102A900003685B6C984708E00133136020000B006B
:102AA0000822FFF7A5FD0028EED037BD601A0020F0
:102AB000D41D002013B56B469C1D00230422190071
:102AC0002000FFF795FD002805D1034B21881868E9
:102AD00003689B6C984713BDD41D002037B501AD2A
:102AE0000021012320222800FFF782FD011E19D1B9
:102AF0006B469C1D2000FFF73FF8002812D10023F1
:102B0000E15E28884B1E9941074AC3B2D35CC9B223
:102B10002180DB0703D42222044B1A7002E000B2AA
:102B200004F0F8F837BDC046CB7E0000691A0020DB
:102B300037B56B469D1DF5235B002B806B469C1CB7
:102B40000021012320222000FFF752FD011E1DD18C
:102B500003000F4A01A8FFF74BFD011E16D10D4AD5
:102B6000136818780A2808D023780B4AD35C9B078F
:102B70000CD42222094B1A7008E00133136028009C
:102B80000B00074AFFF734FD0028EDD037BDC046E3
:102B9000FF0F0000601A0020CB7E0000691A0020A1
:102BA000FF7F000073B50123002120226846FFF754
:102BB0001FFD011E32D16B469E1C202201233000D6
:102BC000FFF716FD011E29D1012301AC1A002000D8
:102BD000FFF70EFD011E21D16B469D1DFF22030054
:102BE0002800FFF705FD002818D16B4618880C4A0D
:102BF000C3B2D15C0123194204D03188CEB2925DB8
:102C00001A4203D12222074B1A7007E00022AB5E62
:102C100009B20022A25E00B204F0A4F873BDC0465F
:102C2000CB7E0000691A002073B56B469C1D002303
:102C300006002380FDF718FC011E1ED101AD2800FF
:102C4000FEF79AFF011E18D10C4A136818780A285B
:102C50000AD0FDF71BFC00280FD121780023E85E85
:102C60003200FDF7A1FC08E00133136020000B00E7
:102C70000422FFF7BDFC0028EBD073BD601A0020D2
:102C800073B56B469C1D002306002380FDF7ECFB0B
:102C9000011E1ED101AD2800FEF76EFF011E18D1E6
:102CA0000C4A136818780A280AD0FDF7EFFB0028B1
:102CB0000FD121780023E85E3200FDF7ABFC08E07D
:102CC0000133136020000B001022FFF791FC002855
:102CD000EBD073BD601A0020F0B587B00190FDF70E
:102CE000C3FB011E71D13A4D2C682378AF2B0CD158
:102CF000631C2B606378374A5B00985AFDF73AFBF8
:102D00002B680278441C01331EE0272B14D10134B8
:102D100004AB2C609C1D632203002000FFF768FCBD
:102D2000002852D10022A35E2B4A5B00985AFDF77F
:102D300021FB0278441C0DE0AD2B07D1631C2B60F6
:102D4000637802349AB2E3182B6003E01722234B16
:102D50001A703AE004AB9E1C6B4601251C4905AF76
:102D60001A810B6835803A8018780A2807D0FDF759
:102D70008DFB002829D104AB5D88013D15E00133AE
:102D80000B6012B22B0029003000FFF731FC031E4C
:102D90001BD132880299AA1A521812B2290038009F
:102DA000FFF726FC0028E2D00FE00022B35E05AA60
:102DB0000021525E013BADB29B189D4205DA605D79
:102DC0000199FDF7A9FA0135EFE707B0F0BDC0465C
:102DD000601A0020C41B002096090020691A0020F8
:102DE000F0B587B0FDF740FB0023011E994200D0EB
:102DF00083E002A801337F220630FFF7F9FB011EB2
:102E000047D104AE01233E4A3000FFF7F1FB011E1B
:102E10003FD10A2502ABED18394A01232800FFF7FC
:102E2000E7FB011E35D105AF0123354A3800FFF716
:102E3000DFFB011E2DD10E2402ABE418304A030043
:102E40002000FFF7D5FB002823D1FDF71FFB00284A
:102E50001FD13888FDF78EFA00903088FDF78AFA86
:102E6000009B0190002B11D000280FD038882388B8
:102E7000C01880B2FDF77EFA002807D030882B8872
:102E8000C01880B2FDF776FA002804D115221D4B38
:102E90001A70002331E01C4E02AB9979300003F028
:102EA0006FFB0022AB5E3500002B10D0019E0A2282
:102EB00002A9019B5218F31A0021525E9BB2934261
:102EC00005DA3178280003F08FFA0136EFE70022A7
:102ED000A35E002B0DD0009E009B0021625EF31AC2
:102EE0009BB2934205DA3178280003F07DFA01366F
:102EF000F2E7280003F0AEFB83B218B207B0F0BDD2
:102F0000FF7F0000691A0020F01D0020F7B56B4616
:102F100001249D1D2C80FDF7A7FA011E01D0002081
:102F200033E0230020226846FFF762FB011EF6D142
:102F30006B469E1C202223003000FFF759FB011E28
:102F4000EDD101AF030022003800FFF751FB011E55
:102F5000E5D10F4A136818780A280CD0FDF796FAC5
:102F60000028DCD168462B783A7831780078FEF773
:102F70002DF880B209E00133136028000B00220015
:102F8000FFF736FB0028E9D0C9E700B2FEBDC04616
:102F9000601A0020F7B56B4601249D1D2C80FDF7BB
:102FA00063FA011E01D0002041E023002022684680
:102FB000FFF71EFB011EF6D16B469E1C220023006C
:102FC0003000FFF715FB011EEDD101AF0300194AD8
:102FD0003800FFF70DFB031EE5D117490A6810788A
:102FE0000A2804D0FDF752FA0028DCD109E00132AA
:102FF0000A6028000F4A2100FFF7FAFA0028F1D0F2
:10300000D1E70023FA5EFA239B005A430023F15EC6
:103010006B460020185E03F059FD0023E95E04F0C2
:103020008DF9044B984201DD0120404280B200B28C
:10303000FEBDC046FF7F0000601A0020F0B50126EB
:103040008BB000236A4606AC08AF310020003E80FA
:103050005384FEF791FD002800D09AE01A256D44B4
:1030600031002800FEF788FD002800D091E02623DB
:103070006B4431001800FEF77FFD002800D088E087
:10308000310009A8FEF778FD002800D081E031006A
:1030900007A8FEF771FD011E00D07AE01E206844EB
:1030A000FEF76AFD011E74D13B4E33681A780A2A76
:1030B00006D1013338003360FEF75EFD002868D189
:1030C00033681A780A2A09D06B46D88CFDF752F972
:1030D000031E0FD11522314B1A705AE001333360B1
:1030E00022200023012219006844FFF781FA0028FA
:1030F0004FD1E9E70021625E002A01DA0022228036
:1031000000216A5E002A01DA00222A80244A002671
:10311000A05F9188884201DB01392180D28800209C
:10312000295E914201DB013A2A8009AA0020115E42
:10313000002901DA0021118007AA0020115E002970
:1031400001DA012111801E226A440020115E00294B
:1031500001DA0121118000217A5E002A01DA0122C0
:103160003A8000216A5E0020215E68462224001910
:1031700000780490388803901E20684400880290EC
:1031800007A80088019009A800880090044801F071
:1031900074FC0BB0F0BDC046601A0020691A002014
:1031A000BC1A0020012373B501AD2B80FDF75CF93B
:1031B000011E01D000214EE0284C20680378AD2B81
:1031C00006D1431C23604378861C9AB2F3180DE0A5
:1031D000AF2B0DD1431C23604378214A5B00985AE2
:1031E000FDF7C8F823680278461C013323601AE013
:1031F000272B14D16B4601309E1D20600B006322EB
:103200003000FFF7F5F90028D4D10022B35E154A4B
:103210005B00985AFDF7AEF80278461C03E01722CF
:10322000114B1A7017E0236819780A2908D0002377
:10323000E85E301801380478FDF728F921000AE02B
:103240000133236012B2002301212800FFF7D0F9D7
:103250000028ECD0AEE708B276BDC046601A002068
:10326000C41B002096090020691A002007B501231D
:103270008022102101A8FFF7BBF9031E05D1684683
:103280001E220A210630FFF7B3F907BD0123F0B56E
:103290000A258FB05B4204AF3B8002ABED180023E0
:1032A0004E4C2B8022680126511E09789A2901D1A3
:1032B0001E003B80137802AA901DB02B02D1002380
:1032C000038008E0002307221900FFF791F9002886
:1032D00001D000257FE0002E2DD025682B780A2B09
:1032E00026D16B1C23606B78AD2B18D1AB1C2360EF
:1032F000AA780193131C202A00D92023AD2005A908
:10330000DAB208704B709F3802ABC018E91C04F0A9
:10331000A9FBAB78019A0133D31823601DE0002389
:103320002F4A19003800FFF763F9002815D0D0E7BD
:1033300000233B8011E0236831001A780A2A0DD15E
:103340000133236028003300093AFFF751F9051EC5
:10335000BFD11722234B1A703DE0012102ABD88860
:10336000FDF7F8FD051EB4D13F88002F03D11E4B99
:103370001A681E4B18E03FB27B1C0BD105A8FDF765
:10338000A3FB002803D11023164A137023E0174B28
:1033900018600AE03800FDF785FB0190FDF774FB2B
:1033A0008742F0D1114B019A1A600E4B01251B7810
:1033B000002B10D1002E09D10B4B22681B689A42BA
:1033C00009D3802149015B189A4204D20125074B99
:1033D0001B680333236028000FB0F0BD601A002083
:1033E000FF7F0000691A002004000020981A0020C6
:1033F00013B56B469C1D2022012300212000FFF7FE
:10340000F7F8002812D1FEF755FB094A010013789E
:10341000002B0BD12388074CD8B2205CC00702D404
:103420002223137002E018B203F056FC13BDC0460D
:10343000691A0020CB7E000070B505000C00FEF775
:1034400039FB094B28601A78002A0AD1002C08D0D1
:1034500006490A68501C086012780A2A01D017220F
:103460001A70187870BDC046691A0020601A0020D2
:103470000223F0B585B002AA13800023971C040034
:103480003B80FCF7F1FF011E5FD103A8FFF7D4FFDB
:10349000011E5AD12E4D2B681A780A2A09D0FCF742
:1034A000F5FF002851D102AB00229A5E01250A23C4
:1034B00016E001332B600422030002A8FFF798F8FE
:1034C000031E42D12A6811780A29E8D101322A6004
:1034D000103906223800FFF78BF8002835D1DEE7D7
:1034E000904203DA01305D4380B2F9E7039E290080
:1034F000300003F0ADFF0190002805D1002E03DA63
:1035000021002D20FCF708FF0023F95E6B46220006
:103510000420185EFDF700F802AB00229B5E002B32
:1035200013D021002E20FCF7F7FE02AB290030005B
:103530001F8804F073F8CB17C8187F423FB2584079
:1035400000B222003900FCF7E7FF05B0F0BDC0462D
:10355000601A002010B586B0FCF786FF0023984261
:103560003AD1012101A8FFF767FF002821D10121ED
:1035700002A8FFF761FF00281BD1012103A8FFF774
:103580005BFF002815D1012104A8FFF755FF011E9C
:103590000FD105A8FFF750FF00280AD1FCF776FFEE
:1035A000002806D10299039A914204DB14220C4BA5
:1035B0001A70002310E0049C059B9C42F6DA0198E7
:1035C0008142F3DC8242F1DB1B1B401A5843511A43
:1035D00003F03EFF0419A3B218B206B010BDC046F6
:1035E000691A0020F7B5FEF765FA1A4B04001A783D
:1035F000002A2ED11432002805DB174D2A681278D4
:103600000A2A02D017221A7023E0144A8018144A9A
:1036100080B2904214D81522F5E72B6800210133BF
:103620002B606B469F1D3800FEF7A6FA002810D1CC
:103630003B88013433702B68A4B21B780A2B08D165
:10364000A4B22000FCF796FE061EE6D11523014A1F
:103650001370F7BD691A0020601A002060D0FFFFC8
:10366000FF0700000023F0B5050085B0019100932D
:103670004E4C236827001A780C2A00D18DE0B02A1E
:1036800000D18AE0342A3ED006D81B2A1AD0332A29
:1036900022D0092A49D183E0362A3AD02DD3372ABD
:1036A0003DD0AD2A41D19A1C22605E78002E4CD0CC
:1036B0003B6829005A1C3A601878013EFCF72CFE42
:1036C000F6B2F3E701332360FEF7F4F9384B0090CC
:1036D0001B78002B39D066E00133236002AB9E1DBE
:1036E0000023FF2219003000FEF782FF00282CD1B2
:1036F00030782900FCF710FE27E001332800236012
:10370000FFF792FA21E0013328002360FFF7B8FAAF
:103710001BE0013328002360FFF7AAFE15E0013308
:1037200028002360FFF7D8FA0FE0FEF7C3F902ABD9
:10373000D8801F4B1B78002B01D0002031E06B4656
:103740002A000021595EFCF7E7FE194B1A78190090
:10375000002A25D1019B002B03D023681B780A2B5C
:1037600021D022681378092B1AD018000A380128B2
:103770000AD8531C236053780C2B14D0B02B12D0D2
:10378000092B00D074E70EE00C2B00D170E7B02BB2
:1037900000D16DE717230B7002E0019B002B02D1D3
:1037A0002800FCF7D5FD05B0F0BDC046601A00202A
:1037B000691A002073B501AD01230E4A0E49280095
:1037C000FEF716FF002814D16B469E1D094A0123FF
:1037D00009493000FEF70CFF041E0AD10023E95E00
:1037E00006480023F25E00F051FE21000220FFF7A0
:1037F00039FF73BDFF7F00000080FFFFBC1A00206F
:1038000073B501AD0021012304222800FEF7F0FE6C
:10381000011E11D16B469E1D084A01233000FEF7A0
:10382000E7FE041E08D129780548328800F044FFDD
:1038300021000520FFF716FF73BDC0468813000066
:10384000BC1A002070B5104D28680378AD2B07D145
:10385000FDF73AF9041E11D110220C4B1A7011E039
:10386000FEF728F9094B06001B78002B0AD1FDF75B
:1038700019F90400FDF708F98642EDD1044B1C60EC
:1038800003342C6070BDC046601A0020691A002005
:10389000981A0020F8B5184D28680378AD2B05D18B
:1038A000FDF712F9041E0FD1102212E0FEF702F903
:1038B000124B06001B78002B1DD1FDF7F3F8040016
:1038C000FDF7E2F88642EFD10D480378082B03D9C3
:1038D00006220A4B1A700EE00A4A0B4917689E002E
:1038E00077509E1C01330670DBB228689B00146081
:1038F000033458502C60F8BD601A0020691A00206B
:1039000094090020981A00201C1B0020F8B52B4CAD
:103910002B4D23685A1C22601A78AF2A01D00C2341
:103920002EE05F78FEF7D2FD2B78002B44D1236880
:103930001A78042A0AD101332360FEF7BBF8236802
:1039400006001A780120052A10D101E00D2317E0A6
:1039500001332360FEF7AEF8002805DA194B1B1A75
:10396000B34208DD02230BE0002804D0164B02B25C
:103970009B1AB342F6DB154B1B78142B02D9082394
:103980002B7019E01249134A09689D00A95021685B
:103990005D1C9C1CEDB2E4B2A400AD00A950A65081
:1039A000DC1CE4B200B2A400A050581D0433074947
:1039B000DBB29B0008709F50F8BDC046601A002023
:1039C000691A00200180FFFFFF7F0000681A0020B5
:1039D000981A0020681D002010B5FEF76BF80C4BFC
:1039E0001A78002A02D00F221A7010E000280ED197
:1039F000084C2068FDF79EF82200002806D11368C5
:103A00001978B02903D001331360F8E7206010BDA6
:103A1000691A0020601A0020F8B500231727A54C6A
:103A20002370A54D2B681B78B02B00D150E1A34E1D
:103A3000306803681B6C984700280AD0A04B032805
:103A400001D01B2804D11922227000221A703FE1F4
:103A500018702A68531C2B6013784E2B00D1F1E0AC
:103A60005DD8292B00D1DDE02DD8072B00D1B0E0A7
:103A700015D8022B00D1A6E008D8002B00D19FE07A
:103A8000012B00D00DE1FFF705FF1CE1032B00D156
:103A90009CE0062B00D004E1FDF7F0FB13E10C2BBA
:103AA00000D110E106D8082B00D198E0092B00D1F5
:103AB00092E0F6E0272B00D1A0E000D992E00D2B98
:103AC00000D189E0EDE0302B00D18EE012D82C2B14
:103AD00000D19EE006D82A2B00D195E02B2B00D1F7
:103AE00092E0DEE02E2B00D182E000D983E0FEF7E9
:103AF00067FFE8E04A2B00D19BE008D8312B00D1CA
:103B000093E0492B00D0CCE0FEF79AFFDBE04C2B92
:103B100000D194E000D98FE0FEF7DEF9D3E09E2BD0
:103B20005AD025D8552B00D179E013D8512B00D18C
:103B30008EE008D84F2B00D187E0502B00D0B0E0AA
:103B4000FEF716FBBFE0532B66D000D8AEE0FEF7C1
:103B5000EFFFB8E09A2B00D197E003D8942B00D365
:103B6000B1E09EE09C2B79D000D891E0002089E064
:103B7000A52B70D00FD8A12B00D186E005D89F2BA4
:103B80003FD00220A02B7DD08BE0A32B74D076D821
:103B9000FEF7A2FE97E0AA2B08D8A82B7ED2A62B70
:103BA00079D0A72B7DD1FEF719F88CE0AD2B04D08E
:103BB000AF2B76D1FEF78AFC85E0FDF733FB82E080
:103BC000FFF740FE7FE0FDF737FB7CE0FFF79EFE4E
:103BD00079E0FFF701FF76E0FDF7A2FB73E0FDF768
:103BE000ABFB70E0FEF71AFF6DE0FEF7AFF86AE09E
:103BF000FEF738FF67E0FEF75DFF64E0FEF798FC34
:103C000061E0FEF7DBFC5EE000210800FFF72AFD23
:103C100059E0FEF7A3FB56E0FEF760FF53E0FEF726
:103C2000C1FF50E0FFF7DEFC4DE0306801F0A2F884
:103C300049E0FEF70FF946E0FEF7C8F943E0FEF76A
:103C400025FA40E0FFF7FAF93DE0FFF7B3FD3AE06F
:103C5000FFF7D6FD37E0FDF7A3FA34E03068002126
:103C600003681B6B98470020FEF7E6FC30680121D3
:103C700003681B6B984726E0FEF766FD23E0FEF71E
:103C8000FBFD20E0FDF79CF81DE0FFF7FFFA1AE0CE
:103C9000FEF7D2FD17E0FFF7E9FA14E013232370D3
:103CA0001BE02A6013785B3B202B0BD8FFF7A0FBAF
:103CB00009E0C046691A0020601A0020D41D0020C7
:103CC000641A002027702378002B00D1A9E604E0B5
:103CD000034B18680378C01800E00020F8BDC04608
:103CE000981A002000230D4A10B513700C4A0D4C91
:103CF000137098420FD10C4B1B68236023681A780D
:103D0000002A0AD0094A03331360FFF785FE084BE7
:103D10001B78002B01D12060F0E710BD9409002032
:103D2000681A0020981A002004000020601A002061
:103D3000691A002070B5274B274A1878591C9A3801
:103D40001160112838D803F0EFFA093737373737C1
:103D5000370C37373737373731213441FFF796FA89
:103D600022E0FFF793FA0124002830D01B4D0021F8
:103D7000286803681B6B9847194B1868FFF7B2FF58
:103D80002868210003681B6B984720E0134C002132
:103D9000206803681B6B98470020FFF7A3FF20688B
:103DA000012103681B6B9847012410E0FDF738F8E8
:103DB000FAE7FDF769FFF7E7084C13602068002178
:103DC00003681B6B9847FFF727FEE8E700242000F5
:103DD00070BDC04614090020601A0020D41D0020C8
:103DE000981A0020F7B50020FCF7EAFFF020000148
:103DF00003F098FC00264F4D28604F4800F092FBDE
:103E00004E4C4F482B68182220605021009380238D
:103E100000F07FFFFEF7D4FD2068002103681B6BD4
:103E2000984700214748FCF759FB0020FCF790FA1F
:103E300000214548FCF752FB00214448FCF74EFBAB
:103E40000020FCF785FA424D30002E70FDF7E2F8B5
:103E50002068012103681B6B98473100052002F0A0
:103E60003BFF31000B2002F037FF022239490520C9
:103E700002F05AFD38480222310002F0A9FC0B2062
:103E800002F05EFFB04204D10100FDF763F8061EA8
:103E900042D02068012103681B6B984720680368A3
:103EA000DB6D98470028F9D023689E693078002898
:103EB00002D1FCF74DFAF1E7300003F097FD7F28BF
:103EC00005D91A2300202B70FCF742FA1BE0234F80
:103ED0003100380003F082FD3800FCF7B1FA002011
:103EE000FCF736FAFCF776FC2B78002B01D001208A
:103EF0000AE01B4B1A78AC2A09D11870FCF754FE63
:103F00002B78002BCAD00020FDF784F8C6E7FFF716
:103F100011FF0028C2D0F6E72068310003681B6B50
:103F200098473000FFF7DEFE3000FCF711FA2E70E4
:103F3000AFE7C046D01D0020BC1A0020D41D0020D1
:103F40009C1A00201C7B0000327B0000447B000098
:103F5000691A0020110200006C1A0020441B002086
:103F60001409002010B5FFF73DFF10BDE12110B589
:103F70004902044802F0E1FF002002F0D9FD03F0FD
:103F80006BF910BDC41E0020034B10B51B68002B3D
:103F900000D0984710BDC046381F0020034B10B515
:103FA0001B68181E00D0984710BDC046341F002063
:103FB00010B504002078002803D0FFF7E5FF013496
:103FC000F8E710BD70B5041E092C16D9632809D96D
:103FD000642103F0B3F905003030FFF7D5FF64200A
:103FE0006843241A0A21200003F0A8F905003030A4
:103FF000FFF7CAFF0A206843241A20003030FFF779
:10400000C3FF70BD70B50D4C06000D1E236807D0B0
:10401000002B0BD10A48FFF7CBFF0123236005E0FB
:10402000002B03D00748FFF7C3FF25603000FFF7E0
:10403000ABFF054A13680133136070BDDC1D00201F
:10404000587F00005D7F0000BC02002070B50500B5
:104050000C00884203D10A48FFF7AAFF0EE0094886
:10406000FFF7A6FF681CFFF7ADFF3B20FFF78CFFB3
:10407000601CFFF7A7FF7220FFF786FF70BDC046E8
:10408000627F0000667F000070B505000C000848E4
:10409000FFF78EFF681CFFF795FF3B20FFF774FFCB
:1040A000601CFFF78FFF4820FFF76EFF70BDC04612
:1040B000667F0000014B18607047C046341F002027
:1040C000014B18607047C046381F002010B5002112
:1040D000FFF798FF10BD000070B51F4E0400336855
:1040E000834237D025051D482D0FFFF761FF6B1E5A
:1040F000072B06D81A48FFF75BFF28002F30FFF781
:1041000043FF25042D0F6B1E072B06D81548FFF71C
:104110004FFF28002F30FFF737FFA30702D51248C3
:10412000FFF746FFE30702D50E48FFF741FF63079D
:1041300002D50E48FFF73CFF230702D50C48FFF7D6
:1041400037FFE30602D50B48FFF732FF6D20FFF77C
:104150001BFF346070BDC046C4020020697F0000B0
:104160006D7F0000707F0000737F0000767F00008D
:10417000797F00007C7F0000064B10B51C68064A62
:10418000844202D114688C4203D018601160FFF79A
:104190007BFF10BDC0020020BC02002010B50B4BFD
:1041A0000B4C19682068FFF751FF00212068FFF7CA
:1041B0006BFF0848FFF7FCFE00210800FFF746FFF1
:1041C000054B20681968FFF75FFF10BDC80200208B
:1041D000C0020020837F0000BC02002010B50C4B01
:1041E0000C4C18682168FFF731FF00212068FFF7A9
:1041F0004BFF0948FFF7DCFE00210800FFF726FF10
:10420000064B1968064B1868FFF73EFF10BDC04605
:10421000D81D0020C8020020877F0000BC020020BB
:10422000C002002010B50248FFF7C2FE10BDC04614
:104230008A7F000000B5FF2000BD000010B50248D5
:10424000FFF7B6FE10BDC046977F0000024B186016
:10425000024B19607047C046D81D0020C8020020DC
:1042600010B504000448FFF7A3FE6C20002C00D01A
:104270006820FFF789FE10BD9F7F000073B5FFF730
:104280008DFE08237F2830D0031E1B2B2DD1FFF776
:1042900085FEFF28FBD01B23984226D05B2801D047
:1042A000FF2322E00024FFF779FEFF28FBD0030064
:1042B00001AD413B6055621C192B04D97E2802D008
:1042C000141E032CEFD100231C00094EAB54A30095
:1042D0009959280003F078FB002802D1230080338D
:1042E00003E00134172CF2D1DAE7180076BDC0469E
:1042F000FC7E0000114A30B5012390421CD8820593
:104300001AD1022180250E4B0E4AED0099508024CF
:104310005959E4000029FAD0A121094DC90068507B
:1043200019590029FCD00020054988508021C90076
:104330005A58002AFCD00023180030BDFFFF0300AC
:1043400000E0014004050000F0B5154C0123A04237
:1043500023D8840521D11D008C071ED1114C124B8E
:10436000A4461D518025ED005C59002CFCD080270F
:104370000024FF008025ED00944207D2A5004E598D
:104380004651DD59002DFCD00134F3E7002261468F
:104390005A505A59002AFCD000231800F0BDC046DC
:1043A000FFFF03000405000000E0014010B502AC6F
:1043B0002488018084805C43091B4280C380018182
:1043C00010BD0200808813894843C11853884B43AD
:1043D0001800704770B50500FFF7F3FF00240600D2
:1043E000AB88A34209D9688860438019FFF782FF30
:1043F000002803D10134E4B2F2E7002070BDF8B523
:104400000C0007001600FFF7DCFF21000500380054
:10441000FFF7E0FF041E09D17A88BB8831005A43B8
:10442000921092B22800FFF78FFF00E001242000D5
:10443000F8BD10B5FFF7C5FF027803000120FF2A81
:1044400004D15878FF38431E9841C0B210BDF8B56A
:1044500004000F001500FFF7B4FF3900060020002C
:10446000FFF7E7FF1623002807D0A38862883100F2
:104470005A43280003F06AF900231800F8BD70477A
:104480000020704770477047283070470300503055
:104490004E33198002807047F0B5160007000D00FA
:1044A00085B001930AAB00229B5E009602930BAB92
:1044B0001B780393029B009AF3189A4215DA2C009A
:1044C000019BEB189C420BDA3B6832005B6B2900C6
:1044D00038009847039B984209D0013424B2EFE793
:1044E000009B01331BB20093E4E7002000E00120B1
:1044F00000B205B0F0BD37B507AD2D7806AC248805
:104500006DB208300094002D02D001F01CFD01E0D6
:1045100001F0B6FB37BD10B5083001F0C9F900B2A3
:1045200010BD0000030070B5012405004C331C8051
:104530000E4B821D436519780835D1875B7844326C
:10454000EB8705238380C380030048331C8000234E
:104550005030138093800380280001F043F9280035
:10456000210001F01FFF200070BDC046DA7F00006F
:104570000300F0B585B00291583304001878042880
:1045800000D994E00233039302F0CEFE0324436289
:104590008200062500260522236800920196DF6A24
:1045A0003100130020003200B84723682AB2DB6BC9
:1045B000310020009847236802991B6C200098471F
:1045C000039B013D1888ADB202F062FA2BB20133B1
:1045D000E0D16CE00127374D052322680093019755
:1045E000D66A002220001100B04723682AB2DB6B94
:1045F000002120009847236802991B6C20009847EF
:10460000039B01351888ADB202F042FA012DE3D1C7
:104610004DE00227274D0523226800930197D66AB3
:10462000002220001100B047236829B20022DB6B72
:1046300020009847236802991B6C20009847039B31
:1046400001351888ADB202F023FA012DE3D12EE036
:10465000062503270523226800930197D66A0022C6
:1046600020001100B047236829B20022DB6B200034
:104670009847236802991B6C20009847039B013DD3
:104680001888ADB202F004FA2BB20133E2D10EE089
:10469000002223681100DB6B20009847236820006C
:1046A0001B6C02999847039B188802F0F1F905B03A
:1046B000F0BDC046FAFF000003005A3058331970AD
:1046C00002807047030010B504004A33198808308F
:1046D00000F0C0FF220000234E32503413802380AC
:1046E00010BD70B504000D00FFF7ECFF642002F070
:1046F000CFF920000830002D02D001F0B7F801E01A
:1047000001F0AEF870BD10B5083000F0B1FF10BD7B
:10471000F0B585B001930AAB150000229B5E08300E
:1047200002930BAB1E780C00009001F03EFE6F4B25
:1047300080001818865D009801F037FE02280ED020
:10474000032816D001281DD10523029A02999B1A2D
:10475000019A5B1B0191250002921CB212E0052315
:10476000019A9A1A141B029A24B29B1A5D1B2DB24D
:1047700008E00523019A02999B1A1B1B01912C004A
:1047800002921DB2032E00D9ADE0300002F0CCFD44
:10479000080604022F008AE02E005CE0260034E0C8
:1047A0002700019BE3189F4200DB9CE0ABB2039320
:1047B0005E1C029BB6B232B2EB189A420EDA390096
:1047C000009801F075F8FF23B6B2721E034012B2D2
:1047D0003900009800F04CFF0136EAE70299039B8C
:1047E0008C4663441A00013A390012B20023009843
:1047F000013700F03DFF3FB2D3E7310000232A002C
:10480000009800F035FF013636B2019BE3189E4256
:1048100069DA029BEB18013B9BB21FB2BD42ECDA96
:10482000013B9BB203936B4631000C229A5E0098C9
:1048300001F03EF8FF233A0003403100009800F0F9
:1048400017FF039BE9E7320000232100009800F0E6
:104850000FFF013636B2029BEB189E4243DA019BF2
:10486000E318013B9BB21FB2BC42ECDA013B9BB2A6
:1048700003936B4632000C21595E009801F018F842
:10488000FF23320003403900009800F0F1FE039B43
:10489000E9E7019A039B94466344190001393A0001
:1048A00009B20023009800F0E3FE01373FB2029BFB
:1048B000EB189F4217DAA3B203935E1C019BB6B2BA
:1048C00031B2E3189942E4DA3A00009800F0F0FFC0
:1048D000FF23B6B2711E034009B23A00009800F0FF
:1048E000C7FE0136EAE705B0F0BDC0462C850000E2
:1048F000F0B591B00D9316AB0C9100215B5E0600F4
:10490000089317AB00215B5E07210E9318AB1B8841
:104910000A91099319AB1D881AAB1B780F9393B2B8
:104920000593089B0733DA170A40D318DB100B9363
:10493000059B0293049300230393059A029B9B1A01
:104940000E9A1BB29A4260DD6B461B8A00240793C5
:104950006B461B8E1F000693089A23B2934246DAD9
:104960000A99DA170A40D31803990D9ADB105218E6
:104970008021D35C0A9AA4B222401141194210D07E
:10498000012D07D16B4608229A5E069BE11809B2F9
:10499000099B14E06A462BB21C21525E099839B279
:1049A0001AE00F9B002B1DD0012D0DD16A4633005C
:1049B0000821525E06994A3361181B8809B23000FB
:1049C000083000F055FE0DE030006A464A3000889D
:1049D0001C21525E2BB239B2019030000093083096
:1049E00001F070F801347F19A4B2BFB2B4E70B9A9A
:1049F000049B9446EB189BB20493029B01339BB239
:104A00000293039B6344039397E711B0F0BD030047
:104A1000F0B504000833D88F443341431E88636DDA
:104A200003318BB05B18079323002500503300221D
:104A30009B5E4E3508930022AB5E039609930123DB
:104A40000493230048331B883100029302F076FC64
:104A500000B20190A71DF88F310002F06FFC00B288
:104A60000090079B089A09992000FFF741FF2A88C8
:104A7000FB8FD3182B800BB0F0BDF0B587B00DAD18
:104A80002E880EAD2F880FAD2D880CACAC46F51DD1
:104A9000ED107D4324883FB26C431B19012404941C
:104AA0006446039404004834248836B20294019783
:104AB0000096FFF71DFF07B0F0BD37B506AC002527
:104AC000645F07AD2D8808300195009401F02DF842
:104AD00037BD73B506AC08AE0025645F367807AD08
:104AE0002D8876B2083001950094002E02D000F097
:104AF000E9FF01E001F05AF873BD70477047080004
:104B0000704710B5036800219B6A984710BD704735
:104B100070B50D000400160028001100FFF72CFBF3
:104B20006682A58270BD70B51D0004001000FFF7FD
:104B300023FB2800FFF7CAFA618AA08AFFF71CFB53
:104B400070BD10B50720FFF7C1FA10BD10B5FFF713
:104B500069FB10BD10B508000021FFF70DFBFFF742
:104B60006DFB10BD10B5FFF739FB10BD10B504008B
:104B700008000021FFF700FBFFF710FB618AA08A05
:104B8000FFF7FAFA10BD000010B504000848FFF75F
:104B900097FA0848FFF78EFAFFF74CFBE1890020EF
:104BA0000139FFF753FB00232371034B1C6010BD39
:104BB0008D4C0000614C0000E01D002010B5FFF797
:104BC0005DFB0300C0B28B38042806D802F0ACFBB2
:104BD000030B070509000C2006E0D8B204E00E2004
:104BE00002E0122000E0042010BD10B5817708001B
:104BF000FFF736FB10BD000010B5042904D8034BA5
:104C00004900C85AFFF768FA10BDC046CC850000BD
:104C100010B508290AD8082A08D8054B4900C85AEF
:104C2000044B5200D35A1843FFF756FA10BDC04642
:104C30004E8500003C85000010B503790400002B70
:104C400001D0002008E0054802F0B6F90028F8D0AD
:104C500023682000DB6B984710BDC046C41E0020AF
:104C600010B5084B1B681B79002B09D1064C20009E
:104C700002F0A2F90028F9D0200002F0A7F9C0B292
:104C800010BDC046E01D0020C41E002010B5054B1D
:104C900001001B681B79002B02D1034802F054F974
:104CA00010BDC046E01D0020C41E002070B50400E9
:104CB0000368DB689847E57F002D05D1A0680028D0
:104CC00002D002F039FDA56070BD70B50400828984
:104CD00008000D005043A3680021181802F054FD8D
:104CE0002368E9B22000DB6998472368A27C217D14
:104CF0001B692000984770BD10B5040003689B69CC
:104D00009847A289E389A0685A43002102F03CFD3C
:104D100010BD70B50382002304008377036881818E
:104D20009B68C281049D9847E37F002B04D1A06853
:104D3000002801D002F000FD002D07D1A089E389F1
:104D4000E577584302F0EEFCA06002E00123A56085
:104D5000E3772000FFF7D0FF236820001B6B0121C1
:104D600098472368A27C217D1B6920009847012376
:104D7000237770BD70B504000025E2892368AA423C
:104D800006D929009B6D200001359847ADB2F4E7A4
:104D9000A27C217D1B692000984770BDF7B5CBB27E
:104DA000019303680E00DB69C9B20400002598472F
:104DB000A3899D4218D27343A26820005219D15C86
:104DC00023681B6D984700280BD0A389A268734302
:104DD0005219D35C2268E9B2526920001700019A87
:104DE000B8470135ADB2E3E7F7BD10B50400C2899D
:104DF00081898368013A4A431800591802F0AFFCD0
:104E0000236820005B6B9847236820001B6A984743
:104E1000E1892000013989B2FFF757FF2368A27C9E
:104E2000217D1B692000984710BD10B50400E28960
:104E3000A3688089013A42431900181802F08FFCD8
:104E4000236820005B6B9847236820005B6A9847C3
:104E500020000021FFF739FF2368A27C217D1B6918
:104E60002000984710BD70B5C2890500013A0C1E9C
:104E700094420BDA81898368A01C4843121B013AD3
:104E80004A43411A5918181802F069FCAA890134DA
:104E900010006043AB680021181802F075FC2B6805
:104EA0002800E1B29B6A984770BDF8B5040080897C
:104EB000A38A5843638AC018A36818180378002B84
:104EC00026D005002B782E1AB6B2002B01D0013562
:104ED000F8E7012E03D9721E411C02F040FC6B1E44
:104EE00000251D70678AA189B81902F0B1FAA18A5C
:104EF0002368A84207DB491989B29B6D2000013560
:104F00009847EDB2EEE7FAB2C9B21B6920009847A4
:104F1000F8BD70B5858AC389691C89B20AB20400DC
:104F20009A4202DBFFF761FFA9B22368C9B21B698D
:104F300000222000984770BD70B50400428A838A21
:104F4000013292B2A18910B29DB288420BDB0133CB
:104F50009BB2E28919B2914203DB2000FFF745FFC3
:104F600000E01D0000222368E9B2D2B21B692000D4
:104F7000984770BD0B0070B504008189828A4A434E
:104F8000418A8068821853542068227D4569A17C3B
:104F90002000A8472000FFF7CFFF70BDF0B5836861
:104FA00089B0019305918689838A019A009373439E
:104FB0000293458A04005B19D7180022B95C93B2AA
:104FC000501C002901D00200F8E712040392E28984
:104FD0000692002B02D0237F002B31D1039B31009E
:104FE0001A0C5519681C02F033FA009BC018069B76
:104FF00098420BDB2000FFF7F8FEA18A23680139F5
:10500000A27CC9B21B692000984713E0731E9D4221
:1050100010DB0299019A8C466244D35C002B09D1C3
:105020003100280002F014FA009B181881B2200009
:10503000FFF719FF236805999B6B2000984758E0FC
:10504000039B31001B0CED1804936B1C1800079395
:1050500002F0FEF9009BC018069B98420DDB200071
:10506000FFF7C3FEA389A18AFF1A23680139A27C36
:10507000C9B21B692000984717E03100681C02F094
:10508000CDFA731E994210D1029A019B9446634453
:105090005B5D002B09D13100280002F0D9F9009B9B
:1050A000181881B22000FFF7DEFE039B39001A0CAE
:1050B000781C02F054FB6B461B7D20003B70FFF711
:1050C0003BFF0025049B668AA189F01802F0C0F915
:1050D000A18A2368A84207DB491989B29B6D200089
:1050E00001359847EDB2EDE7F2B2C9B21B69200075
:1050F000984709B0F0BD10B5428A0400838A002A9F
:1051000010D081894B4381688A18D318013B1978E4
:1051100003681B6D984700281ED0628A217D013AE2
:10512000D2B215E0002B17D08189013B4B431A0006
:1051300083685B189B18013B197803681B6D9847BF
:10514000002809D0A289A18A013A0139D2B2C9B294
:10515000236820001B69984710BD10B50400418AE0
:105160008289481CA38A904210DA5343A268200027
:105170005118C95C23681B6D984700281BD0628AB0
:1051800023680132D2B2217D1B6912E0E18901332B
:105190008B4210DA5343A2682000D15C23681B6D58
:1051A0009847002807D00022A18A236801311B6993
:1051B000C9B22000984710BD70B505008489AA893E
:1051C000AB8A013C5343AA68A4B2D31826B2995DB6
:1051D0002B6828001B6D9847002801D1002EEEDCBB
:1051E0002B68297D2800E2B21B69984770BD70B515
:1051F0000500C489013CA4B2002C0AD0AA8923B2BC
:105200005343AA682800D15C2B681B6D984700287F
:10521000F0D02B682800E1B21B690022984770BDCE
:10522000838910B514008B4201D8013B99B2C38920
:10523000CAB2191CA34200D9211C0368C9B21B6958
:10524000984710BD30B58489030000208C4206D9F0
:10525000DD89954203D962439B685918885C30BD4B
:1052600010B5818A838982684B43448AD318002C05
:1052700002D14C1EA1415B1A934206D9197800292C
:1052800001D15A1C03E0013BF6E79342F9D1826158
:10529000012010BD70B500240A2685896943856800
:1052A0006D182878FAF7F6FF002808D0744328789C
:1052B000303C094B04199C4209D80135F1E7002C18
:1052C00005D02B78202B02D16B78002B01D1012443
:1052D000644220B270BDC046FF7F0000F0B5C189B6
:1052E00085B0013909B20400FFF7D4FF002804DCBF
:1052F000294B188803B2002B41DD00B2FBF714FFE5
:10530000061E39DDFBF724FF070002F06FFB0025C6
:1053100083B203936B460C229B5E0193A389019891
:105320001900029302F094F8A84205DB2000013531
:10533000FFF75BFDEDB2EDE7E3893900013B181A99
:10534000029B002543431800A368181802F046FB8F
:10535000A189019802F07CF8A8420ADBE189236860
:105360000139491B89B29B6D200001359847EDB288
:10537000EEE7094B1E8005E00022074B1A80200053
:10538000FFF733FD23682000A27C217D1B6998472D
:10539000002005B0F0BDC046E41D002070B5838A32
:1053A000C28901330400934229DA82898168534318
:1053B000428ACB18995C03681B6D9847628A150076
:1053C000D2B2002813D1A38AA28901335343A26821
:1053D0002EB2D318995D236820001B6D98470028D2
:1053E00004D1002E02DD013DADB2ECE7EAB2A18AA4
:1053F00023680131C9B21B692000984703E093423A
:1054000001D1FFF76BFF70BDF7B500210400FFF776
:1054100041FF00282DDDFBF769FE002829DDFBF7A1
:1054200097FE070002F0E2FA002583B201936B4673
:1054300004269E5FA189300002F00AF8A84205DB2D
:1054400020000135FFF7F1FCEDB2F0E73900A0686C
:1054500002F0C4FA0025A189300001F0F9FFA8424A
:105460000ADB2368A9B29B6D200001359847EDB295
:10547000F1E72000FFF7D9FC23682000A27C217D02
:105480001B6998470020FEBD70B5838A0400002B7D
:105490002AD08289013B53438168428ACB18995CA8
:1054A00003681B6D9847628A1500D2B2002813D199
:1054B000A38AA289013B5343A2682EB2D318995DF7
:1054C000236820001B6D9847002804D1002E02DDC0
:1054D000013DADB2ECE7EAB2A18A23680139C9B255
:1054E0001B692000984701E0FFF78EFF70BD70B583
:1054F000040023682000DB6B9847236805001B6BC2
:10550000002120009847832D00D173E020D80E2D74
:1055100000D17BE00CD8082D65D003D8042D00D134
:1055200079E07DE00C2D2BD00D2D00D189E077E0C6
:10553000802D63D004D8122D48D0182D56D06FE09E
:10554000812D5FD0822D6BD12000FFF7D4FD72E05A
:10555000882D2BD007D8852D48D015D3862D3DD04A
:10556000872D14D05CE08C2D55D004D8892D31D0F6
:105570008B2D05D054E08D2D48D08F2D26D04FE0B7
:105580002000FFF7B9FB1BE0A28A00211AE0638A22
:105590002000002B07D1E389A28A013B9A4202D165
:1055A000FFF79CFE47E0FFF722FE44E0638A002BF2
:1055B00006D1A38A002B03D12000FFF725FF3AE094
:1055C000002211002000FFF72BFE34E02000FFF73F
:1055D000D1FB30E02000FFF7EFFD2CE0237F5A42A3
:1055E0005341237727E02000FFF785FD2000FFF7D8
:1055F0005CFC20E02000FFF7B0FD1CE02000FFF77E
:10560000CDFE18E02000FFF73FFF14E0A18A200044
:10561000FFF729FC0FE0A18A2000FFF756FB0AE004
:10562000236829001B6D20009847002803D029001B
:105630002000FFF7B3FC236801211B6B2000984773
:1056400057E7236801211B6B200098472000FFF7D4
:1056500007FE70BD020010B51B3200231C00013391
:1056600020340155092BF9D109308242F5D110BD02
:1056700030B5002939DB002A37DB0C25445F8C422A
:1056800033DD0E25445F94422FDD447E022C09D089
:10569000032C10D0012C13D10489013CA41A0A0058
:1056A00021B20DE00489013C611A448909B2013C30
:1056B000A21A12B204E04489013C641A110022B219
:1056C000052462435118094AC9B2525C013AD4B266
:1056D000074A525C013AD1B209224A438218121990
:1056E0000132002B00D00123D37730BD910300207D
:1056F0006F030020052210B50400110000F0A6FA87
:105700002000054B1B22083323600021203002F0CB
:105710003BF8200010BDC0468488000070470000A0
:10572000F7B50025194C1A4F237806000021F85CC4
:1057300001F0F0FA0097174F0121E85D013501F003
:10574000E9FA0197092DF6D123780133DBB22370F2
:10575000022B01D9002323700025092723787B43DE
:10576000F3185B190133DB7F002B04D0019B002170
:10577000585D01F0CFFA0135092DEFD12378009A59
:105780000121D05C01F0C6FAF7BDC046EC1D002037
:105790006C0300208803002000210F4B0F4AA22039
:1057A00010B5995004240122C000DA601C5008385A
:1057B0001950A8212138FF38C90058508020C12134
:1057C00040028900585080200539FF395A50044959
:1057D000C00008601A6010BD00A000400405000071
:1057E00000E100E070B505000024194B1860194E67
:1057F0000121A05D01F070FAA05D0121013401F0EA
:1058000089FA092CF3D10024134E0121A05D01F087
:1058100063FAA05D0021013401F07CFA032CF3D17E
:1058200028002B0000241B300022110020315918C1
:1058300001320C70092AF8D109339842F4D10022C0
:10584000064B28001A70FFF7A7FF012070BDC04665
:10585000E81D0020880300206C030020EC1D0020C0
:105860000122014B5A60704700A000400122014B09
:105870001A60704700A00040084B10B55A6C002A0F
:105880000BD0C122064992008A58D20305D50022C6
:105890005A64044B1868FFF743FF10BDFCA000409A
:1058A00000A00040E81D002010B5FFF7E5FF10BD87
:1058B00030B504000020814237DB824235DB0C200A
:1058C000235E00208B4230DD0E25635F93422CDD8A
:1058D000637E022B09D0032B10D0012B13D1238917
:1058E000013B9B1A0A0019B20DE02389013B591AAA
:1058F000638909B2013B9A1A12B204E06389013B41
:105900005B1A11001AB205235A4351180922074B9A
:10591000C9B2585C064B0138C0B250435B5C2018DA
:10592000013BDBB2C0180130C07F30BD6F030020E7
:1059300091030020F0B515000C001E0089B00EABDD
:1059400000229B5E0FAA1288019006925A1BD11763
:1059500052184A400292321BD11752184A40039201
:105960000399029A8A4205DD32001E0013002200CC
:105970002C001500B44205DD2A001D001300220092
:1059800034001600321B92B205925A1BD1175218DE
:105990004A4007926A461421525ED10F8A1852106B
:1059A00092B20092012204929D4201DB154B0493B6
:1059B000B44224DC019B029A1B6803991B691F00F7
:1059C000069B8A4202DD2200290001E02A00210014
:1059D0000198B847009A079BD31A9BB29AB20092DB
:1059E0006A46128812B2002A06DA049AAD18059A9D
:1059F0002DB2D3189BB20093013424B2D8E709B07A
:105A0000F0BDC046FFFF000010B50468A468A047C1
:105A100010BD37B506AC258804680095246BA047F7
:105A200037BD37B506AC258804680095646BA04780
:105A300037BD73B506AC0025655F07AC26880468E2
:105A400001960095A46BA04773BD7047F0B5160092
:105A500004000D0085B003930AAB1F880368DB6860
:105A60009847039B2268013B9B191BB20093019747
:105A7000176A2B00320029002000B8472368200055
:105A80005B6A984705B0F0BDF0B505001C000E003C
:105A9000170085B00AAB1B88013C03930368A41967
:105AA000DB68984703992A680191009723B2310077
:105AB000146A28003A00A0472B6828005B6A9847C0
:105AC00005B0F0BDF0B50E0087B003930CAB0292A9
:105AD00000229B5E050004930DAB1B8834000593E8
