:10000000004000200D6100004D6100004F610000C4
:1000100000000000000000000000000000000000E0
:10002000000000000000000000000000516100001E
:100030000000000000000000536100005561000056
:1000400057610000576100005D68000057610000C3
:100050005761000000000000576100005761000078
:1000600057610000456300003556000057610000ED
:1000700057610000576100005761000057610000A0
:1000800057610000A5610000576100005761000042
:100090005761000057610000576100005761000080
:1000A00057610000576100000000000000000000E0
:1000B0000000000000000000000000000000000040
:1000C000054B0648033310B51B1A062B03D9044B06
:1000D000002B00D0984710BDD0040020D004002091
:1000E000000000000648074910B5091A8910CB0F17
:1000F0005918491003D0044B002B00D0984710BD6D
:10010000D0040020D00400200000000010B5074CEF
:100110002378002B09D1FFF7D3FF054B002B02D02A
:10012000044800E000BF0123237010BDD00400206C
:1001300000000000DC860000094B10B5002B03D046
:100140000849094800E000BF08480368002B02D1B5
:10015000FFF7C8FF10BD064B002BF9D09847F7E713
:1001600000000000D4040020DC860000CC04002045
:1001700000000000164B002B00D1144B9D4640227E
:1001800092029A1A924600218B460F461348144A4F
:10019000121A06F053FE0F4B002B00D098470E4B5F
:1001A000002B00D098470020002104000D000D48CE
:1001B000002802D00C4800E000BF06F0E7FD200058
:1001C000290006F069FB06F0CBFDC04600000800E0
:1001D000004000200000000000000000D0040020CB
:1001E000AC1E002000000000000000007047808866
:1001F0007047C0887047000010B50400034B0360CF
:10020000083005F055F9200010BDC046F47B000011
:10021000034B10B5010018680268926B904710BD3F
:10022000781B002010B5040006F04AFB200010BD2A
:100230000200613A0123192A06D900231922413804
:10024000C0B282425B41DBB2180070470300092252
:100250000020303BDBB29A424041C0B2704710B53B
:10026000040006F0BDFE210006F032FD013108B2A7
:1002700010BD013AD2B2FF2A06D08B5C013AD2B24D
:100280008342F8D1012000E000207047054A10B5F4
:10029000138819B27F2903DC034C013360541380A7
:1002A00010BDC046061E0020EC08002010B5002935
:1002B00002D1FFF7ADFF0BE0012905D1054B01008D
:1002C000186804F0DEFA03E0032901D1FFF7DEFF2E
:1002D00010BDC046781B002010B5002805D1094B81
:1002E000186803681B6E98470BE0012804D1054B82
:1002F000186804F0C8FA04E0032802D10730FFF7B9
:10030000C5FF10BD781B0020002110B5034B8022D3
:100310000348198006F092FD10BDC046061E00205D
:10032000EC0800201C4B020019688B89C8894343E4
:100330009BB2934202D98B6898182BE0A021174BEF
:10034000FF31D31898B2884201D8154821E0154BE7
:100350001548D31899B2FF291BD9144B1449D31847
:1003600098B2884202D8134A106812E0124B13491F
:10037000D31898B2884201D811480AE0114B1249AB
:10038000D3189BB200208B4204D8104BD018104BCE
:100390001B6818187047C046781B002000E7FFFF55
:1003A000FC1B002060E5FFFFEE09002060E4FFFF7A
:1003B000FF0F00000400002060D4FFFFFF030000D7
:1003C000EC04002060D0FFFFFF07000063D0FFFFB8
:1003D000EC1A002010B5040006F062FE002201387D
:1003E00080B2002807D023181978202903D10138BA
:1003F0001A7080B2F5E7200010BD00000649074AD8
:100400000B681878132802D01123137001E0013310
:100410000B6010787047C046B81A0020EB1A002015
:100420000649074A0B681878142802D01123137064
:1004300001E001330B6010787047C046B81A002005
:10044000EB1A0020F8B50D4C050020680F00867FE0
:10045000002E03D0036800211B6B984728780028E2
:1004600004D039000135FFF721FFF7E7002E04D053
:100470002068012103681B6B9847F8BD781B00209A
:100480002023F0B585B00E1E0292019303DA4E428E
:10049000103336B20193002803DA4442A4B2012398
:1004A00001E0002384B2002206270093174B9A71C3
:1004B000039320000A2106F021FB7D1E039B3031AF
:1004C000EDB2595520000A2106F092FA84B2002CB0
:1004D00001D02F00EDE7009B002B04D02D23BD1E83
:1004E0000A4AEDB253550624641BB44206DA029957
:1004F0000198013EFFF7DAFE36B2F6E7034B0299A8
:100500005819FFF79FFF05B0F0BDC0467C1B0020C7
:10051000F8B585B217480423854207D8013BFF2D63
:1005200004D80C33AB429B415B420133002905D018
:1005300089B2181C8B4200D2081C83B200240F2100
:100540000D482F00A60076420C3637413E000E4083
:1005500037003737092E01D8303637002754013499
:10056000042CEED10021E31A0171C0181100FFF72D
:1005700069FFF8BDFF0F00007C1B0020F7B583B2B8
:1005800001930F240023114E019D012025410540B8
:100590002F308446AC446746301BC7733000002BB5
:1005A00003D1002D01D0631C9BB2013CECD200248E
:1005B00089B204741C1C8B4200D20C1CA4B2001B18
:1005C00010301100FFF73EFFF7BDC0467C1B002036
:1005D000F7B500240226384D28680368DB6B98477E
:1005E0000D281CD0032803D11922344B1A7016E0B1
:1005F0001B28F9D0082851D07F284FD0002C06D1D5
:1006000003002B3BB343DBB2002B3AD001E0052CB7
:100610003FD80300303BDBB2092B32D939E0002050
:10062000FFF75AFE0023264D2B552A782B2A03D09C
:100630002D2A03D1012301E0012200E01A001F4905
:1006400000260F7801910A2130008C46AC5C002C0A
:100650000ED0614641433039091989B2013200B2E6
:100660000CB2D2B2A04201DD012602270800EDE75C
:10067000002E01D0019A1770002B1AD0404280B290
:1006800017E0651C0E4BEDB21855FFF7C1FD2C00AD
:10069000A1E728680368DB6A98479CE7002CF8D03C
:1006A000286804F0F2FB013C2868E4B204F0C7FAC1
:1006B00091E700B2FEBDC046781B0020EB1A002077
:1006C0007C1B0020F7B5070001261A4C0191019B05
:1006D0009E4204D923B20025013313D128E000251E
:1006E0001548AB0032003900185806F0E1FC00282C
:1006F00004D1731C0096ACB29EB2E8E70135C12D5F
:10070000EED1E7E70C4AAB009C58200006F0C8FC8D
:10071000009B984208D11A003900200006F0C8FC5E
:10072000002801D1ACB203E00135C12DEAD1014C62
:1007300020B2FEBDFFFF000008000020F0B500243D
:10074000814D85B02B78002B18D02E78202E1BD011
:100750003300093B042B19D816E017B27E30C01BBA
:1007600086421EDA0234E4B22000DBB28B55013A35
:1007700092B216B2013632D1E318DCB2C522734B05
:10078000601C1A55C0B2DCE00135DEE7280006F037
:1007900087FC81B22800FFF795FF071E25DB7E2C22
:1007A00001D9042232E0694BBA001F55684B661C20
:1007B000D05806F075FCF6B22D186449B02F00D061
:1007C000BAE02B78202B25D0093B042B22D900231B
:1007D000E85C9AB25F1C0028BFD03B00F8E72F7896
:1007E000461C0F540135F0B2C1E73300303B092BF2
:1007F00030D8802000230A2100024B4301356A1EB5
:100800001278303BD318834206D90222514B002084
:100810001A7096E00135D4E72A78303A092AECD9E3
:100820007C2CBED88021494A09028B4206D1002C7B
:1008300004D01119013909780E29E6D1C121601CB3
:100840001155C0B2A11C1354C9B203341B0AE4B23F
:10085000535477E7222E0BD100236E1CE9184978F8
:100860009AB2222934D0581C002931D00300F5E770
:100870003000FFF7DDFC00281CD07D2C91D8330020
:10088000613B192B01D8203EF6B2413EF7B26E789B
:100890003300303B062B4BD9002601202B49032C7B
:1008A0000AD90B199A1E1278C42A05D1043B1B7869
:1008B000C42B01D11722A9E7C4230B551A235E4389
:1008C000621CD2B20234BE19E4B28E542D1839E73C
:1008D0007F2110B2091A8C4200DB62E7C2211B4F54
:1008E000A01C3955D9B20191694601340979E4B2A5
:1008F000C0B23955350004000397013A92B217B2DD
:10090000791C0AD02F78611CBC4602916146039F76
:100910000135395569460C7AEFE79DB275192B7888
:10092000019A223B81185A425341CCB2ED1809E793
:100930002F3EF6B20220B1E70D2F00D141E734007F
:1009400000E705B0F0BDC0467C1B00206D0900200B
:1009500008000020EB1A0020064B1B6818000278E4
:10096000002A01D08018FAE7181A034BC31818B2EE
:100970007047C04604000020FF0F00000378002BE2
:1009800004D0837840781B02184300E0014800B28D
:100990007047C046FFFF000070B50600064B1C689C
:1009A0002578002D06D02000FFF7E8FFB04201DADD
:1009B0006419F5E7200070BD04000020F8B50D4B68
:1009C00047781C68851C2678002E0ED0E378C22B51
:1009D00009D12379BB4206D1611D3A00280006F0F7
:1009E00089FB002803D0A419EDE7300000E02000C7
:1009F000F8BDC04604000020F8B507000024084BED
:100A00001D682E78002E08D02800FFF7B7FFB842E7
:100A100004DA0134A4B2AD19F3E7024C2000F8BDAA
:100A200004000020FF7F00000378C52B17D0C12BE6
:100A300011D005D8072B12D0092B0ED101300FE0B1
:100A4000C32B08D003D3C42B07D10230ECE7437883
:100A50000133C018E8E70330E6E70130E4E700209F
:100A600070470000F7B5070000240B4B01911D688B
:100A70002E78002E0DD02800FFF780FF002808DB1D
:100A8000B84204DB019B984201DC0134A4B2AD19E9
:100A9000EEE72000FEBDC0460400002070B5FFF761
:100AA0005BFF204D2B78984203DA05221E4B1A700B
:100AB00037E02800FFF762FF0600FFF76DFF040034
:100AC000FFF75CFF864210D121002278A21810782F
:100AD000002809D00023834202D1C918D218F6E7B2
:100AE000D65CCE540133F6E708702878042818D075
:100AF00021000B78002B01D0C918FAE70A1B01323C
:100B000092B208185242934203D0CE5CC654013BC5
:100B1000F9E700232978994203D0EA5CE2540133D3
:100B2000F9E770BD6D090020EB1A0020F7B504004D
:100B30000D002378C52B00D1B0E0C02B3ED8584A19
:100B40009B0029009858FFF77DFC67780C2F21D077
:100B50002678772253493000FFF78BFB002806D018
:100B6000362251493800FFF784FB002803D00C3EA1
:100B7000012E0BD80EE0142E0CD1C52F0AD01B224B
:100B80004A493800FFF775FB002803D129002020CF
:100B9000FFF78CFB2378B02B03D1A61C64783419A3
:100BA00004E00D2BF9D0661C3400C2E7B44275D0C6
:100BB00030782900FFF77AFB0136F7E7C12B09D11E
:100BC000A07863780002184300B22A000021FFF7E2
:100BD00057FC0EE0C32B0FD129002420FFF766FB42
:100BE000A07863780002184300B22A000221FFF7C0
:100BF0008FFCE61CE07818E0C42B1FD167781A211F
:100C0000380005F07BFF4131C8B22900A61CFFF770
:100C10004DFB192F08D91A21380005F0E9FE2F30B5
:100C2000C0B22900FFF742FBA0781B221F49FFF743
:100C300020FB0028B8D12900203029E0C22B2AD17E
:100C40006378002B06D0E2185278222A04D0013BA8
:100C5000DBB2F6E7222300E0272301932900019865
:100C6000FFF724FB6678A71CBE19BE4205D0387872
:100C70002900FFF71BFB0137F7E729000198FFF771
:100C800015FB3378C42B01D0092B8DD129002020EE
:100C9000FFF70CFB88E71822054B1A70F7BDC0461A
:100CA0000800002077750000EE75000078710000E4
:100CB000EB1A0020022302009A4310B5131E0BD03A
:100CC00000230E4A13700E4A13700E4A11680B70FF
:100CD00012680D4B1A6010E01400D2220B4952002A
:100CE0005C5202339342FBD100231900084A995207
:100CF0000233C82BFBD10228E2D110BDED09002040
:100D0000EA1A002004000020FC1A0020FC1B00202E
:100D1000EE090020F0B5474E85B034682378C12B2A
:100D200013D12000FFF72AFE0A27E31C3360E37883
:100D300085B2BB420BD12379201D30601722C12B15
:100D400010D1FFF71BFE87B201E00A273D003A4CA5
:100D500000202100FFF786FE0394002D01D0002F14
:100D600003D11422354B1A7062E0013880B2784307
:100D7000039B40199842F4DC314B324E1B683360C0
:100D800033681A780292002A40D00024013301937C
:100D9000029B013B9C4235DA019B1B5DC12B2CD091
:100DA00002D8012B07D92AE0C32B26D01FD3C42B8E
:100DB00025D1023424E0631C019A9BB2D218009220
:100DC0001278C12A01D01C00E2E70098FFF7D6FD97
:100DD00080B2FFF711FE039B0434984210D0784391
:100DE000281880B2009A03129370507008E0013402
:100DF000019AA3B2D25C9C1802E0033400E00134F3
:100E0000A3B2E0E732681378D318B8E70C4B1B683D
:100E1000336033681A78002A0AD05D7032682B126A
:100E2000937032687D191378ADB2D3183360F0E750
:100E300005B0F0BDB81A0020FF7F0000EB1A0020BB
:100E400004000020FC1A002070B50C4DC4B20E0046
:100E50002800210003F061F9002804D11622084B74
:100E600001301A7009E03000FFF724FF054B210024
:100E70001A68280003F05FF9002070BDF21A002004
:100E8000EB1A00200400002070B50B4B1C78002CDE
:100E900003D00022A4B21A700BE0084D2868036842
:100EA0001B6C9847002804D028680368DB6B9847C0
:100EB00084B220B270BDC046BC1A0020781B00204E
:100EC000FA2010B5400005F05FF9064B1A781C00B7
:100ED000012A03D1044B186803F0D2FC00232370CD
:100EE00010BDC046F01A0020781B0020F7B5164C44
:100EF00023780194002B01D0FFF7E2FF134A136817
:100F00001978C22903D01422114B1A701BE0991CC6
:100F100011605F7800230A261900BB420CD21068CA
:100F20000578303DECB2092CEDD871430130013326
:100F3000691810609BB2F0E7064B186803F09FFC3D
:100F40000123019A1370F7BDF01A0020B81A00208F
:100F5000EB1A0020781B0020F7B52D4D04002868FF
:100F6000002103681B6B98472A4A2B4F1378019284
:100F7000002B3DD0294A9B001168294A12689142F2
:100F80002FD380204001121891422AD2254E326878
:100F90001278002A25D0002C23D1F8582100FFF721
:100FA00051FA21002048FFF74DFA3068FFF7E6FCC0
:100FB00022002100FFF764FA2000FFF78DF9306866
:100FC000FFF7DCFC22002100FFF75AFA2100174846
:100FD000FFF738FA306821000330FFF7A7FD200043
:100FE00004E0F8580021FFF72DFA0020FFF774F90C
:100FF00038680021FFF726FA0020FFF76DF900237B
:10100000019A28681370036801211B6B9847F7BD8C
:10101000781B0020EB1A002028030020B81A0020BB
:1010200004000020FC1A002093710000FC710000F5
:1010300010B501F09DFD2C4B04001B78002B4FD107
:101040002A4B1A68511C196010781A38092845D89B
:1010500005F0BAFC2A0C2005180C0C11333D01F0E8
:1010600087FD24B2241A60424441E9E701F080FD83
:1010700024B2241A2FE001F07BFD24B20123844224
:101080000FDB0DE001F074FD22B2D40FC3179042C4
:101090005C4110E001F06CFD24B20123844200DCCD
:1010A0000023DCB2A4B2CBE701F062FD22B2D41778
:1010B000C30F82425C41E4B2C2E701F059FD002354
:1010C0009C4202D0431E9841C3B29CB2B8E701F0E3
:1010D0004FFD044324B2601E8441B1E71A6000E072
:1010E000034C20B210BDC046EB1A0020B81A0020F5
:1010F000FFFF000070B505000C00FFF799FF094BDA
:1011000028801A78002A0AD1002C08D006490A68DB
:10111000501C086012780A2A01D017221A70187819
:1011200070BDC046EB1A0020B81A002013B5FFF7B7
:1011300065F9002188420DD16B469C1D2000FFF708
:10114000D9FF002801D0002104E0FFF769F9002849
:10115000F9D1218808B216BD37B501AD01212800AB
:10116000FFF7C8FF011E15D16B469C1D2000FFF73D
:10117000C1FF00280ED10022AB5E022B07D12288CE
:10118000531C9BB2082B02D8034B9A8002E0142216
:10119000024B1A7037BDC0460C1E0020EB1A00200F
:1011A00073B501AC00212000FFF7A4FF011E54D14C
:1011B0006D462A4AAE1D136818780A2807D10133F4
:1011C00030001360FFF796FF002846D101E0238826
:1011D000338024880023F55E23B29D4203DA142273
:1011E0001F4B1A7039E0A4B29D421BD12800FFF7B3
:1011F000D3FB0400FFF7C2FB85422ED12278A21850
:101200001178002909D000238B4202D1E418D218AA
:10121000F6E7D05CE0540133F6E721701DE0297059
:101220000134A4B20022B35E9C4216DC20B2FFF768
:10123000B3FB0500FFF7A2FB8442F1D12A78AA187C
:1012400011780029EBD000238B4202D1ED18D2187F
:10125000F6E7D05CE8540133F6E773BDB81A002016
:10126000EB1A002073B501AC01212000FFF742FF0B
:10127000011E22D16B469D1D2800FFF73BFF021E79
:101280001BD10E4B0026A15F18688389994202DBAF
:10129000013B238002E0002900DA2280C38900217B
:1012A0006A5E9A4201DB013B02E0002A01DA002378
:1012B0002B802A88218803F07DFE73BD781B0020D7
:1012C00037B5FFF79BF80024A04217D16B469D1D50
:1012D00021002800FFF70EFFA04201D000240DE0FE
:1012E000FFF79EF80028F9D12888FFF71BF800289F
:1012F00001D0047802E01522014B1A7020B23EBDE5
:10130000EB1A002073B5FFF779F80024A04229D129
:1013100001AE01213000FFF7EDFEA04201D0002414
:1013200020E06B469D1D21002800FFF7E3FE00280A
:10133000F5D1FFF775F80028F1D131880CB2002CF7
:10134000EDDB2A8813B2002BE9DB074800688589AA
:10135000AC42E4DAC489A342E1DA92B289B203F082
:101360003BFE84B220B276BD781B002073B56B467D
:101370009C1C01212000FFF7BDFE6B4601AD9E1DA8
:1013800000280AD101212800FFF7B4FE011E04D174
:101390003000FFF7AFFE002805D00022A35E002B2F
:1013A00001DA002323800022AB5E002B01DA002348
:1013B0002B800E480021625E83889A4201DB013B4C
:1013C0002380C38800216A5E9A4201DB013B2B80A7
:1013D0003388022B01D90123338000216A5E3388D0
:1013E0000021615E03F077F973BDC046241B002025
:1013F000F0B50E2489B002ABE41801212000FFF7FC
:1014000079FE122502ABED1806AE07AF002818D101
:1014100001212800FFF76EFE002812D101213000C3
:10142000FFF768FE00280CD101213800FFF762FEAB
:10143000011E06D1162002ABC018FFF75BFE002884
:1014400005D00022A35E002B01DA002323800022B6
:10145000AB5E002B01DA00232B800023F25E0292A8
:10146000002A01DA002323800023FA5E0392002A77
:1014700001DA00232B801A480023E15E82880300F2
:10148000914201DB511E2180DB880020295E9942B8
:1014900001DB591E298002998A4201DC013A32801F
:1014A000039A934201DC013B3B80162302AA9B185E
:1014B0001A88022A01D901221A800022B35E002173
:1014C0006A5E0020215E162002AC0019008801909F
:1014D0000024385F0090024803F0B1F909B0F0BD74
:1014E000241B0020F0B50E2487B06C44012120009D
:1014F0001226FFF7FFFD04AD6E4405AF002817D19B
:1015000001212800FFF7F6FD002811D1012130004C
:10151000FFF7F0FD00280BD101213800FFF7EAFDAD
:10152000011E05D116206844FFF7E4FD002805D010
:101530000022A35E002B01DA002323800022AB5E91
:10154000002B01DA00232B80154B0020215E9A88A6
:10155000914201DB013A2280DB8800216A5E9A42D7
:1015600001DB013B2B803B88022B01D901233B800F
:101570000022B35E002B01DA012333800022B35E28
:1015800000216A5E0020215E16206844007840B287
:10159000019038880090024802F022FE07B0F0BDAA
:1015A000241B0020F0B58BB0012107A8FFF7A2FD96
:1015B000002862D1162502ABED1801212800FFF7A3
:1015C00099FD002859D108AE01213000FFF792FDA6
:1015D000002852D11A2702ABFF1801213800FFF76B
:1015E00089FD002849D109AC01212000FFF782FDC7
:1015F000011E42D11E2302AA9B181800FFF77AFD94
:1016000000283AD102AB9B8A04936B461021595EA5
:10161000002916DB2B8805936B4614229A5E002A5C
:101620000FDB33881EB29C46B1420ADC388803B215
:101630009A4206DC124DAF88BE4202DAED88AB4218
:1016400003DB14220F4B1A7017E02388022B01D9F9
:10165000012323806346049D01335B1B02ADAD7FF4
:1016600001306DB2029524881BB20194059C001BC9
:1016700000B20090024803F0EEF80BB0F0BDC04697
:10168000241B0020EB1A002013B56B469C1D002183
:101690002000FFF72FFD002804D1034B21781868A4
:1016A00003F0EFF813BDC046781B0020F0B500260C
:1016B000534C85B02068012103681B6B9847039445
:1016C0000121504C0191236827001A78C22A14D1B5
:1016D0009A1C22605D78002D08D03B68013D5A1CA1
:1016E0003A601878FEF794FDEDB2F4E723681A78B3
:1016F0000A2A7AD10133236001952368424D5A1C8E
:1017000022601A78272A2AD0C42A64D19A1C5F78CA
:1017100022609A780A2A08D103332360FFF788FCF5
:101720002B780290002B63D10126019B002B07D060
:1017300038004130C0B2FEF76BFD3A20FEF768FD7D
:10174000FEF746FF2B78002B06D0022B56D1002E39
:1017500054D0002302982B707F002C4B35E0FFF70C
:10176000E5FC2B780700002B42D1632801DD033311
:1017700032E023681A780A2A08D101332360FFF780
:1017800057FC2B780290002B32D10126019B002BB5
:101790000CD000211E48FEF755FE00223800110033
:1017A000FEF76EFE00211B48FEF74CFEFEF710FF11
:1017B000154B1A78002A06D0022A19D1002E17D00C
:1017C000002202981A70144B7F00F85223681A788E
:1017D0000C2A03D10CE017232B7009E0C52A07D08F
:1017E0000A2A02D1013323606AE71722064B1A70D6
:1017F000039B0021186803681B6B984705B0F0BD78
:10180000781B0020B81A0020EB1A0020FC1B0020D7
:10181000987100009B710000EE090020144A70B519
:101820001368591C116059781D2903D01222114BDD
:101830001A701CE0991C1C7811609978C2290DD18E
:10184000DD25D91C0C481160DB7800686D01081A91
:1018500001334019CB1880B2136005E0FFF7E8FBB5
:10186000044B1B78002B02D1044B6400E05270BD86
:10187000B81A0020EB1A002004000020FC1B0020F6
:1018800070B5FFF753FC1D4B05001A781E00002AA7
:1018900032D180B2632802D9032333702CE0184C74
:1018A000226812781D2A13D012221A7024E0FFF742
:1018B000BFFB3378002B1FD12BB2642BECD0114A25
:1018C0005B009852236801351B78ADB20A2B13D107
:1018D00023685A1C22605A78C22AE8D10A499A1C05
:1018E0000868DD2122609B78101A490101334018F5
:1018F000D31880B22360DFE770BDC046EB1A00202A
:10190000B81A0020EE0900200400002010B50A4A91
:1019100013681978272906D0C42909D10133136027
:10192000FFF77CFF07E001331360FFF7A9FF02E038
:101930000E22024B1A7010BDB81A0020EB1A0020BC
:10194000F8B5070015001C000E00FFF771FB0C4BEB
:1019500038801A78002A05D1B04201DBA84201DDA7
:10196000142209E0002C08D006490A68501C0860BF
:1019700012780A2A01D017221A701878F8BDC046CA
:10198000EB1A0020B81A00200021F0B53B4E85B0BC
:101990003B4F02AB03ADDE803B6829801B7804001F
:1019A000C52B07D1374B384E1B6833600022AB5E26
:1019B000019320E00C2BF5D00B0032002800FFF73C
:1019C000BFFF031E58D13A6811780A29EAD10132C3
:1019D00002A83A6006300022A95E3200FFF7B0FF8D
:1019E000002849D1DEE73800FEF7C8FF019B984286
:1019F0002FDA7D19356037683D78002D3CD0F2E74D
:101A0000224B186803681B6C984783B2002B25D1C2
:101A10003068FEF7B3FF02AB063300229B5E8342C1
:101A20002ADB22000021FEF72BFD21002020FEF7FB
:101A30003DFC33682100D81CFFF778F8144B1B7865
:101A4000002B19D12000FEF747FC32681378D31819
:101A5000336033681B78002BD2D10DE01BB20D4AE6
:101A6000032B01D01B2B05D11921094B1970002321
:101A7000137001E01070CBE705B0F0BDFF7F0000F0
:101A8000B81A002004000020FC1A0020781B002057
:101A9000EB1A0020BC1A0020F7B507256B46002181
:101AA0000F4E01AF9C1DDD80336839801B78C52B3C
:101AB00015D00C2B13D00B002A003800FFF740FF85
:101AC000031E0CD139883268218010780A2806D18B
:101AD0000132326009B22A002000FFF731FFF7BD62
:101AE000B81A0020002337B501AC190007222000E6
:101AF000FFF726FF011E1FD16B46104A9D1D23884C
:101B00002B80136818780A2801D0247809E0013363
:101B1000136028000B000722FFF712FF00280BD1EB
:101B2000F3E70022AB5E9C4206DC2100044801344E
:101B300002F0C4FAE4B2F4E737BDC046B81A002098
:101B4000F21A002037B56B4600219C1D114B2180F5
:101B50001B681B78C52B0CD12488002C13D10E4D8B
:101B6000286802F093FF22002100286803F022FA7F
:101B70000EE00C2BF0D00B0001222000FFF7E0FE5E
:101B8000002805D1E8E7012C02D1044802F094FDB9
:101B900037BDC046B81A0020781B0020241B002047
:101BA00013B56B469C1D0023054A19002000FFF762
:101BB000C7FE002803D10023E05E04F0E5FA13BD60
:101BC000FF7F000037B500216B4601AD9C1D082248
:101BD0000B0028002180FFF7B3FE011E15D10B4A30
:101BE000136818780A2807D0094B228818682988B2
:101BF00003685B6C984708E00133136020000B001A
:101C00000822FFF79DFE0028EED037BDB81A00204D
:101C1000781B002013B56B469C1D0023042219007D
:101C20002000FFF78DFE002805D1034B218818689E
:101C300003689B6C984713BD781B002037B501AD36
:101C40000021012320222800FFF77AFE011E19D16E
:101C50006B469C1D2000FFF74DFA002812D100238F
:101C6000E15E28884B1E9941074AC3B2D35CC9B2D2
:101C70002180DB0703D42222044B1A7002E000B259
:101C800004F0C4FB37BDC04624760000EB1A0020E8
:101C900037B56B469D1DF5235B002B806B469C1C66
:101CA0000021012320222000FFF74AFE011E1DD142
:101CB00003000F4A01A8FFF743FE011E16D10D4A8B
:101CC000136818780A2808D023780B4AD35C9B073E
:101CD0000CD42222094B1A7008E00133136028004B
:101CE0000B00074AFFF72CFE0028EDD037BDC04699
:101CF000FF0F0000B81A002024760000EB1A002025
:101D0000FF7F000073B56B469C1D002306002380F7
:101D1000FEF774FB011E1ED101AD2800FFF7EAF9A2
:101D2000011E18D10C4A136818780A280AD0FEF749
:101D300077FB00280FD121780023E85E3200FEF700
:101D4000E7FB08E00133136020000B000422FFF7DB
:101D5000F7FD0028EBD073BDB81A002073B56B46B1
:101D60009C1D002306002380FEF748FB011E1ED1A8
:101D700001AD2800FFF7BEF9011E18D10C4A136807
:101D800018780A280AD0FEF74BFB00280FD12178DB
:101D90000023E85E3200FEF7F1FB08E00133136038
:101DA00020000B001022FFF7CBFD0028EBD073BD05
:101DB000B81A0020F0B587B00190FEF71FFB011E96
:101DC00071D13A4E35682B78C42B0CD16B1C336023
:101DD0006B78374A5B00985AFEF7A4FA023502780E
:101DE000441C356024E0272B14D104AB9C1D013525
:101DF0000300632220003560FFF7A2FD002852D1C6
:101E00000022A35E2B4A5B00985AFEF78BFA0278F9
:101E1000441C0DE0C22B07D16B1C33606B78AC1CEB
:101E20009AB2E318336003E01722234B1A703AE0AA
:101E300004AB9E1C6B4601251C4905AF1A810B683B
:101E400035803A8018780A2807D0FEF7E9FA00288A
:101E500029D104AB5D88013D15E001330B6012B25E
:101E60002B0029003000FFF76BFD031E1BD13288C9
:101E70000299AA1A521812B229003800FFF760FD21
:101E80000028E2D00FE00022B35E05AA0021525ED6
:101E9000013BADB29B189D4205DA605D0199FEF7EA
:101EA00005FA0135EFE707B0F0BDC046B81A0020CB
:101EB000FC1B0020EE090020EB1A002037B56B4612
:101EC00001249D1D2C80FEF799FA011E26D12300C6
:101ED00020226846FFF734FD011E1FD1684623000B
:101EE00020220230FFF72CFD011E17D10300220033
:101EF00001A8FFF725FD011E10D1094A13681878C3
:101F00000A2802D0FEF78CFA08E00133136028009B
:101F10000B002200FFF714FD0028F3D000203EBD87
:101F2000B81A0020F7B56B4601249D1D2C80FEF7E2
:101F300065FA011E01D0002041E0230020226846FE
:101F4000FFF7FEFC011EF6D16B469E1C220023000B
:101F50003000FFF7F5FC011EEDD101AF0300194A77
:101F60003800FFF7EDFC031EE5D117490A68107829
:101F70000A2804D0FEF754FA0028DCD109E0013227
:101F80000A6028000F4A2100FFF7DAFC0028F1D090
:101F9000D1E70023FA5EFA239B005A430023F15E47
:101FA0006B460020185E04F00DF90023E95E04F092
:101FB0001FFD044B984201DD0120404280B200B277
:101FC000FEBDC046FF7F0000B81A0020F0B5012614
:101FD0008BB000236A4606AC08AF310020003E807B
:101FE0005384FFF787F8002800D09AE01A256D4443
:101FF00031002800FFF77EF8002800D091E026236A
:102000006B4431001800FFF775F8002800D088E015
:10201000310009A8FFF76EF8002800D081E03100F8
:1020200007A8FFF767F8011E00D07AE01E20684479
:10203000FFF760F8011E74D13B4E33681A780A2A04
:1020400006D1013338003360FFF754F8002868D117
:1020500033681A780A2A09D06B46D88CFEF762F9E1
:10206000031E0FD11522314B1A705AE00133336031
:1020700022200023012219006844FFF761FC002898
:102080004FD1E9E70021625E002A01DA00222280B6
:1020900000216A5E002A01DA00222A80244A0026F2
:1020A000A05F9188884201DB01392180D28800201D
:1020B000295E914201DB013A2A8009AA0020115EC3
:1020C000002901DA0021118007AA0020115E0029F1
:1020D00001DA012111801E226A440020115E0029CC
:1020E00001DA0121118000217A5E002A01DA012241
:1020F0003A8000216A5E0020215E68462224001991
:1021000000780490388803901E206844008802906C
:1021100007A80088019009A800880090044802F0F0
:102120006EFB0BB0F0BDC046B81A0020EB1A0020C1
:10213000241B00200023F0B585B003AD0322190055
:102140002800FFF7FDFB00284ED12A8813B2012B8F
:1021500027D1264B19680E780A2E01D0172205E0E8
:102160004C1C1C604C78C22C03D01422204B1A70DB
:102170003AE0CC1C1C6004008F7800930196B842B2
:1021800027D2009B19680E78303EF3B2092BECD8A9
:10219000019B01315C43009B01303419196080B20E
:1021A000EDE70400032B14D1104A0100136801333A
:1021B000136002AB9C1D012203002000FFF7C0FB4F
:1021C000002811D10B4B217818680368DB6C984705
:1021D0000AE0084BD1B21868220002F057FB064B08
:1021E0002A881A70054B1C6005B0F0BDB81A002093
:1021F000EB1A0020781B00206C090020100300203F
:102200000123F7B501AE3380FEF7F8F8002801D0BE
:1022100000204FE0284D2C682378C22B07D1631C87
:102220002B606378A71C9AB2FB182B602AE0C42BA2
:102230000CD1631C2B606378204A5B00985AFEF730
:1022400071F802340278471C2C601BE0272B15D153
:102250006B4601342C609C1D0100030063222000AA
:10226000FFF76EFB0028D3D10022A35E144A5B0067
:10227000985AFEF757F80278471C03E01722114BD3
:102280001A7017E02B6819780A2908D00023F05E2D
:102290003F18013F3C78FEF7C3F820000AE0013305
:1022A0002B6012B2002301213000FFF749FB002808
:1022B000ECD0ADE700B2FEBDB81A0020FC1B002038
:1022C000EE090020EB1A002073B5FEF797F8002303
:1022D000011E994237D16B469D1C1F220123280005
:1022E000FFF72EFB011E2DD101AC0123202220007F
:1022F000FFF726FB011E25D16B469E1D1F22030002
:102300003000FFF71DFB00281CD1FEF789F80028DC
:1023100018D10022A35E1F2B01DD3F2300E05B00EC
:102320001F22238028883388C102134019430800E4
:10233000FC212388C9005B010B401A0003001343F2
:102340009BB200E0002318B276BD0000F0B585B066
:1023500003AE0123802210213000FFF7F1FA031EA3
:1023600029D10E276F442D220A213800FFF7E8FA01
:10237000002820D1114B1D78002D1CD1104C206855
:1023800002F084FB2A002900206802F013FE206876
:1023900003685B6D98470B4B3A881B683188009344
:1023A0002068802302F07FFB074B20681978074BD9
:1023B0001A6802F06BFA05B0F0BDC046041E00209A
:1023C000781B0020001B00206C0900201003002057
:1023D00013B56B469C1D2022012300212000FFF72E
:1023E000AFFA002812D1FEF723FE094A0100137844
:1023F000002B0BD12388074CD8B2205CC00702D435
:102400002223137002E018B203F0E2FF13BDC046AE
:10241000EB1A00202476000070B505000C00FEF7D2
:1024200007FE094B28601A78002A0AD1002C08D030
:1024300006490A68501C086012780A2A01D017223F
:102440001A70187870BDC046EB1A0020B81A002028
:102450000223F0B585B002AA13800023971C040064
:102460003B80FDF7CBFF011E5FD103A8FFF7D4FF30
:10247000011E5AD12E4D2B681A780A2A09D0FDF771
:10248000CFFF002851D102AB00229A5E01250A231A
:1024900016E001332B600422030002A8FFF750FA74
:1024A000031E42D12A6811780A29E8D101322A6034
:1024B000103906223800FFF743FA002835D1DEE74D
:1024C000904203DA01305D4380B2F9E7039E2900B0
:1024D000300004F017FB0190002805D1002E03DA2C
:1024E00021002D20FDF7E2FE0023F95E6B4622005D
:1024F0000420185EFDF7C4FF02AB00229B5E002B98
:1025000013D021002E20FDF7D1FE02AB29003000B0
:102510001F8804F0DDFBCB17C8187F423FB258403C
:1025200000B222003900FDF7ABFF05B0F0BDC04698
:10253000B81A002010B586B0FDF760FF002398425E
:102540003AD1012101A8FFF767FF002821D101211D
:1025500002A8FFF761FF00281BD1012103A8FFF7A4
:102560005BFF002815D1012104A8FFF755FF011ECC
:102570000FD105A8FFF750FF00280AD1FDF750FF43
:10258000002806D10299039A914204DB14220C4BD5
:102590001A70002310E0049C059B9C42F6DA019817
:1025A0008142F3DC8242F1DB1B1B401A5843511A73
:1025B00004F0A8FA0419A3B218B206B010BDC046C0
:1025C000EB1A0020F7B5B14D2A682900501C28608D
:1025D00013784D2B00D1F8E161D83F2B00D13CE1BD
:1025E0002FD8272B00D1DCE016D8132B00D1D4E054
:1025F00008D80E2B00D1BCE00F2B00D013E2FFF760
:10260000E1FFB9E0242B00D1B9E0252B00D00AE28C
:10261000FFF7D8FFC043AFE03B2B00D117E108D84C
:10262000392B00D1DFE03A2B00D0FCE1FFF782FF2D
:10263000A2E06A46941D3D2B00D1C5E000D8E7E03A
:10264000F1E0462B00D17FE114D8422B00D1F5E018
:1026500008D8402B00D14DE1412B00D0E3E1FEF73B
:102660002FFE89E06A46941D442B00D1E9E000D892
:10267000E7E0EFE0492B00D191E106D8472B00D1EC
:1026800062E1482B00D16EE1CDE16A46941D4B2BEF
:1026900000D1AEE100D9A3E1FFF710FCEBE1932BF1
:1026A00000D15AE12FD88C2B00D1B8E114D8672B78
:1026B00000D1AEE106D8592B00D148E1662B00D1FC
:1026C000A9E1B0E1692B00D1A3E100D2A3E18B2BFA
:1026D00000D0A8E10522A3E18F2B00D199E109D810
:1026E0008D2B00D18EE18E2B00D09CE1684B1B68B6
:1026F000DA8995E16A460632912B00D186E100D84D
:1027000084E1012383E19A2B00D182E115D8962B35
:1027100000D11FE107D8942B00D17AE1952B00D08E
:1027200081E1C82217E16A460632982B00D116E1F2
:1027300000D916E1DD235B0169E19D2B00D16CE13D
:1027400007D89B2B00D166E19C2B00D06BE10222C5
:1027500066E1C32B04D0C42B18D0C12B00D062E19A
:10276000937850781B02034368460332C3800A60A3
:102770006FE1FFF727FF40426B46D88069E1FFF722
:1027800021FF6A4643424341D38062E1931C2B60A0
:102790005378404A5B009A5A42E12A60FEF7C6FC31
:1027A000EAE7FEF7C3FC6B463B4A06331178188014
:1027B000002900D04DE1632802DD0323137048E1B6
:1027C000364A4000825A09E1FEF7B0FC324B2080C5
:1027D0001A78002A00D03CE11432002800DA37E1F0
:1027E000FDF73DFD47E1FEF7A1FC6B462C490633A2
:1027F0001880294A884201D1022111701278002ADA
:1028000000D026E1002800DB23E14042188020E1CF
:10281000FDF7F4FD002800D01BE1FDF701FE0028C4
:1028200000D016E118E1FDF7E9FD002800D010E125
:10283000FDF7F6FD002800D00BE110E1FEF762FD88
:102840009AE72722144B1A700023238001E1FFF737
:10285000D7FC91E7FFF738FD0DE1FDF7CFFD041E32
:1028600000D0F6E06A462F68961D3B78C42B19D13C
:102870007B1C2B607B78074A5B00985AFDF752FD62
:102880000378023733802F6031E0C046B81A002049
:10289000781B0020FC1B0020EB1A0020EE09002012
:1028A0000080FFFF272B14D10137030001006322B2
:1028B00030002F60FFF744F8002800D0DDE0002250
:1028C000B35E6F4A5B00985AFDF72CFD03783380A6
:1028D0000DE0C22B08D17A1C2A607B7833807B788C
:1028E0000133D3182B6002E01722664B1A70FDF7F4
:1028F00097FDAEE068465378841D132B07D193787B
:10290000142B04D10023033223802A6007E0FEF752
:102910000DFC5C4B20801B78002B00D099E02388B5
:10292000002B02D103F018FC07E0012B08D103F0C3
:1029300013FCFA21890004F05BF84004400C9AE093
:1029400000231422238082E06B46002269E0FFF717
:10295000E9FA11E7D522520162E04B4A60E04B4BA5
:1029600055E04B4B53E0FDF749FD011E71D16B461D
:102970009C1D202203002000FEF7E2FF002868D102
:10298000FDF74EFD002864D12088424AC3B2D35CD3
:102990002222DB075BD500B203F04EFD6BE0FDF7B2
:1029A0002DFD011E55D16B469C1D202203002000E9
:1029B000FEF7C6FF00284CD1FDF732FD002848D1B4
:1029C0000023E05E03F030FC55E0FEF7AFFB6B4602
:1029D0002C4AD88012780633002A3AD11A8038E07F
:1029E000FDF70CFD002834D1FDF71AFD002830D189
:1029F00038E0FDF703FD00282BD1FDF711FD00287D
:102A000027D134E0244B1B689A8909E00023138006
:102A10001FE0002204E0012202E0032200E00B227A
:102A20006B46DA8015E00A6013781C006A3CE2B25B
:102A3000202A08D91A006232D2B2032A06D89E3B55
:102A4000164A9B009C58A4B2086016E017220D4B52
:102A50001A706B46DC8810E0FDF77EFF0BE0FEF796
:102A600013FA08E00C4B186801F00CFF03E00A4B66
:102A7000186801F009FF2080EBE720B2FEBDC046D8
:102A8000EE090020EB1A0020A02B0000A02F000070
:102A9000A037000024760000781B00204876000054
:102AA00070B5FFF78FFD2F4D04002B78002B54D10C
:102AB0002D4A136818781038162850D803F084FF70
:102AC0000C121F4F4F4F2A313F394F4F4F4F4F4F2F
:102AD0004F4F4F4F4F4F460001331360FFF772FDCA
:102AE000604331E001331360FFF76CFD011E02D13A
:102AF00001232B7031E020B204F004F824E001330C
:102B00001360FFF75FFD011EF2D020B204F0E0F881
:102B10008CB2CDE701331360FFF754FDA4B28440BB
:102B200005E001331360FFF74DFDA4B20441A4B2E8
:102B3000BEE701331360FFF745FD204004E0013399
:102B40001360FFF73FFD204384B2B1E70133136008
:102B5000FFF738FD604080B202E0044800E020004A
:102B600000B270BDEB1A0020B81A0020FFFF000071
:102B700010B5FFF795FF0E4B04001B78002B13D107
:102B80000C4A136819780E2907D00F290DD101338B
:102B90001360FFF785FF241804E001331360FFF78B
:102BA0007FFF241AA4B2EBE7034C20B210BDC0464D
:102BB000EB1A0020B81A0020FFFF0000F7B5FEF75F
:102BC00037FA1A4B04001A78002A2ED11432002842
:102BD00005DB174D2A6812780A2A02D017221A70CC
:102BE00023E0144A8018144A80B2904214D8152267
:102BF000F5E72B68002101332B606B469F1D3800E1
:102C0000FEF778FA002810D13B88013433702B6826
:102C1000A4B21B780A2B08D1A4B22000FDF782FBD6
:102C2000061EE6D11523014A1370F7BDEB1A0020EA
:102C3000B81A002060D0FFFFFF0700000023F0B5A6
:102C4000050085B0019100934E4C236827001A7847
:102C50000C2A00D190E0C52A00D18DE0352A3ED063
:102C600006D81B2A1AD0342A22D0092A49D181E059
:102C7000372A3AD02DD3382A3DD0C22A41D19A1CC6
:102C800022605E78002E4ED03B6829005A1C3A60C4
:102C90001878013EFDF70AFBF6B2F3E70133236033
:102CA000FEF7C6F9384B00901B78002B3BD066E04E
:102CB0000133236002AB9E1D0023FF221900300068
:102CC000FEF73EFE00282ED130782900FDF7EEFAFF
:102CD00029E0013328002360FFF714F823E00133D3
:102CE00028002360FFF73AF81DE001332800236035
:102CF000FFF7AEFB17E0013328002360FFF75AF817
:102D000011E0FEF795F902ABD8801F4B1B78002B22
:102D100003D00020FDF7E0FA31E06B462A000021E5
:102D2000595EFDF7ADFB184B1A781900002A21D126
:102D3000019B002B03D023681B780A2B1FD022682D
:102D40001378092B16D018000A3801280AD8531C0A
:102D5000236053780C2B12D0C52B10D0092B00D038
:102D600072E70CE00C2B00D16EE7C52B00D16BE7AE
:102D700017230B702800CDE7019B002BFAD005B07C
:102D8000F0BDC046B81A0020EB1A002010B5FDF7C0
:102D9000BBFA01210320FFF751FF094C200004F08A
:102DA0007FF9084B3F2801D923221A701A78200096
:102DB000002A04D00020152A01D10E321A7010BD4D
:102DC000EC080020EB1A002073B56B469E1D012312
:102DD0000021164C338001AD236829801B78C52B58
:102DE0001CD0C22B02D0343B042B10D8FFF7CEFFEF
:102DF000002819D023681A780A2A15D101332360D4
:102E00000023093A19003000FEF79AFD0CE00B0090
:102E100007222800FEF794FD002805D1044B2978ED
:102E20001A68044801F05FF973BDC046B81A002063
:102E300004000020F21A0020F0B5574E95B0336818
:102E40001B78C22B03D01A00343A042A2ED8FFF77D
:102E50009DFF041E00D19CE00025200004F020F915
:102E600085420AD26219137819006139192901D8EB
:102E7000203B13700135EDB2EFE72378002B00D132
:102E800087E0002304210138C0B245B2002D6DDB7C
:102E900065192A782F2A74D015008D432A2D01D068
:102EA0003F2A00D101230138C0B2EEE702AA941DE7
:102EB000C52B01D00C2B05D100230722238004ABA6
:102EC0001A8020E00023072219002000FEF738FDB9
:102ED000011E5ED1336804AD1A780A2A07D1013386
:102EE00028003360FEF706F9002852D101E023885C
:102EF0002B800023E25E00216B5E9A4203DD1422E8
:102F0000264B1A7045E0264D24782B68019304ABBC
:102F100000229B5E9C4226DC224F2100380001F0FB
:102F2000C4F800220121060020B2FDF7A9FA002111
:102F30001D48FDF787FA2100380001F0EEF8011E68
:102F400003D11A48FDF77EFA07E02E603378002B94
:102F500003D0F01C0021FDF7E9FD00200134FDF74E
:102F6000BBF9E4B2D3E7019B2B6012E0012B10D137
:102F7000210004A804F08CF80D49200004F088F822
:102F800007E0012B05D1691C04A804F081F8002397
:102F90006B7015B0F0BDC046B81A0020EB1A0020C7
:102FA000FC1A0020F21A0020BB710000A071000082
:102FB0009E7100000123F0B50A268FB002AA5B4281
:102FC000138100235E4DB6182A683380511E09789C
:102FD0000127AA2902D11F0002A90B811378C22B55
:102FE00003D01A00343A042A05D8FFF7CFFE012493
:102FF00000280FD176E002AA901DC52B02D1002433
:10300000048007E0002307221900FEF799FC00283E
:1030100068D10400002F32D02E6833780A2B27D1D4
:10302000731C2B607378C22B19D1B31C2B60B27840
:103030000193131C202A00D92023C22005A9DAB24B
:1030400008704B70B43802ABC018F11C04F064F87F
:10305000B378019A0133D318394A136069E0002329
:10306000384A190004A8FEF76BFC002861D039E04B
:10307000002302AA13819C4224D101211BE02B686A
:103080001A780A2A14D101332B60093A3B0039001F
:103090003000FEF755FC002824D1002C04D002ABF0
:1030A0001C89002C13D10DE01722274B1A7044E025
:1030B000002CF4D1390002ABD888FDF7C5FE0028FA
:1030C000EDD00FE0214B1A68214B1A6019E024B2B1
:1030D000631C0CD105A8FDF771FC002804D1102257
:1030E000194B1A70002028E0194B186009E02000E5
:1030F000FDF752FC0500FDF741FC8442EFD1144B73
:103100001D60114B01201B78002B16D10C4A002F9B
:1031100009D10E4B11681B6899420ED380246401BB
:103120001B19994209D20A4B01201B680333136013
:1031300003E00121002CBED0B1E70FB0F0BDC046C6
:10314000B81A0020FF7F0000EB1A002004000020C6
:10315000FC1A0020F8B5070000250B4B1C682678E8
:10316000002E07D02000FDF709FCB84202DA250046
:10317000A419F4E7002D03D02800FDF7FFFB00E0C1
:10318000024800B2F8BDC04604000020FFFF000066
:1031900070B50500FDF700FC0400FDF7EFFB85426C
:1031A00004D120782018FDF7E9FB00E0014800B2C7
:1031B00070BDC046FFFF000070B50600FDF7ECFBD8
:1031C0000500FDF7DBFB0024864211D1FDF79CF8DA
:1031D000032221003000FDF753F92020FDF756F8B7
:1031E000E81C0321FDF7A2FC2000FDF74FF8014C7D
:1031F000200070BDEC08002037B56B46DC1D742341
:103200000120237003F0E8FD050003F0EFFD00212D
:103210002A48FDF717F9201400220421FDF778F958
:10322000002220B20421FDF773F90020FDF754F8C5
:1032300000212348FDF706F9281400220421FDF798
:1032400067F928B200220421FDF762F90020FDF79A
:1032500043F800211B48FDF7F5F80022601B110020
:1032600000B2FDF70DF90020FDF736F800211648F1
:10327000FDF7E8F8154B002218780121FDF700F959
:103280000020FDF729F800211148FDF7DBF8114B6C
:10329000002218780121FDF7F3F80020FDF71CF853
:1032A00000210D48FDF7CEF80C4B002218780121C3
:1032B000FDF7E6F80020FDF70FF837BDA771000015
:1032C000B2710000BD710000C8710000041E002032
:1032D000D07100000C030020DC7100006C0900209C
:1032E000034A11680B780133CB1813607047C0464E
:1032F000B81A002070B5104D28680378C22B07D18A
:10330000FDF75CFB041E11D110220C4B1A7011E06A
:10331000FDF78EFE094B06001B78002B0AD1FDF746
:103320003BFB0400FDF72AFB8642EDD1044B1C60F9
:1033300003342C6070BDC046B81A0020EB1A002080
:10334000FC1A0020F8B5184D28680378C22B05D167
:10335000FDF734FB041E0FD1102212E0FDF768FECA
:10336000124B06001B78002B1DD1FDF715FB040046
:10337000FDF704FB8642EFD10D480378082B03D9F3
:1033800006220A4B1A700EE00A4A0B4917689E0083
:1033900077509E1C01330670DBB228689B001460D6
:1033A000033458502C60F8BDB81A0020EB1A0020E6
:1033B000ED090020FC1A0020C01A002010B50B48AF
:1033C0000378012B03D80722094B1A700DE05A1E0F
:1033D0000849D2B29200023B5458DBB2064A03704D
:1033E0009B0014605A58054B1A6010BDED0900206F
:1033F000EB1A0020C01A0020B81A0020FC1A002086
:10340000F8B52B4C2B4D23685A1C22601A78C42A1D
:1034100001D00C232EE05F78FEF700FA2B78002B0A
:1034200044D123681A78042A0AD101332360FDF7B6
:10343000FFFD236806001A780120052A10D101E05B
:103440000D2317E001332360FDF7F2FD002805DAB4
:10345000194B1B1AB34208DD02230BE0002804D0ED
:10346000164B02B29B1AB342F6DB154B1B78142B9A
:1034700002D908232B7019E01249134A09689D00EC
:10348000A95021685D1C9C1CEDB2E4B2A400AD0003
:10349000A950A650DC1CE4B200B2A400A050581DF4
:1034A00004330749DBB29B0008709F50F8BDC0464B
:1034B000B81A0020EB1A00200180FFFFFF7F0000F8
:1034C000EA1A0020FC1A0020A01D0020F0B5224EB0
:1034D00009223078042813D9204A214C431E9B002E
:1034E000195913685D1C15601D78C42D01D00A227E
:1034F00006E09D1C15605A780BB29A4203D00B224D
:10350000184B1A7026E0184D831E52009B00195963
:10351000535B8FB25B189BB25353C21E9200125979
:10352000451F92B2090404D51BB212B2934208DAC5
:1035300005E0002F05D019B212B2914201DD3570BD
:1035400008E0031F9B00E258044B1A60AB00E258EE
:10355000064B1A60F0BDC046EA1A0020B81A0020D7
:10356000A01D0020EB1A0020FC1B0020FC1A0020EC
:1035700010B5FDF75DFD0C4B1A78002A02D00F2222
:103580001A7010E000280ED1084C2068FDF74CFAA4
:103590002200002806D113681978C52903D0013309
:1035A0001360F8E7206010BDEB1A0020B81A002065
:1035B000044A13681978C52902D001331360F8E76B
:1035C0007047C046B81A0020044A11680B78002BD7
:1035D00002D0CB181360F8E77047C046FC1A0020F1
:1035E000F8B5002327258D4C23708D4E33681B784A
:1035F000C52B00D18DE18B4F386803681B6C984751
:1036000000280AD0884B032801D01B2804D1192296
:10361000227000221A707CE1187033685A1C3260E4
:103620001878C42800D965E103F0D8F9C800CB00A8
:10363000CE00D10064016401D400D700DD00DA00BF
:10364000640164016E01DA006401640164016401D3
:103650006401640164016401640164016401640142
:103660006401640164016401640164016401640132
:1036700064016401640164016401F2006E01E3000D
:103680000C01000100010301E000E900EC00E6008C
:103690000F015F016401640164016401640164015C
:1036A00064016401640164016401640164016401F2
:1036B00064016401640164016401640164016401E2
:1036C0006401640164016401130116011C01190104
:1036D0001F015F015F016901060109016E016401BB
:1036E00030012A012D01250122016E016E016E01BA
:1036F00064016E015F016E01640164016401640193
:103700006401640164016401640164016401640191
:103710006401640164016401640164016401640181
:103720006401640164016401640164016401640171
:103730006401640164016401640164016401640161
:103740006401640164016401640164016401640151
:103750006401640164016401640164016401640141
:103760006401640164016401640164016401640131
:103770006E016E016E016E016E016E016E016E01D1
:10378000560159016E016E0138015201DA00F5004F
:1037900033015601490146014C016E014F013501CB
:1037A0005F015C015F01610161016101640164010C
:1037B000C5006401EF00FFF793FDA5E0FFF79AFD58
:1037C000A2E0FFF7BFFD9FE0FFF7F8FD9CE0FFF7E9
:1037D00017FE99E0FFF77AFE96E0FFF7C9FE93E047
:1037E000FFF7E6FE90E0FFF7EFFE8DE0FEF7AAF9A7
:1037F0008AE0FEF7D5F987E0FDF734FD84E0FEF7B7
:10380000E1F981E0FEF706FA7EE0FEF707F87BE0DB
:10381000FEF736F878E0FEF779F875E0EB1A00204D
:10382000B81A0020781B0020BC1A002000210800D4
:1038300023E0FDF73BFF67E0FEF700FA64E0FEF7E8
:1038400027FA61E0FFF7BAF95EE0386801F05CF949
:103850005AE0FDF78BFD57E0FDF7CAFD54E0FDF798
:1038600041FE51E0FDF79EFE4EE0FEF7AFFB4BE060
:10387000FDF70AFF48E000210120FFF7DFF943E0F0
:10388000FDF734FB40E0FDF71BFB3DE0FEF752FC8B
:103890003AE002201DE0FFF7AFFC35E03868002178
:1038A00003681B6B98470020FEF76EF8386801210B
:1038B00003681B6B984727E0FEF7EEF824E0FFF75C
:1038C000BBFA21E0FDF748FC1EE0FEF70BF91BE018
:1038D0000020FDF7EFF917E0FFF76CFB14E0FFF7AE
:1038E00073FA11E0FEF732FD0EE025700CE01323B1
:1038F000237013E033601B786A3B202B02D8FEF75D
:1039000067FD01E0172323702378002B00D16CE6BC
:1039100004E0034B18680378C01800E00020F8BDED
:10392000FC1A002000230D4A10B513700C4A0D4CF0
:10393000137098420FD10C4B1B68236023681A78D0
:10394000002A0AD0094A03331360FFF749FE084BE7
:103950001B78002B01D12060F0E710BDED0900209D
:10396000EA1A0020FC1A002004000020B81A0020E7
:10397000EB1A002070B5264A2649531C0B601378B9
:10398000BD2B2ED004D8AA2B09D0B32B0AD02EE001
:10399000BF2B29D01BD30024C02B37D027E0FFF743
:1039A00009FB32E0FFF706FB012400282ED01A4D58
:1039B0000021286803681B6B9847184B1868FFF7AD
:1039C000B1FF2868210003681B6B98471EE0124C6A
:1039D0000021206803681B6B98470020FFF7A2FFB7
:1039E0000EE0FDF797F910E0FDF7DAFB0DE00A4C69
:1039F0000A602068002103681B6B9847FFF7F0FD01
:103A00002068012103681B6B98470124200070BDCA
:103A10006D090020B81A0020781B0020FC1A002035
:103A2000F7B50020FDF746F9F020C00003F0D4F907
:103A30000026514D2860514800F01AFE504C2B686A
:103A400050481822206050210093802301F02BF869
:103A50004D4B206819784D4B1A6800F017FF4C4BFE
:103A60001A784C4B1A704C4B1A784C4B1A70FEF764
:103A700069F82068002103681B6B984700214848BB
:103A8000FCF7E0FC0020FCF727FC00214548FCF790
:103A9000D9FC00214448FCF7D5FC0020FCF71CFCB5
:103AA000424D30002E70FDF757FA2068012103685F
:103AB0001B6B98473100052002F08AFC0B20310077
:103AC00002F086FC052002F0B7FCB04204D10100F0
:103AD000FDF7BAF9061E42D02068012103681B6B6E
:103AE000984720680368DB6D98470028F9D0236861
:103AF0009E693078002802D1FCF7EEFBF1E7300038
:103B000003F0CEFA7F2805D91A2300202B70FCF78A
:103B1000E3FB1BE0264F3100380003F0B9FA380010
:103B2000FCF758FC0020FCF7D7FBFCF707FE2B78CE
:103B3000002B01D001200AE01E4B1A78C12A09D1BE
:103B40001870FCF7ABFF2B78002BCAD00020FDF7D4
:103B500003FAC6E7FFF70EFF0028C2D0F6E7206899
:103B6000310003681B6B98473000FFF7DBFE300025
:103B7000FCF7B2FB2E70AFE7001B0020241B0020D7
:103B8000781B0020041B00206C090020100300207B
:103B90000C03002014030020E91A0020E81A00207A
:103BA000E8710000FE71000010720000EB1A0020A6
:103BB0007C1B00206D09002037B5174B174A1B6886
:103BC00017481978174D11805A78174B17491A80E2
:103BD000174B1A78174B1A70002303714371164B59
:103BE0002A00036003F0A6F8144C154B200008309F
:103BF000236001F049FC2A001249200003F09AF8E2
:103C00000423802280210093D200DB1849000E4853
:103C100000F040FA37BDC046EC1A00200A1E002012
:103C2000041B002000000020081E0020ED01000001
:103C3000041E0020B60A0020647C0000241B002023
:103C4000F47B0000F9010000F21A002010B5FFF724
:103C5000E7FE10BDE12110B54902044802F084FCE2
:103C6000002002F0E1FA02F00FFE10BD301E00202D
:103C7000034B10B51B68002B00D0984710BDC04601
:103C8000A41E0020034B10B51B68181E00D09847D7
:103C900010BDC046A01E002010B5040020780028EA
:103CA00003D0FFF7E5FF0134F8E710BD70B5041E3F
:103CB000092C16D9632809D9642102F099FE050060
:103CC0003030FFF7D5FF64206843241A0A21200012
:103CD00002F08EFE05003030FFF7CAFF0A2068436D
:103CE000241A20003030FFF7C3FF70BD70B50D4CB3
:103CF00006000D1E236807D0002B0BD10A48FFF7E2
:103D0000CBFF0123236005E0002B03D00748FFF71A
:103D1000C3FF25603000FFF7ABFF054A136801338E
:103D2000136070BD181E0020B4760000B976000044
:103D30001803002070B505000C00884203D10A4822
:103D4000FFF7AAFF0EE00948FFF7A6FF681CFFF780
:103D5000ADFF3B20FFF78CFF601CFFF7A7FF722031
:103D6000FFF786FF70BDC046BE760000C276000039
:103D700070B505000C000848FFF78EFF681CFFF7C0
:103D800095FF3B20FFF774FF601CFFF78FFF482073
:103D9000FFF76EFF70BDC046C2760000014B186091
:103DA0007047C046A01E0020014B18607047C046F7
:103DB000A41E002010B50021FFF798FF10BD0000E1
:103DC00070B51F4E04003368834237D025051D4867
:103DD0002D0FFFF761FF6B1E072B06D81A48FFF760
:103DE0005BFF28002F30FFF743FF25042D0F6B1ECC
:103DF000072B06D81548FFF74FFF28002F30FFF795
:103E000037FFA30702D51248FFF746FFE30702D5A5
:103E10000E48FFF741FF630702D50E48FFF73CFF4E
:103E2000230702D50C48FFF737FFE30602D50B48FE
:103E3000FFF732FF6D20FFF71BFF346070BDC046F7
:103E400020030020C5760000C9760000CC76000073
:103E5000CF760000D2760000D5760000D87600003C
:103E6000064B10B51C68064A844202D114688C4285
:103E700003D018601160FFF77BFF10BD1C0300200A
:103E80001803002010B50B4B0B4C19682068FFF786
:103E900051FF00212068FFF76BFF0848FFF7FCFE89
:103EA00000210800FFF746FF054B20681968FFF75F
:103EB0005FFF10BD240300201C030020DF760000FC
:103EC0001803002010B50C4B0C4C18682168FFF744
:103ED00031FF00212068FFF74BFF0948FFF7DCFEA8
:103EE00000210800FFF726FF064B1968064B1868EB
:103EF000FFF73EFF10BDC046141E00202403002023
:103F0000E3760000180300201C03002010B50248CF
:103F1000FFF7C2FE10BDC046E676000000B5FF20E8
:103F200000BD000010B50248FFF7B6FE10BDC04648
:103F3000F3760000024B1860024B19607047C046D0
:103F4000141E00202403002010B504000448FFF7CD
:103F5000A3FE6C20002C00D06820FFF789FE10BD66
:103F6000FB76000073B5FFF78DFE08237F2830D065
:103F7000031E1B2B2DD1FFF785FEFF28FBD01B2333
:103F8000984226D05B2801D0FF2322E00024FFF7CF
:103F900079FEFF28FBD0030001AD413B6055621C58
:103FA000192B04D97E2802D0141E032CEFD1002334
:103FB0001C00094EAB54A3009959280003F05EF889
:103FC000002802D12300803303E00134172CF2D102
:103FD000DAE7180076BDC04658760000114A30B5C1
:103FE000012390421CD882051AD1022180250E4B54
:103FF0000E4AED00995080245959E4000029FAD066
:10400000A121094DC900685019590029FCD0002090
:10401000054988508021C9005A58002AFCD0002345
:10402000180030BDFFFF030000E001400405000060
:10403000F0B5154C0123A04223D8840521D11D00E1
:104040008C071ED1114C124BA4461D518025ED004A
:104050005C59002CFCD080270024FF008025ED0057
:10406000944207D2A5004E594651DD59002DFCD08F
:104070000134F3E7002261465A505A59002AFCD015
:1040800000231800F0BDC046FFFF03000405000038
:1040900000E0014010B502AC2488018084805C43BC
:1040A000091B4280C380018110BD020080881389F2
:1040B0004843C11853884B431800704770B505003A
:1040C000FFF7F3FF00240600AB88A34209D96888F4
:1040D00060438019FFF782FF002803D10134E4B266
:1040E000F2E7002070BDF8B50C0007001600FFF7DE
:1040F000DCFF210005003800FFF7E0FF041E09D1B6
:104100007A88BB8831005A43921092B22800FFF798
:104110008FFF00E001242000F8BD10B5FFF7C5FFB8
:10412000027803000120FF2A04D15878FF38431E8B
:104130009841C0B210BDF8B504000F001500FFF79C
:10414000B4FF390006002000FFF7E7FF1623002820
:1041500007D0A388628831005A43280002F050FE3D
:1041600000231800F8BD7047002070477047704763
:1041700028307047030050304E331980028070475A
:104180007047F0B5160007000D0085B001930AAB2B
:1041900000229B5E009602930BAB1B780393029B5D
:1041A000009AF3189A4215DA2C00019BEB189C42F6
:1041B0000BDA3B6832005B6B290038009847039BA1
:1041C000984209D0013424B2EFE7009B01331BB2BF
:1041D0000093E4E7002000E0012000B205B0F0BD4C
:1041E00037B507AD2D7806AC24886DB20830009441
:1041F000002D02D001F045FD01E001F0DFFB37BDED
:1042000010B5083001F01AFA00B210BDF0B5070081
:104210008DB0009312AB00241C5F13AB1B780837E2
:104220000500380002930191160001F05EFFC44BB7
:1042300080001818029BC35C3800059301F055FFFD
:1042400002280DD0032815D001281DD105231B1BE2
:104250009B1B009A1BB20094019E1400019313E073
:104260000523009A01999A1A521A12B21B1B019245
:104270009B1B08E00523009A9B1A019A01969B1A42
:10428000009A009414001EB22B6828001B699847FE
:104290000721F3170B409B19DB109BB29AB20492D3
:1042A0003219029252180700D01701408A18D21012
:1042B00091B24A1E92B20392059A032A00D9D4E120
:1042C0001000A04A02F080FB684222023100114037
:1042D00004D508200139404201430131FF2009B2D1
:1042E0008840C1430298C9B2024004D50820013A6F
:1042F000404202430132FF2090406A460690127EFF
:104300000792072294463240099256E1310011404B
:1043100004D508200139404201430131FF2009B290
:104320008840C1430298C9B2024004D50820013A2E
:10433000404202430132FF2090406A460590127DC0
:1043400006920722944632400992D2E03100114091
:1043500004D508200139404201430131FF2009B250
:104360008840C143C9B20691C943C9B207910299B5
:104370000A4004D50821013A49420A430132FF218B
:1043800091400A00D243D2B209920722C9B2324008
:10439000089101980A928EE03300134004D508205A
:1043A000013B404203430133FF201BB29840C3430B
:1043B000DBB20593DB430793029B1A4004D5082325
:1043C000013A5B421A430132FF2318009040020079
:1043D0001340DB430993052359438BB20A93072308
:1043E000C0B23340019A08900B93019B00995B186F
:1043F0009A4200DB39E16B4600219D8993B2069316
:104400000A9B069A053BD3189BB204982EB28642AB
:1044100027DB049AFC182078964207D10B9A002AD1
:1044200004D0079E06407210059E0AE0039A964249
:104430000AD10726029A324206D0099E064072101F
:10444000089E0640164300E0461026702678C901F3
:10445000314321700121013D053B0140ADB29BB2CA
:10446000D3E7069A013212B2BFE78AB2059205225B
:1044700005994A43121892B20499BA1815788E42D7
:1044800022D10A9900291FD0079E2E407100069E56
:104490002E400E4316701678E411344314707F22B8
:1044A0002C0005999443013189B2039A0EB29642C9
:1044B000DBDD013000B2019A00995218904200DB16
:1044C000D3E019000024F0E703998E4208D10726B3
:1044D0000299314204D0099E2E407100089ED7E710
:1044E0006E00D7E7FB181A780A401A70079B013351
:1044F0009BB2039A18B2904200DDB6E09BB20793DC
:104500000523079A5343019A9B18049A9BB2904241
:104510001AD1099A002A17D0CE43009A501E80B2B1
:1045200002B2002ADEDD9A18BA18541E25781478D3
:1045300035400C402C430138147080B2F0E7C0467F
:10454000DC7B000007000080009A039C013A92B2D5
:10455000A0421CD164460298204218D00598C64358
:1045600010B200280EDD18183818441E257804787B
:1045700035400895069D013A2C40089D92B22C4387
:104580000470EDE7FB181A7806980240ADE7002AA0
:1045900007D09C18381901380078013A385592B282
:1045A000F5E7FA54A2E7009A9B18013BFB181A782A
:1045B0000A401A70059B01339BB2039A18B29042CD
:1045C00053DC9BB205930523059A5343019A9B182C
:1045D000049A9BB2904213D1099A002A10D001226A
:1045E000CE4300989042DEDD9818441E3C193D5C95
:1045F00020783540084028430132207092B2F0E71D
:10460000039C0122A0421FD16446029820421BD085
:104610000698C643009890420EDD98183D5C441EF3
:104620003C19354008952078079D01322840089DA7
:1046300092B228432070EDE7009A07989B18013B3F
:10464000FB181A780240B4E70098904207DD9818EA
:104650003C5C381801380132047092B2F4E7009AD9
:10466000BA18D318013B0022A3E70DB0F0BDC04635
:10467000052370B58380C380050003000026012454
:104680004833083550305E80DE801C809C80068078
:10469000280000F071FF2800064901F028FD3100D4
:1046A000280001F020FD2800210001F019FD200064
:1046B00070BDC046D8780000030010B504004A332E
:1046C0001988083000F090FE220000234E3250344A
:1046D0001380238010BD10B5083000F093FE10BD8C
:1046E000F0B591B00D9316AB0C9100215B5E060006
:1046F000089317AB00215B5E07210E9318AB1B8854
:104700000A91099319AB1D881AAB1B780F9393B2CA
:104710000593089B0733DA170A40D318DB100B9375
:10472000059B0293049300230393059A029B9B1A13
:104730000E9A1BB29A4260DD6B461B8A00240793D7
:104740006B461B8E1F000693089A23B2934246DAEB
:104750000A99DA170A40D31803990D9ADB105218F8
:104760008021D35C0A9AA4B222401141194210D090
:10477000012D07D16B4608229A5E069BE11809B20B
:10478000099B14E06A462BB21C21525E099839B28B
:104790001AE00F9B002B1DD0012D0DD16A4633006E
:1047A0000821525E06994A3361181B8809B230000D
:1047B000083000F027FE0DE030006A464A300088DD
:1047C0001C21525E2BB239B20190300000930830A8
:1047D00001F016F801347F19A4B2BFB2B4E70B9A06
:1047E000049B9446EB189BB20493029B01339BB24B
:1047F0000293039B6344039397E711B0F0BDF0B5B8
:1048000087B00DAD2E880EAD2F880FAD2D880CAC66
:10481000AC46F51DED107D4324883FB26C431B1957
:10482000012404946446039404004834248836B276
:10483000029401970096FFF753FF07B0F0BD37B51C
:1048400006AC0025645F07AD2D8808300195009403
:1048500001F009F837BD73B506AC08AE0025645FFA
:10486000367807AD2D8876B2083001950094002E79
:1048700002D000F0C5FF01E001F036F873BD7047CB
:104880007047704770477047002070477047704707
:1048900070470800704710B5036800219B6A98476D
:1048A00010BD704770B50D000400160028001100FF
:1048B000FFF7D6FA6682A58270BD70B51D000400B0
:1048C0001000FFF7CDFA2800FFF774FA618AA08A7A
:1048D000FFF7C6FA70BD10B50720FFF76BFA10BDE1
:1048E00010B5FFF713FB10BD10B508000021FFF74E
:1048F000B7FAFFF717FB10BD10B5FFF7E3FA10BDCD
:1049000010B5040008000021FFF7AAFAFFF7BAFA71
:10491000618AA08AFFF7A4FA10BD000010B5040058
:104920000848FFF741FA0848FFF738FAFFF7F6FAA8
:10493000E18900200139FFF7FDFA00232371034BC1
:104940001C6010BD214A0000F54900001C1E00201B
:1049500010B5FFF707FB0300C0B28B38042806D858
:1049600002F032F8030B070509000C2006E0D8B26C
:1049700004E00E2002E0122000E0042010BD10B57B
:1049800081770800FFF7E0FA10BD000010B5042998
:1049900004D8034B4900C85AFFF712FA10BDC046AD
:1049A000C87C000010B508290AD8082A08D8054B89
:1049B0004900C85A044B5200D35A1843FFF700FA73
:1049C00010BDC0464A7C0000387C000010B5037959
:1049D0000400002B01D0002008E0054801F004FE8F
:1049E0000028F8D023682000DB6B984710BDC04634
:1049F000301E002010B5084B1B681B79002B09D115
:104A0000064C200001F0F0FD0028F9D0200001F054
:104A1000F5FDC0B210BDC0461C1E0020301E002097
:104A200010B5054B01001B681B79002B02D1034810
:104A300001F0A2FD10BDC0461C1E0020301E00204B
:104A400070B504000368DB689847E57F002D05D149
:104A5000A068002802D002F0C9F9A56070BD70B549
:104A60000400828908000D005043A3680021181833
:104A700002F0E4F92368E9B22000DB699847236873
:104A8000A27C217D1B692000984770BD10B50400F1
:104A900003689B699847A289E389A0685A4300216B
:104AA00002F0CCF910BD70B50382002304008377B7
:104AB000036881819B68C281049D9847E37F002B36
:104AC00004D1A068002801D002F090F9002D07D190
:104AD000A089E389E577584302F07EF9A06002E0FF
:104AE0000123A560E3772000FFF7D0FF23682000B3
:104AF0001B6B012198472368A27C217D1B69200044
:104B000098470123237770BD70B504000025E28922
:104B10002368AA4206D929009B6D200001359847D9
:104B2000ADB2F4E7A27C217D1B692000984770BDDF
:104B3000F7B5CBB2019303680E00DB69C9B204007C
:104B400000259847A3899D4218D27343A26820008C
:104B50005219D15C23681B6D984700280BD0A3899C
:104B6000A26873435219D35C2268E9B252692000EB
:104B70001700019AB8470135ADB2E3E7F7BD10B5AC
:104B80000400C28981898368013A4A431800591890
:104B900002F03FF9236820005B6B984723682000F0
:104BA0001B6A9847E1892000013989B2FFF757FF56
:104BB0002368A27C217D1B692000984710BD10B599
:104BC0000400E289A3688089013A42431900181859
:104BD00002F01FF9236820005B6B984723682000D0
:104BE0005B6A984720000021FFF739FF2368A27C09
:104BF000217D1B692000984710BD70B5C289050052
:104C0000013A0C1E94420BDA81898368A01C484348
:104C1000121B013A4A43411A5918181802F0F9F8C0
:104C2000AA89013410006043AB680021181802F013
:104C300005F92B682800E1B29B6A984770BDF8B56A
:104C400004008089A38A5843638AC018A36818188F
:104C50000378002B26D005002B782E1AB6B2002B35
:104C600001D00135F8E7012E03D9721E411C02F074
:104C7000D0F86B1E00251D70678AA189B81901F054
:104C800041FFA18A2368A84207DB491989B29B6DBD
:104C9000200001359847EDB2EEE7FAB2C9B21B69C0
:104CA00020009847F8BD70B5858AC389691C89B210
:104CB0000AB204009A4202DBFFF761FFA9B223683F
:104CC000C9B21B6900222000984770BD70B504006E
:104CD000428A838A013292B2A18910B29DB288427F
:104CE0000BDB01339BB2E28919B2914203DB200056
:104CF000FFF745FF00E01D0000222368E9B2D2B2B1
:104D00001B692000984770BD0B0070B504008189B5
:104D1000828A4A43418A8068821853542068227DDF
:104D20004569A17C2000A8472000FFF7CFFF70BD98
:104D3000F0B5836889B0019305918689838A019AC9
:104D4000009373430293458A04005B19D71800222D
:104D5000B95C93B2501C002901D00200F8E712049C
:104D60000392E2890692002B02D0237F002B31D1DF
:104D7000039B31001A0C5519681C01F0C3FE009BFF
:104D8000C018069B98420BDB2000FFF7F8FEA18AB3
:104D900023680139A27CC9B21B692000984713E03F
:104DA000731E9D4210DB0299019A8C466244D35CCB
:104DB000002B09D13100280001F0A4FE009B181837
:104DC00081B22000FFF719FF236805999B6B200033
:104DD000984758E0039B31001B0CED1804936B1CA3
:104DE0001800079301F08EFE009BC018069B9842A6
:104DF0000DDB2000FFF7C3FEA389A18AFF1A2368F9
:104E00000139A27CC9B21B692000984717E0310024
:104E1000681C01F05DFF731E994210D1029A019B3C
:104E2000944663445B5D002B09D13100280001F0FA
:104E300069FE009B181881B22000FFF7DEFE039B7D
:104E400039001A0C781C01F0E4FF6B461B7D200032
:104E50003B70FFF73BFF0025049B668AA189F01891
:104E600001F050FEA18A2368A84207DB491989B2E4
:104E70009B6D200001359847EDB2EDE7F2B2C9B263
:104E80001B692000984709B0F0BD10B5428A0400A4
:104E9000838A002A10D081894B4381688A18D318ED
:104EA000013B197803681B6D984700281ED0628A61
:104EB000217D013AD2B215E0002B17D08189013B48
:104EC0004B431A0083685B189B18013B19780368F1
:104ED0001B6D9847002809D0A289A18A013A01399F
:104EE000D2B2C9B2236820001B69984710BD10B523
:104EF0000400418A8289481CA38A904210DA5343F5
:104F0000A26820005118C95C23681B6D98470028CF
:104F10001BD0628A23680132D2B2217D1B6912E064
:104F2000E18901338B4210DA5343A2682000D15C3F
:104F300023681B6D9847002807D00022A18A2368A8
:104F400001311B69C9B22000984710BD70B505003A
:104F50008489AA89AB8A013C5343AA68A4B2D318B6
:104F600026B2995D2B6828001B6D9847002801D157
:104F7000002EEEDC2B68297D2800E2B21B699847E1
:104F800070BD70B50500C489013CA4B2002C0AD0E4
:104F9000AA8923B25343AA682800D15C2B681B6DF1
:104FA00098470028F0D02B682800E1B21B69002246
:104FB000984770BD838910B514008B4201D8013B1E
:104FC00099B2C389CAB2191CA34200D9211C036833
:104FD000C9B21B69984710BD30B584890300002011
:104FE0008C4206D9DD89954203D962439B685918E2
:104FF000885C30BD10B5818A838982684B43448ABE
:10500000D318002C02D14C1EA1415B1A934206D941
:105010001978002901D15A1C03E0013BF6E79342BD
:10502000F9D18261012010BD70B500240A2685895E
:10503000694385686D182878FBF708F9002808D0BF
:1050400074432878303C094B04199C4209D8013537
:10505000F1E7002C05D02B78202B02D16B78002BA8
:1050600001D10124644220B270BDC046FF7F000020
:10507000F0B5C18985B0013909B20400FFF7D4FF4A
:10508000002804DC294B188803B2002B41DD00B254
:10509000FEF77EF8061E39DDFEF78EF8070001F0F8
:1050A000FFFF002583B203936B460C229B5E0193A6
:1050B000A38901981900029301F024FDA84205DBA1
:1050C00020000135FFF75BFDEDB2EDE7E389390024
:1050D000013B181A029B002543431800A3681818C7
:1050E00001F0D6FFA189019801F00CFDA8420ADB6E
:1050F000E18923680139491B89B29B6D2000013584
:105100009847EDB2EEE7094B1E8005E00022074B01
:105110001A802000FFF733FD23682000A27C217D48
:105120001B699847002005B0F0BDC046201E002036
:1051300070B5838AC28901330400934229DA8289D7
:1051400081685343428ACB18995C03681B6D98476A
:10515000628A1500D2B2002813D1A38AA289013332
:105160005343A2682EB2D318995D236820001B6DAB
:105170009847002804D1002E02DD013DADB2ECE7D6
:10518000EAB2A18A23680131C9B21B69200098479D
:1051900003E0934201D1FFF76BFF70BDF7B500212B
:1051A0000400FFF741FF00282DDDFDF7D3FF0028A5
:1051B00029DDFEF701F8070001F072FF002583B238
:1051C00001936B4604269E5FA189300001F09AFC92
:1051D000A84205DB20000135FFF7F1FCEDB2F0E756
:1051E0003900A06801F054FF0025A189300001F0CA
:1051F00089FCA8420ADB2368A9B29B6D2000013517
:105200009847EDB2F1E72000FFF7D9FC23682000B2
:10521000A27C217D1B6998470020FEBD70B5838A62
:105220000400002B2AD08289013B53438168428AC3
:10523000CB18995C03681B6D9847628A1500D2B23F
:10524000002813D1A38AA289013B5343A2682EB23E
:10525000D318995D236820001B6D9847002804D15E
:10526000002E02DD013DADB2ECE7EAB2A18A23686F
:105270000139C9B21B692000984701E0FFF78EFF92
:1052800070BD70B5040023682000DB6B984723686D
:1052900005001B6B002120009847832D00D173E08F
:1052A00020D80E2D00D17BE00CD8082D65D003D876
:1052B000042D00D179E07DE00C2D2BD00D2D00D1F7
:1052C00089E077E0802D63D004D8122D48D0182DC6
:1052D00056D06FE0812D5FD0822D6BD12000FFF77B
:1052E000D4FD72E0882D2BD007D8852D48D015D35A
:1052F000862D3DD0872D14D05CE08C2D55D004D860
:10530000892D31D08B2D05D054E08D2D48D08F2D97
:1053100026D04FE02000FFF7B9FB1BE0A28A002156
:105320001AE0638A2000002B07D1E389A28A013B9F
:105330009A4202D1FFF79CFE47E0FFF722FE44E0CD
:10534000638A002B06D1A38A002B03D12000FFF72C
:1053500025FF3AE0002211002000FFF72BFE34E089
:105360002000FFF7D1FB30E02000FFF7EFFD2CE03D
:10537000237F5A425341237727E02000FFF785FD22
:105380002000FFF75CFC20E02000FFF7B0FD1CE0F0
:105390002000FFF7CDFE18E02000FFF73FFF14E0EC
:1053A000A18A2000FFF729FC0FE0A18A2000FFF767
:1053B00056FB0AE0236829001B6D2000984700284F
:1053C00003D029002000FFF7B3FC236801211B6BE9
:1053D0002000984757E7236801211B6B200098475E
:1053E0002000FFF707FE70BD020010B51B3200233E
:1053F0001C00013320340155092BF9D109308242B8
:10540000F5D110BD30B5002939DB002A37DB0C257A
:10541000445F8C4233DD0E25445F94422FDD447E91
:10542000022C09D0032C10D0012C13D10489013C8B
:10543000A41A0A0021B20DE00489013C611A4489D2
:1054400009B2013CA21A12B204E04489013C641A78
:10545000110022B2052462435118094AC9B2525CB4
:10546000013AD4B2074A525C013AD1B209224A4306
:10547000821812190132002B00D00123D37730BDDE
:10548000ED030020CB030020052210B5040011001D
:1054900000F07AFA2000054B1B220833236000211C
:1054A000203001F0CBFC200010BDC046807F000002
:1054B00070470000F7B50025194C1A4F23780600F5
:1054C0000021F85C00F0A2FF0097174F0121E85D72
:1054D000013500F09BFF0197092DF6D123780133A8
:1054E000DBB22370022B01D900232370002509278A
:1054F00023787B43F3185B190133DB7F002B04D047
:10550000019B0021585D00F081FF0135092DEFD18D
:105510002378009A0121D05C00F078FFF7BDC046E7
:10552000281E0020C8030020E403002000220E4BA8
:105530000E49A22010B55A5004240121C000D960A0
:105540001C50FA2408381A50A40038301C5008485F
:105550001A508020C1224002920098508020054AB3
:10556000C0001060196010BD00A0004004050000DC
:105570004405000000E100E070B505000024194B6F
:105580001860194E0121A05D00F022FFA05D0121ED
:10559000013400F03BFF092CF3D10024134E01210C
:1055A000A05D00F015FFA05D0021013400F02EFF8A
:1055B000032CF3D128002B0000241B300022110003
:1055C0002031591801320C70092AF8D10933984258
:1055D000F4D10022064B28001A70FFF7A7FF012024
:1055E00070BDC046241E0020E4030020C803002034
:1055F000281E00200C4B10B55A6C0C4C002A11D000
:10560000C1229200A258D2030CD500225A64084B42
:105610001868FFF74FFFA822FA21D200A35889008B
:105620005B18A35010BDC046FCA0004000A0004085
:10563000241E002010B5FFF7DDFF10BD05235A43DF
:105640005118092210B50400074BC9B2585C074B2A
:105650000138C0B250435B5C2018013BDBB2C0187C
:105660000130C07F10BDC046CB030020ED030020F9
:10567000F0B515000C001E0089B00EAB00229B5E39
:105680000FAA1288019006925A1BD11752184A404D
:105690000292321BD11752184A4003920399029A80
:1056A0008A4205DD32001E00130022002C00150086
:1056B000B44205DD2A001D0013002200340016004C
:1056C000321B92B205925A1BD11752184A400792C8
:1056D0006A461421525ED10F8A18521092B200927B
:1056E000012204929D4201DB154B0493B44224DC59
:1056F000019B029A1B6803991B691F00069B8A4243
:1057000002DD2200290001E02A0021000198B847AB
:10571000009A079BD31A9BB29AB200926A461288EB
:1057200012B2002A06DA049AAD18059A2DB2D318DF
:105730009BB20093013424B2D8E709B0F0BDC04653
:10574000FFFF000010B50468A468A04710BD37B57E
:1057500006AC258804680095246BA04737BD37B593
:1057600006AC258804680095646BA04737BD73B507
:1057700006AC0025655F07AC268804680196009595
:10578000A46BA04773BD7047F0B5160004000D0070
:1057900085B003930AAB1F880368DB689847039BB7
:1057A0002268013B9B191BB200930197176A2B00DB
:1057B000320029002000B847236820005B6A984720
:1057C00005B0F0BDF0B505001C000E00170085B057
:1057D0000AAB1B88013C03930368A419DB68984754
:1057E00003992A680191009723B23100146A2800B6
:1057F0003A00A0472B6828005B6A984705B0F0BDC7
:10580000F0B50E0087B003930CAB029200229B5EB2
:10581000050004930DAB1B88340005930368DB6817
:105820009847039B2A68F3189C420ADA059B2100DB
:1058300000939769049B029A28000134B84724B268
:10584000EFE7536A2800984707B0F0BD13B5019100
:105850000E24015F0C22835E02680091946B00228B
:105860001100A04713BDF0B585B002930AAB002428
:105870001C5F0BAB1B8817000393029B05000E1ED9
:1058800002689E420BD1A74202DD3B0027001C00AC
:1058900003990134E31B00911BB2146B0DE0A74286
:1058A00010D1029B994201DD029E0291029B039955
:1058B000013300919B1B546B1BB23A00310028004E
:1058C000A0470FE0D3689847039A2B680192009491
:1058D0001C6A2800029B3A003100A0472B68280070
:1058E0005B6A984705B0F0BDF0B5040016000D00E6
:1058F00087B004930CAB00229B5E05930DAB1B8815
:1059000003930368DB689847039A23680092DF6972
:105910003200049B29002000B847059B03995A1EBA
:10592000236800919219DF692900049B200012B2BC
:10593000B847039A236800929F693200059B2900AB
:105940002000B8470499039A2368013900924D1941
:1059500029B29F693200059B2000B84723682000C8
:105960005B6A984707B0F0BD704703231940417642
:1059700003894289012904D0032902D08381C2818D
:1059800001E08281C381704701818181012100236F
:105990004281C281012210B5074C4942083443605C
:1059A00004604376038243820276C18281828276DA
:1059B000C376C36110BDC046D07F0000F0B58BB088
:1059C000059310AB1B88019200936B469D8A0123BF
:1059D0005B1B9BB202936B005B429BB20893036814
:1059E0000400DB680E0098476B469B8831000393E8
:1059F000EA18236812B21F692000009BB847039B76
:105A000031005A1B236812B21F692000009BB8475F
:105A1000B3B20493E918236809B21E69019A009B86
:105A20002000B047049B019A591B236809B21E69E4
:105A30002000009BB04701230193019B059A013B85
:105A40001BB29A427DDD6B4608229B5E002B0CDB6D
:105A5000059B013B1BB20593089B02339BB29AB294
:105A60000892029A9B189BB20293019B029A5E00D5
:105A7000B3B2079301339B189BB2019A0293049B24
:105A800020009D186B469B8AADB20693069A039B35
:105A90009E182BB20993236836B21F693200009B0F
:105AA0000999B847079B3200ED1A23682DB21F6988
:105AB0002900009B2000B847039B069A09999E1A6B
:105AC000236836B21F693200009B2000B847236864
:105AD00032001F692900009B2000B847069A049BEA
