:1000000000400020B1890000F1890000F389000060
:1000100000000000000000000000000000000000E0
:10002000000000000000000000000000F589000052
:100030000000000000000000F7890000F9890000BE
:10004000FB890000FB89000021940000FB8900006F
:10005000FB89000000000000E98A0000FB89000025
:10006000FB890000258E00007D830000FB890000D5
:10007000FB890000FB890000FB890000FB89000070
:10008000FB890000818B0000FB890000FB890000D8
:10009000FB890000FB890000FB890000FB89000050
:1000A000FB890000FB890000000000000000000048
:1000B0000000000000000000000000000000000040
:1000C000054B0648033310B51B1A062B03D9044B06
:1000D000002B00D0984710BD3405002034050020C7
:1000E000000000000648074910B5091A8910CB0F17
:1000F0005918491003D0044B002B00D0984710BD6D
:1001000034050020340500200000000010B5074C25
:100110002378002B09D1FFF7D3FF054B002B02D02A
:10012000044800E000BF0123237010BD3405002007
:10013000000000000C1F0100094B10B5002B03D07C
:100140000849094800E000BF08480368002B02D1B5
:10015000FFF7C8FF10BD064B002BF9D09847F7E713
:1001600000000000380500200C1F010030050020B1
:1001700000000000164B002B00D1144B9D4640227E
:1001800092029A1A924600218B460F461348144A4F
:10019000121A09F033FD0F4B002B00D098470E4B7D
:1001A000002B00D098470020002104000D000D48CE
:1001B000002802D00C4800E000BF09F0C5FB200079
:1001C000290009F04BF909F099FBC046000008002E
:1001D0000040002000000000000000003405002066
:1001E000EC2600200000000000000000704780881E
:1001F0007047C0887047000010B50400034B0360CF
:10020000083007F0F5FF200010BDC04608CF000001
:1002100010B5052008F080FE0B4C002803D108F033
:1002200089FC20600FE008F085FC2368C01A074BAA
:10023000984208D9BFF34F8F054A064BDA60BFF3E7
:100240004F8FC046FDE710BD342500208713000006
:100250000400FA0500ED00E0034B10B5010018683A
:100260000268D26B904710BDDC06002010B5040078
:1002700009F00CF9200010BD10B5034A03490448E9
:1002800009F09EFC10BDC04603050000FCC900003B
:100290002C2000200200613A0123192A06D90023EC
:1002A00019224138C0B282425B41DBB2180070476C
:1002B000030009220020303BDBB29A424041C0B229
:1002C00070472022010091430A00413A03000120B7
:1002D000052A06D900200922303BDBB29A42404170
:1002E000C0B2704702007F32D2B2030001201E2A42
:1002F00006D900201C222033DBB29A424041C0B212
:10030000704710B504000AF067FA210009F08EFA70
:10031000013108B210BD013AD2B2FF2A06D08B5C7F
:10032000013AD2B28342F8D1012000E000207047A8
:10033000054A10B5138819B2FD2903DC034C0133BB
:100340006054138010BDC046941E0020500500204C
:1003500010B5002902D1FFF77FFF11E0022904D177
:100360000100084806F017F90AE0032902D1FFF757
:10037000DFFF05E0052903D10100024805F0AEFECC
:1003800010BDC0465006002010B5002805D1064B10
:1003900018680368DB6E984704E0032802D1073031
:1003A000FFF7C6FF10BDC046DC060020002110B5D7
:1003B000034BFE220348198009F020FC10BDC04603
:1003C000941E002050050020254B10B51A68138993
:1003D00051894B439BB2834201D953683DE0A0222F
:1003E000204BFF32C31899B2914201D81E4834E025
:1003F0001E4BC3189AB2FF2A01D81D482DE01D4B91
:100400001D4AC31899B2914201D81C4A24E01C4BE2
:100410001C4AC31899B2914201D81B481DE01B4BDE
:100420001B4AC3189BB2934204D81A4BC0181A4BEC
:100430001B6812E0194BC418A3B21A2B04D8184831
:1004400005F0D8FD001909E0164B174AC31899B2F8
:100450000020914202D8154A1068C01810BDC0464D
:10046000DC06002000E7FFFFF01C002060E5FFFF36
:100470001007002060E4FFFFFF0F00004003002092
:1004800060D4FFFFFF030000EE18002060D0FFFFE4
:10049000FF07000063D0FFFF3803002060C8FFFFA4
:1004A0005006002060C7FFFF6F350000E0180020F5
:1004B00010B504000AF0F0F90022013880B20028DB
:1004C00007D023181978202903D101381A7080B277
:1004D000F5E7200010BD00000649074A0B681878B0
:1004E000132802D01123137001E001330B60107840
:1004F0007047C046E8060020C01E00200649074A93
:100500000B681878142802D01123137001E001330E
:100510000B6010787047C046E8060020C01E00201F
:100520000300303BDAB29BB2092A0CD90300613BCD
:10053000052B01D8573805E00200413A0023052A6F
:1005400001D8373883B2180070470000F8B50D4C59
:10055000050020680F00867E002E03D0036800216E
:100560005B6B98472878002804D039000135FFF7E5
:10057000EFFEF7E7002E04D02068012103685B6BD3
:100580009847F8BDDC0600202023F0B585B00E1E8C
:100590000292019303DA4E42103336B201930028DF
:1005A00003DA4442A4B2012301E0002384B2002212
:1005B00006270093174B9A71039320000A2109F034
:1005C0004BF87D1E039B3031EDB2595520000A21B6
:1005D00008F0BCFF84B2002C01D02F00EDE7009B97
:1005E000002B04D02D23BD1E0A4AEDB2535506241C
:1005F000641BB44206DA02990198013EFFF7A8FE97
:1006000036B2F6E7034B02995819FFF79FFF05B082
:10061000F0BDC046D8170020F8B585B217480423AE
:10062000854207D8013BFF2D04D80C33AB429B41D8
:100630005B420133002905D089B2181C8B4200D2DD
:10064000081C83B200240F210D482F00A60076421B
:100650000C3637413E000E4037003737092E01D89F
:100660003036370027540134042CEED10021E31A30
:100670000171C0181100FFF769FFF8BDFF0F0000FE
:10068000D8170020F7B583B201930F240023114E31
:10069000019D0120254105402F308446AC4467462A
:1006A000301BC7733000002B03D1002D01D0631C19
:1006B0009BB2013CECD2002489B204741C1C8B4216
:1006C00000D20C1CA4B2001B10301100FFF73EFF3B
:1006D000F7BDC046D8170020F7B500240226394DD3
:1006E000286803685B6C98470D2802D1002C17D04E
:1006F0001CE0032803D11922334B1A7016E01B2883
:10070000F9D0082851D002284FD0002C06D1030080
:100710002B3BB343DBB2002B02D13EE0052C37D894
:100720000300303BDBB2092B37D931E00020FFF763
:100730002BFE0023254D2B552A782B2A03D02D2A5A
:1007400003D1012301E0012200E01A001E49002626
:100750000F7801910A2130008C46AC5C002C0ED041
:10076000614641433039091989B2013200B20CB2F5
:10077000D2B2A04201DD012602270800EDE7002EDB
:1007800001D0019A1770002B1AD0404280B217E0B6
:10079000286803681B6B9847A1E7651C0B4BEDB2FB
:1007A0001855FFF759FD2C0099E7002CF0D0286868
:1007B00006F04DFB013C2868E4B206F0BBF98EE779
:1007C00000B2FEBDDC060020C01E0020D8170020AD
:1007D000F7B5070001261A4C0191019B9E4204D9EE
:1007E00023B20025013313D128E000251548AB00C2
:1007F0003200390018580AF057F8002804D1731C49
:100800000096ACB29EB2E8E70135CC2DEED1E7E719
:100810000C4AAB009C5820000AF03EF8009B98421E
:1008200008D11A00390020000AF03EF8002801D152
:10083000ACB203E00135CC2DEAD1014C20B2FEBDB3
:10084000FFFF000008000020F0B50024B04D85B087
:100850002B78002B19D02B78202B1CD0093B042B94
:100860001BD818E010B2FC31091A8C4220DA601C47
:10087000A849C0B2DBB20B550400013A92B216B2DD
:10088000013600D08EE0C318DCB2D122A14B601C2F
:100890001A55C0B239E10135DDE7280009F0FCFF47
:1008A00081B22800FFF794FF071E66DBFC2C01D9FC
:1008B0000422E2E0974BBA001F55974B661CD058B4
:1008C00009F0EAFFF6B22D18152F2FD12878FFF77F
:1008D000F8FC002800D1E0E000270195019B3F01D2
:1008E00001330193013B1878FFF71AFE019BBFB259
:1008F0005B1B9BB20293019B3F181878BFB2FFF7B6
:10090000E0FC0028EAD1029B042B01D90222B4E0CA
:10091000FA2ECDD8CE227F4B019D1A559F55E61C4D
:100920000234E4B23F12F6B21F55B6E0162F23D1BF
:100930002B78303B012B00D9AFE02A000023013295
:10094000511E09785B001078303B5B183038511B22
:100950009BB289B20128F2D91029D7D8FA2EA7D88C
:10096000CF206C49150008558B55E61C0234E4B2C3
:100970001B12F6B20B5590E03400A32F01D00D2FBF
:1009800016D12B78202B00D189E0093B042B00D80D
:1009900085E00023E95C9AB2581C002900D161E788
:1009A0000300F7E72F78661C0F550135F4B264E7B2
:1009B000002F00DB4CE72E783300303B092B2AD880
:1009C000802000230A2100024B4301356A1E127861
:1009D000303BD318834299D82A78303A092AF3D980
:1009E000FA2C00D964E780214A4A09028B4206D1D9
:1009F000002C04D01119013909780E2986D1CC2197
:100A0000601C1155C0B2A11C1354C9B203341B0A97
:100A1000E4B253541CE7222E0BD100236E1CE918BC
:100A200049789AB222293CD0581C002939D00300B9
:100A3000F5E73000FFF72EFC00281DD0FB2C00D975
:100A400036E73300613B192B01D8203EF6B26B78B4
:100A5000413E1A00303AF6B2062A52D9002301204C
:100A60002C49032C0DD90A19971E3F78D02F08D195
:100A7000043A1278D02A04D11722284B00201A7089
:100A800043E0D0220A55B63A5343671CFFB2023402
:100A9000F618E4B2CE552D18DAE63400D8E6013562
:100AA0006FE7FD2110B2091A8C4200DB00E7CD216F
:100AB000184FA01C3955D9B2019169460134097902
:100AC000E4B2C0B23955350004000397013A92B23E
:100AD00017B2791C0AD02F78611CBC46029161467E
:100AE000039F0135395569460C7AEFE79DB27519B8
:100AF0002B78019A223B81185A425341CCB2ED180F
:100B0000A6E62F3BDBB20220AAE705B0F0BDC04647
:100B1000D8170020C11E002008000020C01E0020A1
:100B2000064B1B6818000278002A01D08018FAE7EB
:100B3000181A034BC31818B27047C0464003002070
:100B4000FF0F00000378002B04D0837840781B024D
:100B5000184300E0014800B27047C046FFFF0000A4
:100B600070B50600064B1C682578002D06D02000C5
:100B7000FFF7E8FFB04201DA6419F5E7200070BD25
:100B800040030020F8B50D4B47781C68851C26787B
:100B9000002E0ED0E378CD2B09D12379BB4206D1AC
:100BA000611D3A00280009F0A1FE002803D0A41915
:100BB000EDE7300000E02000F8BDC0464003002013
:100BC000F8B507000024084B1D682E78002E08D0C9
:100BD0002800FFF7B7FFB84204DA0134A4B2AD1918
:100BE000F3E7024C2000F8BD40030020FF7F000027
:100BF0000378D12B19D0CD2B0FD006D8092B0AD0D2
:100C0000CC2B0ED0072B10D00DE0CF2B09D9D02B39
:100C100009D10230ECE7013008E043780133C01815
:100C2000E6E70330E4E70130E2E700207047000028
:100C3000F7B5070000240B4B01911D682E78002E9C
:100C40000DD02800FFF77EFF002808DBB84204DB48
:100C5000019B984201DC0134A4B2AD19EEE72000FB
:100C6000FEBDC0464003002070B5FFF759FF204D80
:100C70002B78984203DA05221E4B1A7037E02800C1
:100C8000FFF760FF0600FFF76BFF0400FFF75AFF56
:100C9000864210D121002278A2181078002809D0AD
:100CA0000023834202D1C918D218F6E7D65CCE548D
:100CB0000133F6E708702878042818D021000B7853
:100CC000002B01D0C918FAE70A1B013292B20818AA
:100CD0005242934203D0CE5CC654013BF9E7002355
:100CE0002978994203D0EA5CE2540133F9E770BDF8
:100CF000C11E0020C01E0020F7B504000D0023789F
:100D0000D12B00D1DDE0CB2B46D86E4A9B002900C9
:100D10009858FFF71BFC66780C2E28D02778842281
:100D200069493800FFF7F7FA002806D03D226749E5
:100D30003000FFF7F0FA002805D03B000C3B012BF8
:100D400000D9B9E004E0142F02D1D12E00D0ABE0DD
:100D500045225F493800FFF7DEFA002807D0452218
:100D60005B493000FFF7D7FA002800D0A4E02378D1
:100D7000A32B03D1A61C6478341904E00D2BF9D001
:100D8000661C3400BBE7B44200D19AE030782900F9
:100D9000FFF7DEFA0136F6E7CC2B09D1A0786378AD
:100DA0000002184300B22A000021FFF7EDFB24E007
:100DB000CE2B0DD129002420FFF7CAFAA078637842
:100DC0000002184300B22A000221FFF725FC14E0BC
:100DD000CF2B15D160202900FFF7BAFAA3786078ED
:100DE000002B05D01B02034318B22A00102102E099
:100DF0002A00082100B2FFF745FCE61CE07818E065
:100E0000D02B1FD167781A21380008F025FC41311A
:100E1000C8B22900A61CFFF79BFA192F08D91A217E
:100E2000380008F093FB2F30C0B22900FFF790FA8A
:100E3000A0781B222749FFF76EFA0028A1D12900CC
:100E400020302AE0CD2B2BD16378002B06D0E2187E
:100E50005278222A04D0013BDBB2F6E7222300E0DD
:100E60002723019329000198FFF772FA6678A71CDF
:100E7000BE19BE4205D038782900FFF769FA01375C
:100E8000F7E729000198FFF763FA3378D02B02D0F7
:100E9000092B00D075E729002020FFF759FA70E7E9
:100EA00018220D4B1A700CE01B220A493000FFF784
:100EB00032FA002800D04BE729002020FFF748FA3B
:100EC00055E7F7BD0800002083C200005DC40000A4
:100ED00018C3000068C20000C01E002002230200E8
:100EE0009A4310B5131E0BD000230E4A13700E4AFE
:100EF00013700E4A11680B7012680D4B1A6010E0E7
:100F00001400D2220B4952005C5202339342FBD1AF
:100F100000231900084A99520233C82BFBD102283A
:100F2000E2D110BDE0060020D718002040030020C9
:100F300028200020F01C002010070020F0B5484EAB
:100F400085B034682378CC2B13D12000FFF7FAFD4D
:100F50000A27E31C3360E37885B2BB420BD12379C7
:100F6000201D30601722CC2B10D1FFF7EBFD87B28C
:100F700001E00A273D003B4C00202100FFF758FE0E
:100F80000394002D01D0002F03D11422364B1A7088
:100F900063E0013880B27843039B40199842F4DC47
:100FA000324B334E1B68336033681A780292002A42
:100FB00041D0002401330193029B013B9C4236DA6D
:100FC000019B1B5DCD2B27D004D8012B08D9CC2B3E
:100FD00028D029E0CF2B25D9D02B25D1023424E0ED
:100FE000631C019A9BB2D21800921278CC2A01D0CD
:100FF0001C00E1E70098FFF7A5FD80B2FFF7E0FDD8
:10100000039B0434984210D07843281880B2009A89
:1010100003129370507008E00134019AA3B2D25CBD
:101020009C1802E0033400E00134A3B2E0E7326828
:101030001378D318B7E70D4B1B68336033681A7801
:10104000002A0AD05D7032682B12937032687D19C5
:101050001378ADB2D3183360F0E705B0F0BDC046E9
:10106000E8060020FF7F0000C01E00204003002093
:101070002820002070B50C4DC4B20E0028002100BD
:1010800004F08DFF002804D11622084B01301A709D
:1010900009E03000FFF722FF054B21001A68280005
:1010A00004F08BFF002070BDE4180020C01E00205B
:1010B0004003002070B50B4B1C78002C03D000229D
:1010C000A4B21A700BE0084D28680368DB6C9847DF
:1010D000002804D0286803685B6C984784B220B26B
:1010E00070BDC046EE1C0020DC06002010B5074B8A
:1010F00002001B78002B07D005480121002A01D0EF
:101100000022110005F0A3F810BDC046D61800203B
:101110005006002070B50B4C2378002B10D0012016
:10112000FFF7E4FF084D280004F080FD280004F0DC
:10113000BDFD0020FFF7DAFF0023044A237013806F
:1011400070BDC046EF1C0020D818002030250020BC
:1011500010B5074B1B78002B08D00120FFF7C6FF06
:10116000044804F063FD0020FFF7C0FF10BDC04637
:10117000EF1C0020D818002010B5094B1B78002B5D
:1011800003D11D22074B1A7008E00120FFF7AEFFC4
:10119000054804F047FC0020FFF7A8FF10BDC0463B
:1011A000EF1C0020C01E0020D8180020F7B5070053
:1011B0000E0007240025019200933000009907F0EB
:1011C00095FE019B3800002B05D107F0A5FE0723F3
:1011D0001B1B984002E007F09FFEA04000990543CA
:1011E0004B4259413000EDB207F080FE013CE4D2A1
:1011F0002800FEBD37B5294804F024FE019001A85F
:1012000008F0C8FB0421040002254369244A49422E
:10121000981800B20022FFF7B7F92F20FFF71CF84B
:1012200023696D42581C2900002200B2FFF7ACF977
:101230002F20FFF711F80C23E05E00222900FFF7B2
:10124000A3F900211748FFF781F91822A35E164A77
:101250009B0098580021FFF779F900211348FFF708
:1012600075F929000823E05E0022FFF78DF93A2086
:10127000FEF7F2FF29000423E05E0022FFF784F965
:101280003A20FEF7E9FF29000023E05E0022FFF785
:101290007BF90020FFF778F837BDC046CC06002068
:1012A0006C070000A1C4000020C40000A4C400001A
:1012B000F7B52D4D04002868002103685B6B984743
:1012C0002A4A2B4F13780192002B3DD0294A9B00CC
:1012D0001168294A126891422FD3802040011218C8
:1012E00091422AD2254E32681278002A25D0002C4D
:1012F00023D1F8582100FFF729F921002048FFF7F2
:1013000025F93068FFF71EFC22002100FFF73CF9A9
:101310002000FFF739F83068FFF714FC22002100A5
:10132000FFF732F921001748FFF710F93068210064
:101330000330FFF7E1FC200004E0F8580021FFF73C
:1013400005F90020FFF720F838680021FFF7FEF8C4
:101350000020FFF719F80023019A2868137003682A
:1013600001215B6B9847F7BDDC060020C01E002002
:1013700058030020E8060020400300202820002019
:10138000A7C40000181D0100F8B5070000250B4B8D
:101390001C682678002E07D02000FFF7D3FBB84248
:1013A00002DA2500A419F4E7002D03D02800FFF786
:1013B000C9FB00E0024800B2F8BDC046400300206F
:1013C000FFFF000070B50500FFF7CAFB0400FFF740
:1013D000B9FB854204D120782018FFF7B3FB00E069
:1013E000014800B270BDC046FFFF000070B50600A6
:1013F000FFF7B6FB0500FFF7A5FB0024864211D1DD
:10140000FEF7D4FF032221003000FFF7BDF82020B3
:10141000FEF78EFFE81C0321FFF76EFC2000FEF7AD
:1014200087FF014C200070BD5005002037B56B468A
:10143000DC1D74230120237008F0AEFB050008F0CA
:10144000B5FB00211D48FFF781F82014002204217C
:10145000FFF7E2F8002220B20421FFF7DDF80020B8
:10146000FEF792FF00211648FFF770F828140022BB
:101470000421FFF7D1F828B200220421FFF7CCF8AD
:101480000020FEF781FF00210E48FFF75FF80022E1
:10149000601B110000B2FFF777F80020FEF774FF21
:1014A00000210948FFF752F80022D2201100FFF76F
:1014B0006BF80020FEF768FF37BDC046ACC40000E3
:1014C000B7C40000C2C40000CDC40000034A1168C4
:1014D0000B780133CB1813607047C046E806002034
:1014E00010B50B480378012B03D80722094B1A705B
:1014F0000DE05A1E0849D2B29200023B5458DBB2AA
:10150000064A03709B0014605A58054B1A6010BDC0
:10151000E0060020C01E0020981E0020E8060020E3
:1015200028200020F0B5224E09223078042813D953
:10153000204A214C431E9B00195913685D1C1560FD
:101540001D78D02D01D00A2206E09D1C15605A7826
:101550000BB29A4203D00B22184B1A7026E0184D9A
:10156000831E52009B001959535B8FB25B189BB2CC
:101570005353C21E92001259451F92B2090404D55A
:101580001BB212B2934208DA05E0002F05D019B25F
:1015900012B2914201DD357008E0031F9B00E25852
:1015A000044B1A60AB00E258064B1A60F0BDC0460F
:1015B000D7180020E8060020C01F0020C01E002011
:1015C000F01C002028200020044A13681978D12933
:1015D00002D001331360F8E77047C046E8060020E8
:1015E000044A11680B78002B02D0CB181360F8E77F
:1015F0007047C0462820002037B5154B154A19788A
:10160000154D11805A78154B15481A80154B2A0034
:101610001549036008F03CF9144C154B20000830C4
:10162000236006F0D1FD2A001249200008F030F9AD
:101630000423802280210093D2000C3349000E48FD
:1016400004F06AFC1D210D4807F044F837BDC04680
:10165000FCC90000EC060020000000203825002016
:10166000AC06002088CF0000ED01000050060020ED
:1016700008CF0000F9010000E4180020F006002067
:10168000F0B587B0FEF728FF0023011E994200D075
:101690007BE002AB9C1D7F220123200001F01AF9A0
:1016A000011E48D104AE0123394A300001F012F97D
:1016B000011E40D10A2702ABFF18354A012338002A
:1016C00001F008F9011E36D10123314A05A801F0C5
:1016D00001F9011E2FD10E2502ABED182C4A030093
:1016E000280001F0F7F8002825D1FEF707FF0028B1
:1016F00021D13088FEF768FE02AB00909889FEF792
:1017000063FE009B0190002B12D0002810D030887F
:101710003B88C01880B2FEF757FE002808D002AB05
:1017200098892B88C01880B2FEF74EFE002804D19D
:101730001522184B1A70002327E0174E217830002D
:1017400006F04CFF3A88002A04D012B2009930000B
:1017500006F05AFE300006F0ABFF2A8880B2030084
:10176000002A12D0002810D1217812B2300006F0E1
:1017700030FF019C300006F05AFE0028DBD030001C
:1017800006F05AFE20700134F4E718B207B0F0BD3D
:10179000FF7F0000C01E0020502500208E4A13B598
:1017A0001368591C116018780E38C22800D912E24B
:1017B00007F0C2FECF00CC00110211021102E700B7
:1017C0001102110211021102110211021102110281
:1017D0001102110211021102110211021102110271
:1017E0001102D500DC001102EB00110211021102FE
:1017F0001102110211021102110211021102110251
:10180000110211021102110211021A014E015101BD
:101810002F01FF003A015A0166019101450148017B
:101820004B0194019701B501D1019A0111021102F6
:101830001102110211021102110211021102110210
:101840001102110211029D01F701F501F701F501E5
:1018500011021102110211021102110211021102F0
:1018600011021102110211021102110211021102E0
:1018700011021102110211021102110211021102D0
:1018800011021102110211021102110211021102C0
:1018900011020B020D02E701EB01EF01F201F5016C
:1018A000F701AD01F501A601A801AB01AF01B1013E
:1018B000B301F501F701F901FB01FD01110211026C
:1018C0001102110211021102110211021102110280
:1018D0001102110211021102110211021102110270
:1018E0001102110211021102110211021102110260
:1018F0001102110211021102110211021102110250
:1019000011021102A001A301110211025701FF01EE
:10191000010203020502070209025C0111025301E0
:101920001102600163011102110211021102110280
:10193000C3001102C300C300E0009978587809027F
:10194000014368460333C18013605AE1FFF726FF65
:1019500002E0FFF723FF40426B46D88051E1FFF7DA
:101960001DFF6A4643424341D3804AE1FFF716FF19
:10197000C043F1E7991C11605B78184A5B009A5AE2
:1019800026E1136000F068FAE6E700F065FA6B46BE
:10199000134A063311781880002900D031E16328FA
:1019A00002DD032313702CE10E4A4000825A1A8094
:1019B00027E100F051FA6B469C1D094B20801A78F4
:1019C000002A00D01DE11432002800DA18E1FEF7E9
:1019D00098FC013879E0C046E8060020F01C0020A1
:1019E000C01E00201007002000F036FA6B468A491E
:1019F00006331880894A884201D102211170127879
:101A0000002A00D0FDE0002800DBFAE04042188008
:101A1000F7E0FEF761FD002800D0F2E0FEF76EFD72
:101A2000002800D0EDE0EFE0FEF756FD002800D0E2
:101A3000E7E0FEF763FD002800D0E2E0E7E000F019
:101A4000CDFB89E700F066FD86E700F095FD83E7B2
:101A500002F0CEFE80E7002000E0012002F07AFADA
:101A60007AE702F027FA77E7002000E0012002F091
:101A700007FB71E702F00CFE6EE702F063FB6BE719
:101A800068465978841D132907D19978142904D1FF
:101A9000002103332180136007E000F0DDF95F4B84
:101AA00020801B78002B00D0ABE02388002B02D1D4
:101AB00007F040F807E0012B09D107F03BF8FA21C5
:101AC000890007F043FD4004400C208099E000238A
:101AD0001422238093E000F05FFB3DE701F004FF58
:101AE0003AE7FFF7CDFD37E701F094FF34E701F067
:101AF000D5FF31E702F026F82EE702F058F82BE781
:101B0000C82200E0D522520162E0DD22FBE7444A10
:101B10005EE0444A5CE0444A5AE0444A58E0FEF73A
:101B2000DBFC011E6DD16B469C1D202203002000B2
:101B300000F0D0FE002864D1FEF7E0FC002860D160
:101B400020883B4AC3B2D35C1B22DB0757D500B2C7
:101B500007F0E2F9B9E7FEF7BFFC011E51D16B4671
:101B60009C1D20220300200000F0B4FE002848D174
:101B7000FEF7C4FC002844D10023E05E07F042F8E1
:101B8000A3E72C4B1B681A8922E02A4B1B685A8951
:101B90001EE0294B9A881BE0274BDA8818E00022C8
:101BA00016E0012214E0022212E0032210E00422D7
:101BB0000EE01C220CE01D220AE01E2208E01F227B
:101BC00006E0202204E00D2202E0052200E00B22C4
:101BD0006B46DA8015E013601B7818005C38C4B2DD
:101BE000202C08D918006E30C0B2032806D8923BCA
:101BF00012489B00185880B211600BE01722074B67
:101C00001A706B46D88805E0FEF78AFFA4E6FFF756
:101C100051FAA1E600B216BD0080FFFFC01E0020F1
:101C2000A02B0000A02F0000A0370000A03800006B
:101C30003CC40000DC0600205006002008C3000061
:101C400070B5FFF7ABFD2F4D04002B78002B54D15E
:101C50002D4A136818781038172850D807F062FCFE
:101C60000C121F4F4F4F4F2A313F394F4F4F4F4F9D
:101C70004F4F4F4F4F4F4F4601331360FFF78EFDCD
:101C8000604331E001331360FFF788FD011E02D18C
:101C900001232B7031E020B207F0E2FC24E0013395
:101CA0001360FFF77BFD011EF2D020B207F0BEFDEE
:101CB0008CB2CDE701331360FFF770FDA4B284400E
:101CC00005E001331360FFF769FDA4B20441A4B23B
:101CD000BEE701331360FFF761FD204004E00133EC
:101CE0001360FFF75BFD204384B2B1E7013313605B
:101CF000FFF754FD604080B202E0044800E020009D
:101D000000B270BDC01E0020E8060020FFFF0000EA
:101D100010B5FFF795FF0E4B04001B78002B13D175
:101D20000C4A136819780E2907D00F290DD10133F9
:101D30001360FFF785FF241804E001331360FFF7F9
:101D40007FFF241AA4B2EBE7034C20B210BDC046BB
:101D5000C01E0020E8060020FFFF000010B5FFF7BE
:101D6000D7FF2C4B04001B78002B4FD12A4B1A684D
:101D7000511C196010781B38092845D807F0D2FB90
:101D80002A0C2005180C0C11333DFFF7C1FF24B2BB
:101D9000241A60424441E9E7FFF7BAFF24B2241A4B
:101DA0002FE0FFF7B5FF24B2012384420FDB0DE0E3
:101DB000FFF7AEFF22B2D40FC31790425C4110E090
:101DC000FFF7A6FF24B20123844200DC0023DCB22B
:101DD000A4B2CBE7FFF79CFF22B2D417C30F824215
:101DE0005C41E4B2C2E7FFF793FF00239C4202D0BC
:101DF000431E9841C3B29CB2B8E7FFF789FF044382
:101E000024B2601E8441B1E71A6000E0034C20B2A6
:101E100010BDC046C01E0020E8060020FFFF0000E5
:101E200070B505000C00FFF799FF094B28801A7860
:101E3000002A0AD1002C08D006490A68501C086004
:101E400012780A2A01D017221A70187870BDC0467D
:101E5000C01E0020E806002013B5FEF73DFB002160
:101E600088420DD16B469C1D2000FFF7D9FF00284A
:101E700001D0002104E0FEF741FB0028F9D12188C0
:101E800008B216BD7FB5244803F0DCFF019001A81D
:101E900007F080FD00244369204A02AE9B1833807E
:101EA0000369013373808389B3808369F3801C4D98
:101EB0002B681A78D02A0AD15A1C2A605A786100F5
:101EC000705A18495200023350522B6013E0282AEE
:101ED00017D101332B60FFF7BFFF134B1A78002A8D
:101EE00018D182B2632A01D903220CE06300F25AAE
:101EF0000E4B4000C252032C0CD02B681A780A2AD1
:101F000003D01722084B1A7004E0013301342B6010
:101F1000042CCCD17FBDC046CC0600206C0700004D
:101F2000E8060020F01C0020C01E00201007002042
:101F30007FB5214803F086FF019001A807F02AFD34
:101F40000024038902AE3380838873800368B380E2
:101F50001A4D2B681A78D02A0AD15A1C2A605A784E
:101F60006100705A16495200023350522B6013E040
:101F7000282A17D101332B60FFF76EFF114B1A7817
:101F8000002A18D182B2632A01D903220CE063002F
:101F9000F25A0D4B4000C252022C0CD02B681A781A
:101FA0000A2A03D01722074B1A7004E001330134C8
:101FB0002B60032CCCD17FBDCC060020E80600208E
:101FC000F01C0020C01E00201007002037B5254C53
:101FD000200006F06BFC200006F082FB6B461880A8
:101FE000200006F080FB6B465880200006F07EFB48
:101FF0006B46002498801C4D2B681A78D02A0BD190
:1020000068465A1C2A605A786100405A17495200A3
:10201000023350522B6014E0282A18D101332B6070
:10202000FFF71AFF124B1A78002A19D182B2632ADD
:1020300001D903220DE06A466300D25A0D4B4000DD
:10204000C252022C0CD02B681A780A2A03D017220D
:10205000074B1A7004E0013301342B60032CCAD102
:1020600037BDC046F0060020E8060020F01C002026
:10207000C01E00201007002073B501AC0021200015
:10208000FFF7CEFE011E54D16D462A4AAE1D1368DD
:1020900018780A2807D1013330001360FFF7C0FE1B
:1020A000002846D101E02388338024880023F55E90
:1020B00023B29D4203DA14221F4B1A7039E0A4B2F6
:1020C0009D421BD12800FEF74BFD0400FEF73AFDB0
:1020D00085422ED12278A2181178002909D0002338
:1020E0008B4202D1E418D218F6E7D05CE0540133F9
:1020F000F6E721701DE029700134A4B20022B35E1E
:102100009C4216DC20B2FEF72BFD0500FEF71AFDFF
:102110008442F1D12A78AA1811780029EBD0002343
:102120008B4202D1ED18D218F6E7D05CE8540133A7
:10213000F6E773BDE8060020C01E002073B501ACB1
:1021400001212000FFF76CFE011E22D16B469D1D70
:102150002800FFF765FE021E1BD10E4B0026A15F73
:1021600018680389994202DB013B238002E00029C1
:1021700000DA2280438900216A5E9A4201DB013B3A
:1021800002E0002A01DA00232B802A88218804F04B
:1021900050FF73BDDC06002037B5FEF79DF9002423
:1021A000A04217D16B469D1D21002800FFF738FE85
:1021B000A04201D000240DE0FEF7A0F90028F9D1DB
:1021C0002888FEF701F9002801D0047802E01522E2
:1021D000014B1A7020B23EBDC01E002073B5FEF741
:1021E0007BF90024A04229D101AE01213000FFF784
:1021F00017FEA04201D0002420E06B469D1D210067
:102200002800FFF70DFE0028F5D1FEF777F900282A
:10221000F1D131880CB2002CEDDB2A8813B2002BEF
:10222000E9DB074800680589AC42E4DA4489A34247
:10223000E1DA92B289B204F051FF84B220B276BDE5
:10224000DC06002073B56B469D1C01212800FFF7BA
:10225000E7FD00281AD101AE01213000FFF7E0FDB3
:10226000011E13D16B469C1D2000FFF7D9FD0028ED
:102270000CD12388022B01D9012323800021725E17
:1022800023880020295E024804F001F873BDC0468F
:10229000500600200E23F0B587B06B4401211800D2
:1022A000FFF7BEFD002832D112256D440121280020
:1022B000FFF7B6FD00282AD104AE01213000FFF758
:1022C000AFFD002823D105AF01213800FFF7A8FD9D
:1022D000011E1CD116246C442000FFF7A1FD00282C
:1022E00015D12388022B01D9012323800022B35E5C
:1022F00000216A5E69460E20095E16206844008847
:1023000001900024385F0090024804F09AF907B069
:10231000F0BDC04650060020F0B50E2687B06E44D2
:1023200001213000FFF77CFD002836D104AF0121E8
:102330003800FFF775FD00282FD112246C440121CD
:102340002000FFF76DFD002827D105AD01212800F1
:10235000FFF766FD011E20D116206844FFF760FDDF
:1023600000281AD12B88022B01D901232B800022AF
:10237000A35E002B01DA012323800022A35E00214B
:102380007A5E0020315E16206844007840B20190E9
:1023900028880090024803F064FE07B0F0BDC046F4
:1023A00050060020F0B589B005AD01212800FFF7E7
:1023B00037FD002841D116266E4401213000FFF779
:1023C0002FFD002839D106AF01213800FFF728FD85
:1023D000002832D11A3001216844FFF721FD00287E
:1023E0002BD107AC01212000FFF71AFD011E24D1DB
:1023F0001E206844FFF714FD00281ED12388022BFD
:1024000001D9012323801E2068440078298840B226
:1024100034883B88029007A80088013301901A2075
:10242000684400885B1A0130001B00B200901BB2A8
:1024300022B209B2024804F010F909B0F0BDC0465A
:10244000500600200E23F0B589B002AA9B18012186
:102450001800FFF7E5FC002855D106AD0121280042
:10246000FFF7DEFC00284ED1122602ABF618012140
:102470003000FFF7D5FC002845D107AF0121380017
:10248000FFF7CEFC011E3ED1162402ABE41820005B
:10249000FFF7C6FC002836D102ABDB8902936B46FE
:1024A0000821595E002916DB2B881AB29C46002AA7
:1024B00011DB338803936B469B891EB2B1420ADC61
:1024C000388807B2BA4206DC104DAB889E4202DA69
:1024D000ED88AF4203DB14220D4B1A7013E0258800
:1024E000032D01D9002525802478039B019464469F
:1024F000029D01300133001B00B25B1B00901BB238
:10250000024803F0C9FE09B0F0BDC04650060020E5
:10251000C01E002073B5FDF7DFFF0024A04226D1C6
:1025200001AD01212800FFF77BFCA0421AD16B46C8
:102530009E1D21003000FFF773FCA04212D1FDF771
:10254000DDFF00280ED10023E95E00290ADB00230D
:10255000F25E002A06DB07488388994202DAC388C4
:102560009A4201DB002402E003F08BFD040020B25C
:1025700076BDC04650060020F0B587B0FDF7ACFF31
:102580000300002083424DD10E246C440121200021
:10259000FFF746FC002824D104AD01212800FFF7F5
:1025A0003FFC00281DD112266E4401213000FFF7A8
:1025B00037FC002815D105AF01213800FFF730FCAA
:1025C000011E0ED116236B441800FFF729FC0028CA
:1025D00007D1FDF793FF002803D10023E15E002916
:1025E00001DA00201EE00023EA5E002AF9DB0F4832
:1025F0008588A942F5DAC488A242F2DA0023FF5E98
:10260000002FEEDB0023F35E002BEADB5E18B54201
:10261000E7DDBD18AC42E4DD6C46A47D0097019473
:1026200003F0F0FC00B207B0F0BDC0465006002039
:10263000F0B5584D85B02868012103685B6B984759
:102640000121554C0395236801911A78CD2A17D1A1
:102650009A1C22605D782368002D07D05A1C2260E6
:102660001878013DFDF7F8FDEDB2F4E71A780A2A73
:1026700003D01722494B1A7083E001332360019580
:102680002368464D5A1C22601A78282A3ED0D02A48
:1026900075D100219A1C5E7822609A7802910A2AEC
:1026A00009D103332360FFF759FB2B780700002B78
:1026B00067D101330293019B002B17D0192E0DDD3A
:1026C0001A21300007F0B2F84131C8B2FDF7C4FD5D
:1026D0001A21300006F0C4FF2F3001E030004130F5
:1026E000C0B2FDF7B9FD3A20FDF7B6FDFDF7F4FFE6
:1026F0002B78002B07D0022B49D1029B002B46D010
:10270000002338002B707600254B36E0FFF7A4FB42
:102710002A780600002A34D10323632830DC23689A
:10272000029219780A2909D101332360FFF716FBB9
:102730002B780700002B24D101330293019B002B3F
:102740000CD000211748FDF701FF002230001100D6
:10275000FDF71AFF00211448FDF7F8FEFDF7BCFF56
:102760002B78002B07D0022B0BD1029B002B08D01B
:10277000002338002B700D4B7600F05201E0172338
:102780002B70039B0021186803685B6B984705B0AA
:10279000F0BDC046DC060020E8060020C01E002078
:1027A000F01C0020DCC40000DFC400001007002083
:1027B000144A70B51368591C116059781E2903D04A
:1027C0001222114B1A701CE0991C1C781160997828
:1027D000CD290DD1DD25D91C0C481160DB780068AE
:1027E0006D01081A01334019CB1880B2136005E05F
:1027F000FFF7B4FA044B1B78002B02D1044B6400A2
:10280000E05270BDE8060020C01E002040030020FA
:10281000F01C002070B5FFF71FFB1D4B05001A7858
:102820001E00002A32D180B2632802D903233370FC
:102830002CE0184C226812781E2A13D012221A702B
:1028400024E0FFF78BFA3378002B1FD12BB2642BD7
:10285000ECD0114A5B009852236801351B78ADB269
:102860000A2B13D123685A1C22605A78CD2AE8D14A
:102870000A499A1C0868DD2122609B78101A4901D8
:1028800001334018D31880B22360DFE770BDC04623
:10289000C01E0020E8060020100700204003002092
:1028A00010B50A4A13681978282906D0D02909D109
:1028B00001331360FFF77CFF07E001331360FFF77C
:1028C000A9FF02E00E22024B1A7010BDE80600209C
:1028D000C01E0020F8B5070015001C000E00FFF711
:1028E0003DFA0C4B38801A78002A05D1B04201DB42
:1028F000A84201DD142209E0002C08D006490A682C
:10290000501C086012780A2A01D017221A70187811
:10291000F8BDC046C01E0020E80600200021F0B52A
:102920003B4E85B03B4F02AB03ADDE803B68298058
:102930001B780400D12B07D1374B384E1B6833600E
:102940000022AB5E019320E00C2BF5D00B0032008F
:102950002800FFF7BFFF031E58D13A6811780A29F3
:10296000EAD1013202A83A6006300022A95E3200A4
:10297000FFF7B0FF002849D1DEE73800FEF7E2F8A4
:10298000019B98422FDA7D19356037683D78002D1C
:102990003CD0F2E7224B18680368DB6C984783B29F
:1029A000002B25D13068FEF7CDF802AB06330022AC
:1029B0009B5E83422ADB22000021FDF7E5FD21001A
:1029C0002020FDF7C5FC33682100D81CFEF794F9E0
:1029D000144B1B78002B19D12000FDF7D5FC326871
:1029E0001378D318336033681B78002BD2D10DE0F5
:1029F0001BB20D4A032B01D01B2B05D11921094B0A
:102A000019700023137001E01070CBE705B0F0BD22
:102A1000FF7F0000E806002040030020282000205F
:102A2000DC060020C01E0020EE1C0020F7B56B461F
:102A300000210F25344F9E1D01AC3B68218035805D
:102A40001B78D12B01D1248842E00C2BFBD00B004A
:102A50002A002000FFF73EFF031E54D121883A6868
:102A6000318010780A28EED101323A6009B22A008A
:102A70003000FFF72FFF002845D1E4E7E7B2390027
:102A8000224803F054FA39000500204803F087FA81
:102A900000281BD01E480021FDF758FD0020FDF73F
:102AA00073FC2B781B4F002B17D100251A482900E7
:102AB0003D70FDF74BFD20B22A002900FDF764FDB3
:102AC0002800FDF761FC2800FDF75EFC0134A4B28C
:102AD0000022B35E9C42D1DD15E02800FEF732F8FB
:102AE00000221100FDF750FD2020FDF7B5FBE81C8A
:102AF0000021FEF701F938780028D6D1FDF744FC13
:102B00002B78ED18CDE7F7BDE8060020E41800208B
:102B1000E2C40000C01E0020E6C4000013B56B46EE
:102B200000219C1D0A4B21801B681B78D12B06D1EC
:102B3000084B21781A68084803F017FA06E00B00E2
:102B40000F222000FFF7C6FE0028F1D013BDC046BB
:102B5000E806002040030020E4180020002337B5D9
:102B600001AC19000F222000FFF7B4FE011E1FD197
:102B70006B46104A9D1D23882B80136818780A28FD
:102B800001D0247809E00133136028000B000F22E4
:102B9000FFF7A0FE00280BD1F3E70022AB5E9C42BA
:102BA00006DC21000448013403F0CAF9E4B2F4E77A
:102BB00037BDC046E8060020E4180020F0B5334ECB
:102BC00085B0336803AC1B78D12B01D00C2B05D119
:102BD00000230F22238002ABDA8021E000230F22A2
:102BE00019002000FFF776FE011E4CD1336802A8C1
:102BF0001A78851D0A2A07D1013328003360FFF7B0
:102C00000FF900283FD101E023882B800023E25EEA
:102C100000216B5E9A4203DD14221D4B1A7032E0D4
:102C20001C4D24782B68019302AB063300229B5E77
:102C30009C4226DC184F2100380003F078F900226E
:102C40000121060020B2FDF79FFC00211348FDF78B
:102C50007DFC2100380003F0A2F9011E03D11048C9
:102C6000FDF774FC07E02E603378002B03D0F01CD6
:102C70000021FEF741F800200134FDF785FBE4B2A6
:102C8000D2E7019B2B6005B0F0BDC046E8060020EE
:102C9000C01E002028200020E4180020C0C400002E
:102CA000ECC4000037B56B4600219C1D114B218000
:102CB0001B681B78D12B0CD12488002C13D10E4D0E
:102CC000286804F0C8F922002100286804F0B1F94E
:102CD0000EE00C2BF0D00B0001222000FFF7FAFDD4
:102CE000002805D1E8E7012C02D1044803F0A0FA3E
:102CF00037BDC046E8060020DC0600205006002054
:102D000013B56B469C1D0023054A19002000FFF7F0
:102D1000E1FD002803D10023E05E05F023FF13BD91
:102D2000FF7F000013B56B469C1D00230122190094
:102D30002000FFF7CFFD002807D1012221780348AA
:102D400003F085FA2288024B1A7013BD500600204A
:102D5000D618002037B500216B4601AD9C1D082216
:102D60000B0028002180FFF7B5FD011E15D10B4A8D
:102D7000136818780A2807D0094B22881868298810
:102D800003681B6D984708E00133136020000B00B7
:102D90000822FFF79FFD0028EED037BDE80600208F
:102DA000DC06002013B56B469C1D0023042219008D
:102DB0002000FFF78FFD002805D1034B21881868FC
:102DC00003685B6D984713BDDC06002037B501AD85
:102DD0000021012320222800FFF77CFD011E19D1CC
:102DE0006B469C1D2000FFF71BF8002812D1002322
:102DF000E15E28884B1E9941074AC3B2D35CC9B231
:102E00002180DB0703D41B22044B1A7002E000B2BE
:102E100006F06CF837BDC0463CC40000C01E002060
:102E200037B501AD0021012320222800FFF752FD14
:102E3000011E17D16B469C1DFF2203002000FFF7E7
:102E400049FD00280ED12888074AC3B2D35C9B07EE
:102E500003D41B22054B1A7004E00023E15E00B28C
:102E600005F05EFF37BDC0463CC40000C01E002018
:102E7000F7B501AE0021012320223000FFF72AFD23
:102E8000011E2DD16B469C1D802203002000FFF700
:102E900021FD002824D13378124AD35CDB0703D408
:102EA0001B22114B1A701BE0104B114D1A781F009A
:102EB000002A02D0280002F0F9FE0120FEF716F9E0
:102EC00022883178280002F07DFD280002F0AEFE55
:102ED0000020FEF70BF9012322883B70054B1A8076
:102EE000F7BDC0463CC40000C01E0020EF1C0020FF
:102EF000D818002030250020F0B5162701242F4BCC
:102F000087B01B786F443C80002B03D11D222C4BD3
:102F10001A7051E00E202B4B00211A886844013AA8
:102F200012B22300FFF7D6FC011E45D12300FF2279
:102F300004A8FFF7CFFC011E3ED112266E442300E9
:102F4000FF223000FFF7C6FC011E35D105AD03009E
:102F5000FF222800FFF7BEFC011E2DD11A4A13687C
:102F600018780A2811D00120FEF7C0F80022BB5EB5
:102F7000002B14D06A46694628783378127CC989B8
:102F80000090124802F07CFE13E001331360380019
:102F90000B002200FFF79EFC00280DD1E3E76A46F4
:102FA000694628783378127CC9890090074802F076
:102FB00053FE0020FEF79AF807B0F0BDEF1C00208A
:102FC000C01E002030250020E8060020D818002070
:102FD00013B50B4B1B78002B03D11D22094B1A7024
:102FE0000CE06B469C1D0023032219002000FFF714
:102FF00071FC002802D12288034B1A8013BDC04601
:10300000EF1C0020C01E0020C8060020F0B50E27CF
:10301000012487B002ABFF182A4B3C801B78002BA1
:1030200003D11D22284B1A704AE00A26274B0021A3
:103030001A8802ABF618013A12B223003000FFF7EB
:1030400049FC011E3CD105AD0300214A2800FFF7D1
:1030500041FC011E34D11F4A136818780A281ED07B
:103060001F212B881C4A9C120020105E5D110C4011
:103070000D40194081408440854001200391FEF7B6
:1030800035F8E2B26C460023F95E1448EBB2277BB8
:1030900000290ED03188009702F0F2FD0DE00133D7
:1030A000136038000B002200FFF714FC002807D142
:1030B000D6E73188009702F0CFFD0020FEF716F822
:1030C00007B0F0BDEF1C0020C01E002030250020FE
:1030D000FF7F0000E8060020C8060020D818002066
:1030E000F0B501248BB006ABDC81654B1D221B784B
:1030F000002B4FD0634D06A82A880021013A12B256
:1031000023000630FFF7E6FB0095011E00D0B5E076
:1031100008AF23005C4A3800FFF7DCFB011E00D03B
:10312000ACE00A25009B00229A5E06ABED18280051
:103130002300FFF7CFFB031E00D09FE009AE210064
:1031400003223000FFF7C6FB011E00D096E04F4A75
:10315000136818780A280BD006AB06229A5E002165
:103160006B5ED318009A0021525E934211DC0BE093
:103170000E2001331360220006AC0B000019FFF78C
:10318000A9FB00287AD1E7E73888FDF71DF9041E6E
:1031900003D115223E4B1A7070E02B8830885843BB
:1031A0003B88C01880B2FDF70FF90028F1D000224B
:1031B000AB5E00200293374B0027DF5FBB1C0193FF
:1031C000FB1C0393344B5B68049306AB06229B5EA7
:1031D00005930023F65E1F239C46029B98423DDA2E
:1031E000022E13D14200A3185B78A25C1B02D318F5
:1031F000624665469BB2991211405A112A40B94065
:10320000BA402B4089B292B2BB4017E0032E06D1E0
:1032100033004343E15CE3185A789B780FE00725BD
:10322000235C019A591191409A102A40019D89B25C
:10323000AA4003252B40039D92B2AB409BB2009362
:103240000323059D45195D43049B01305D196B46C1
:103250001B7869702A70AB7080B2BEE70E2306AA95
:103260009B1800229B5E002B08D00120FDF73EFF3B
:10327000094802F0D7FB0020FDF738FF0BB0F0BD86
:10328000EF1C002030250020FF7F0000E806002012
:10329000C01E0020C8060020D8180020F0B5012468
:1032A000002185B002AB9E1CDC80444B03AD1B7833
:1032B00031802C808B4203D11D22414B1A707AE061
:1032C000404F3B681B78D12B04D13F4C61880129CA
:1032D00025D870E00C2BF8D00B0022003000FFF74F
:1032E000F9FA011E67D13B681A780A2AEDD1013339
:1032F0003B60220003002800FFF7ECFA011E5AD1C0
:103300003B681A780A2AE0D101333B60030002A827
:1033100022000630FFF7DEFA00284CD1D5E7002264
:10332000B35E4A1E002B1DD10023EE5E002E05D099
:10333000636859781F7801919E7801E03700019603
:10334000032563686A435919180006F042FC638834
:103350005D436368033D5D196B461B792F706B708D
:10336000AE7019E00023EF5E002F08D003234B431B
:103370006168033BCB181E785D789F7801E03D00C3
:103380003E0003235A436368D81C190006F021FC51
:1033900063681E705D709F7002AB063300229B5EF7
:1033A000002B08D00120FDF7A1FE200002F03AFB1F
:1033B0000020FDF79BFE05B0F0BDC046EF1C0020CD
:1033C000C01E0020E8060020D8180020F0B585B007
:1033D00001AF00210123FF223800FFF77BFA011E15
:1033E0003CD16B469E1DFF2201233000FFF772FA8D
:1033F000011E33D102AD0123FF222800FFF76AFA34
:10340000011E2BD10A200123FF226844FFF762FA34
:10341000011E23D10123FF2203A8FFF75BFA011E3F
:103420001CD10E246C440300FF222000FFF752FA47
:10343000002813D10023FA5E05235343084A0333BF
:103440001268D31832881A702A885A706A465289CC
:103450009A706A469289DA7022881A7105B0F0BDB6
:103460003803002073B50123002120226846FFF7AE
:1034700031FA011E32D16B469E1C202201233000FE
:10348000FFF728FA011E29D1012301AC1A00200000
:10349000FFF720FA011E21D16B469D1DFF2203007C
:1034A0002800FFF717FA002818D16B4618880C4A35
:1034B000C3B2D15C0123194204D03188CEB2925DEF
:1034C0001A4203D11B22074B1A7007E00022AB5EA1
:1034D00009B20022A25E00B205F030FD73BDC04605
:1034E0003CC40000C01E0020F0B585B003AD002133
:1034F000012320222800FFF7EDF9011E35D102AB90
:103500009E1D202201233000FFF7E4F900282CD172
:10351000174B1A681178CD2903D01422154B1A7055
:1035200023E00400911C196057780193B8420FD230
:10353000019B1A6811783039CBB2092BEDD80A23D8
:103540005C43019B013201300C191A6080B2EDE737
:10355000094F380005F0F2FD29783800327805F07F
:103560003DFF2100380005F0D4FD05B0F0BDC04698
:10357000E8060020C01E00204826002073B56B46D8
:103580009C1D002306002380FCF7A6FF011E1ED110
:1035900001AD2800FEF744FC011E18D10C4A136847
:1035A00018780A280AD0FCF7A9FF00280FD1217843
:1035B0000023E85E3200FDF72FF808E001331360C6
:1035C00020000B000422FFF785F90028EBD073BD23
:1035D000E806002073B56B469C1D0123060023807E
:1035E000FCF77AFF011E1ED101AD2800FEF718FC82
:1035F000011E18D10C4A136818780A280AD0FCF763
:103600007DFF00280FD121780023E85E3200FDF70E
:1036100039F808E00133136020000B001022FFF797
:1036200059F90028EBD073BDE806002037B5040037
:10363000FCF752FF002817D16B469D1D0023FF2287
:1036400019002800FFF746F900280DD1210028783D
:10365000FCF77EFE054A136819780A2902D1013366
:103660001360E9E7FCF74AFF37BDC046E8060020D3
:10367000F0B587B00190FCF72FFF011E71D13A4DD4
:103680002C682378D02B0CD1631C2B606378374ACD
:103690005B00985AFCF798FE2B680278441C0133B3
:1036A0001EE0282B14D1013404AB2C609C1D632236
:1036B00003002000FFF70EF9002852D10022A35E7C
:1036C0002B4A5B00985AFCF77FFE0278441C0DE001
:1036D000CD2B07D1631C2B60637802349AB2E318B8
:1036E0002B6003E01722234B1A703AE004AB9E1CB8
:1036F0006B4601251C4905AF1A810B6835803A805D
:1037000018780A2807D0FCF7F9FE002829D104AB65
:103710005D88013D15E001330B6012B22B002900DA
:103720003000FFF7D7F8031E1BD132880299AA1A7E
:10373000521812B229003800FFF7CCF80028E2D066
:103740000FE00022B35E05AA0021525E013BADB23C
:103750009B189D4205DA605D0199FCF7F9FD013582
:10376000EFE707B0F0BDC046E8060020F01C0020DF
:1037700010070020C01E0020F0B587B00290FCF7B3
:10378000ABFE011E00D0A4E0534C23681A78D02A67
:103790000DD15A1C22605B78504A5B00985AFCF7A6
:1037A00013FE236806780133471C236023E0282A90
:1037B00015D10133236004AB9C1D3B320300200074
:1037C000FFF788F8002800D083E00022A35E444A77
:1037D0005B00985AFCF7F8FD0678471C0BE0CD2AF1
:1037E00007D15A1C22605A789F1C96B2BA182260E0
:1037F00001E017224FE004AB9D1C6B460124364AC2
:103800009E8004AB9E8013682C8019780A290ED004
:10381000FCF774FE00285CD104AB5B8801250193A2
:1038200033B203936B46040004269E5F23E001330A
:1038300013602100230032B22800FFF74BF8031E6B
:1038400047D12A880199A21A521812B2210005A85C
:10385000FFF740F80028DBD03BE02AB296420FD0B9
:10386000F85CFCF73FFD002801D00134A4B201351B
:103870000134ADB2A4B2039A23B29A42EDDC00E067
:10388000019D2DB21422AE4205D1A4B2631C04AA3C
:10389000538000251AE0134B1A701AE005AB1B8801
:1038A0009D4216D03E1930780299FCF751FD3078D0
:1038B000FCF718FD002805D00134A4B2385D029948
:1038C000FCF746FD01350134ADB2A4B2039B9C4226
:1038D000E4DB07B0F0BDC046E8060020F01C002085
:1038E00010070020C01E0020F0B587B0FCF7F4FDE3
:1038F0000023011E994200D083E002A801337F22F9
:103900000630FEF7E7FF011E47D104AE01233E4A11
:103910003000FEF7DFFF011E3FD10A2502ABED1894
:10392000394A01232800FEF7D5FF011E35D105AF26
:103930000123354A3800FEF7CDFF011E2DD10E249C
:1039400002ABE418304A03002000FEF7C3FF002852
:1039500023D1FCF7D3FD00281FD13888FCF734FDB4
:1039600000903088FCF730FD009B0190002B11D0B7
:1039700000280FD038882388C01880B2FCF724FDB7
:10398000002807D030882B88C01880B2FCF71CFDB7
:10399000002804D115221D4B1A70002331E01C4E63
:1039A00002AB9979300004F019FE0022AB5E3500BD
:1039B000002B10D0019E0A2202A9019B5218F31A73
:1039C0000021525E9BB2934205DA3178280004F060
:1039D00038FD0136EFE70022A35E002B0DD0009EDC
:1039E000009B0021625EF31A9BB2934205DA3178A4
:1039F000280004F026FD0136F2E7280004F058FE06
:103A000083B218B207B0F0BDFF7F0000C01E0020D7
:103A100050250020F7B56B4601249D1D2C80FCF736
:103A20005BFD011E01D0002033E023002022684608
:103A3000FEF750FF011EF6D16B469E1C202223008C
:103A40003000FEF747FF011EEDD101AF0300220059
:103A50003800FEF73FFF011EE5D10F4A13681878C2
:103A60000A280CD0FCF74AFD0028DCD168462B78E8
:103A70003A7831780078FDF799FB80B209E001339C
:103A8000136028000B002200FEF724FF0028E9D075
:103A9000C9E700B2FEBDC046E8060020F7B56B4698
:103AA00001249D1D2C80FCF717FD011E01D0002074
:103AB00041E0230020226846FEF70CFF011EF6D1EC
:103AC0006B469E1C220023003000FEF703FF011E00
:103AD000EDD101AF0300194A3800FEF7FBFE031ECB
:103AE000E5D117490A6810780A2804D0FCF706FDCA
:103AF0000028DCD109E001320A6028000F4A2100C9
:103B0000FEF7E8FE0028F1D0D1E70023FA5EFA23A1
:103B10009B005A430023F15E6B460020185E05F0BF
:103B20003FF80023E95E05F011FD044B984201DDEA
:103B30000120404280B200B2FEBDC046FF7F0000BF
:103B4000E8060020F7B5FCF7C7FC0024A0422CD102
:103B50006B469F1C1F22012321003800FEF7BAFE8E
:103B6000A04201D0002420E001AE01231F22210049
:103B70003000FEF7AFFE0028F4D16B469D1D1F22DA
:103B8000230021002800FEF7A5FE0028EAD1FCF75B
:103B9000B5FC0028E6D10023FC5E0022B35EA4023F
:103BA0005B0128881C430443A4B220B2FEBDF7B5D4
:103BB000FCF792FC0024A0422CD16B469F1C0722EC
:103BC000012321003800FEF785FEA04201D0002429
:103BD00020E001AE0123072221003000FEF77AFE2B
:103BE0000028F4D16B469D1D0322230021002800EC
:103BF000FEF770FE0028EAD1FCF780FC0028E6D131
:103C00000023FC5E0022B35E64019B0028881C43F5
:103C10000443A4B220B2FEBDF0B58DB001232A4A00
:103C20002A496846FEF756FE00284AD16B469F1C7B
:103C300001230C2219003800FEF74CFE002840D169
:103C4000012301AE19001F223000FEF743FE011EC2
:103C500037D16B469D1D172201232800FEF73AFE3F
:103C6000011E2ED102AC01233B222000FEF732FEC2
:103C7000011E26D103000A203D226844FEF72AFED9
:103C800000281ED16B4600229B5E114A0B909B18A8
:103C900008930022BB5E03A8013B07930022B35E9A
:103CA00006930022AB5E05930022A35E04936B464D
:103CB0000A229B5E039306F075F80100054802F0A6
:103CC000B1F80DB0F0BDC046F4070000B207000027
:103CD00094F8FFFFCC060020F0B501242226002333
:103CE0008BB008AD6E44210006A82C803380FEF70F
:103CF00097F8002800D078E01A236B4421001800C0
:103D0000FEF78EF8002870D126276F442100380076
:103D1000FEF786F8002868D1210009A8FEF780F890
:103D2000002862D1210007A8FEF77AF8011E5CD1B5
:103D30001E206844FEF774F8011E56D12C4C2368EF
:103D40001A780A2A06D1013328002360FEF768F8A2
:103D500000284AD123681A780A2A08D03888FCF744
:103D600033FB031E0ED11522224B1A703DE00133A6
:103D700023600023012219003000FEF7ABFD00286C
:103D800033D1EBE709AA0020115E002901DA0021F6
:103D9000118007AA0020115E002901DA012111809B
:103DA0001E226A440020115E002901DA01211180DF
:103DB00000216A5E002A01DA01222A806A461A215D
:103DC000525E69461820095E307804902888039076
:103DD0001E2068440088029007A80088019009A866
:103DE00000880090044802F00CFC0BB0F0BDC04607
:103DF000E8060020C01E00205006002037B5002134
:103E00006B4601AD9C1D0F4A0B0028002180FEF778
:103E100061FD011E14D10C4A136818780A2806D0D7
:103E20000A4B22882988187802F02AF808E0013322
:103E3000136020000B00034AFEF74CFD0028EFD072
:103E400037BDC046FF7F0000E80600203C0300208D
:103E500013B56B469C1D0023202219002000FEF79D
:103E600039FD00280CD12378064AD35CDB0702D445
:103E70001B22054B03E001F0FDFF2288034B1A7063
:103E800013BDC0463CC40000C01E00203C030020FF
:103E900013B56B46FA229C1D5200002320212000FE
:103EA000FEF718FD002802D12288014B1A8013BDAD
:103EB00004000020F7B5FCF70FFB0024A0423DD121
:103EC0006B469D1C1E4A01231E492800FEF702FD79
:103ED000A04230D101AF0123632221003800FEF758
:103EE000F9FCA04227D16B469E1D632223002100CE
:103EF0003000FEF7EFFCA0421DD1FCF7FFFAA04214
:103F000019D10023FA5E0023F15E5318642B03DD00
:103F100014220D4B1A7011E00C4C0023ED5E81420F
:103F20000BDD13185B001B5FAB4201DC84B205E0C4
:103F3000013080B2F3E7002400E0054C20B2FEBD62
:103F4000FF7F00000080FFFFC01E00201007002040
:103F5000FFFF00000123F0B585B003AE0090338071
:103F6000FCF7BAFA011E01D000217DE0404D2C681B
:103F70002378CD2B06D1631C2B60637802349FB26B
:103F8000E3180DE0D02B0DD1631C2B606378394A08
:103F90005B00985AFCF718FA2B680778441C013329
:103FA0002B601AE0282B14D1013402AB2C609C1D2D
:103FB000632203002000FEF78DFC0028D4D10022EC
:103FC000A35E2D4A5B00985AFCF7FEF90778441C63
:103FD00003E01722294B1A7046E02B681A780A2A48
:103FE0000AD0009B002B37D000250022B35E2E00A4
:103FF00000933BB2019319E001332B603AB20023E6
:1040000001213000FEF766FC0028EAD0ACE70099F9
:104010005A1C91420FD0E05DFCF764F9002801D0F2
:104020000135ADB201360135B6B2ADB2019A2FB24B
:1040300033B2BA42EBDC009A013300259A4210D128
:10404000E05D85B2FCF74EF900280AD0E4196378E8
:104050002D02ED18ADB204E00023F05E2418013CFF
:104060002578FCF74BFAA9B208B205B0F0BDC046FE
:10407000E8060020F01C002010070020C01E0020D1
:10408000F7B50700FCF728FA011E4FD1294D2B6820
:104090001A78D02A0DD15A1C2A605B78264A5B0018
:1040A000985AFCF791F92B6806780133441C2B6071
:1040B00023E0282A14D101332B606B469C1D3B3230
:1040C00003002000FEF706FC00282FD10022A35E8B
:1040D0001A4A5B00985AFCF777F90678441C0CE002
:1040E000CD2A07D15A1C2A605A789C1C96B2A21875
:1040F0002A6002E01722124B1A70FCF7FFF9350014
:10410000002F14D000273D0036B23BB29E420EDD98
:104110002078FCF7E7F8002802D001370134BFB25D
:1041200001350137ADB20134BFB2EEE7002528B248
:10413000FEBDC046E8060020F01C0020100700204D
:10414000C01E0020F0B585B002AB9E1D2023338039
:10415000FCF7C2F90023011E994200D07EE003ADB6
:104160000300404A2800FEF7B5FB031E34D13E4948
:104170000A6810780A2807D0FCF7C0F93B4B3B4C83
:104180001B78002B0AD027E001320A603000FE22A3
:104190000121FEF79FFB0028EED01DE02888FCF7E8
:1041A00013F900281AD028883388C01880B2FCF789
:1041B0000BF9002812D02888FCF706F92C4F0400D0
:1041C000386803681B6F984700280BD11923274ACA
:1041D00020701370FCF7D8F8264B3FE015232370AE
:1041E00000233BE03B685B691800019306F054FB39
:1041F00087B2002F22D032883B1C11B23FB2661C1E
:104200008F4200DD131C1FB23A000199300006F006
:104210007FFB0023E7197B703000FCF749F9300081
:1042200006F03AFB87B23BB20600002B06DDE3182E
:1042300018780193FCF756F8002809D10020277060
:104240003FB2E41960702C88FCF79EF8230005E06B
:104250000022019B013E1A70B7B2EFE718B205B019
:10426000F0BDC046FF7F0000E8060020C01E002011
:10427000DC060020FFFF0000F0B50E25244C85B0C1
:1042800023686D445B8903AE2B80FE22002310213E
:104290003000FEF71FFB031E38D11E48026811785C
:1042A0000A291FD0206802F0D6FE002220681100E3
:1042B00002F0BFFE206803681B6E9847164B2A88E1
:1042C0001B68318800932068FE2302F0D6FE134C51
:1042D0002768002F0FD0380001F000FD380005F0EE
:1042E000D5F808E0013202601E222800FEF7F2FA3B
:1042F00000280BD1D6E7242005F0C4F807000023DE
:10430000EA5E0023F15E01F0DBFC276005B0F0BD42
:10431000DC060020E8060020E4060020242000201F
:104320000123F0B50A258FB05B4204AF3B8002AB9E
:10433000ED1800234E4C2B8022680126511E09786F
:104340009F2901D11E003B80137802AA901DD12B1A
:1043500002D10023038008E000230F221900FEF79A
:10436000B9FA002801D000257FE0002E2DD0256865
:104370002B780A2B26D16B1C23606B78CD2B18D1A0
:10438000AB1C2360AA780193131C202A00D9202398
:10439000CD2005A9DAB208704B70BF3802ABC01847
:1043A000E91C06F0B5FAAB78019A0133D318236003
:1043B0001DE000232F4A19003800FEF78BFA002871
:1043C00015D0D0E700233B8011E0236831001A7834
:1043D0000A2A0DD10133236028003300093AFEF781
:1043E00079FA051EBFD11722234B1A703DE0012137
:1043F00002ABD888FCF73EFE051EB4D13F88002FE3
:1044000003D11E4B1A681E4B18E03FB27B1C0BD128
:1044100005A8FCF7B7FB002803D11023164A137038
:1044200023E0174B18600AE03800FCF799FB019075
:10443000FCF788FB8742F0D1114B019A1A600E4BB2
:1044400001251B78002B10D1002E09D10B4B2268BF
:104450001B689A4209D3802149015B189A4204D211
:104460000125074B1B680333236028000FB0F0BD04
:10447000E8060020FF7F0000C01E0020400300204F
:104480002820002013B56B469C1D2022012300210B
:104490002000FEF71FFA002812D1FDF75FFC094A41
:1044A00001001378002B0BD12388074CD8B2205C75
:1044B000C00702D41B23137002E018B204F0F8FC0A
:1044C00013BDC046C01E00203CC4000070B50500EE
:1044D0000C00FDF743FC094B28801A78002A0AD10A
:1044E000002C08D006490A68501C086012780A2A75
:1044F00001D017221A70187870BDC046C01E002067
:10450000E806002037B50400FBF7E6FF00281ED1BF
:104510006B469D1D00212800FFF7D8FF002816D10B
:104520002888FF2801D8C0B204E0000A2100FBF768
:104530000FFF28782100FBF70BFF054A1368197855
:104540000A2902D101331360E2E7FBF7D7FF37BD39
:10455000E80600200023F0B587B003AC05AF0121C9
:1045600020003B80FDF75CFC002800D089E004AE11
:1045700001213000FDF754FC002800D081E00E2519
:104580006D4401212800FDF74BFC002879D1123041
:1045900001216844FDF744FC011E72D116236B44CF
:1045A0001800FFF793FF011E6BD1374A1368187884
:1045B0000A2808D10133136038000B000222FEF7ED
:1045C00089F900285DD1314B18686B46DB8A03847A
:1045D000FF2B07D90022A35E5B1023800022AB5E75
:1045E0005B102B803F88002F0ED10022AB5E12257E
:1045F0000021725E6D440021615E0468019700260F
:10460000AD5F0095246C3BE03FB2012F1BD100222F
:10461000A15E0022AB5E05685B1ADA179B18534057
:104620000024325F0024019412346C440026A45FFD
:104630000133A41AE617A4197440013424B200947B
:104640001BB26C6C1CE0022F1BD10022A15E002269
:10465000AB5E05685B1ADA179B1853400024325F83
:104660000024019412346C440026A45F0133A41A80
:10467000E617A4197440013424B20094AC6B1BB249
:10468000A04707B0F0BDC046E80600202420002067
:1046900073B5FBF721FF05000020854215D16B465D
:1046A0009E1D29003000FFF711FF04002800002C98
:1046B0000BD1308803F0FCFC002803DB044BC00066
:1046C000C01884B2FBF71AFFA0B200B276BDC04694
:1046D000A038000070B505000C00FDF73FFB094B4A
:1046E00028601A78002A0AD1002C08D006490A68E6
:1046F000501C086012780A2A01D017221A70187804
:1047000070BDC046C01E0020E80600200223F0B5A0
:1047100085B002AA13800023971C04003B80FBF79E
:10472000DBFE011E5FD103A8FFF7D4FF011E5AD1A3
:104730002E4D2B681A780A2A09D0FBF7DFFE0028D5
:1047400051D102AB00229A5E01250A2316E0013303
:104750002B600422030002A8FEF7BCF8031E42D11E
:104760002A6811780A29E8D101322A601039062214
:104770003800FEF7AFF8002835D1DEE7904203DAC3
:1047800001305D4380B2F9E7039E2900300004F058
:1047900067FF0190002805D1002E03DA21002D20AB
:1047A000FBF7D6FD0023F95E6B4622000420185E5D
:1047B000FBF7EAFE02AB00229B5E002B13D0210028
:1047C0002E20FBF7C5FD02AB290030001F8805F045
:1047D0002DF8CB17C8187F423FB2584000B22200D4
:1047E0003900FBF7D1FE05B0F0BDC046E806002059
:1047F00010B586B0FBF770FE002398423AD1012134
:1048000001A8FFF767FF002821D1012102A8FFF7C7
:1048100061FF00281BD1012103A8FFF75BFF0028DF
:1048200015D1012104A8FFF755FF011E0FD105A8DE
:10483000FFF750FF00280AD1FBF760FE002806D1E1
:104840000299039A914204DB14220C4B1A70002344
:1048500010E0049C059B9C42F6DA01988142F3DC4F
:104860008242F1DB1B1B401A5843511A04F0F8FE38
:104870000419A3B218B206B010BDC046C01E002075
:10488000F7B5FDF76BFA164B04001A78002A26D10B
:104890001432002805DB134D2A6812780A2A15D035
:1048A00017221A701BE02B68002101332B606B4626
:1048B0009F1D3800FDF7B4FA002810D13B88013461
:1048C00033702B68A4B21B780A2B08D1A4B2200045
:1048D000FBF77AFD061EE6D11523014A1370F7BDDA
:1048E000C01E0020E80600200023F7B50500019156
:1048F0000093514C236827001A780C2A00D197E0C6
:10490000D12A00D194E0362A47D010D81C2A2ED0C4
:1049100003D8092A00D189E051E0342A31D0352A60
:104920004DD1013328002360FEF754FE57E0C22A20
:104930003FD009D8372A36D0382A40D10133280051
:104940002360FEF795FE4AE0C42A20D0CD2A36D156
:104950009A1C22605E78002E41D03B6829005A1CC8
:104960003A601878013EFBF7F3FCF6B2F3E7013347
:104970002360FDF7F3F9314B00901B78002B2ED00C
:1049800059E0013328002360FEF750FE27E0013391
:1049900028002360FFF7B6FD21E0013328002360E3
:1049A000FEF7ECFD1BE0013328002360FFF7AEFEAD
:1049B00015E0013328002360FEF7DEFE0FE0FDF76F
:1049C000CDF91E4B1B78002B03D00020FBF7DCFC3D
:1049D00031E06B462A000021595EFBF7D5FD174BED
:1049E0001A781900002A21D1019B002B03D02368DB
:1049F0001B780A2B1FD022681378092B16D01800B9
:104A00000A3801280AD8531C236053780C2B12D083
:104A1000D12B10D0092B00D06BE70CE00C2B00D170
:104A200067E7D12B00D164E717230B702800CDE78F
:104A3000019B002BFAD0F7BDE8060020C01E002025
:104A4000F0B5A54B85B01B880193A44B1D78A44BF2
:104A50001B880293FBF7AAFC01210320FFF744FF08
:104A6000A04BA14C1B78002B00D033E12378002B06
:104A700000D12FE19D4B18680368DB6C9847002834
:104A80000AD09B4B032801D01B2804D11921954A39
:104A900011700022E1E0187023781A00613A192A97
:104AA00001D8203B23702378202B00D1F7E0262B60
:104AB00000D1F4E01A00413A062A6CD88D4A082148
:104AC000D3186278413B10001B788843DFB223285B
:104AD00008D17AB201330A2A0DDD0095072D14D8CA
:104AE0006F1C0FE02D2A02D0621C00950EE07AB2F6
:104AF000002A03DD013BDFB2009506E00095012DA1
:104B000003D96F1EFBB20B270093A21C14000026D2
:104B1000237819003039092906D80A214E43303E3E
:104B2000F3189EB20134F3E7A24212D0082E11D03E
:104B300007D8002E00D18EE0022E0BD9042E09D00A
:104B400089E0202E06D0402E04D0102E00D082E026
:104B500000E0019E002203922E2B02D12D3B013456
:104B600003930299644804F07BFD310004F078FD62
:104B7000039B002B01D04308C018009B7FB2013B70
:104B8000FF00FF185D4B7F00F95A5D4B82B2187829
:104B900001F076F96AE74C2B25D10134210000237E
:104BA000227810003038092806D80A204343303BC9
:104BB0009B189BB20134F3E78C4200D156E7082BD7
:104BC00001D1019352E7082B06D8002B43D0022BCA
:104BD000F7D9042BF5D03EE0202BF2D0402BF0D0BB
:104BE000102B38D1EDE74F2B12D10025013423785B
:104BF0001A00303A092A06D80A225543303DED18EA
:104C0000ADB20134F3E76B1E072B24D8EDB22DE7CC
:104C1000522B38D101342200002623781900303974
:104C2000092906D80A214E43303EF3189EB20134BA
:104C3000F3E7944213D0082E12D006D8002E0AD0E3
:104C4000022E0DD9042E0BD005E0202E08D0402EC8
:104C500006D0102E04D01E22224B1A703AE0019E7C
:104C600000272E2B01D1013401370299224804F08C
:104C7000F7FC310004F0F4FC002F01D04308C01809
:104C800003F070FFF2E63C2B03D1072D07D8013566
:104C900004E03E2B05D1012D01D9013DEDB20134D7
:104CA000E4E6542BD7D101342100002322781000F0
:104CB0003038092805D80A204343303BD318013443
:104CC000F4E78C42C7D01A00203ADF2AC3D89BB23F
:104CD0000293CBE605B0F0BD44030020060000209F
:104CE00004000020C01E002050050020DC0600202B
:104CF000EE1C00209AC4000080A903005EC30000DF
:104D00003C03002073B501AD01230E4A0E49280073
:104D1000FDF7E0FD002814D16B469E1D094A0123D2
:104D200009493000FDF7D6FD041E0AD10023E95ED3
:104D300006480023F25E01F05FF921000220FFF730
:104D4000D3FD73BDFF7F00000080FFFF50060020F1
:104D500073B501AD0021012304222800FDF7BAFD3F
:104D6000011E11D16B469E1D084A01233000FDF73C
:104D7000B1FD041E08D129780548328801F052FAA5
:104D800021000520FFF7B0FD73BDC0468813000069
:104D90005006002070B5104D28680378CD2B07D140
:104DA000FBF7F0FE041E11D110220C4B1A7011E01B
:104DB000FCF7D4FF094B06001B78002B0AD1FBF748
:104DC000CFFE0400FBF7BEFE8642EDD1044B1C6013
:104DD00003342C6070BDC046E8060020C01E0020D1
:104DE00028200020F8B5184D28680378CD2B05D170
:104DF000FBF7C8FE041E0FD1102212E0FCF7AEFF35
:104E0000124B06001B78002B1DD1FBF7A9FE0400F6
:104E1000FBF798FE8642EFD10D480378082B03D9A3
:104E200006220A4B1A700EE00A4A0B4917689E00C8
:104E300077509E1C01330670DBB228689B0014601B
:104E4000033458502C60F8BDE8060020C01E002036
:104E5000E006002028200020981E0020F8B52B4CEA
:104E60002B4D23685A1C22601A78D02A01D00C23BB
:104E70002EE05F78FDF79CFC2B78002B44D1236853
:104E80001A78042A0AD101332360FCF767FF2368EC
:104E900006001A780120052A10D101E00D2317E041
:104EA00001332360FCF75AFF002805DA194B1B1A5F
:104EB000B34208DD02230BE0002804D0164B02B2F7
:104EC0009B1AB342F6DB154B1B78142B02D908232F
:104ED0002B7019E01249134A09689D00A9502168F6
:104EE0005D1C9C1CEDB2E4B2A400AD00A950A6501C
:104EF000DC1CE4B200B2A400A050581D04330749E2
:104F0000DBB29B0008709F50F8BDC046E806002049
:104F1000C01E00200180FFFFFF7F0000D718002087
:104F200028200020C01F002010B5FCF717FF0C4BF5
:104F30001A78002A02D00F221A7010E000280ED131
:104F4000084C2068FBF754FE2200002806D11368A5
:104F50001978D12903D001331360F8E7206010BD20
:104F6000C01E0020E8060020F8B5002317278A4C51
:104F700023708A4D2B681B78D12B00D1D8E1884E45
:104F800030680368DB6C984700280AD0854B0328FB
:104F900001D01B2804D11922227000221A70C7E107
:104FA00018702B685A1C2A601878D02800D9B1E1F3
:104FB00004F0C2FAD400D700DA00DD00B001B0017D
:104FC000E000E300E900E600B001B001B901E6004D
:104FD000B001B001B001B001B001B001B001B00149
:104FE000B001B001B001B001B001B001B001B00139
:104FF000B001B001B001B001B001B001B001B00129
:10500000B001B0010601EF001D010C010C011101FE
:10501000EC00FD000001FA002C013601B001B001E6
:10502000B001B001B001B001B001B001B001B001F8
:10503000B001B001B001B001B001B001B001B001E8
:10504000B001B001B001B0018301300133013C0176
:1050500039013F01450142014801B5011401170121
:105060001A01B001B001B001B001B001B001B0014E
:10507000B001B001B001B001B001B001B001B001A8
:10508000B001B001B001B001B001B001B001B00198
:10509000B001B001B001B001B001B001B001B00188
:1050A000B001B001B001B001B001B001B001B00178
:1050B000B001B001B001B001B001B001B001B00168
:1050C000B001B001B001B001B001B001B001B00158
:1050D000B001B001B001B001B001B001B001B00148
:1050E0004B014E01510154015701290123012601B1
:1050F00020017A017D015F017601E60009015A0174
:105100007A0170016D0173015C01800186018901E2
:105110008C018F0195019B019E019201A1019801D3
:10512000B001B001A401A701B001B001B001B0010C
:10513000B001B001B001B001B001B001B001B001E7
:10514000B001AA01AD01AD01AD01B001B001D100C6
:10515000B001B0010301FCF7B9F9E4E0FFF71AFE72
:10516000E1E0FFF73FFEDEE0FCF7BAF9DBE0FFF736
:1051700075FED8E0FCF7D6F9D5E0FFF7D5FED2E012
:10518000FCF722FACFE0FCF72BFACCE0FDF78AFD22
:10519000C9E0FDF7B5FDC6E0C01E0020E80600200E
:1051A000DC060020EE1C0020FCF7C8FFBBE0FDF78A
:1051B000D1FDB8E0FDF7F6FDB5E0FDF7F9FAB2E094
:1051C000FDF728FBAFE0FDF76BFBACE0002108002A
:1051D000FFF78AFBA7E0FDF72BFAA4E0FDF7F6FD49
:1051E000A1E0FDF71DFE9EE0FEF73CF99BE0FFF716
:1051F00047FB98E0FEF710FD95E0FCF743FE92E0D8
:10520000FCF796FE8FE0FBF7F5FF8CE0306801F0CD
:1052100061FB88E0FDF716F885E0FDF73BF882E0DA
:10522000FFF798F97FE0FDF777F87CE0FDF7BAF833
:1052300079E0FEF751FD76E0FDF704F973E0FFF742
:1052400061FD70E0FFF784FD6DE0FEF7D7FD6AE0D9
:1052500000F010FE67E0FEF7FBFD64E0FFF7F0FBF7
:1052600061E0FEF715FE5EE002201AE0FCF7DEF8D2
:1052700059E03068002103685B6B98470020FDF718
:105280004DFB3068012103685B6B98474BE0FDF7ED
:10529000CDFB48E0FDF792FC45E0FDF75FFC42E006
:1052A0000020FBF71BFE3EE0FFF73AF83BE0FDF77E
:1052B00035FC38E0FEF7E0FF35E0FDF733FD32E086
:1052C000FCF784FE2FE0FDF7D3FD2CE0FBF722FF77
:1052D00029E0FBF73DFF26E0FDF70EFE23E0FDF79A
:1052E00095FE20E0FDF774FE1DE0FBF745FF1AE098
:1052F000FDF7D4FF17E0FDF7F3FE14E0FAF7BCFF6B
:1053000011E0FEF763F80EE0FEF7EEF80BE0132372
:10531000237012E02B601B785C3B202B02D8FFF738
:10532000B1F800E027702378002B00D121E604E0DB
:10533000034B18680378C01800E00020F8BDC04691
:105340002820002000230D4A10B513700C4A0D4C84
:10535000137098420FD10C4B1B68236023681A7896
:10536000002A0AD0094A03331360FFF7FDFD084BFA
:105370001B78002B01D12060F0E710BDE006002073
:10538000D71800202820002040030020E806002035
:10539000C01E002070B52D4A2D49531C0B60137898
:1053A000A62B1BD00AD82E2B40D002D80D2B4AD0CA
:1053B0003FE09F2B0FD0A32B45D03AE0C92B22D042
:1053C00004D8C82B35D1FBF7B9FD2AE0CA2B2AD067
:1053D000CB2B38D02DE0FEF7A3FF22E0FEF7A0FF95
:1053E0000124002830D01B4D0021286803685B6B26
:1053F0009847194B1868FFF7A5FF28682100036834
:105400005B6B984720E0134C0021206803685B6BBE
:1054100098470020FFF796FF2068012103685B6B27
:105420009847012410E0FCF727FEFAE7FDF73AFC65
:1054300009E0084C0A602068002103685B6B98470C
:10544000FFF792FDE8E70024200070BDC11E002098
:10545000E8060020DC06002028200020F7B5002008
:10546000FBF73CFDF020000104F096FB5B4D0127AB
:105470002860FAF701FF02F047FE594B002618603A
:10548000584800F005FE584B584C1F7058482B6880
:105490002060182250210093FE2301F0EEFD24200D
:1054A00003F0F0FF05001822502100F009FC514BD9
:1054B00051481D6000F090FC504803F001F8FDF7E2
:1054C000F1FB2068002103685B6B984700214C4882
:1054D000FBF73CF80020FAF757FF00214948FBF79B
:1054E00035F800214848FBF731F80020FAF74CFF67
:1054F000464D30002E70FBF7DBFE20683900036854
:105500005B6B98473100052003F0D2FC31000B2083
:1055100003F0CEFC02223E49052003F06FFA3D481D
:105520000222310003F082F90B2003F0F5FCB042B7
:1055300004D10100FBF79EFD061E42D02068012128
:1055400003685B6B9847206803689B6E9847002848
:10555000F9D023685E693078002802D1FAF714FF89
:10556000F1E7300005F098F9FD2805D91A2300204D
:105570002B70FAF709FF1BE0274F3100380005F0C8
:1055800083F93800FAF794FF0020FAF7FDFEFBF7E5
:105590005BF92B78002B01D001200AE01F4B1A7811
:1055A000CC2A09D11870FBF75FFB2B78002BCAD0EF
:1055B0000020FBF77DFEC6E7FFF7ECFE0028C2D017
:1055C000F6E72068310003685B6B98473000FFF70F
:1055D000B9FE3000FAF7D8FE2E70AFE7E4060020DF
:1055E000E018002050060020D6180020DC0600201D
:1055F000AC06002024200020CC06002050250020EE
:10560000F3C4000009C500001BC50000C01E002037
:1056100011020000F0060020D8170020C11E002053
:1056200010B5FFF71BFF10BD8023A321012202202C
:10563000DB05C90010B5DA605850E1219A604902D3
:10564000044803F066FD002003F0DCFA03F0FEFEE0
:1056500010BDC04648260020034B10B51B68002B28
:1056600000D0984710BDC046E4260020034B10B57B
:105670001B68181E00D0984710BDC046E0260020C9
:1056800010B504002078002803D0FFF7E5FF0134AF
:10569000F8E710BD70B5041E092C16D9632809D986
:1056A000642103F053FF05003030FFF7D5FF64207D
:1056B0006843241A0A21200003F048FF0500303017
:1056C000FFF7CAFF0A206843241A20003030FFF792
:1056D000C3FF70BD70B50D4C06000D1E236807D0CA
:1056E000002B0BD10A48FFF7CBFF0123236005E015
:1056F000002B03D00748FFF7C3FF25603000FFF7FA
:10570000ABFF054A13680133136070BD40250020CC
:1057100014C9000019C900005003002070B505002D
:105720000C00884203D10A48FFF7AAFF0EE009489F
:10573000FFF7A6FF681CFFF7ADFF3B20FFF78CFFCC
:10574000601CFFF7A7FF7220FFF786FF70BDC04601
:105750001EC9000022C9000070B505000C000848F1
:10576000FFF78EFF681CFFF795FF3B20FFF774FFE4
:10577000601CFFF78FFF4820FFF76EFF70BDC0462B
:1057800022C90000014B18607047C046E026002087
:10579000014B18607047C046E426002010B5002178
:1057A000FFF798FF10BD000070B51F4E040033686E
:1057B000834237D025051D482D0FFFF761FF6B1E73
:1057C000072B06D81A48FFF75BFF28002F30FFF79A
:1057D00043FF25042D0F6B1E072B06D81548FFF736
:1057E0004FFF28002F30FFF737FFA30702D51248DD
:1057F000FFF746FFE30702D50E48FFF741FF6307B7
:1058000002D50E48FFF73CFF230702D50C48FFF7EF
:1058100037FFE30602D50B48FFF732FF6D20FFF795
:105820001BFF346070BDC0464803002025C900003E
:1058300029C900002CC900002FC9000032C900008E
:1058400035C9000038C90000064B10B51C68064A6F
:10585000844202D114688C4203D018601160FFF7B3
:105860007BFF10BD540300205003002010B50B4BEC
:105870000B4C19682068FFF751FF00212068FFF7E3
:105880006BFF0848FFF7FCFE00210800FFF746FF0A
:10589000054B20681968FFF75FFF10BD4C0300201F
:1058A000540300203FC900005003002010B50C4BEA
:1058B0000C4C18682168FFF731FF00212068FFF7C2
:1058C0004BFF0948FFF7DCFE00210800FFF726FF29
:1058D000064B1968064B1868FFF73EFF10BDC0461F
:1058E0003C2500204C03002043C900005003002049
:1058F0005403002010B50248FFF7C2FE10BDC04699
:1059000046C9000000B5FF2000BD000010B50248E8
:10591000FFF7B6FE10BDC04653C90000024B186029
:10592000024B19607047C0463C2500204C03002004
:1059300010B504000448FFF7A3FE6C20002C00D033
:105940006820FFF789FE10BD5BC9000073B5FFF743
:105950008DFE08237F282FD0031E1B2B2CD1FFF791
:1059600085FEFF28FBD01B23984225D05B2801D061
:10597000FF2321E00024FFF779FEFF28FBD003007E
:1059800001AD413B6055621C192B04D97E2802D021
:10599000141E032CEFD10024084EAC54A3009959D7
:1059A000280004F067FF002802D1054B1B5D03E0CF
:1059B0000134172CF2D1DBE7180076BDB0C8000027
:1059C00068C90000F8B5032504002800134B8900BE
:1059D000CF585043160004F0DFF82770FFB23B00A9
:1059E000A022C133FF33D2059B00606066809D50CA
:1059F0000123BB400A49535000231900B3420BDA7C
:105A00002A005A43606801338154606880184170ED
:105A1000606882189170F1E7F8BDC046601B010014
:105A20000C0500000123F0B502787E499340A022C6
:105A3000D205060085B0535032200138C046C0461A
:105A4000C046C046C046C046C046C046C046C04626
:105A5000C046C046F1D17088029000200190A1207C
:105A6000C000029C019DA54200DBDDE00324019DF6
:105A700077686C433C19E71C03974027BC467F2599
:105A800027781350AF430AD0C046C046C046C04630
:105A9000C046C046C046C046C046535009E0C04656
:105AA0005350C046C046C046C046C046C046C04629
:105AB000C0466546277813502F420AD0C046C046DC
:105AC000C046C046C046C046C046C046C046535009
:105AD00009E0C0465350C046C046C046C046C04616
